{
  "transactions": [
    {
      "hash": "0xa0e72c9547730bc925728a252996fe9f54d9b865a4d3f0bee601ab9d61587443",
      "transactionType": "CALL",
      "contractName": null,
      "contractAddress": "0x1a7e4e63778b4f12a199c062f3efdd288afcbce8",
      "function": "approve(address,uint256)",
      "arguments": [
        "0xBBBBBbbBBb9cC5e90e3b3Af64bdAF62C37EEFFCb",
        "115792089237316195423570985008687907853269984665640564039457584007913129639935"
      ],
      "transaction": {
        "from": "0xa9ddd91249dfdd450e81e1c56ab60e1a62651701",
        "to": "0x1a7e4e63778b4f12a199c062f3efdd288afcbce8",
        "gas": "0xb6e8",
        "value": "0x0",
        "input": "0x095ea7b3000000000000000000000000bbbbbbbbbb9cc5e90e3b3af64bdaf62c37eeffcbffffffffffffffffffffffffffffffffffffffffffffffffffffffffffffffff",
        "nonce": "0x20d",
        "chainId": "0x1"
      },
      "additionalContracts": [],
      "isFixedGasLimit": false
    },
    {
      "hash": "0xe94532869716a7047420c07a1e2c1338ec701431b2ff9055061f420e417dfbd1",
      "transactionType": "CALL",
      "contractName": null,
      "contractAddress": "0x2260fac5e5542a773aa44fbcfedf7c193bc2c599",
      "function": "approve(address,uint256)",
      "arguments": [
        "0xBBBBBbbBBb9cC5e90e3b3Af64bdAF62C37EEFFCb",
        "10000"
      ],
      "transaction": {
        "from": "0xa9ddd91249dfdd450e81e1c56ab60e1a62651701",
        "to": "0x2260fac5e5542a773aa44fbcfedf7c193bc2c599",
        "gas": "0xa861",
        "value": "0x0",
        "input": "0x095ea7b3000000000000000000000000bbbbbbbbbb9cc5e90e3b3af64bdaf62c37eeffcb0000000000000000000000000000000000000000000000000000000000002710",
        "nonce": "0x20e",
        "chainId": "0x1"
      },
      "additionalContracts": [],
      "isFixedGasLimit": false
    },
    {
      "hash": "0xdb3572d4553b420d864d0eb85dadf921b3fe9de0453c72cf52f0c0c2c61ae325",
      "transactionType": "CALL",
      "contractName": null,
      "contractAddress": "0xbbbbbbbbbb9cc5e90e3b3af64bdaf62c37eeffcb",
      "function": "supplyCollateral((address,address,address,address,uint256),uint256,address,bytes)",
      "arguments": [
        "(0x1a7e4e63778B4f12a199C062f3eFdD288afCBce8, 0x2260FAC5E5542a773Aa44fBCfeDf7C193bc2C599, 0xD122315BD4E89386045F51f6e65A6EeDb0dD31b9, 0x870aC11D48B15DB9a138Cf899d20F13F79Ba00BC, 860000000000000000)",
        "10000",
        "0xA9DdD91249DFdd450E81E1c56Ab60E1A62651701",
        "0x"
      ],
      "transaction": {
        "from": "0xa9ddd91249dfdd450e81e1c56ab60e1a62651701",
        "to": "0xbbbbbbbbbb9cc5e90e3b3af64bdaf62c37eeffcb",
        "gas": "0x19de4",
        "value": "0x0",
        "input": "0x238d65790000000000000000000000001a7e4e63778b4f12a199c062f3efdd288afcbce80000000000000000000000002260fac5e5542a773aa44fbcfedf7c193bc2c599000000000000000000000000d122315bd4e89386045f51f6e65a6eedb0dd31b9000000000000000000000000870ac11d48b15db9a138cf899d20f13f79ba00bc0000000000000000000000000000000000000000000000000bef55718ad600000000000000000000000000000000000000000000000000000000000000002710000000000000000000000000a9ddd91249dfdd450e81e1c56ab60e1a6265170100000000000000000000000000000000000000000000000000000000000001000000000000000000000000000000000000000000000000000000000000000000",
        "nonce": "0x20f",
        "chainId": "0x1"
      },
      "additionalContracts": [],
      "isFixedGasLimit": false
    },
    {
      "hash": "0xa93fdaf5fe726c04d01ee6f9b24ad676af74bd4d19f81ae8a8078c6e9f3925b3",
      "transactionType": "CALL",
      "contractName": null,
      "contractAddress": "0xbbbbbbbbbb9cc5e90e3b3af64bdaf62c37eeffcb",
      "function": "borrow((address,address,address,address,uint256),uint256,uint256,address,address)",
      "arguments": [
        "(0x1a7e4e63778B4f12a199C062f3eFdD288afCBce8, 0x2260FAC5E5542a773Aa44fBCfeDf7C193bc2C599, 0xD122315BD4E89386045F51f6e65A6EeDb0dD31b9, 0x870aC11D48B15DB9a138Cf899d20F13F79Ba00BC, 860000000000000000)",
        "450000000000000000",
        "0",
        "0xA9DdD91249DFdd450E81E1c56Ab60E1A62651701",
        "0xA9DdD91249DFdd450E81E1c56Ab60E1A62651701"
      ],
      "transaction": {
        "from": "0xa9ddd91249dfdd450e81e1c56ab60e1a62651701",
        "to": "0xbbbbbbbbbb9cc5e90e3b3af64bdaf62c37eeffcb",
        "gas": "0x3a5ca",
        "value": "0x0",
        "input": "0x50d8cd4b0000000000000000000000001a7e4e63778b4f12a199c062f3efdd288afcbce80000000000000000000000002260fac5e5542a773aa44fbcfedf7c193bc2c599000000000000000000000000d122315bd4e89386045f51f6e65a6eedb0dd31b9000000000000000000000000870ac11d48b15db9a138cf899d20f13f79ba00bc0000000000000000000000000000000000000000000000000bef55718ad60000000000000000000000000000000000000000000000000000063eb89da4ed00000000000000000000000000000000000000000000000000000000000000000000000000000000000000000000a9ddd91249dfdd450e81e1c56ab60e1a62651701000000000000000000000000a9ddd91249dfdd450e81e1c56ab60e1a62651701",
        "nonce": "0x210",
        "chainId": "0x1"
      },
      "additionalContracts": [],
      "isFixedGasLimit": false
    },
    {
      "hash": "0xd4f65f00b81f1c0c54b0063c163ae7e0f47f2de27f219ada4fe5d15c281be328",
      "transactionType": "CALL",
      "contractName": null,
      "contractAddress": "0xbbbbbbbbbb9cc5e90e3b3af64bdaf62c37eeffcb",
      "function": "createMarket((address,address,address,address,uint256))",
      "arguments": [
        "(0x1a7e4e63778B4f12a199C062f3eFdD288afCBce8, 0x0000000000000000000000000000000000000000, 0x0000000000000000000000000000000000000000, 0x0000000000000000000000000000000000000000, 0)"
      ],
      "transaction": {
        "from": "0xa9ddd91249dfdd450e81e1c56ab60e1a62651701",
        "to": "0xbbbbbbbbbb9cc5e90e3b3af64bdaf62c37eeffcb",
        "gas": "0x1df28",
        "value": "0x0",
        "input": "0x8c1358a20000000000000000000000001a7e4e63778b4f12a199c062f3efdd288afcbce80000000000000000000000000000000000000000000000000000000000000000000000000000000000000000000000000000000000000000000000000000000000000000000000000000000000000000000000000000000000000000000000000000000000000000000000000000000000000000000000000000000000000000",
        "nonce": "0x211",
        "chainId": "0x1"
      },
      "additionalContracts": [],
      "isFixedGasLimit": false
    }
  ],
  "receipts": [
    {
      "status": "0x1",
      "cumulativeGasUsed": "0xe243dd",
      "logs": [
        {
          "address": "0x1a7e4e63778b4f12a199c062f3efdd288afcbce8",
          "topics": [
            "0x8c5be1e5ebec7d5bd14f71427d1e84f3dd0314c0f7b2291e5b200ac8c7c3b925",
            "0x000000000000000000000000a9ddd91249dfdd450e81e1c56ab60e1a62651701",
            "0x000000000000000000000000bbbbbbbbbb9cc5e90e3b3af64bdaf62c37eeffcb"
          ],
          "data": "0xffffffffffffffffffffffffffffffffffffffffffffffffffffffffffffffff",
          "blockHash": "0x860fe1b2e5f4196b0eb1b7c2946f509178aca0caf18f2084eb9b4f320c9f7492",
          "blockNumber": "0x134d747",
          "transactionHash": "0xa0e72c9547730bc925728a252996fe9f54d9b865a4d3f0bee601ab9d61587443",
          "transactionIndex": "0x8f",
          "logIndex": "0x150",
          "removed": false
        }
      ],
      "logsBloom": "0x00000000000000000000000000000080000000000000000000000000000000000000000000000000000000000000000000000000000000000000000800200000000000000000000000000000000000000000000000000000000000000000000000000000000000000000000000000000000000000000000000000000000000000000000000000000000000000000000000000000000000000000000000000000820000000000000000000000000000000000000000000000800000080000000000000000000000000100000000000000000000080000000000000000000000000010000001000000000000200000000000000000000000000000000000000000",
      "type": "0x2",
      "transactionHash": "0xa0e72c9547730bc925728a252996fe9f54d9b865a4d3f0bee601ab9d61587443",
      "transactionIndex": "0x8f",
      "blockHash": "0x860fe1b2e5f4196b0eb1b7c2946f509178aca0caf18f2084eb9b4f320c9f7492",
      "blockNumber": "0x134d747",
      "gasUsed": "0x846d",
      "effectiveGasPrice": "0x1b7de3576",
      "from": "0xa9ddd91249dfdd450e81e1c56ab60e1a62651701",
      "to": "0x1a7e4e63778b4f12a199c062f3efdd288afcbce8",
      "contractAddress": null
    },
    {
      "status": "0x1",
      "cumulativeGasUsed": "0xd76579",
      "logs": [
        {
          "address": "0x2260fac5e5542a773aa44fbcfedf7c193bc2c599",
          "topics": [
            "0x8c5be1e5ebec7d5bd14f71427d1e84f3dd0314c0f7b2291e5b200ac8c7c3b925",
            "0x000000000000000000000000a9ddd91249dfdd450e81e1c56ab60e1a62651701",
            "0x000000000000000000000000bbbbbbbbbb9cc5e90e3b3af64bdaf62c37eeffcb"
          ],
          "data": "0x0000000000000000000000000000000000000000000000000000000000002710",
          "blockHash": "0x7bf6f9aca64307b8c939858f18212f16139f8345d52b33db6435c4fe1b24f120",
          "blockNumber": "0x134d748",
          "transactionHash": "0xe94532869716a7047420c07a1e2c1338ec701431b2ff9055061f420e417dfbd1",
          "transactionIndex": "0x86",
          "logIndex": "0x17a",
          "removed": false
        }
      ],
      "logsBloom": "0x00000000000000000000000000000080000000000000000000000000000000000000000000000000000000000000000000000000000000000000000000200000000000000000000000000000000000000000000000000000000000000000000000000000000000000000000000000000020000000000000000000000000000000000000000000000000000000000000000000000000000000000000000000000830000000000000000000000000000000000000000000000800000080000000000000000000000000000000000000000000000000000000000000000000000000010000001000000000000200000000000200000000000000000000000000000",
      "type": "0x2",
      "transactionHash": "0xe94532869716a7047420c07a1e2c1338ec701431b2ff9055061f420e417dfbd1",
      "transactionIndex": "0x86",
      "blockHash": "0x7bf6f9aca64307b8c939858f18212f16139f8345d52b33db6435c4fe1b24f120",
      "blockNumber": "0x134d748",
      "gasUsed": "0x79e8",
      "effectiveGasPrice": "0x1cfa3a2a2",
      "from": "0xa9ddd91249dfdd450e81e1c56ab60e1a62651701",
      "to": "0x2260fac5e5542a773aa44fbcfedf7c193bc2c599",
      "contractAddress": null
    },
    {
      "status": "0x1",
      "cumulativeGasUsed": "0x6a486e",
      "logs": [
        {
          "address": "0xbbbbbbbbbb9cc5e90e3b3af64bdaf62c37eeffcb",
          "topics": [
            "0xa3b9472a1399e17e123f3c2e6586c23e504184d504de59cdaa2b375e880c6184",
            "0x8f3ad887c9a81ec349eec0e6410a6cc95eda44d069f240f3f55a62f1430a37c0",
            "0x000000000000000000000000a9ddd91249dfdd450e81e1c56ab60e1a62651701",
            "0x000000000000000000000000a9ddd91249dfdd450e81e1c56ab60e1a62651701"
          ],
          "data": "0x0000000000000000000000000000000000000000000000000000000000002710",
          "blockHash": "0xb61c3468d234901e4a2607f2787a920f173df3cf9a8fedcc489bda0cb13132e2",
          "blockNumber": "0x134d749",
          "transactionHash": "0xdb3572d4553b420d864d0eb85dadf921b3fe9de0453c72cf52f0c0c2c61ae325",
          "transactionIndex": "0x6a",
          "logIndex": "0xc1",
          "removed": false
        },
        {
          "address": "0x2260fac5e5542a773aa44fbcfedf7c193bc2c599",
          "topics": [
            "0xddf252ad1be2c89b69c2b068fc378daa952ba7f163c4a11628f55a4df523b3ef",
            "0x000000000000000000000000a9ddd91249dfdd450e81e1c56ab60e1a62651701",
            "0x000000000000000000000000bbbbbbbbbb9cc5e90e3b3af64bdaf62c37eeffcb"
          ],
          "data": "0x0000000000000000000000000000000000000000000000000000000000002710",
          "blockHash": "0xb61c3468d234901e4a2607f2787a920f173df3cf9a8fedcc489bda0cb13132e2",
          "blockNumber": "0x134d749",
          "transactionHash": "0xdb3572d4553b420d864d0eb85dadf921b3fe9de0453c72cf52f0c0c2c61ae325",
          "transactionIndex": "0x6a",
          "logIndex": "0xc2",
          "removed": false
        }
      ],
      "logsBloom": "0x00000000000000000000000000000080000000000000000000000000000000000000000100000000000000000000000000000200000000000000000000000000000000000010000000000008000000000000000000000000000000000000000000000000000000000000000000000000020000000000000000000010000000000000008000000008000000000000000000000400000000000000000000000000810000000000000000000000000000000000000000000000800000080000000020000002000000000000000000000000000000000000000400000000000000000000000001000000000000200000200000200000000000000000000000000000",
      "type": "0x2",
      "transactionHash": "0xdb3572d4553b420d864d0eb85dadf921b3fe9de0453c72cf52f0c0c2c61ae325",
      "transactionIndex": "0x6a",
      "blockHash": "0xb61c3468d234901e4a2607f2787a920f173df3cf9a8fedcc489bda0cb13132e2",
      "blockNumber": "0x134d749",
      "gasUsed": "0x11b01",
      "effectiveGasPrice": "0x1d7828c72",
      "from": "0xa9ddd91249dfdd450e81e1c56ab60e1a62651701",
      "to": "0xbbbbbbbbbb9cc5e90e3b3af64bdaf62c37eeffcb",
      "contractAddress": null
    },
    {
      "status": "0x1",
      "cumulativeGasUsed": "0xc727d7",
      "logs": [
        {
          "address": "0x870ac11d48b15db9a138cf899d20f13f79ba00bc",
          "topics": [
            "0x7120161a7b3d31251e01294ab351ef15a41b91659a36032e4641bb89b121e321",
            "0x8f3ad887c9a81ec349eec0e6410a6cc95eda44d069f240f3f55a62f1430a37c0"
          ],
          "data": "0x0000000000000000000000000000000000000000000000000000000012e5cb3b000000000000000000000000000000000000000000000000000000004b949931",
          "blockHash": "0xf7219437401ed61d613551092646d3783f73337cbf886a6899dc4b73d53da874",
          "blockNumber": "0x134d74a",
          "transactionHash": "0xa93fdaf5fe726c04d01ee6f9b24ad676af74bd4d19f81ae8a8078c6e9f3925b3",
          "transactionIndex": "0xa6",
          "logIndex": "0x141",
          "removed": false
        },
        {
          "address": "0xbbbbbbbbbb9cc5e90e3b3af64bdaf62c37eeffcb",
          "topics": [
            "0x9d9bd501d0657d7dfe415f779a620a62b78bc508ddc0891fbbd8b7ac0f8fce87",
            "0x8f3ad887c9a81ec349eec0e6410a6cc95eda44d069f240f3f55a62f1430a37c0"
          ],
          "data": "0x0000000000000000000000000000000000000000000000000000000012e5cb3b00000000000000000000000000000000000000000000000000000000000000000000000000000000000000000000000000000000000000000000000000000000",
          "blockHash": "0xf7219437401ed61d613551092646d3783f73337cbf886a6899dc4b73d53da874",
          "blockNumber": "0x134d74a",
          "transactionHash": "0xa93fdaf5fe726c04d01ee6f9b24ad676af74bd4d19f81ae8a8078c6e9f3925b3",
          "transactionIndex": "0xa6",
          "logIndex": "0x142",
          "removed": false
        },
        {
          "address": "0xbbbbbbbbbb9cc5e90e3b3af64bdaf62c37eeffcb",
          "topics": [
            "0x570954540bed6b1304a87dfe815a5eda4a648f7097a16240dcd85c9b5fd42a43",
            "0x8f3ad887c9a81ec349eec0e6410a6cc95eda44d069f240f3f55a62f1430a37c0",
            "0x000000000000000000000000a9ddd91249dfdd450e81e1c56ab60e1a62651701",
            "0x000000000000000000000000a9ddd91249dfdd450e81e1c56ab60e1a62651701"
          ],
          "data": "0x000000000000000000000000a9ddd91249dfdd450e81e1c56ab60e1a62651701000000000000000000000000000000000000000000000000063eb89da4ed0000000000000000000000000000000000000000000000005f4a8c8375d155400000",
          "blockHash": "0xf7219437401ed61d613551092646d3783f73337cbf886a6899dc4b73d53da874",
          "blockNumber": "0x134d74a",
          "transactionHash": "0xa93fdaf5fe726c04d01ee6f9b24ad676af74bd4d19f81ae8a8078c6e9f3925b3",
          "transactionIndex": "0xa6",
          "logIndex": "0x143",
          "removed": false
        },
        {
          "address": "0x1a7e4e63778b4f12a199c062f3efdd288afcbce8",
          "topics": [
            "0xddf252ad1be2c89b69c2b068fc378daa952ba7f163c4a11628f55a4df523b3ef",
            "0x000000000000000000000000bbbbbbbbbb9cc5e90e3b3af64bdaf62c37eeffcb",
            "0x000000000000000000000000a9ddd91249dfdd450e81e1c56ab60e1a62651701"
          ],
          "data": "0x000000000000000000000000000000000000000000000000063eb89da4ed0000",
          "blockHash": "0xf7219437401ed61d613551092646d3783f73337cbf886a6899dc4b73d53da874",
          "blockNumber": "0x134d74a",
          "transactionHash": "0xa93fdaf5fe726c04d01ee6f9b24ad676af74bd4d19f81ae8a8078c6e9f3925b3",
          "transactionIndex": "0xa6",
          "logIndex": "0x144",
          "removed": false
        }
      ],
      "logsBloom": "0x00000000000000000002000000000080000000000000000000000000000000000000400100000000000000000000000000000200000000000000000820844000000000000010000000000008000000000000000000200000000000080000000000000000000000000000000000000000000000000000000000000010000000000000000000000008000000000000000000000400000000000000000000000000800000000000000000000000000000000000000000000000800000080000000020000002000000000101000000000000000000080000000000000000000000000000004001000008000000200001000000000000000000000000000000000000",
      "type": "0x2",
      "transactionHash": "0xa93fdaf5fe726c04d01ee6f9b24ad676af74bd4d19f81ae8a8078c6e9f3925b3",
      "transactionIndex": "0xa6",
      "blockHash": "0xf7219437401ed61d613551092646d3783f73337cbf886a6899dc4b73d53da874",
      "blockNumber": "0x134d74a",
      "gasUsed": "0x2a40d",
      "effectiveGasPrice": "0x1bdbdfae7",
      "from": "0xa9ddd91249dfdd450e81e1c56ab60e1a62651701",
      "to": "0xbbbbbbbbbb9cc5e90e3b3af64bdaf62c37eeffcb",
      "contractAddress": null
    },
    {
      "status": "0x1",
      "cumulativeGasUsed": "0x91c211",
      "logs": [
        {
          "address": "0xbbbbbbbbbb9cc5e90e3b3af64bdaf62c37eeffcb",
          "topics": [
            "0xac4b2400f169220b0c0afdde7a0b32e775ba727ea1cb30b35f935cdaab8683ac",
            "0xda50f8e889699e305ac5349af6777f28ff60533f50a79bb6bb4bcfe9ba80a17d"
          ],
          "data": "0x0000000000000000000000001a7e4e63778b4f12a199c062f3efdd288afcbce80000000000000000000000000000000000000000000000000000000000000000000000000000000000000000000000000000000000000000000000000000000000000000000000000000000000000000000000000000000000000000000000000000000000000000000000000000000000000000000000000000000000000000",
          "blockHash": "0x32e9b29ed6a1ccbcf6f4feafb699738c5edb5301ab673724ea4408ef07d3978e",
          "blockNumber": "0x134d74b",
          "transactionHash": "0xd4f65f00b81f1c0c54b0063c163ae7e0f47f2de27f219ada4fe5d15c281be328",
          "transactionIndex": "0x50",
          "logIndex": "0x113",
          "removed": false
        }
      ],
      "logsBloom": "0x00000000000000000000000000000800000000000000000000000000000000000000000000000000000000000000000000000000000000000000000000000000000000000010000000000000000000000004000000000000000000000000000000000000000000000000000000000000000000000000000000000040000000000000000000000008000000000000000000000000000000000000000000000000000000000000000000000000000000000080000000200000000000000000000020000000000000000000000000000000000000000000000000000000000000000000000000000000000000000000000000000000000000000000000000000010",
      "type": "0x2",
      "transactionHash": "0xd4f65f00b81f1c0c54b0063c163ae7e0f47f2de27f219ada4fe5d15c281be328",
      "transactionIndex": "0x50",
      "blockHash": "0x32e9b29ed6a1ccbcf6f4feafb699738c5edb5301ab673724ea4408ef07d3978e",
      "blockNumber": "0x134d74b",
      "gasUsed": "0x147a1",
      "effectiveGasPrice": "0x1bac74580",
      "from": "0xa9ddd91249dfdd450e81e1c56ab60e1a62651701",
      "to": "0xbbbbbbbbbb9cc5e90e3b3af64bdaf62c37eeffcb",
      "contractAddress": null
    }
  ],
  "libraries": [],
  "pending": [],
  "returns": {},
  "timestamp": 1720181284,
  "chain": 1,
  "commit": "a528c31"
}