{
  "transactions": [
    {
      "hash": "0x1ce821555222e54fa93dea2fd73f0f2ce8e97c5c0853ad17d3ed7b97ecb251b7",
      "transactionType": "CALL",
      "contractName": null,
      "contractAddress": "0x0000206329b97DB379d5E1Bf586BbDB969C63274",
      "function": "approve(address,uint256)",
      "arguments": [
        "0xBBBBBbbBBb9cC5e90e3b3Af64bdAF62C37EEFFCb",
        "115792089237316195423570985008687907853269984665640564039457584007913129639935"
      ],
      "transaction": {
        "type": "0x02",
        "from": "0xa9ddd91249dfdd450e81e1c56ab60e1a62651701",
        "to": "0x0000206329b97db379d5e1bf586bbdb969c63274",
        "gas": "0xc580",
        "value": "0x0",
        "data": "0x095ea7b3000000000000000000000000bbbbbbbbbb9cc5e90e3b3af64bdaf62c37eeffcbffffffffffffffffffffffffffffffffffffffffffffffffffffffffffffffff",
        "nonce": "0x7a",
        "accessList": []
      },
      "additionalContracts": [],
      "isFixedGasLimit": false
    },
    {
      "hash": "0x03d763e2ddbaac2e3c0aecc6dd7f2ffee5550c216f264f329c0be1be2fc7ac6e",
      "transactionType": "CALL",
      "contractName": null,
      "contractAddress": "0x3A7bB36Ee3f3eE32A60e9f2b33c1e5f2E83ad766",
      "function": null,
      "arguments": null,
      "transaction": {
        "type": "0x02",
        "from": "0xa9ddd91249dfdd450e81e1c56ab60e1a62651701",
        "to": "0x3a7bb36ee3f3ee32a60e9f2b33c1e5f2e83ad766",
        "gas": "0xd1f7a",
        "value": "0x0",
        "data": "0xb32cddf400000000000000000000000000000000000000000000000000000000000000000000000000000000000000000000000000000000000000000000000000000001000000000000000000000000f4a3e183f59d2599ee3df213ff78b1b3b19236960000000000000000000000005f4ec3df9cbd43714fe2740f5e3616155c5b84190000000000000000000000000000000000000000000000000000000000000012000000000000000000000000000000000000000000000000000000000000000000000000000000000000000000000000000000000000000000000000000000010000000000000000000000000000000000000000000000000000000000000000000000000000000000000000000000000000000000000000000000000000000000000000000000000000000000000000000000000000000000000000000000120000000000000000000000000000000000000000000000000000000000000000",
        "nonce": "0x7b",
        "accessList": []
      },
      "additionalContracts": [
        {
          "transactionType": "CREATE2",
          "address": "0xd5116061F4a1FFac23E9c6c9f6B4AF28b9AF7676",
          "initCode": "0x6101a08060405234620002fa578062000f1e803803809162000022828562000331565b833961014092839181010312620002fa576200003e8162000355565b91602082015190620000536040840162000355565b90620000626060850162000355565b926080850151956200007760a0870162000355565b9060c0870151956200008c60e0890162000355565b95610100996200009e8b8b0162000355565b6101209a8b0151956001600160a01b0386811615801590620002ef575b620000d190620000ca6200036a565b90620003bf565b811615801590620002e4575b620000ec90620000ca6200036a565b8715956200015a6040516200010181620002ff565b601f8152620001397f7661756c7420636f6e76657273696f6e2073616d706c65206973207a65726f00918260208201528a15620003bf565b604051906200014882620002ff565b601f825260208201528d1515620003bf565b6080528760a05260c0528960e052828c52838b5288885261016098818a52602496870190818811620002cf57620001bd620001ca94620001c4620001bd95620001b6620001bd620001d19b9a97620001b6620001ca986200045b565b9062000429565b916200045b565b6200044d565b906200044d565b604d8111620002ba57600a0a868102968188041490151715620002a5576200029157506101809304835260405193610a269586620004f8873960805186818161014b0152610304015260a0518681816102e301526105b9015260c0518681816103ac0152610560015260e05186818161038b01526104f301525185818160d9015261032d0152518481816101b9015261035c0152518381816103d5015261049a01525182818161027f01526103fe01525181818161021201526104250152f35b634e487b7160e01b60009081526012600452fd5b50634e487b7160e01b60009081526011600452fd5b82634e487b7160e01b60005260116004526000fd5b87634e487b7160e01b60005260116004526000fd5b5060018b14620000dd565b5060018914620000bb565b600080fd5b604081019081106001600160401b038211176200031b57604052565b634e487b7160e01b600052604160045260246000fd5b601f909101601f19168101906001600160401b038211908210176200031b57604052565b51906001600160a01b0382168203620002fa57565b60405190606082016001600160401b038111838210176200031b5760405260228252616e6560f01b6040837f7661756c7420636f6e76657273696f6e2073616d706c65206973206e6f74206f60208201520152565b15620003c85750565b6040519062461bcd60e51b82528160208060048301528251908160248401526000935b8285106200040f575050604492506000838284010152601f80199101168101030190fd5b8481018201518686016044015293810193859350620003eb565b919082018092116200043757565b634e487b7160e01b600052601160045260246000fd5b919082039182116200043757565b6001600160a01b03168015620004f15760206004916040519283809263313ce56760e01b82525afa908115620004e5576000916200049b575b5060ff1690565b6020813d8211620004dc575b81620004b66020938362000331565b81010312620004d857519060ff82168203620004d5575060ff62000494565b80fd5b5080fd5b3d9150620004a7565b6040513d6000823e3d90fd5b5060009056fe60806040818152600436101561001457600080fd5b600091823560e01c908163054f7ac014610584575080632e6f20a614610516578063461739d2146104be57806356095e1114610450578063a035b1fe146102a3578063acfbd39e14610235578063ce4b5bbe146101dd578063dc53858c1461016f578063eaa2d7b4146101015763f50a47181461009057600080fd5b346100fd57817ffffffffffffffffffffffffffffffffffffffffffffffffffffffffffffffffc3601126100fd576020905173ffffffffffffffffffffffffffffffffffffffff7f0000000000000000000000000000000000000000000000000000000000000000168152f35b5080fd5b50346100fd57817ffffffffffffffffffffffffffffffffffffffffffffffffffffffffffffffffc3601126100fd576020905173ffffffffffffffffffffffffffffffffffffffff7f0000000000000000000000000000000000000000000000000000000000000000168152f35b50346100fd57817ffffffffffffffffffffffffffffffffffffffffffffffffffffffffffffffffc3601126100fd576020905173ffffffffffffffffffffffffffffffffffffffff7f0000000000000000000000000000000000000000000000000000000000000000168152f35b50346100fd57817ffffffffffffffffffffffffffffffffffffffffffffffffffffffffffffffffc3601126100fd57602090517f00000000000000000000000000000000000000000000000000000000000000008152f35b50346100fd57817ffffffffffffffffffffffffffffffffffffffffffffffffffffffffffffffffc3601126100fd576020905173ffffffffffffffffffffffffffffffffffffffff7f0000000000000000000000000000000000000000000000000000000000000000168152f35b50346100fd57817ffffffffffffffffffffffffffffffffffffffffffffffffffffffffffffffffc3601126100fd576020906104496103806103576103287f00000000000000000000000000000000000000000000000000000000000000007f000000000000000000000000000000000000000000000000000000000000000061094a565b6103517f00000000000000000000000000000000000000000000000000000000000000006107a5565b906105dc565b6103517f00000000000000000000000000000000000000000000000000000000000000006107a5565b6104226103f96103d07f00000000000000000000000000000000000000000000000000000000000000007f000000000000000000000000000000000000000000000000000000000000000061094a565b6103517f00000000000000000000000000000000000000000000000000000000000000006107a5565b6103517f00000000000000000000000000000000000000000000000000000000000000006107a5565b907f000000000000000000000000000000000000000000000000000000000000000061061e565b9051908152f35b50346100fd57817ffffffffffffffffffffffffffffffffffffffffffffffffffffffffffffffffc3601126100fd576020905173ffffffffffffffffffffffffffffffffffffffff7f0000000000000000000000000000000000000000000000000000000000000000168152f35b50346100fd57817ffffffffffffffffffffffffffffffffffffffffffffffffffffffffffffffffc3601126100fd57602090517f00000000000000000000000000000000000000000000000000000000000000008152f35b50346100fd57817ffffffffffffffffffffffffffffffffffffffffffffffffffffffffffffffffc3601126100fd576020905173ffffffffffffffffffffffffffffffffffffffff7f0000000000000000000000000000000000000000000000000000000000000000168152f35b8390346100fd57817ffffffffffffffffffffffffffffffffffffffffffffffffffffffffffffffffc3601126100fd576020907f00000000000000000000000000000000000000000000000000000000000000008152f35b818102929181159184041417156105ef57565b7f4e487b7100000000000000000000000000000000000000000000000000000000600052601160045260246000fd5b9091828202917fffffffffffffffffffffffffffffffffffffffffffffffffffffffffffffffff848209938380861095039480860395146106dc57848311156106b25782910981600003821680920460028082600302188083028203028083028203028083028203028083028203028083028203028092029003029360018380600003040190848311900302920304170290565b60046040517f227bc153000000000000000000000000000000000000000000000000000000008152fd5b5050809250156106ea570490565b7f4e487b7100000000000000000000000000000000000000000000000000000000600052601260045260246000fd5b90601f7fffffffffffffffffffffffffffffffffffffffffffffffffffffffffffffffe0910116810190811067ffffffffffffffff82111761075a57604052565b7f4e487b7100000000000000000000000000000000000000000000000000000000600052604160045260246000fd5b519069ffffffffffffffffffff821682036107a057565b600080fd5b73ffffffffffffffffffffffffffffffffffffffff1680156109445760049060a06040918251938480927ffeaf968c0000000000000000000000000000000000000000000000000000000082525afa918215610939576000926108e8575b50805181810181811067ffffffffffffffff82111761075a578252600f81526020917f6e6567617469766520616e73776572000000000000000000000000000000000083830152600084126108585750505090565b5180927f08c379a000000000000000000000000000000000000000000000000000000000825280600483015282519283602484015260005b8481106108d1575050507fffffffffffffffffffffffffffffffffffffffffffffffffffffffffffffffe0601f836000604480968601015201168101030190fd5b818101830151868201604401528593508201610890565b909160a0823d8211610931575b8161090260a09383610719565b8101031261092e575061091481610789565b50610926608060208301519201610789565b509038610803565b80fd5b3d91506108f5565b50513d6000823e3d90fd5b50600190565b73ffffffffffffffffffffffffffffffffffffffff169081156109e9576020906024604051809481937f07a2d13a00000000000000000000000000000000000000000000000000000000835260048301525afa9081156109dd576000916109af575090565b906020823d82116109d5575b816109c860209383610719565b8101031261092e57505190565b3d91506109bb565b6040513d6000823e3d90fd5b505060019056fea2646970667358221220de25ff8dd5708a691db44b0da1e6e734e7659c3f9a1801595bc1fa7bf902c00564736f6c6343000815003300000000000000000000000000000000000000000000000000000000000000000000000000000000000000000000000000000000000000000000000000000001000000000000000000000000f4a3e183f59d2599ee3df213ff78b1b3b19236960000000000000000000000005f4ec3df9cbd43714fe2740f5e3616155c5b8419000000000000000000000000000000000000000000000000000000000000001200000000000000000000000000000000000000000000000000000000000000000000000000000000000000000000000000000000000000000000000000000001000000000000000000000000000000000000000000000000000000000000000000000000000000000000000000000000000000000000000000000000000000000000000000000000000000000000000000000000000000000000000000000012"
        }
      ],
      "isFixedGasLimit": false
    },
    {
      "hash": "0xacdf10fb13e7cd39bae08ebccc5f773cfbaffb51376cc47d441b16ed36a440dc",
      "transactionType": "CALL",
      "contractName": null,
      "contractAddress": "0xBBBBBbbBBb9cC5e90e3b3Af64bdAF62C37EEFFCb",
      "function": null,
      "arguments": null,
      "transaction": {
        "type": "0x02",
        "from": "0xa9ddd91249dfdd450e81e1c56ab60e1a62651701",
        "to": "0xbbbbbbbbbb9cc5e90e3b3af64bdaf62c37eeffcb",
        "gas": "0x47336",
        "value": "0x0",
        "data": "0x8c1358a20000000000000000000000000000206329b97db379d5e1bf586bbdb969c63274000000000000000000000000bf5495efe5db9ce00f80364c8b423567e58d2110000000000000000000000000d5116061f4a1ffac23e9c6c9f6b4af28b9af7676000000000000000000000000870ac11d48b15db9a138cf899d20f13f79ba00bc0000000000000000000000000000000000000000000000000aaf96eb9d0d0000",
        "nonce": "0x7c",
        "accessList": []
      },
      "additionalContracts": [],
      "isFixedGasLimit": false
    },
    {
      "hash": "0x0cbf46ff6b1c2d67d1644062203d95ed2f56eaa875377230843b5ea1ef4450a1",
      "transactionType": "CALL",
      "contractName": null,
      "contractAddress": "0xBBBBBbbBBb9cC5e90e3b3Af64bdAF62C37EEFFCb",
      "function": null,
      "arguments": null,
      "transaction": {
        "type": "0x02",
        "from": "0xa9ddd91249dfdd450e81e1c56ab60e1a62651701",
        "to": "0xbbbbbbbbbb9cc5e90e3b3af64bdaf62c37eeffcb",
        "gas": "0x24aa6",
        "value": "0x0",
        "data": "0xa99aad890000000000000000000000000000206329b97db379d5e1bf586bbdb969c63274000000000000000000000000bf5495efe5db9ce00f80364c8b423567e58d2110000000000000000000000000d5116061f4a1ffac23e9c6c9f6b4af28b9af7676000000000000000000000000870ac11d48b15db9a138cf899d20f13f79ba00bc0000000000000000000000000000000000000000000000000aaf96eb9d0d00000000000000000000000000000000000000000000000000000de0b6b3a76400000000000000000000000000000000000000000000000000000000000000000000000000000000000000000000a9ddd91249dfdd450e81e1c56ab60e1a6265170100000000000000000000000000000000000000000000000000000000000001200000000000000000000000000000000000000000000000000000000000000000",
        "nonce": "0x7d",
        "accessList": []
      },
      "additionalContracts": [],
      "isFixedGasLimit": false
    },
    {
      "hash": "0x2cdd26ebbf02b9a30c4210e06915a4d1241f17ab7269629e230e92cfd844389f",
      "transactionType": "CALL",
      "contractName": null,
      "contractAddress": "0xbf5495Efe5DB9ce00f80364C8B423567e58d2110",
      "function": "approve(address,uint256)",
      "arguments": [
        "0xBBBBBbbBBb9cC5e90e3b3Af64bdAF62C37EEFFCb",
        "9000000000000000"
      ],
      "transaction": {
        "type": "0x02",
        "from": "0xa9ddd91249dfdd450e81e1c56ab60e1a62651701",
        "to": "0xbf5495efe5db9ce00f80364c8b423567e58d2110",
        "gas": "0x131d0",
        "value": "0x0",
        "data": "0x095ea7b3000000000000000000000000bbbbbbbbbb9cc5e90e3b3af64bdaf62c37eeffcb000000000000000000000000000000000000000000000000001ff973cafa8000",
        "nonce": "0x7e",
        "accessList": []
      },
      "additionalContracts": [],
      "isFixedGasLimit": false
    },
    {
      "hash": "0x7a72138c408f30c89f60bcfe5402ff167ffbfbdbaecf442417acd67a02360ff2",
      "transactionType": "CALL",
      "contractName": null,
      "contractAddress": "0xBBBBBbbBBb9cC5e90e3b3Af64bdAF62C37EEFFCb",
      "function": null,
      "arguments": null,
      "transaction": {
        "type": "0x02",
        "from": "0xa9ddd91249dfdd450e81e1c56ab60e1a62651701",
        "to": "0xbbbbbbbbbb9cc5e90e3b3af64bdaf62c37eeffcb",
        "gas": "0x1b386",
        "value": "0x0",
        "data": "0x238d65790000000000000000000000000000206329b97db379d5e1bf586bbdb969c63274000000000000000000000000bf5495efe5db9ce00f80364c8b423567e58d2110000000000000000000000000d5116061f4a1ffac23e9c6c9f6b4af28b9af7676000000000000000000000000870ac11d48b15db9a138cf899d20f13f79ba00bc0000000000000000000000000000000000000000000000000aaf96eb9d0d0000000000000000000000000000000000000000000000000000001ff973cafa8000000000000000000000000000a9ddd91249dfdd450e81e1c56ab60e1a6265170100000000000000000000000000000000000000000000000000000000000001000000000000000000000000000000000000000000000000000000000000000000",
        "nonce": "0x7f",
        "accessList": []
      },
      "additionalContracts": [],
      "isFixedGasLimit": false
    },
    {
      "hash": "0x98f1505b12128936f8cc6f59a74710051948ee11211a6d6f373fe8341586121d",
      "transactionType": "CALL",
      "contractName": null,
      "contractAddress": "0xBBBBBbbBBb9cC5e90e3b3Af64bdAF62C37EEFFCb",
      "function": null,
      "arguments": null,
      "transaction": {
        "type": "0x02",
        "from": "0xa9ddd91249dfdd450e81e1c56ab60e1a62651701",
        "to": "0xbbbbbbbbbb9cc5e90e3b3af64bdaf62c37eeffcb",
        "gas": "0x2f6dd",
        "value": "0x0",
        "data": "0x50d8cd4b0000000000000000000000000000206329b97db379d5e1bf586bbdb969c63274000000000000000000000000bf5495efe5db9ce00f80364c8b423567e58d2110000000000000000000000000d5116061f4a1ffac23e9c6c9f6b4af28b9af7676000000000000000000000000870ac11d48b15db9a138cf899d20f13f79ba00bc0000000000000000000000000000000000000000000000000aaf96eb9d0d00000000000000000000000000000000000000000000000000000c7d713b49da00000000000000000000000000000000000000000000000000000000000000000000000000000000000000000000a9ddd91249dfdd450e81e1c56ab60e1a62651701000000000000000000000000a9ddd91249dfdd450e81e1c56ab60e1a62651701",
        "nonce": "0x80",
        "accessList": []
      },
      "additionalContracts": [],
      "isFixedGasLimit": false
    },
    {
      "hash": "0xcde6503017024a462c992b8a73d29c9e906e127848790ea09270aa56ce48dc05",
      "transactionType": "CALL",
      "contractName": null,
      "contractAddress": "0x3A7bB36Ee3f3eE32A60e9f2b33c1e5f2E83ad766",
      "function": null,
      "arguments": null,
      "transaction": {
        "type": "0x02",
        "from": "0xa9ddd91249dfdd450e81e1c56ab60e1a62651701",
        "to": "0x3a7bb36ee3f3ee32a60e9f2b33c1e5f2e83ad766",
        "gas": "0xd1f7a",
        "value": "0x0",
        "data": "0xb32cddf400000000000000000000000000000000000000000000000000000000000000000000000000000000000000000000000000000000000000000000000000000001000000000000000000000000a736eae8805ddeffba40cab8c99bcb309deabd9b0000000000000000000000005f4ec3df9cbd43714fe2740f5e3616155c5b84190000000000000000000000000000000000000000000000000000000000000012000000000000000000000000000000000000000000000000000000000000000000000000000000000000000000000000000000000000000000000000000000010000000000000000000000000000000000000000000000000000000000000000000000000000000000000000000000000000000000000000000000000000000000000000000000000000000000000000000000000000000000000000000000120000000000000000000000000000000000000000000000000000000000000000",
        "nonce": "0x81",
        "accessList": []
      },
      "additionalContracts": [
        {
          "transactionType": "CREATE2",
          "address": "0x599AD2053bFE462AB535f6370B9aBBa137CDeb83",
          "initCode": "0x6101a08060405234620002fa578062000f1e803803809162000022828562000331565b833961014092839181010312620002fa576200003e8162000355565b91602082015190620000536040840162000355565b90620000626060850162000355565b926080850151956200007760a0870162000355565b9060c0870151956200008c60e0890162000355565b95610100996200009e8b8b0162000355565b6101209a8b0151956001600160a01b0386811615801590620002ef575b620000d190620000ca6200036a565b90620003bf565b811615801590620002e4575b620000ec90620000ca6200036a565b8715956200015a6040516200010181620002ff565b601f8152620001397f7661756c7420636f6e76657273696f6e2073616d706c65206973207a65726f00918260208201528a15620003bf565b604051906200014882620002ff565b601f825260208201528d1515620003bf565b6080528760a05260c0528960e052828c52838b5288885261016098818a52602496870190818811620002cf57620001bd620001ca94620001c4620001bd95620001b6620001bd620001d19b9a97620001b6620001ca986200045b565b9062000429565b916200045b565b6200044d565b906200044d565b604d8111620002ba57600a0a868102968188041490151715620002a5576200029157506101809304835260405193610a269586620004f8873960805186818161014b0152610304015260a0518681816102e301526105b9015260c0518681816103ac0152610560015260e05186818161038b01526104f301525185818160d9015261032d0152518481816101b9015261035c0152518381816103d5015261049a01525182818161027f01526103fe01525181818161021201526104250152f35b634e487b7160e01b60009081526012600452fd5b50634e487b7160e01b60009081526011600452fd5b82634e487b7160e01b60005260116004526000fd5b87634e487b7160e01b60005260116004526000fd5b5060018b14620000dd565b5060018914620000bb565b600080fd5b604081019081106001600160401b038211176200031b57604052565b634e487b7160e01b600052604160045260246000fd5b601f909101601f19168101906001600160401b038211908210176200031b57604052565b51906001600160a01b0382168203620002fa57565b60405190606082016001600160401b038111838210176200031b5760405260228252616e6560f01b6040837f7661756c7420636f6e76657273696f6e2073616d706c65206973206e6f74206f60208201520152565b15620003c85750565b6040519062461bcd60e51b82528160208060048301528251908160248401526000935b8285106200040f575050604492506000838284010152601f80199101168101030190fd5b8481018201518686016044015293810193859350620003eb565b919082018092116200043757565b634e487b7160e01b600052601160045260246000fd5b919082039182116200043757565b6001600160a01b03168015620004f15760206004916040519283809263313ce56760e01b82525afa908115620004e5576000916200049b575b5060ff1690565b6020813d8211620004dc575b81620004b66020938362000331565b81010312620004d857519060ff82168203620004d5575060ff62000494565b80fd5b5080fd5b3d9150620004a7565b6040513d6000823e3d90fd5b5060009056fe60806040818152600436101561001457600080fd5b600091823560e01c908163054f7ac014610584575080632e6f20a614610516578063461739d2146104be57806356095e1114610450578063a035b1fe146102a3578063acfbd39e14610235578063ce4b5bbe146101dd578063dc53858c1461016f578063eaa2d7b4146101015763f50a47181461009057600080fd5b346100fd57817ffffffffffffffffffffffffffffffffffffffffffffffffffffffffffffffffc3601126100fd576020905173ffffffffffffffffffffffffffffffffffffffff7f0000000000000000000000000000000000000000000000000000000000000000168152f35b5080fd5b50346100fd57817ffffffffffffffffffffffffffffffffffffffffffffffffffffffffffffffffc3601126100fd576020905173ffffffffffffffffffffffffffffffffffffffff7f0000000000000000000000000000000000000000000000000000000000000000168152f35b50346100fd57817ffffffffffffffffffffffffffffffffffffffffffffffffffffffffffffffffc3601126100fd576020905173ffffffffffffffffffffffffffffffffffffffff7f0000000000000000000000000000000000000000000000000000000000000000168152f35b50346100fd57817ffffffffffffffffffffffffffffffffffffffffffffffffffffffffffffffffc3601126100fd57602090517f00000000000000000000000000000000000000000000000000000000000000008152f35b50346100fd57817ffffffffffffffffffffffffffffffffffffffffffffffffffffffffffffffffc3601126100fd576020905173ffffffffffffffffffffffffffffffffffffffff7f0000000000000000000000000000000000000000000000000000000000000000168152f35b50346100fd57817ffffffffffffffffffffffffffffffffffffffffffffffffffffffffffffffffc3601126100fd576020906104496103806103576103287f00000000000000000000000000000000000000000000000000000000000000007f000000000000000000000000000000000000000000000000000000000000000061094a565b6103517f00000000000000000000000000000000000000000000000000000000000000006107a5565b906105dc565b6103517f00000000000000000000000000000000000000000000000000000000000000006107a5565b6104226103f96103d07f00000000000000000000000000000000000000000000000000000000000000007f000000000000000000000000000000000000000000000000000000000000000061094a565b6103517f00000000000000000000000000000000000000000000000000000000000000006107a5565b6103517f00000000000000000000000000000000000000000000000000000000000000006107a5565b907f000000000000000000000000000000000000000000000000000000000000000061061e565b9051908152f35b50346100fd57817ffffffffffffffffffffffffffffffffffffffffffffffffffffffffffffffffc3601126100fd576020905173ffffffffffffffffffffffffffffffffffffffff7f0000000000000000000000000000000000000000000000000000000000000000168152f35b50346100fd57817ffffffffffffffffffffffffffffffffffffffffffffffffffffffffffffffffc3601126100fd57602090517f00000000000000000000000000000000000000000000000000000000000000008152f35b50346100fd57817ffffffffffffffffffffffffffffffffffffffffffffffffffffffffffffffffc3601126100fd576020905173ffffffffffffffffffffffffffffffffffffffff7f0000000000000000000000000000000000000000000000000000000000000000168152f35b8390346100fd57817ffffffffffffffffffffffffffffffffffffffffffffffffffffffffffffffffc3601126100fd576020907f00000000000000000000000000000000000000000000000000000000000000008152f35b818102929181159184041417156105ef57565b7f4e487b7100000000000000000000000000000000000000000000000000000000600052601160045260246000fd5b9091828202917fffffffffffffffffffffffffffffffffffffffffffffffffffffffffffffffff848209938380861095039480860395146106dc57848311156106b25782910981600003821680920460028082600302188083028203028083028203028083028203028083028203028083028203028092029003029360018380600003040190848311900302920304170290565b60046040517f227bc153000000000000000000000000000000000000000000000000000000008152fd5b5050809250156106ea570490565b7f4e487b7100000000000000000000000000000000000000000000000000000000600052601260045260246000fd5b90601f7fffffffffffffffffffffffffffffffffffffffffffffffffffffffffffffffe0910116810190811067ffffffffffffffff82111761075a57604052565b7f4e487b7100000000000000000000000000000000000000000000000000000000600052604160045260246000fd5b519069ffffffffffffffffffff821682036107a057565b600080fd5b73ffffffffffffffffffffffffffffffffffffffff1680156109445760049060a06040918251938480927ffeaf968c0000000000000000000000000000000000000000000000000000000082525afa918215610939576000926108e8575b50805181810181811067ffffffffffffffff82111761075a578252600f81526020917f6e6567617469766520616e73776572000000000000000000000000000000000083830152600084126108585750505090565b5180927f08c379a000000000000000000000000000000000000000000000000000000000825280600483015282519283602484015260005b8481106108d1575050507fffffffffffffffffffffffffffffffffffffffffffffffffffffffffffffffe0601f836000604480968601015201168101030190fd5b818101830151868201604401528593508201610890565b909160a0823d8211610931575b8161090260a09383610719565b8101031261092e575061091481610789565b50610926608060208301519201610789565b509038610803565b80fd5b3d91506108f5565b50513d6000823e3d90fd5b50600190565b73ffffffffffffffffffffffffffffffffffffffff169081156109e9576020906024604051809481937f07a2d13a00000000000000000000000000000000000000000000000000000000835260048301525afa9081156109dd576000916109af575090565b906020823d82116109d5575b816109c860209383610719565b8101031261092e57505190565b3d91506109bb565b6040513d6000823e3d90fd5b505060019056fea2646970667358221220de25ff8dd5708a691db44b0da1e6e734e7659c3f9a1801595bc1fa7bf902c00564736f6c6343000815003300000000000000000000000000000000000000000000000000000000000000000000000000000000000000000000000000000000000000000000000000000001000000000000000000000000a736eae8805ddeffba40cab8c99bcb309deabd9b0000000000000000000000005f4ec3df9cbd43714fe2740f5e3616155c5b8419000000000000000000000000000000000000000000000000000000000000001200000000000000000000000000000000000000000000000000000000000000000000000000000000000000000000000000000000000000000000000000000001000000000000000000000000000000000000000000000000000000000000000000000000000000000000000000000000000000000000000000000000000000000000000000000000000000000000000000000000000000000000000000000012"
        }
      ],
      "isFixedGasLimit": false
    },
    {
      "hash": "0xdd7e0918b62f9d91ba843acd6b425b7298286ed6d13f8f79e82ade7011174277",
      "transactionType": "CALL",
      "contractName": null,
      "contractAddress": "0xBBBBBbbBBb9cC5e90e3b3Af64bdAF62C37EEFFCb",
      "function": null,
      "arguments": null,
      "transaction": {
        "type": "0x02",
        "from": "0xa9ddd91249dfdd450e81e1c56ab60e1a62651701",
        "to": "0xbbbbbbbbbb9cc5e90e3b3af64bdaf62c37eeffcb",
        "gas": "0x47336",
        "value": "0x0",
        "data": "0x8c1358a20000000000000000000000000000206329b97db379d5e1bf586bbdb969c63274000000000000000000000000a1290d69c65a6fe4df752f95823fae25cb99e5a7000000000000000000000000599ad2053bfe462ab535f6370b9abba137cdeb83000000000000000000000000870ac11d48b15db9a138cf899d20f13f79ba00bc0000000000000000000000000000000000000000000000000aaf96eb9d0d0000",
        "nonce": "0x82",
        "accessList": []
      },
      "additionalContracts": [],
      "isFixedGasLimit": false
    },
    {
      "hash": "0x33a8967e4428176ae96250ecda1120b533061ef5673274cbe21290b318dd943a",
      "transactionType": "CALL",
      "contractName": null,
      "contractAddress": "0xBBBBBbbBBb9cC5e90e3b3Af64bdAF62C37EEFFCb",
      "function": null,
      "arguments": null,
      "transaction": {
        "type": "0x02",
        "from": "0xa9ddd91249dfdd450e81e1c56ab60e1a62651701",
        "to": "0xbbbbbbbbbb9cc5e90e3b3af64bdaf62c37eeffcb",
        "gas": "0x24aa6",
        "value": "0x0",
        "data": "0xa99aad890000000000000000000000000000206329b97db379d5e1bf586bbdb969c63274000000000000000000000000a1290d69c65a6fe4df752f95823fae25cb99e5a7000000000000000000000000599ad2053bfe462ab535f6370b9abba137cdeb83000000000000000000000000870ac11d48b15db9a138cf899d20f13f79ba00bc0000000000000000000000000000000000000000000000000aaf96eb9d0d00000000000000000000000000000000000000000000000000000de0b6b3a76400000000000000000000000000000000000000000000000000000000000000000000000000000000000000000000a9ddd91249dfdd450e81e1c56ab60e1a6265170100000000000000000000000000000000000000000000000000000000000001200000000000000000000000000000000000000000000000000000000000000000",
        "nonce": "0x83",
        "accessList": []
      },
      "additionalContracts": [],
      "isFixedGasLimit": false
    }
  ],
  "receipts": [
    {
      "transactionHash": "0x1ce821555222e54fa93dea2fd73f0f2ce8e97c5c0853ad17d3ed7b97ecb251b7",
      "transactionIndex": "0x1c",
      "blockHash": "0xfbb459769c0c26f51299d0575bdcbd00fe763941fd192a1c93bd26509484c0a6",
      "blockNumber": "0x12b36a9",
      "from": "0xA9DdD91249DFdd450E81E1c56Ab60E1A62651701",
      "to": "0x0000206329b97DB379d5E1Bf586BbDB969C63274",
      "cumulativeGasUsed": "0x2c26ff",
      "gasUsed": "0x8efe",
      "contractAddress": null,
      "logs": [
        {
          "address": "0x0000206329b97DB379d5E1Bf586BbDB969C63274",
          "topics": [
            "0x8c5be1e5ebec7d5bd14f71427d1e84f3dd0314c0f7b2291e5b200ac8c7c3b925",
            "0x000000000000000000000000a9ddd91249dfdd450e81e1c56ab60e1a62651701",
            "0x000000000000000000000000bbbbbbbbbb9cc5e90e3b3af64bdaf62c37eeffcb"
          ],
          "data": "0xffffffffffffffffffffffffffffffffffffffffffffffffffffffffffffffff",
          "blockHash": "0xfbb459769c0c26f51299d0575bdcbd00fe763941fd192a1c93bd26509484c0a6",
          "blockNumber": "0x12b36a9",
          "transactionHash": "0x1ce821555222e54fa93dea2fd73f0f2ce8e97c5c0853ad17d3ed7b97ecb251b7",
          "transactionIndex": "0x1c",
          "logIndex": "0x67",
          "removed": false
        }
      ],
      "status": "0x1",
      "logsBloom": "0x00000000000000000000000000000080000000000000000000000000000000000000000000000000000000000000000000000000000000000000000000200000000000000000000000000000000004000000000000000000000000000000000000000000000000000000000000000000000000000000000000000000000000000000000000000000000000000000000000000000000000000000000000000000820000000000000000000000000000000000000000000000800000080000000000000000000000000000000000000000000000004000000000000000000000000010000001000000000000200000000000000000000000000000000000004000",
      "type": "0x2",
      "effectiveGasPrice": "0x33253a248"
    },
    {
      "transactionHash": "0x03d763e2ddbaac2e3c0aecc6dd7f2ffee5550c216f264f329c0be1be2fc7ac6e",
      "transactionIndex": "0x1d",
      "blockHash": "0xfbb459769c0c26f51299d0575bdcbd00fe763941fd192a1c93bd26509484c0a6",
      "blockNumber": "0x12b36a9",
      "from": "0xA9DdD91249DFdd450E81E1c56Ab60E1A62651701",
      "to": "0x3A7bB36Ee3f3eE32A60e9f2b33c1e5f2E83ad766",
      "cumulativeGasUsed": "0x35a839",
      "gasUsed": "0x9813a",
      "contractAddress": null,
      "logs": [
        {
          "address": "0x3A7bB36Ee3f3eE32A60e9f2b33c1e5f2E83ad766",
          "topics": [
            "0x6436acb89463dbc9036f1e52aebf32ac0bf5f69e3987c067110c3ac403ebda33"
          ],
          "data": "0x000000000000000000000000a9ddd91249dfdd450e81e1c56ab60e1a62651701000000000000000000000000d5116061f4a1ffac23e9c6c9f6b4af28b9af7676",
          "blockHash": "0xfbb459769c0c26f51299d0575bdcbd00fe763941fd192a1c93bd26509484c0a6",
          "blockNumber": "0x12b36a9",
          "transactionHash": "0x03d763e2ddbaac2e3c0aecc6dd7f2ffee5550c216f264f329c0be1be2fc7ac6e",
          "transactionIndex": "0x1d",
          "logIndex": "0x68",
          "removed": false
        }
      ],
      "status": "0x1",
      "logsBloom": "0x00000000000000000000000000000000000000000000000000000000000000000000000000000000000000000000000000000000000000000000000000000000000000000000000000000000000000000000000000000000000000000000000000000000000000000000000000000000000000000000000000000000000000000000000000000000000000000000000000002000000000000000000000000000000000000000000000000000010000000000000000100000000000000000000000000000000000000000000000000000000000000000000000000000000000000000000000000080000000006000000000000000000000000000000000000000",
      "type": "0x2",
      "effectiveGasPrice": "0x33253a248"
    },
    {
      "transactionHash": "0xacdf10fb13e7cd39bae08ebccc5f773cfbaffb51376cc47d441b16ed36a440dc",
      "transactionIndex": "0x1e",
      "blockHash": "0xfbb459769c0c26f51299d0575bdcbd00fe763941fd192a1c93bd26509484c0a6",
      "blockNumber": "0x12b36a9",
      "from": "0xA9DdD91249DFdd450E81E1c56Ab60E1A62651701",
      "to": "0xBBBBBbbBBb9cC5e90e3b3Af64bdAF62C37EEFFCb",
      "cumulativeGasUsed": "0x38b32c",
      "gasUsed": "0x30af3",
      "contractAddress": null,
      "logs": [
        {
          "address": "0xBBBBBbbBBb9cC5e90e3b3Af64bdAF62C37EEFFCb",
          "topics": [
            "0xac4b2400f169220b0c0afdde7a0b32e775ba727ea1cb30b35f935cdaab8683ac",
            "0x459687783a68f4cf4e230618f88ce135d1cd459a850f6496751c2a9c1c6e852e"
          ],
          "data": "0x0000000000000000000000000000206329b97db379d5e1bf586bbdb969c63274000000000000000000000000bf5495efe5db9ce00f80364c8b423567e58d2110000000000000000000000000d5116061f4a1ffac23e9c6c9f6b4af28b9af7676000000000000000000000000870ac11d48b15db9a138cf899d20f13f79ba00bc0000000000000000000000000000000000000000000000000aaf96eb9d0d0000",
          "blockHash": "0xfbb459769c0c26f51299d0575bdcbd00fe763941fd192a1c93bd26509484c0a6",
          "blockNumber": "0x12b36a9",
          "transactionHash": "0xacdf10fb13e7cd39bae08ebccc5f773cfbaffb51376cc47d441b16ed36a440dc",
          "transactionIndex": "0x1e",
          "logIndex": "0x69",
          "removed": false
        },
        {
          "address": "0x870aC11D48B15DB9a138Cf899d20F13F79Ba00BC",
          "topics": [
            "0x7120161a7b3d31251e01294ab351ef15a41b91659a36032e4641bb89b121e321",
            "0x459687783a68f4cf4e230618f88ce135d1cd459a850f6496751c2a9c1c6e852e"
          ],
          "data": "0x0000000000000000000000000000000000000000000000000000000012e687bf000000000000000000000000000000000000000000000000000000004b9a1eff",
          "blockHash": "0xfbb459769c0c26f51299d0575bdcbd00fe763941fd192a1c93bd26509484c0a6",
          "blockNumber": "0x12b36a9",
          "transactionHash": "0xacdf10fb13e7cd39bae08ebccc5f773cfbaffb51376cc47d441b16ed36a440dc",
          "transactionIndex": "0x1e",
          "logIndex": "0x6a",
          "removed": false
        }
      ],
      "status": "0x1",
      "logsBloom": "0x00000000000000000000000000000800000000200000000000000000000000000000000000000000000000000000000000000000000000008000000000844000000000000010000000000000000000000000000000200000000000000000000000000000000000000000000000000000000000000000000000000040000000000000000000000008000000000000000000000000000000000000000000000000000000000000000000000000000000000000002000000000000000000000000020000000000000000001000000000000000000000000000000000000000000000000000000000000000000000001000000000000000000000000000000000010",
      "type": "0x2",
      "effectiveGasPrice": "0x33253a248"
    },
    {
      "transactionHash": "0x0cbf46ff6b1c2d67d1644062203d95ed2f56eaa875377230843b5ea1ef4450a1",
      "transactionIndex": "0x1f",
      "blockHash": "0xfbb459769c0c26f51299d0575bdcbd00fe763941fd192a1c93bd26509484c0a6",
      "blockNumber": "0x12b36a9",
      "from": "0xA9DdD91249DFdd450E81E1c56Ab60E1A62651701",
      "to": "0xBBBBBbbBBb9cC5e90e3b3Af64bdAF62C37EEFFCb",
      "cumulativeGasUsed": "0x3a444d",
      "gasUsed": "0x19121",
      "contractAddress": null,
      "logs": [
        {
          "address": "0xBBBBBbbBBb9cC5e90e3b3Af64bdAF62C37EEFFCb",
          "topics": [
            "0xedf8870433c83823eb071d3df1caa8d008f12f6440918c20d75a3602cda30fe0",
            "0x459687783a68f4cf4e230618f88ce135d1cd459a850f6496751c2a9c1c6e852e",
            "0x000000000000000000000000a9ddd91249dfdd450e81e1c56ab60e1a62651701",
            "0x000000000000000000000000a9ddd91249dfdd450e81e1c56ab60e1a62651701"
          ],
          "data": "0x0000000000000000000000000000000000000000000000000de0b6b3a764000000000000000000000000000000000000000000000000d3c21bcecceda1000000",
          "blockHash": "0xfbb459769c0c26f51299d0575bdcbd00fe763941fd192a1c93bd26509484c0a6",
          "blockNumber": "0x12b36a9",
          "transactionHash": "0x0cbf46ff6b1c2d67d1644062203d95ed2f56eaa875377230843b5ea1ef4450a1",
          "transactionIndex": "0x1f",
          "logIndex": "0x6b",
          "removed": false
        },
        {
          "address": "0x0000206329b97DB379d5E1Bf586BbDB969C63274",
          "topics": [
            "0xddf252ad1be2c89b69c2b068fc378daa952ba7f163c4a11628f55a4df523b3ef",
            "0x000000000000000000000000a9ddd91249dfdd450e81e1c56ab60e1a62651701",
            "0x000000000000000000000000bbbbbbbbbb9cc5e90e3b3af64bdaf62c37eeffcb"
          ],
          "data": "0x0000000000000000000000000000000000000000000000000de0b6b3a7640000",
          "blockHash": "0xfbb459769c0c26f51299d0575bdcbd00fe763941fd192a1c93bd26509484c0a6",
          "blockNumber": "0x12b36a9",
          "transactionHash": "0x0cbf46ff6b1c2d67d1644062203d95ed2f56eaa875377230843b5ea1ef4450a1",
          "transactionIndex": "0x1f",
          "logIndex": "0x6c",
          "removed": false
        }
      ],
      "status": "0x1",
      "logsBloom": "0x00000000000000000000000000000080000000200000000000000000000000000000000000000000000000000000000000000000000000008000000000000000000000000010000000000008800004000000000800000000000000000000000000000000000000000000000000000000000000000000000000000010000000000000000000000008000000000000000000000000000000000000000000000000800000000000000000000000000000000000002000000000800000080000000020000002000000000000000000000000000000004000000000000000000000400000000001000000000000200000000000000000000000000000000000004000",
      "type": "0x2",
      "effectiveGasPrice": "0x33253a248"
    },
    {
      "transactionHash": "0x2cdd26ebbf02b9a30c4210e06915a4d1241f17ab7269629e230e92cfd844389f",
      "transactionIndex": "0x20",
      "blockHash": "0xfbb459769c0c26f51299d0575bdcbd00fe763941fd192a1c93bd26509484c0a6",
      "blockNumber": "0x12b36a9",
      "from": "0xA9DdD91249DFdd450E81E1c56Ab60E1A62651701",
      "to": "0xbf5495Efe5DB9ce00f80364C8B423567e58d2110",
      "cumulativeGasUsed": "0x3b1568",
      "gasUsed": "0xd11b",
      "contractAddress": null,
      "logs": [
        {
          "address": "0xbf5495Efe5DB9ce00f80364C8B423567e58d2110",
          "topics": [
            "0x8c5be1e5ebec7d5bd14f71427d1e84f3dd0314c0f7b2291e5b200ac8c7c3b925",
            "0x000000000000000000000000a9ddd91249dfdd450e81e1c56ab60e1a62651701",
            "0x000000000000000000000000bbbbbbbbbb9cc5e90e3b3af64bdaf62c37eeffcb"
          ],
          "data": "0x000000000000000000000000000000000000000000000000001ff973cafa8000",
          "blockHash": "0xfbb459769c0c26f51299d0575bdcbd00fe763941fd192a1c93bd26509484c0a6",
          "blockNumber": "0x12b36a9",
          "transactionHash": "0x2cdd26ebbf02b9a30c4210e06915a4d1241f17ab7269629e230e92cfd844389f",
          "transactionIndex": "0x20",
          "logIndex": "0x6d",
          "removed": false
        }
      ],
      "status": "0x1",
      "logsBloom": "0x00000000000000000000000000010080000000000000000000000800000000000080000000000000000000000000000000000000000000000000000000200000000000000000000000000000000000000000000000000000000000000000000000000000000000000000000000000000000000000000000000000000000000000000000000000000000000000000000000000000000000000000000000000000820000000000000000000000000000000000000000000000800000080000000000000000000000000000000000000000000000000000000000000000000000000010000001000000000000200000000000000000000000000000000000000000",
      "type": "0x2",
      "effectiveGasPrice": "0x33253a248"
    },
    {
      "transactionHash": "0x7a72138c408f30c89f60bcfe5402ff167ffbfbdbaecf442417acd67a02360ff2",
      "transactionIndex": "0x21",
      "blockHash": "0xfbb459769c0c26f51299d0575bdcbd00fe763941fd192a1c93bd26509484c0a6",
      "blockNumber": "0x12b36a9",
      "from": "0xA9DdD91249DFdd450E81E1c56Ab60E1A62651701",
      "to": "0xBBBBBbbBBb9cC5e90e3b3Af64bdAF62C37EEFFCb",
      "cumulativeGasUsed": "0x3c50b8",
      "gasUsed": "0x13b50",
      "contractAddress": null,
      "logs": [
        {
          "address": "0xBBBBBbbBBb9cC5e90e3b3Af64bdAF62C37EEFFCb",
          "topics": [
            "0xa3b9472a1399e17e123f3c2e6586c23e504184d504de59cdaa2b375e880c6184",
            "0x459687783a68f4cf4e230618f88ce135d1cd459a850f6496751c2a9c1c6e852e",
            "0x000000000000000000000000a9ddd91249dfdd450e81e1c56ab60e1a62651701",
            "0x000000000000000000000000a9ddd91249dfdd450e81e1c56ab60e1a62651701"
          ],
          "data": "0x000000000000000000000000000000000000000000000000001ff973cafa8000",
          "blockHash": "0xfbb459769c0c26f51299d0575bdcbd00fe763941fd192a1c93bd26509484c0a6",
          "blockNumber": "0x12b36a9",
          "transactionHash": "0x7a72138c408f30c89f60bcfe5402ff167ffbfbdbaecf442417acd67a02360ff2",
          "transactionIndex": "0x21",
          "logIndex": "0x6e",
          "removed": false
        },
        {
          "address": "0xbf5495Efe5DB9ce00f80364C8B423567e58d2110",
          "topics": [
            "0x8c5be1e5ebec7d5bd14f71427d1e84f3dd0314c0f7b2291e5b200ac8c7c3b925",
            "0x000000000000000000000000a9ddd91249dfdd450e81e1c56ab60e1a62651701",
            "0x000000000000000000000000bbbbbbbbbb9cc5e90e3b3af64bdaf62c37eeffcb"
          ],
          "data": "0x0000000000000000000000000000000000000000000000000000000000000000",
          "blockHash": "0xfbb459769c0c26f51299d0575bdcbd00fe763941fd192a1c93bd26509484c0a6",
          "blockNumber": "0x12b36a9",
          "transactionHash": "0x7a72138c408f30c89f60bcfe5402ff167ffbfbdbaecf442417acd67a02360ff2",
          "transactionIndex": "0x21",
          "logIndex": "0x6f",
          "removed": false
        },
        {
          "address": "0xbf5495Efe5DB9ce00f80364C8B423567e58d2110",
          "topics": [
            "0xddf252ad1be2c89b69c2b068fc378daa952ba7f163c4a11628f55a4df523b3ef",
            "0x000000000000000000000000a9ddd91249dfdd450e81e1c56ab60e1a62651701",
            "0x000000000000000000000000bbbbbbbbbb9cc5e90e3b3af64bdaf62c37eeffcb"
          ],
          "data": "0x000000000000000000000000000000000000000000000000001ff973cafa8000",
          "blockHash": "0xfbb459769c0c26f51299d0575bdcbd00fe763941fd192a1c93bd26509484c0a6",
          "blockNumber": "0x12b36a9",
          "transactionHash": "0x7a72138c408f30c89f60bcfe5402ff167ffbfbdbaecf442417acd67a02360ff2",
          "transactionIndex": "0x21",
          "logIndex": "0x70",
          "removed": false
        }
      ],
      "status": "0x1",
      "logsBloom": "0x00000000000000000000000000010080000000200000000000000800000000000080000000000000000000000000000000000000000000008000000000200000000000000010000000000008000000000000000000000000000000000000000000000000000000000000000000000000000000000000000000000010000000000000008000000008000000000000000000000000000000000000000000000000820000000000000000000000000000000000002000000000800000080000000020000002000000000000000000000000000000000000000400000000000000000010000001000000000000200000200000000000000000000000000000000000",
      "type": "0x2",
      "effectiveGasPrice": "0x33253a248"
    },
    {
      "transactionHash": "0x98f1505b12128936f8cc6f59a74710051948ee11211a6d6f373fe8341586121d",
      "transactionIndex": "0x22",
      "blockHash": "0xfbb459769c0c26f51299d0575bdcbd00fe763941fd192a1c93bd26509484c0a6",
      "blockNumber": "0x12b36a9",
      "from": "0xA9DdD91249DFdd450E81E1c56Ab60E1A62651701",
      "to": "0xBBBBBbbBBb9cC5e90e3b3Af64bdAF62C37EEFFCb",
      "cumulativeGasUsed": "0x3e579a",
      "gasUsed": "0x206e2",
      "contractAddress": null,
      "logs": [
        {
          "address": "0xBBBBBbbBBb9cC5e90e3b3Af64bdAF62C37EEFFCb",
          "topics": [
            "0x570954540bed6b1304a87dfe815a5eda4a648f7097a16240dcd85c9b5fd42a43",
            "0x459687783a68f4cf4e230618f88ce135d1cd459a850f6496751c2a9c1c6e852e",
            "0x000000000000000000000000a9ddd91249dfdd450e81e1c56ab60e1a62651701",
            "0x000000000000000000000000a9ddd91249dfdd450e81e1c56ab60e1a62651701"
          ],
          "data": "0x000000000000000000000000a9ddd91249dfdd450e81e1c56ab60e1a626517010000000000000000000000000000000000000000000000000c7d713b49da000000000000000000000000000000000000000000000000be951906eba2aa800000",
          "blockHash": "0xfbb459769c0c26f51299d0575bdcbd00fe763941fd192a1c93bd26509484c0a6",
          "blockNumber": "0x12b36a9",
          "transactionHash": "0x98f1505b12128936f8cc6f59a74710051948ee11211a6d6f373fe8341586121d",
          "transactionIndex": "0x22",
          "logIndex": "0x71",
          "removed": false
        },
        {
          "address": "0x0000206329b97DB379d5E1Bf586BbDB969C63274",
          "topics": [
            "0xddf252ad1be2c89b69c2b068fc378daa952ba7f163c4a11628f55a4df523b3ef",
            "0x000000000000000000000000bbbbbbbbbb9cc5e90e3b3af64bdaf62c37eeffcb",
            "0x000000000000000000000000a9ddd91249dfdd450e81e1c56ab60e1a62651701"
          ],
          "data": "0x0000000000000000000000000000000000000000000000000c7d713b49da0000",
          "blockHash": "0xfbb459769c0c26f51299d0575bdcbd00fe763941fd192a1c93bd26509484c0a6",
          "blockNumber": "0x12b36a9",
          "transactionHash": "0x98f1505b12128936f8cc6f59a74710051948ee11211a6d6f373fe8341586121d",
          "transactionIndex": "0x22",
          "logIndex": "0x72",
          "removed": false
        }
      ],
      "status": "0x1",
      "logsBloom": "0x00000000000000000002000000000080000000200000000000000000000000000000000000000000000000000000000000000000000000008000000000000000000000000010000000000008000004000000000000000000000000000000000000000000000000000000000000000000000000000000000000000010000000000000000000000008000000000000000000000000000000000000000000000000800000000000000000000000000000000000002000000000800000080000000020000002000000000000000000000000000000004000000000000000000000000000004001000008000000200000000000000000000000000000000000004000",
      "type": "0x2",
      "effectiveGasPrice": "0x33253a248"
    },
    {
      "transactionHash": "0xcde6503017024a462c992b8a73d29c9e906e127848790ea09270aa56ce48dc05",
      "transactionIndex": "0x23",
      "blockHash": "0xfbb459769c0c26f51299d0575bdcbd00fe763941fd192a1c93bd26509484c0a6",
      "blockNumber": "0x12b36a9",
      "from": "0xA9DdD91249DFdd450E81E1c56Ab60E1A62651701",
      "to": "0x3A7bB36Ee3f3eE32A60e9f2b33c1e5f2E83ad766",
      "cumulativeGasUsed": "0x47d8d4",
      "gasUsed": "0x9813a",
      "contractAddress": null,
      "logs": [
        {
          "address": "0x3A7bB36Ee3f3eE32A60e9f2b33c1e5f2E83ad766",
          "topics": [
            "0x6436acb89463dbc9036f1e52aebf32ac0bf5f69e3987c067110c3ac403ebda33"
          ],
          "data": "0x000000000000000000000000a9ddd91249dfdd450e81e1c56ab60e1a62651701000000000000000000000000599ad2053bfe462ab535f6370b9abba137cdeb83",
          "blockHash": "0xfbb459769c0c26f51299d0575bdcbd00fe763941fd192a1c93bd26509484c0a6",
          "blockNumber": "0x12b36a9",
          "transactionHash": "0xcde6503017024a462c992b8a73d29c9e906e127848790ea09270aa56ce48dc05",
          "transactionIndex": "0x23",
          "logIndex": "0x73",
          "removed": false
        }
      ],
      "status": "0x1",
      "logsBloom": "0x00000000000000000000000000000000000000000000000000000000000000000000000000000000000000000000000000000000000000000000000000000000000000000000000000000000000000000000000000000000000000000000000000000000000000000000000000000000000000000000000000000000000000000000000000000000000000000000000000002000000000000000000000000000000000000000000000000000010000000000000000100000000000000000000000000000000000000000000000000000000000000000000000000000000000000000000000000080000000006000000000000000000000000000000000000000",
      "type": "0x2",
      "effectiveGasPrice": "0x33253a248"
    },
    {
      "transactionHash": "0xdd7e0918b62f9d91ba843acd6b425b7298286ed6d13f8f79e82ade7011174277",
      "transactionIndex": "0x24",
      "blockHash": "0xfbb459769c0c26f51299d0575bdcbd00fe763941fd192a1c93bd26509484c0a6",
      "blockNumber": "0x12b36a9",
      "from": "0xA9DdD91249DFdd450E81E1c56Ab60E1A62651701",
      "to": "0xBBBBBbbBBb9cC5e90e3b3Af64bdAF62C37EEFFCb",
      "cumulativeGasUsed": "0x4ae3c7",
      "gasUsed": "0x30af3",
      "contractAddress": null,
      "logs": [
        {
          "address": "0xBBBBBbbBBb9cC5e90e3b3Af64bdAF62C37EEFFCb",
          "topics": [
            "0xac4b2400f169220b0c0afdde7a0b32e775ba727ea1cb30b35f935cdaab8683ac",
            "0xa72f4af2570dca1b356aa6c1e6a804d0d3df5b23bb092189776d0dc652feabb4"
          ],
          "data": "0x0000000000000000000000000000206329b97db379d5e1bf586bbdb969c63274000000000000000000000000a1290d69c65a6fe4df752f95823fae25cb99e5a7000000000000000000000000599ad2053bfe462ab535f6370b9abba137cdeb83000000000000000000000000870ac11d48b15db9a138cf899d20f13f79ba00bc0000000000000000000000000000000000000000000000000aaf96eb9d0d0000",
          "blockHash": "0xfbb459769c0c26f51299d0575bdcbd00fe763941fd192a1c93bd26509484c0a6",
          "blockNumber": "0x12b36a9",
          "transactionHash": "0xdd7e0918b62f9d91ba843acd6b425b7298286ed6d13f8f79e82ade7011174277",
          "transactionIndex": "0x24",
          "logIndex": "0x74",
          "removed": false
        },
        {
          "address": "0x870aC11D48B15DB9a138Cf899d20F13F79Ba00BC",
          "topics": [
            "0x7120161a7b3d31251e01294ab351ef15a41b91659a36032e4641bb89b121e321",
            "0xa72f4af2570dca1b356aa6c1e6a804d0d3df5b23bb092189776d0dc652feabb4"
          ],
          "data": "0x0000000000000000000000000000000000000000000000000000000012e687bf000000000000000000000000000000000000000000000000000000004b9a1eff",
          "blockHash": "0xfbb459769c0c26f51299d0575bdcbd00fe763941fd192a1c93bd26509484c0a6",
          "blockNumber": "0x12b36a9",
          "transactionHash": "0xdd7e0918b62f9d91ba843acd6b425b7298286ed6d13f8f79e82ade7011174277",
          "transactionIndex": "0x24",
          "logIndex": "0x75",
          "removed": false
        }
      ],
      "status": "0x1",
      "logsBloom": "0x00000000000000000000000000000800000000000000000000000000000000000000000000000000000000000000000000000000000000000000000000844000000000000010000000000000000000000000000000200000000000000000000000000000000000000000000000000000000000000000000000000040000000000000000000000008000000000000000000000000000000000000000000100000008000000000000000000000000000000000000000000000000000000000000060000000000000000001000000000000000000000000000000000000000000000000000000000000000000000001000000000000000000000000000000000010",
      "type": "0x2",
      "effectiveGasPrice": "0x33253a248"
    },
    {
      "transactionHash": "0x33a8967e4428176ae96250ecda1120b533061ef5673274cbe21290b318dd943a",
      "transactionIndex": "0x25",
      "blockHash": "0xfbb459769c0c26f51299d0575bdcbd00fe763941fd192a1c93bd26509484c0a6",
      "blockNumber": "0x12b36a9",
      "from": "0xA9DdD91249DFdd450E81E1c56Ab60E1A62651701",
      "to": "0xBBBBBbbBBb9cC5e90e3b3Af64bdAF62C37EEFFCb",
      "cumulativeGasUsed": "0x4c74e8",
      "gasUsed": "0x19121",
      "contractAddress": null,
      "logs": [
        {
          "address": "0xBBBBBbbBBb9cC5e90e3b3Af64bdAF62C37EEFFCb",
          "topics": [
            "0xedf8870433c83823eb071d3df1caa8d008f12f6440918c20d75a3602cda30fe0",
            "0xa72f4af2570dca1b356aa6c1e6a804d0d3df5b23bb092189776d0dc652feabb4",
            "0x000000000000000000000000a9ddd91249dfdd450e81e1c56ab60e1a62651701",
            "0x000000000000000000000000a9ddd91249dfdd450e81e1c56ab60e1a62651701"
          ],
          "data": "0x0000000000000000000000000000000000000000000000000de0b6b3a764000000000000000000000000000000000000000000000000d3c21bcecceda1000000",
          "blockHash": "0xfbb459769c0c26f51299d0575bdcbd00fe763941fd192a1c93bd26509484c0a6",
          "blockNumber": "0x12b36a9",
          "transactionHash": "0x33a8967e4428176ae96250ecda1120b533061ef5673274cbe21290b318dd943a",
          "transactionIndex": "0x25",
          "logIndex": "0x76",
          "removed": false
        },
        {
          "address": "0x0000206329b97DB379d5E1Bf586BbDB969C63274",
          "topics": [
            "0xddf252ad1be2c89b69c2b068fc378daa952ba7f163c4a11628f55a4df523b3ef",
            "0x000000000000000000000000a9ddd91249dfdd450e81e1c56ab60e1a62651701",
            "0x000000000000000000000000bbbbbbbbbb9cc5e90e3b3af64bdaf62c37eeffcb"
          ],
          "data": "0x0000000000000000000000000000000000000000000000000de0b6b3a7640000",
          "blockHash": "0xfbb459769c0c26f51299d0575bdcbd00fe763941fd192a1c93bd26509484c0a6",
          "blockNumber": "0x12b36a9",
          "transactionHash": "0x33a8967e4428176ae96250ecda1120b533061ef5673274cbe21290b318dd943a",
          "transactionIndex": "0x25",
          "logIndex": "0x77",
          "removed": false
        }
      ],
      "status": "0x1",
      "logsBloom": "0x00000000000000000000000000000080000000000000000000000000000000000000000000000000000000000000000000000000000000000000000000000000000000000010000000000008800004000000000800000000000000000000000000000000000000000000000000000000000000000000000000000010000000000000000000000008000000000000000000000000000000000000000000100000808000000000000000000000000000000000000000000000800000080000000060000002000000000000000000000000000000004000000000000000000000400000000001000000000000200000000000000000000000000000000000004000",
      "type": "0x2",
      "effectiveGasPrice": "0x33253a248"
    }
  ],
  "libraries": [],
  "pending": [],
  "returns": {},
  "timestamp": 1712558779,
  "chain": 1,
  "multi": false,
  "commit": "fc1a619"
}