{
  "transactions": [
    {
      "hash": "0x0240124f36953c83a833b275ba4c35888ebd58210a442f0c42df5f5606a08ed8",
      "transactionType": "CALL",
      "contractName": null,
      "contractAddress": "0x1a7e4e63778b4f12a199c062f3efdd288afcbce8",
      "function": "approve(address,uint256)",
      "arguments": [
        "0xBBBBBbbBBb9cC5e90e3b3Af64bdAF62C37EEFFCb",
        "115792089237316195423570985008687907853269984665640564039457584007913129639935"
      ],
      "transaction": {
        "from": "0xa9ddd91249dfdd450e81e1c56ab60e1a62651701",
        "to": "0x1a7e4e63778b4f12a199c062f3efdd288afcbce8",
        "gas": "0x1335b",
        "value": "0x0",
        "input": "0x095ea7b3000000000000000000000000bbbbbbbbbb9cc5e90e3b3af64bdaf62c37eeffcbffffffffffffffffffffffffffffffffffffffffffffffffffffffffffffffff",
        "nonce": "0x205",
        "chainId": "0x1"
      },
      "additionalContracts": [],
      "isFixedGasLimit": false
    },
    {
      "hash": "0x050bfdd9e303ca5541ed4cc0f7f7e65321623f193dfcdbfbe1a83fc771154549",
      "transactionType": "CALL",
      "contractName": null,
      "contractAddress": "0xbbbbbbbbbb9cc5e90e3b3af64bdaf62c37eeffcb",
      "function": "createMarket((address,address,address,address,uint256))",
      "arguments": [
        "(0x1a7e4e63778B4f12a199C062f3eFdD288afCBce8, 0x7f39C581F595B53c5cb19bD0b3f8dA6c935E2Ca0, 0x44D6d497fb53294f283983E2931972840eb3DD90, 0x870aC11D48B15DB9a138Cf899d20F13F79Ba00BC, 860000000000000000)"
      ],
      "transaction": {
        "from": "0xa9ddd91249dfdd450e81e1c56ab60e1a62651701",
        "to": "0xbbbbbbbbbb9cc5e90e3b3af64bdaf62c37eeffcb",
        "gas": "0x47359",
        "value": "0x0",
        "input": "0x8c1358a20000000000000000000000001a7e4e63778b4f12a199c062f3efdd288afcbce80000000000000000000000007f39c581f595b53c5cb19bd0b3f8da6c935e2ca000000000000000000000000044d6d497fb53294f283983e2931972840eb3dd90000000000000000000000000870ac11d48b15db9a138cf899d20f13f79ba00bc0000000000000000000000000000000000000000000000000bef55718ad60000",
        "nonce": "0x206",
        "chainId": "0x1"
      },
      "additionalContracts": [],
      "isFixedGasLimit": false
    },
    {
      "hash": "0x7a7b48f24e9e9bde24995f62bf026b04ec88a54bb749481e5ce3acd507015360",
      "transactionType": "CALL",
      "contractName": null,
      "contractAddress": "0xbbbbbbbbbb9cc5e90e3b3af64bdaf62c37eeffcb",
      "function": "supply((address,address,address,address,uint256),uint256,uint256,address,bytes)",
      "arguments": [
        "(0x1a7e4e63778B4f12a199C062f3eFdD288afCBce8, 0x7f39C581F595B53c5cb19bD0b3f8dA6c935E2Ca0, 0x44D6d497fb53294f283983E2931972840eb3DD90, 0x870aC11D48B15DB9a138Cf899d20F13F79Ba00BC, 860000000000000000)",
        "500000000000000000",
        "0",
        "0xA9DdD91249DFdd450E81E1c56Ab60E1A62651701",
        "0x"
      ],
      "transaction": {
        "from": "0xa9ddd91249dfdd450e81e1c56ab60e1a62651701",
        "to": "0xbbbbbbbbbb9cc5e90e3b3af64bdaf62c37eeffcb",
        "gas": "0x286f9",
        "value": "0x0",
        "input": "0xa99aad890000000000000000000000001a7e4e63778b4f12a199c062f3efdd288afcbce80000000000000000000000007f39c581f595b53c5cb19bd0b3f8da6c935e2ca000000000000000000000000044d6d497fb53294f283983e2931972840eb3dd90000000000000000000000000870ac11d48b15db9a138cf899d20f13f79ba00bc0000000000000000000000000000000000000000000000000bef55718ad6000000000000000000000000000000000000000000000000000006f05b59d3b200000000000000000000000000000000000000000000000000000000000000000000000000000000000000000000a9ddd91249dfdd450e81e1c56ab60e1a6265170100000000000000000000000000000000000000000000000000000000000001200000000000000000000000000000000000000000000000000000000000000000",
        "nonce": "0x207",
        "chainId": "0x1"
      },
      "additionalContracts": [],
      "isFixedGasLimit": false
    },
    {
      "hash": "0x4e50aa22d5445e1b8370c9a143e1e3ab30a23b664574f8688c6f9b035dcfeee0",
      "transactionType": "CALL",
      "contractName": null,
      "contractAddress": "0x7f39c581f595b53c5cb19bd0b3f8da6c935e2ca0",
      "function": "approve(address,uint256)",
      "arguments": [
        "0xBBBBBbbBBb9cC5e90e3b3Af64bdAF62C37EEFFCb",
        "900000000000000"
      ],
      "transaction": {
        "from": "0xa9ddd91249dfdd450e81e1c56ab60e1a62651701",
        "to": "0x7f39c581f595b53c5cb19bd0b3f8da6c935e2ca0",
        "gas": "0x9d17",
        "value": "0x0",
        "input": "0x095ea7b3000000000000000000000000bbbbbbbbbb9cc5e90e3b3af64bdaf62c37eeffcb0000000000000000000000000000000000000000000000000003328b944c4000",
        "nonce": "0x208",
        "chainId": "0x1"
      },
      "additionalContracts": [],
      "isFixedGasLimit": false
    },
    {
      "hash": "0xc6393321eb9ec855988d0c54fb2f5c86c679479e51038f664e9c2d6c5b599c61",
      "transactionType": "CALL",
      "contractName": null,
      "contractAddress": "0xbbbbbbbbbb9cc5e90e3b3af64bdaf62c37eeffcb",
      "function": "supplyCollateral((address,address,address,address,uint256),uint256,address,bytes)",
      "arguments": [
        "(0x1a7e4e63778B4f12a199C062f3eFdD288afCBce8, 0x7f39C581F595B53c5cb19bD0b3f8dA6c935E2Ca0, 0x44D6d497fb53294f283983E2931972840eb3DD90, 0x870aC11D48B15DB9a138Cf899d20F13F79Ba00BC, 860000000000000000)",
        "900000000000000",
        "0xA9DdD91249DFdd450E81E1c56Ab60E1A62651701",
        "0x"
      ],
      "transaction": {
        "from": "0xa9ddd91249dfdd450e81e1c56ab60e1a62651701",
        "to": "0xbbbbbbbbbb9cc5e90e3b3af64bdaf62c37eeffcb",
        "gas": "0x1825a",
        "value": "0x0",
        "input": "0x238d65790000000000000000000000001a7e4e63778b4f12a199c062f3efdd288afcbce80000000000000000000000007f39c581f595b53c5cb19bd0b3f8da6c935e2ca000000000000000000000000044d6d497fb53294f283983e2931972840eb3dd90000000000000000000000000870ac11d48b15db9a138cf899d20f13f79ba00bc0000000000000000000000000000000000000000000000000bef55718ad600000000000000000000000000000000000000000000000000000003328b944c4000000000000000000000000000a9ddd91249dfdd450e81e1c56ab60e1a6265170100000000000000000000000000000000000000000000000000000000000001000000000000000000000000000000000000000000000000000000000000000000",
        "nonce": "0x209",
        "chainId": "0x1"
      },
      "additionalContracts": [],
      "isFixedGasLimit": false
    },
    {
      "hash": "0xc4bdd9ce143bca72573388ce358d0cfa160b999873a9b8260f9365cf064914a3",
      "transactionType": "CALL",
      "contractName": null,
      "contractAddress": "0xbbbbbbbbbb9cc5e90e3b3af64bdaf62c37eeffcb",
      "function": "borrow((address,address,address,address,uint256),uint256,uint256,address,address)",
      "arguments": [
        "(0x1a7e4e63778B4f12a199C062f3eFdD288afCBce8, 0x7f39C581F595B53c5cb19bD0b3f8dA6c935E2Ca0, 0x44D6d497fb53294f283983E2931972840eb3DD90, 0x870aC11D48B15DB9a138Cf899d20F13F79Ba00BC, 860000000000000000)",
        "450000000000000000",
        "0",
        "0xA9DdD91249DFdd450E81E1c56Ab60E1A62651701",
        "0xA9DdD91249DFdd450E81E1c56Ab60E1A62651701"
      ],
      "transaction": {
        "from": "0xa9ddd91249dfdd450e81e1c56ab60e1a62651701",
        "to": "0xbbbbbbbbbb9cc5e90e3b3af64bdaf62c37eeffcb",
        "gas": "0x40ce8",
        "value": "0x0",
        "input": "0x50d8cd4b0000000000000000000000001a7e4e63778b4f12a199c062f3efdd288afcbce80000000000000000000000007f39c581f595b53c5cb19bd0b3f8da6c935e2ca000000000000000000000000044d6d497fb53294f283983e2931972840eb3dd90000000000000000000000000870ac11d48b15db9a138cf899d20f13f79ba00bc0000000000000000000000000000000000000000000000000bef55718ad60000000000000000000000000000000000000000000000000000063eb89da4ed00000000000000000000000000000000000000000000000000000000000000000000000000000000000000000000a9ddd91249dfdd450e81e1c56ab60e1a62651701000000000000000000000000a9ddd91249dfdd450e81e1c56ab60e1a62651701",
        "nonce": "0x20a",
        "chainId": "0x1"
      },
      "additionalContracts": [],
      "isFixedGasLimit": false
    },
    {
      "hash": "0x567f4cf42a48bf46d522a4b47af75a8a89dae6647489cfd961368852b488062d",
      "transactionType": "CALL",
      "contractName": null,
      "contractAddress": "0xbbbbbbbbbb9cc5e90e3b3af64bdaf62c37eeffcb",
      "function": "createMarket((address,address,address,address,uint256))",
      "arguments": [
        "(0x1a7e4e63778B4f12a199C062f3eFdD288afCBce8, 0x2260FAC5E5542a773Aa44fBCfeDf7C193bc2C599, 0xD122315BD4E89386045F51f6e65A6EeDb0dD31b9, 0x870aC11D48B15DB9a138Cf899d20F13F79Ba00BC, 860000000000000000)"
      ],
      "transaction": {
        "from": "0xa9ddd91249dfdd450e81e1c56ab60e1a62651701",
        "to": "0xbbbbbbbbbb9cc5e90e3b3af64bdaf62c37eeffcb",
        "gas": "0x47359",
        "value": "0x0",
        "input": "0x8c1358a20000000000000000000000001a7e4e63778b4f12a199c062f3efdd288afcbce80000000000000000000000002260fac5e5542a773aa44fbcfedf7c193bc2c599000000000000000000000000d122315bd4e89386045f51f6e65a6eedb0dd31b9000000000000000000000000870ac11d48b15db9a138cf899d20f13f79ba00bc0000000000000000000000000000000000000000000000000bef55718ad60000",
        "nonce": "0x20b",
        "chainId": "0x1"
      },
      "additionalContracts": [],
      "isFixedGasLimit": false
    },
    {
      "hash": "0x3472dc1adff4fd524038c2f9496460cce6e122c87ee81cbe2f7e102201e93cb3",
      "transactionType": "CALL",
      "contractName": null,
      "contractAddress": "0xbbbbbbbbbb9cc5e90e3b3af64bdaf62c37eeffcb",
      "function": "supply((address,address,address,address,uint256),uint256,uint256,address,bytes)",
      "arguments": [
        "(0x1a7e4e63778B4f12a199C062f3eFdD288afCBce8, 0x2260FAC5E5542a773Aa44fBCfeDf7C193bc2C599, 0xD122315BD4E89386045F51f6e65A6EeDb0dD31b9, 0x870aC11D48B15DB9a138Cf899d20F13F79Ba00BC, 860000000000000000)",
        "500000000000000000",
        "0",
        "0xA9DdD91249DFdd450E81E1c56Ab60E1A62651701",
        "0x"
      ],
      "transaction": {
        "from": "0xa9ddd91249dfdd450e81e1c56ab60e1a62651701",
        "to": "0xbbbbbbbbbb9cc5e90e3b3af64bdaf62c37eeffcb",
        "gas": "0x24b57",
        "value": "0x0",
        "input": "0xa99aad890000000000000000000000001a7e4e63778b4f12a199c062f3efdd288afcbce80000000000000000000000002260fac5e5542a773aa44fbcfedf7c193bc2c599000000000000000000000000d122315bd4e89386045f51f6e65a6eedb0dd31b9000000000000000000000000870ac11d48b15db9a138cf899d20f13f79ba00bc0000000000000000000000000000000000000000000000000bef55718ad6000000000000000000000000000000000000000000000000000006f05b59d3b200000000000000000000000000000000000000000000000000000000000000000000000000000000000000000000a9ddd91249dfdd450e81e1c56ab60e1a6265170100000000000000000000000000000000000000000000000000000000000001200000000000000000000000000000000000000000000000000000000000000000",
        "nonce": "0x20c",
        "chainId": "0x1"
      },
      "additionalContracts": [],
      "isFixedGasLimit": false
    },
    {
      "hash": null,
      "transactionType": "CALL",
      "contractName": null,
      "contractAddress": "0x2260fac5e5542a773aa44fbcfedf7c193bc2c599",
      "function": "approve(address,uint256)",
      "arguments": [
        "0xBBBBBbbBBb9cC5e90e3b3Af64bdAF62C37EEFFCb",
        "10000"
      ],
      "transaction": {
        "from": "0xa9ddd91249dfdd450e81e1c56ab60e1a62651701",
        "to": "0x2260fac5e5542a773aa44fbcfedf7c193bc2c599",
        "gas": "0xa861",
        "value": "0x0",
        "input": "0x095ea7b3000000000000000000000000bbbbbbbbbb9cc5e90e3b3af64bdaf62c37eeffcb0000000000000000000000000000000000000000000000000000000000002710",
        "nonce": "0x20d",
        "chainId": "0x1"
      },
      "additionalContracts": [],
      "isFixedGasLimit": false
    },
    {
      "hash": null,
      "transactionType": "CALL",
      "contractName": null,
      "contractAddress": "0xbbbbbbbbbb9cc5e90e3b3af64bdaf62c37eeffcb",
      "function": "supplyCollateral((address,address,address,address,uint256),uint256,address,bytes)",
      "arguments": [
        "(0x1a7e4e63778B4f12a199C062f3eFdD288afCBce8, 0x2260FAC5E5542a773Aa44fBCfeDf7C193bc2C599, 0xD122315BD4E89386045F51f6e65A6EeDb0dD31b9, 0x870aC11D48B15DB9a138Cf899d20F13F79Ba00BC, 860000000000000000)",
        "10000",
        "0xA9DdD91249DFdd450E81E1c56Ab60E1A62651701",
        "0x"
      ],
      "transaction": {
        "from": "0xa9ddd91249dfdd450e81e1c56ab60e1a62651701",
        "to": "0xbbbbbbbbbb9cc5e90e3b3af64bdaf62c37eeffcb",
        "gas": "0x19de4",
        "value": "0x0",
        "input": "0x238d65790000000000000000000000001a7e4e63778b4f12a199c062f3efdd288afcbce80000000000000000000000002260fac5e5542a773aa44fbcfedf7c193bc2c599000000000000000000000000d122315bd4e89386045f51f6e65a6eedb0dd31b9000000000000000000000000870ac11d48b15db9a138cf899d20f13f79ba00bc0000000000000000000000000000000000000000000000000bef55718ad600000000000000000000000000000000000000000000000000000000000000002710000000000000000000000000a9ddd91249dfdd450e81e1c56ab60e1a6265170100000000000000000000000000000000000000000000000000000000000001000000000000000000000000000000000000000000000000000000000000000000",
        "nonce": "0x20e",
        "chainId": "0x1"
      },
      "additionalContracts": [],
      "isFixedGasLimit": false
    },
    {
      "hash": null,
      "transactionType": "CALL",
      "contractName": null,
      "contractAddress": "0xbbbbbbbbbb9cc5e90e3b3af64bdaf62c37eeffcb",
      "function": "borrow((address,address,address,address,uint256),uint256,uint256,address,address)",
      "arguments": [
        "(0x1a7e4e63778B4f12a199C062f3eFdD288afCBce8, 0x2260FAC5E5542a773Aa44fBCfeDf7C193bc2C599, 0xD122315BD4E89386045F51f6e65A6EeDb0dD31b9, 0x870aC11D48B15DB9a138Cf899d20F13F79Ba00BC, 860000000000000000)",
        "450000000000000000",
        "0",
        "0xA9DdD91249DFdd450E81E1c56Ab60E1A62651701",
        "0xA9DdD91249DFdd450E81E1c56Ab60E1A62651701"
      ],
      "transaction": {
        "from": "0xa9ddd91249dfdd450e81e1c56ab60e1a62651701",
        "to": "0xbbbbbbbbbb9cc5e90e3b3af64bdaf62c37eeffcb",
        "gas": "0x322da",
        "value": "0x0",
        "input": "0x50d8cd4b0000000000000000000000001a7e4e63778b4f12a199c062f3efdd288afcbce80000000000000000000000002260fac5e5542a773aa44fbcfedf7c193bc2c599000000000000000000000000d122315bd4e89386045f51f6e65a6eedb0dd31b9000000000000000000000000870ac11d48b15db9a138cf899d20f13f79ba00bc0000000000000000000000000000000000000000000000000bef55718ad60000000000000000000000000000000000000000000000000000063eb89da4ed00000000000000000000000000000000000000000000000000000000000000000000000000000000000000000000a9ddd91249dfdd450e81e1c56ab60e1a62651701000000000000000000000000a9ddd91249dfdd450e81e1c56ab60e1a62651701",
        "nonce": "0x20f",
        "chainId": "0x1"
      },
      "additionalContracts": [],
      "isFixedGasLimit": false
    },
    {
      "hash": null,
      "transactionType": "CALL",
      "contractName": null,
      "contractAddress": "0xbbbbbbbbbb9cc5e90e3b3af64bdaf62c37eeffcb",
      "function": "createMarket((address,address,address,address,uint256))",
      "arguments": [
        "(0x1a7e4e63778B4f12a199C062f3eFdD288afCBce8, 0x0000000000000000000000000000000000000000, 0x0000000000000000000000000000000000000000, 0x0000000000000000000000000000000000000000, 0)"
      ],
      "transaction": {
        "from": "0xa9ddd91249dfdd450e81e1c56ab60e1a62651701",
        "to": "0xbbbbbbbbbb9cc5e90e3b3af64bdaf62c37eeffcb",
        "gas": "0x1df28",
        "value": "0x0",
        "input": "0x8c1358a20000000000000000000000001a7e4e63778b4f12a199c062f3efdd288afcbce80000000000000000000000000000000000000000000000000000000000000000000000000000000000000000000000000000000000000000000000000000000000000000000000000000000000000000000000000000000000000000000000000000000000000000000000000000000000000000000000000000000000000000",
        "nonce": "0x210",
        "chainId": "0x1"
      },
      "additionalContracts": [],
      "isFixedGasLimit": false
    }
  ],
  "receipts": [
    {
      "status": "0x1",
      "cumulativeGasUsed": "0x13009b1",
      "logs": [
        {
          "address": "0x1a7e4e63778b4f12a199c062f3efdd288afcbce8",
          "topics": [
            "0x8c5be1e5ebec7d5bd14f71427d1e84f3dd0314c0f7b2291e5b200ac8c7c3b925",
            "0x000000000000000000000000a9ddd91249dfdd450e81e1c56ab60e1a62651701",
            "0x000000000000000000000000bbbbbbbbbb9cc5e90e3b3af64bdaf62c37eeffcb"
          ],
          "data": "0xffffffffffffffffffffffffffffffffffffffffffffffffffffffffffffffff",
          "blockHash": "0x3c16715198171b37f8006e9d6fd56db8afb3e31a78358ef09a16855886e9e1d9",
          "blockNumber": "0x134d735",
          "transactionHash": "0x0240124f36953c83a833b275ba4c35888ebd58210a442f0c42df5f5606a08ed8",
          "transactionIndex": "0xf1",
          "logIndex": "0x229",
          "removed": false
        }
      ],
      "logsBloom": "0x00000000000000000000000000000080000000000000000000000000000000000000000000000000000000000000000000000000000000000000000800200000000000000000000000000000000000000000000000000000000000000000000000000000000000000000000000000000000000000000000000000000000000000000000000000000000000000000000000000000000000000000000000000000820000000000000000000000000000000000000000000000800000080000000000000000000000000100000000000000000000080000000000000000000000000010000001000000000000200000000000000000000000000000000000000000",
      "type": "0x2",
      "transactionHash": "0x0240124f36953c83a833b275ba4c35888ebd58210a442f0c42df5f5606a08ed8",
      "transactionIndex": "0xf1",
      "blockHash": "0x3c16715198171b37f8006e9d6fd56db8afb3e31a78358ef09a16855886e9e1d9",
      "blockNumber": "0x134d735",
      "gasUsed": "0xd229",
      "effectiveGasPrice": "0x18fb3d732",
      "from": "0xa9ddd91249dfdd450e81e1c56ab60e1a62651701",
      "to": "0x1a7e4e63778b4f12a199c062f3efdd288afcbce8",
      "contractAddress": null
    },
    {
      "status": "0x1",
      "cumulativeGasUsed": "0xaa5bbf",
      "logs": [
        {
          "address": "0xbbbbbbbbbb9cc5e90e3b3af64bdaf62c37eeffcb",
          "topics": [
            "0xac4b2400f169220b0c0afdde7a0b32e775ba727ea1cb30b35f935cdaab8683ac",
            "0x6aed664dab53ed472682c66bfe7299c0352e997bbf008aa5573895f9e9115f03"
          ],
          "data": "0x0000000000000000000000001a7e4e63778b4f12a199c062f3efdd288afcbce80000000000000000000000007f39c581f595b53c5cb19bd0b3f8da6c935e2ca000000000000000000000000044d6d497fb53294f283983e2931972840eb3dd90000000000000000000000000870ac11d48b15db9a138cf899d20f13f79ba00bc0000000000000000000000000000000000000000000000000bef55718ad60000",
          "blockHash": "0x05b2ee794294d81e69f6393882e521d143ac2533ab1802e71d872f740c5e8fca",
          "blockNumber": "0x134d736",
          "transactionHash": "0x050bfdd9e303ca5541ed4cc0f7f7e65321623f193dfcdbfbe1a83fc771154549",
          "transactionIndex": "0x82",
          "logIndex": "0x14d",
          "removed": false
        },
        {
          "address": "0x870ac11d48b15db9a138cf899d20f13f79ba00bc",
          "topics": [
            "0x7120161a7b3d31251e01294ab351ef15a41b91659a36032e4641bb89b121e321",
            "0x6aed664dab53ed472682c66bfe7299c0352e997bbf008aa5573895f9e9115f03"
          ],
          "data": "0x0000000000000000000000000000000000000000000000000000000012e687bf000000000000000000000000000000000000000000000000000000004b9a1eff",
          "blockHash": "0x05b2ee794294d81e69f6393882e521d143ac2533ab1802e71d872f740c5e8fca",
          "blockNumber": "0x134d736",
          "transactionHash": "0x050bfdd9e303ca5541ed4cc0f7f7e65321623f193dfcdbfbe1a83fc771154549",
          "transactionIndex": "0x82",
          "logIndex": "0x14e",
          "removed": false
        }
      ],
      "logsBloom": "0x00000000000000000000000000000800000000000000000000000000000000000000000000000000000000000000000000000000000000000000000000844000000000000010000000000000000000000000000000200000000000000000000000000000000000000000000000000000000000000000000000000040080000000000000000000008000000000000000000000000000000000000000000000000000000000000000000000000000000000000000000000000000000000000000020000000000000000001000000000000000000200000000000000000000000000000000000000000000000000001000000000000000000800000000000000010",
      "type": "0x2",
      "transactionHash": "0x050bfdd9e303ca5541ed4cc0f7f7e65321623f193dfcdbfbe1a83fc771154549",
      "transactionIndex": "0x82",
      "blockHash": "0x05b2ee794294d81e69f6393882e521d143ac2533ab1802e71d872f740c5e8fca",
      "blockNumber": "0x134d736",
      "gasUsed": "0x30b0b",
      "effectiveGasPrice": "0x1a70daefa",
      "from": "0xa9ddd91249dfdd450e81e1c56ab60e1a62651701",
      "to": "0xbbbbbbbbbb9cc5e90e3b3af64bdaf62c37eeffcb",
      "contractAddress": null
    },
    {
      "status": "0x1",
      "cumulativeGasUsed": "0x10eca80",
      "logs": [
        {
          "address": "0x870ac11d48b15db9a138cf899d20f13f79ba00bc",
          "topics": [
            "0x7120161a7b3d31251e01294ab351ef15a41b91659a36032e4641bb89b121e321",
            "0x6aed664dab53ed472682c66bfe7299c0352e997bbf008aa5573895f9e9115f03"
          ],
          "data": "0x0000000000000000000000000000000000000000000000000000000012e6702e000000000000000000000000000000000000000000000000000000004b996277",
          "blockHash": "0xc1d8b5108ba82f46ac1ef1601e07d40fc498c17d8cda0d13f65ef110d53b801a",
          "blockNumber": "0x134d737",
          "transactionHash": "0x7a7b48f24e9e9bde24995f62bf026b04ec88a54bb749481e5ce3acd507015360",
          "transactionIndex": "0xa4",
          "logIndex": "0x169",
          "removed": false
        },
        {
          "address": "0xbbbbbbbbbb9cc5e90e3b3af64bdaf62c37eeffcb",
          "topics": [
            "0x9d9bd501d0657d7dfe415f779a620a62b78bc508ddc0891fbbd8b7ac0f8fce87",
            "0x6aed664dab53ed472682c66bfe7299c0352e997bbf008aa5573895f9e9115f03"
          ],
          "data": "0x0000000000000000000000000000000000000000000000000000000012e6702e00000000000000000000000000000000000000000000000000000000000000000000000000000000000000000000000000000000000000000000000000000000",
          "blockHash": "0xc1d8b5108ba82f46ac1ef1601e07d40fc498c17d8cda0d13f65ef110d53b801a",
          "blockNumber": "0x134d737",
          "transactionHash": "0x7a7b48f24e9e9bde24995f62bf026b04ec88a54bb749481e5ce3acd507015360",
          "transactionIndex": "0xa4",
          "logIndex": "0x16a",
          "removed": false
        },
        {
          "address": "0xbbbbbbbbbb9cc5e90e3b3af64bdaf62c37eeffcb",
          "topics": [
            "0xedf8870433c83823eb071d3df1caa8d008f12f6440918c20d75a3602cda30fe0",
            "0x6aed664dab53ed472682c66bfe7299c0352e997bbf008aa5573895f9e9115f03",
            "0x000000000000000000000000a9ddd91249dfdd450e81e1c56ab60e1a62651701",
            "0x000000000000000000000000a9ddd91249dfdd450e81e1c56ab60e1a62651701"
          ],
          "data": "0x00000000000000000000000000000000000000000000000006f05b59d3b200000000000000000000000000000000000000000000000069e10de76676d0800000",
          "blockHash": "0xc1d8b5108ba82f46ac1ef1601e07d40fc498c17d8cda0d13f65ef110d53b801a",
          "blockNumber": "0x134d737",
          "transactionHash": "0x7a7b48f24e9e9bde24995f62bf026b04ec88a54bb749481e5ce3acd507015360",
          "transactionIndex": "0xa4",
          "logIndex": "0x16b",
          "removed": false
        },
        {
          "address": "0x1a7e4e63778b4f12a199c062f3efdd288afcbce8",
          "topics": [
            "0xddf252ad1be2c89b69c2b068fc378daa952ba7f163c4a11628f55a4df523b3ef",
            "0x000000000000000000000000a9ddd91249dfdd450e81e1c56ab60e1a62651701",
            "0x000000000000000000000000bbbbbbbbbb9cc5e90e3b3af64bdaf62c37eeffcb"
          ],
          "data": "0x00000000000000000000000000000000000000000000000006f05b59d3b20000",
          "blockHash": "0xc1d8b5108ba82f46ac1ef1601e07d40fc498c17d8cda0d13f65ef110d53b801a",
          "blockNumber": "0x134d737",
          "transactionHash": "0x7a7b48f24e9e9bde24995f62bf026b04ec88a54bb749481e5ce3acd507015360",
          "transactionIndex": "0xa4",
          "logIndex": "0x16c",
          "removed": false
        }
      ],
      "logsBloom": "0x00000000000000000000000000000080000000000000000000000000000000000000400000000000000000000000000000000000000000000000000820844000000000000010000000000008800000000000000800200000000000080000000000000000000000000000000000000000000000000000000000000010080000000000000000000008000000000000000000000000000000000000000000000000800000000000000000000000000000000000000000000000800000080000000020000002000000000101000000000000000000280000000000000000000000400000000001000000000000200001000000000000000000800000000000000000",
      "type": "0x2",
      "transactionHash": "0x7a7b48f24e9e9bde24995f62bf026b04ec88a54bb749481e5ce3acd507015360",
      "transactionIndex": "0xa4",
      "blockHash": "0xc1d8b5108ba82f46ac1ef1601e07d40fc498c17d8cda0d13f65ef110d53b801a",
      "blockNumber": "0x134d737",
      "gasUsed": "0x239f6",
      "effectiveGasPrice": "0x1b7c6713a",
      "from": "0xa9ddd91249dfdd450e81e1c56ab60e1a62651701",
      "to": "0xbbbbbbbbbb9cc5e90e3b3af64bdaf62c37eeffcb",
      "contractAddress": null
    },
    {
      "status": "0x1",
      "cumulativeGasUsed": "0xc92cb4",
      "logs": [
        {
          "address": "0x7f39c581f595b53c5cb19bd0b3f8da6c935e2ca0",
          "topics": [
            "0x8c5be1e5ebec7d5bd14f71427d1e84f3dd0314c0f7b2291e5b200ac8c7c3b925",
            "0x000000000000000000000000a9ddd91249dfdd450e81e1c56ab60e1a62651701",
            "0x000000000000000000000000bbbbbbbbbb9cc5e90e3b3af64bdaf62c37eeffcb"
          ],
          "data": "0x0000000000000000000000000000000000000000000000000003328b944c4000",
          "blockHash": "0x37373591ebc398860303b646d73ea6858e4ee3e6e93a5d444972789358ffc5c2",
          "blockNumber": "0x134d738",
          "transactionHash": "0x4e50aa22d5445e1b8370c9a143e1e3ab30a23b664574f8688c6f9b035dcfeee0",
          "transactionIndex": "0x90",
          "logIndex": "0x166",
          "removed": false
        }
      ],
      "logsBloom": "0x00000000000000000000000000000080000000000000000000000000000000000000000000000000000000000000000000000000000000000000000000200000000000000000000000000000000000000000000000000000000000000000000000000000000000000000000000000000000000000000000000000000000000000000000000000000000080000000000000000000000000000000000000000000820000000000000000000000000000000000000000000000800000080000000000000000000000100000000000000000000000000000000000000000000000000010000001000000000000208000000000000000000000000000000000000000",
      "type": "0x2",
      "transactionHash": "0x4e50aa22d5445e1b8370c9a143e1e3ab30a23b664574f8688c6f9b035dcfeee0",
      "transactionIndex": "0x90",
      "blockHash": "0x37373591ebc398860303b646d73ea6858e4ee3e6e93a5d444972789358ffc5c2",
      "blockNumber": "0x134d738",
      "gasUsed": "0x71bc",
      "effectiveGasPrice": "0x1cd7a175f",
      "from": "0xa9ddd91249dfdd450e81e1c56ab60e1a62651701",
      "to": "0x7f39c581f595b53c5cb19bd0b3f8da6c935e2ca0",
      "contractAddress": null
    },
    {
      "status": "0x1",
      "cumulativeGasUsed": "0xbdfc9a",
      "logs": [
        {
          "address": "0xbbbbbbbbbb9cc5e90e3b3af64bdaf62c37eeffcb",
          "topics": [
            "0xa3b9472a1399e17e123f3c2e6586c23e504184d504de59cdaa2b375e880c6184",
            "0x6aed664dab53ed472682c66bfe7299c0352e997bbf008aa5573895f9e9115f03",
            "0x000000000000000000000000a9ddd91249dfdd450e81e1c56ab60e1a62651701",
            "0x000000000000000000000000a9ddd91249dfdd450e81e1c56ab60e1a62651701"
          ],
          "data": "0x0000000000000000000000000000000000000000000000000003328b944c4000",
          "blockHash": "0x3bff936cb2ccea756df6684fafc25ae6f59c7f54ce775ece0047913493a3cf6c",
          "blockNumber": "0x134d739",
          "transactionHash": "0xc6393321eb9ec855988d0c54fb2f5c86c679479e51038f664e9c2d6c5b599c61",
          "transactionIndex": "0x8a",
          "logIndex": "0x148",
          "removed": false
        },
        {
          "address": "0x7f39c581f595b53c5cb19bd0b3f8da6c935e2ca0",
          "topics": [
            "0xddf252ad1be2c89b69c2b068fc378daa952ba7f163c4a11628f55a4df523b3ef",
            "0x000000000000000000000000a9ddd91249dfdd450e81e1c56ab60e1a62651701",
            "0x000000000000000000000000bbbbbbbbbb9cc5e90e3b3af64bdaf62c37eeffcb"
          ],
          "data": "0x0000000000000000000000000000000000000000000000000003328b944c4000",
          "blockHash": "0x3bff936cb2ccea756df6684fafc25ae6f59c7f54ce775ece0047913493a3cf6c",
          "blockNumber": "0x134d739",
          "transactionHash": "0xc6393321eb9ec855988d0c54fb2f5c86c679479e51038f664e9c2d6c5b599c61",
          "transactionIndex": "0x8a",
          "logIndex": "0x149",
          "removed": false
        },
        {
          "address": "0x7f39c581f595b53c5cb19bd0b3f8da6c935e2ca0",
          "topics": [
            "0x8c5be1e5ebec7d5bd14f71427d1e84f3dd0314c0f7b2291e5b200ac8c7c3b925",
            "0x000000000000000000000000a9ddd91249dfdd450e81e1c56ab60e1a62651701",
            "0x000000000000000000000000bbbbbbbbbb9cc5e90e3b3af64bdaf62c37eeffcb"
          ],
          "data": "0x0000000000000000000000000000000000000000000000000000000000000000",
          "blockHash": "0x3bff936cb2ccea756df6684fafc25ae6f59c7f54ce775ece0047913493a3cf6c",
          "blockNumber": "0x134d739",
          "transactionHash": "0xc6393321eb9ec855988d0c54fb2f5c86c679479e51038f664e9c2d6c5b599c61",
          "transactionIndex": "0x8a",
          "logIndex": "0x14a",
          "removed": false
        }
      ],
      "logsBloom": "0x00000000000000000000000000000080000000000000000000000000000000000000000000000000000000000000000000000000000000000000000000200000000000000010000000000008000000000000000000000000000000000000000000000000000000000000000000000000000000000000000000000010080000000000008000000008000080000000000000000000000000000000000000000000820000000000000000000000000000000000000000000000800000080000000020000002000000100000000000000000000000200000000400000000000000000010000001000000000000208000200000000000000000800000000000000000",
      "type": "0x2",
      "transactionHash": "0xc6393321eb9ec855988d0c54fb2f5c86c679479e51038f664e9c2d6c5b599c61",
      "transactionIndex": "0x8a",
      "blockHash": "0x3bff936cb2ccea756df6684fafc25ae6f59c7f54ce775ece0047913493a3cf6c",
      "blockNumber": "0x134d739",
      "gasUsed": "0x117b7",
      "effectiveGasPrice": "0x1cb37f9d3",
      "from": "0xa9ddd91249dfdd450e81e1c56ab60e1a62651701",
      "to": "0xbbbbbbbbbb9cc5e90e3b3af64bdaf62c37eeffcb",
      "contractAddress": null
    },
    {
      "status": "0x1",
      "cumulativeGasUsed": "0x9134f8",
      "logs": [
        {
          "address": "0x870ac11d48b15db9a138cf899d20f13f79ba00bc",
          "topics": [
            "0x7120161a7b3d31251e01294ab351ef15a41b91659a36032e4641bb89b121e321",
            "0x6aed664dab53ed472682c66bfe7299c0352e997bbf008aa5573895f9e9115f03"
          ],
          "data": "0x0000000000000000000000000000000000000000000000000000000012e63544000000000000000000000000000000000000000000000000000000004b9847af",
          "blockHash": "0x3369d9a1642ecfe82f9f0b9979a510481b2301ae706fa80bc0666683d9054fd9",
          "blockNumber": "0x134d73a",
          "transactionHash": "0xc4bdd9ce143bca72573388ce358d0cfa160b999873a9b8260f9365cf064914a3",
          "transactionIndex": "0x56",
          "logIndex": "0x110",
          "removed": false
        },
        {
          "address": "0xbbbbbbbbbb9cc5e90e3b3af64bdaf62c37eeffcb",
          "topics": [
            "0x9d9bd501d0657d7dfe415f779a620a62b78bc508ddc0891fbbd8b7ac0f8fce87",
            "0x6aed664dab53ed472682c66bfe7299c0352e997bbf008aa5573895f9e9115f03"
          ],
          "data": "0x0000000000000000000000000000000000000000000000000000000012e6354400000000000000000000000000000000000000000000000000000000000000000000000000000000000000000000000000000000000000000000000000000000",
          "blockHash": "0x3369d9a1642ecfe82f9f0b9979a510481b2301ae706fa80bc0666683d9054fd9",
          "blockNumber": "0x134d73a",
          "transactionHash": "0xc4bdd9ce143bca72573388ce358d0cfa160b999873a9b8260f9365cf064914a3",
          "transactionIndex": "0x56",
          "logIndex": "0x111",
          "removed": false
        },
        {
          "address": "0xbbbbbbbbbb9cc5e90e3b3af64bdaf62c37eeffcb",
          "topics": [
            "0x570954540bed6b1304a87dfe815a5eda4a648f7097a16240dcd85c9b5fd42a43",
            "0x6aed664dab53ed472682c66bfe7299c0352e997bbf008aa5573895f9e9115f03",
            "0x000000000000000000000000a9ddd91249dfdd450e81e1c56ab60e1a62651701",
            "0x000000000000000000000000a9ddd91249dfdd450e81e1c56ab60e1a62651701"
          ],
          "data": "0x000000000000000000000000a9ddd91249dfdd450e81e1c56ab60e1a62651701000000000000000000000000000000000000000000000000063eb89da4ed0000000000000000000000000000000000000000000000005f4a8c8375d155400000",
          "blockHash": "0x3369d9a1642ecfe82f9f0b9979a510481b2301ae706fa80bc0666683d9054fd9",
          "blockNumber": "0x134d73a",
          "transactionHash": "0xc4bdd9ce143bca72573388ce358d0cfa160b999873a9b8260f9365cf064914a3",
          "transactionIndex": "0x56",
          "logIndex": "0x112",
          "removed": false
        },
        {
          "address": "0x1a7e4e63778b4f12a199c062f3efdd288afcbce8",
          "topics": [
            "0xddf252ad1be2c89b69c2b068fc378daa952ba7f163c4a11628f55a4df523b3ef",
            "0x000000000000000000000000bbbbbbbbbb9cc5e90e3b3af64bdaf62c37eeffcb",
            "0x000000000000000000000000a9ddd91249dfdd450e81e1c56ab60e1a62651701"
          ],
          "data": "0x000000000000000000000000000000000000000000000000063eb89da4ed0000",
          "blockHash": "0x3369d9a1642ecfe82f9f0b9979a510481b2301ae706fa80bc0666683d9054fd9",
          "blockNumber": "0x134d73a",
          "transactionHash": "0xc4bdd9ce143bca72573388ce358d0cfa160b999873a9b8260f9365cf064914a3",
          "transactionIndex": "0x56",
          "logIndex": "0x113",
          "removed": false
        }
      ],
      "logsBloom": "0x00000000000000000002000000000080000000000000000000000000000000000000400000000000000000000000000000000000000000000000000820844000000000000010000000000008000000000000000000200000000000080000000000000000000000000000000000000000000000000000000000000010080000000000000000000008000000000000000000000000000000000000000000000000800000000000000000000000000000000000000000000000800000080000000020000002000000000101000000000000000000280000000000000000000000000000004001000008000000200001000000000000000000800000000000000000",
      "type": "0x2",
      "transactionHash": "0xc4bdd9ce143bca72573388ce358d0cfa160b999873a9b8260f9365cf064914a3",
      "transactionIndex": "0x56",
      "blockHash": "0x3369d9a1642ecfe82f9f0b9979a510481b2301ae706fa80bc0666683d9054fd9",
      "blockNumber": "0x134d73a",
      "gasUsed": "0x34d81",
      "effectiveGasPrice": "0x1c865271a",
      "from": "0xa9ddd91249dfdd450e81e1c56ab60e1a62651701",
      "to": "0xbbbbbbbbbb9cc5e90e3b3af64bdaf62c37eeffcb",
      "contractAddress": null
    },
    {
      "status": "0x1",
      "cumulativeGasUsed": "0xe85ccf",
      "logs": [
        {
          "address": "0xbbbbbbbbbb9cc5e90e3b3af64bdaf62c37eeffcb",
          "topics": [
            "0xac4b2400f169220b0c0afdde7a0b32e775ba727ea1cb30b35f935cdaab8683ac",
            "0x8f3ad887c9a81ec349eec0e6410a6cc95eda44d069f240f3f55a62f1430a37c0"
          ],
          "data": "0x0000000000000000000000001a7e4e63778b4f12a199c062f3efdd288afcbce80000000000000000000000002260fac5e5542a773aa44fbcfedf7c193bc2c599000000000000000000000000d122315bd4e89386045f51f6e65a6eedb0dd31b9000000000000000000000000870ac11d48b15db9a138cf899d20f13f79ba00bc0000000000000000000000000000000000000000000000000bef55718ad60000",
          "blockHash": "0x2f03421c767bf523f14395b9b14d9f710e9653741235c67fb87ba2150ddad532",
          "blockNumber": "0x134d73b",
          "transactionHash": "0x567f4cf42a48bf46d522a4b47af75a8a89dae6647489cfd961368852b488062d",
          "transactionIndex": "0x81",
          "logIndex": "0x1f8",
          "removed": false
        },
        {
          "address": "0x870ac11d48b15db9a138cf899d20f13f79ba00bc",
          "topics": [
            "0x7120161a7b3d31251e01294ab351ef15a41b91659a36032e4641bb89b121e321",
            "0x8f3ad887c9a81ec349eec0e6410a6cc95eda44d069f240f3f55a62f1430a37c0"
          ],
          "data": "0x0000000000000000000000000000000000000000000000000000000012e687bf000000000000000000000000000000000000000000000000000000004b9a1eff",
          "blockHash": "0x2f03421c767bf523f14395b9b14d9f710e9653741235c67fb87ba2150ddad532",
          "blockNumber": "0x134d73b",
          "transactionHash": "0x567f4cf42a48bf46d522a4b47af75a8a89dae6647489cfd961368852b488062d",
          "transactionIndex": "0x81",
          "logIndex": "0x1f9",
          "removed": false
        }
      ],
      "logsBloom": "0x00000000000000000000000000000800000000000000000000000000000000000000000100000000000000000000000000000200000000000000000000844000000000000010000000000000000000000000000000200000000000000000000000000000000000000000000000000000000000000000000000000040000000000000000000000008000000000000000000000400000000000000000000000000000000000000000000000000000000000000000000000000000000000000000020000000000000000001000000000000000000000000000000000000000000000000000000000000000000000001000000000000000000000000000000000010",
      "type": "0x2",
      "transactionHash": "0x567f4cf42a48bf46d522a4b47af75a8a89dae6647489cfd961368852b488062d",
      "transactionIndex": "0x81",
      "blockHash": "0x2f03421c767bf523f14395b9b14d9f710e9653741235c67fb87ba2150ddad532",
      "blockNumber": "0x134d73b",
      "gasUsed": "0x30b0b",
      "effectiveGasPrice": "0x1ce62c15d",
      "from": "0xa9ddd91249dfdd450e81e1c56ab60e1a62651701",
      "to": "0xbbbbbbbbbb9cc5e90e3b3af64bdaf62c37eeffcb",
      "contractAddress": null
    }
  ],
  "libraries": [],
  "pending": [],
  "returns": {},
  "timestamp": 1720181103,
  "chain": 1,
  "commit": "a528c31"
}