{
  "transactions": [
    {
      "hash": "0xaa50e6d24bccdd772a9987d8d376a7e9854147f7296e9cd8bef9477592c58c51",
      "transactionType": "CALL",
      "contractName": null,
      "contractAddress": "0x3a7bb36ee3f3ee32a60e9f2b33c1e5f2e83ad766",
      "function": "createMorphoChainlinkOracleV2(address,uint256,address,address,uint256,address,uint256,address,address,uint256,bytes32)",
      "arguments": [
        "0x0022228a2cc5E7eF0274A7Baa600d44da5aB5776",
        "1000000000000000000",
        "0x0000000000000000000000000000000000000000",
        "0x0000000000000000000000000000000000000000",
        "18",
        "0x0000000000000000000000000000000000000000",
        "1",
        "0x3E7d1eAB13ad0104d2750B8863b489D65364e32D",
        "0x0000000000000000000000000000000000000000",
        "6",
        "0x0000000000000000000000000000000000000000000000000000000000000000"
      ],
      "transaction": {
        "from": "0xa9ddd91249dfdd450e81e1c56ab60e1a62651701",
        "to": "0x3a7bb36ee3f3ee32a60e9f2b33c1e5f2e83ad766",
        "gas": "0xce938",
        "value": "0x0",
        "input": "0xb32cddf40000000000000000000000000022228a2cc5e7ef0274a7baa600d44da5ab57760000000000000000000000000000000000000000000000000de0b6b3a7640000000000000000000000000000000000000000000000000000000000000000000000000000000000000000000000000000000000000000000000000000000000000000000000000000000000000000000000000000000000000000000000000012000000000000000000000000000000000000000000000000000000000000000000000000000000000000000000000000000000000000000000000000000000010000000000000000000000003e7d1eab13ad0104d2750b8863b489d65364e32d000000000000000000000000000000000000000000000000000000000000000000000000000000000000000000000000000000000000000000000000000000060000000000000000000000000000000000000000000000000000000000000000",
        "nonce": "0x249",
        "chainId": "0x1"
      },
      "additionalContracts": [
        {
          "transactionType": "CREATE2",
          "address": "0xab1ee26435fb5e7b005a1d438336d80d097931e7",
          "initCode": "0x6101a08060405234620002fa578062000f1e803803809162000022828562000331565b833961014092839181010312620002fa576200003e8162000355565b91602082015190620000536040840162000355565b90620000626060850162000355565b926080850151956200007760a0870162000355565b9060c0870151956200008c60e0890162000355565b95610100996200009e8b8b0162000355565b6101209a8b0151956001600160a01b0386811615801590620002ef575b620000d190620000ca6200036a565b90620003bf565b811615801590620002e4575b620000ec90620000ca6200036a565b8715956200015a6040516200010181620002ff565b601f8152620001397f7661756c7420636f6e76657273696f6e2073616d706c65206973207a65726f00918260208201528a15620003bf565b604051906200014882620002ff565b601f825260208201528d1515620003bf565b6080528760a05260c0528960e052828c52838b5288885261016098818a52602496870190818811620002cf57620001bd620001ca94620001c4620001bd95620001b6620001bd620001d19b9a97620001b6620001ca986200045b565b9062000429565b916200045b565b6200044d565b906200044d565b604d8111620002ba57600a0a868102968188041490151715620002a5576200029157506101809304835260405193610a269586620004f8873960805186818161014b0152610304015260a0518681816102e301526105b9015260c0518681816103ac0152610560015260e05186818161038b01526104f301525185818160d9015261032d0152518481816101b9015261035c0152518381816103d5015261049a01525182818161027f01526103fe01525181818161021201526104250152f35b634e487b7160e01b60009081526012600452fd5b50634e487b7160e01b60009081526011600452fd5b82634e487b7160e01b60005260116004526000fd5b87634e487b7160e01b60005260116004526000fd5b5060018b14620000dd565b5060018914620000bb565b600080fd5b604081019081106001600160401b038211176200031b57604052565b634e487b7160e01b600052604160045260246000fd5b601f909101601f19168101906001600160401b038211908210176200031b57604052565b51906001600160a01b0382168203620002fa57565b60405190606082016001600160401b038111838210176200031b5760405260228252616e6560f01b6040837f7661756c7420636f6e76657273696f6e2073616d706c65206973206e6f74206f60208201520152565b15620003c85750565b6040519062461bcd60e51b82528160208060048301528251908160248401526000935b8285106200040f575050604492506000838284010152601f80199101168101030190fd5b8481018201518686016044015293810193859350620003eb565b919082018092116200043757565b634e487b7160e01b600052601160045260246000fd5b919082039182116200043757565b6001600160a01b03168015620004f15760206004916040519283809263313ce56760e01b82525afa908115620004e5576000916200049b575b5060ff1690565b6020813d8211620004dc575b81620004b66020938362000331565b81010312620004d857519060ff82168203620004d5575060ff62000494565b80fd5b5080fd5b3d9150620004a7565b6040513d6000823e3d90fd5b5060009056fe60806040818152600436101561001457600080fd5b600091823560e01c908163054f7ac014610584575080632e6f20a614610516578063461739d2146104be57806356095e1114610450578063a035b1fe146102a3578063acfbd39e14610235578063ce4b5bbe146101dd578063dc53858c1461016f578063eaa2d7b4146101015763f50a47181461009057600080fd5b346100fd57817ffffffffffffffffffffffffffffffffffffffffffffffffffffffffffffffffc3601126100fd576020905173ffffffffffffffffffffffffffffffffffffffff7f0000000000000000000000000000000000000000000000000000000000000000168152f35b5080fd5b50346100fd57817ffffffffffffffffffffffffffffffffffffffffffffffffffffffffffffffffc3601126100fd576020905173ffffffffffffffffffffffffffffffffffffffff7f0000000000000000000000000000000000000000000000000000000000000000168152f35b50346100fd57817ffffffffffffffffffffffffffffffffffffffffffffffffffffffffffffffffc3601126100fd576020905173ffffffffffffffffffffffffffffffffffffffff7f0000000000000000000000000000000000000000000000000000000000000000168152f35b50346100fd57817ffffffffffffffffffffffffffffffffffffffffffffffffffffffffffffffffc3601126100fd57602090517f00000000000000000000000000000000000000000000000000000000000000008152f35b50346100fd57817ffffffffffffffffffffffffffffffffffffffffffffffffffffffffffffffffc3601126100fd576020905173ffffffffffffffffffffffffffffffffffffffff7f0000000000000000000000000000000000000000000000000000000000000000168152f35b50346100fd57817ffffffffffffffffffffffffffffffffffffffffffffffffffffffffffffffffc3601126100fd576020906104496103806103576103287f00000000000000000000000000000000000000000000000000000000000000007f000000000000000000000000000000000000000000000000000000000000000061094a565b6103517f00000000000000000000000000000000000000000000000000000000000000006107a5565b906105dc565b6103517f00000000000000000000000000000000000000000000000000000000000000006107a5565b6104226103f96103d07f00000000000000000000000000000000000000000000000000000000000000007f000000000000000000000000000000000000000000000000000000000000000061094a565b6103517f00000000000000000000000000000000000000000000000000000000000000006107a5565b6103517f00000000000000000000000000000000000000000000000000000000000000006107a5565b907f000000000000000000000000000000000000000000000000000000000000000061061e565b9051908152f35b50346100fd57817ffffffffffffffffffffffffffffffffffffffffffffffffffffffffffffffffc3601126100fd576020905173ffffffffffffffffffffffffffffffffffffffff7f0000000000000000000000000000000000000000000000000000000000000000168152f35b50346100fd57817ffffffffffffffffffffffffffffffffffffffffffffffffffffffffffffffffc3601126100fd57602090517f00000000000000000000000000000000000000000000000000000000000000008152f35b50346100fd57817ffffffffffffffffffffffffffffffffffffffffffffffffffffffffffffffffc3601126100fd576020905173ffffffffffffffffffffffffffffffffffffffff7f0000000000000000000000000000000000000000000000000000000000000000168152f35b8390346100fd57817ffffffffffffffffffffffffffffffffffffffffffffffffffffffffffffffffc3601126100fd576020907f00000000000000000000000000000000000000000000000000000000000000008152f35b818102929181159184041417156105ef57565b7f4e487b7100000000000000000000000000000000000000000000000000000000600052601160045260246000fd5b9091828202917fffffffffffffffffffffffffffffffffffffffffffffffffffffffffffffffff848209938380861095039480860395146106dc57848311156106b25782910981600003821680920460028082600302188083028203028083028203028083028203028083028203028083028203028092029003029360018380600003040190848311900302920304170290565b60046040517f227bc153000000000000000000000000000000000000000000000000000000008152fd5b5050809250156106ea570490565b7f4e487b7100000000000000000000000000000000000000000000000000000000600052601260045260246000fd5b90601f7fffffffffffffffffffffffffffffffffffffffffffffffffffffffffffffffe0910116810190811067ffffffffffffffff82111761075a57604052565b7f4e487b7100000000000000000000000000000000000000000000000000000000600052604160045260246000fd5b519069ffffffffffffffffffff821682036107a057565b600080fd5b73ffffffffffffffffffffffffffffffffffffffff1680156109445760049060a06040918251938480927ffeaf968c0000000000000000000000000000000000000000000000000000000082525afa918215610939576000926108e8575b50805181810181811067ffffffffffffffff82111761075a578252600f81526020917f6e6567617469766520616e73776572000000000000000000000000000000000083830152600084126108585750505090565b5180927f08c379a000000000000000000000000000000000000000000000000000000000825280600483015282519283602484015260005b8481106108d1575050507fffffffffffffffffffffffffffffffffffffffffffffffffffffffffffffffe0601f836000604480968601015201168101030190fd5b818101830151868201604401528593508201610890565b909160a0823d8211610931575b8161090260a09383610719565b8101031261092e575061091481610789565b50610926608060208301519201610789565b509038610803565b80fd5b3d91506108f5565b50513d6000823e3d90fd5b50600190565b73ffffffffffffffffffffffffffffffffffffffff169081156109e9576020906024604051809481937f07a2d13a00000000000000000000000000000000000000000000000000000000835260048301525afa9081156109dd576000916109af575090565b906020823d82116109d5575b816109c860209383610719565b8101031261092e57505190565b3d91506109bb565b6040513d6000823e3d90fd5b505060019056fea2646970667358221220de25ff8dd5708a691db44b0da1e6e734e7659c3f9a1801595bc1fa7bf902c00564736f6c634300081500330000000000000000000000000022228a2cc5e7ef0274a7baa600d44da5ab57760000000000000000000000000000000000000000000000000de0b6b3a7640000000000000000000000000000000000000000000000000000000000000000000000000000000000000000000000000000000000000000000000000000000000000000000000000000000000000000000000000000000000000000000000000012000000000000000000000000000000000000000000000000000000000000000000000000000000000000000000000000000000000000000000000000000000010000000000000000000000003e7d1eab13ad0104d2750b8863b489d65364e32d00000000000000000000000000000000000000000000000000000000000000000000000000000000000000000000000000000000000000000000000000000006"
        }
      ],
      "isFixedGasLimit": false
    },
    {
      "hash": "0x191a973970a68331558f8417f33ed482acf31ab5c42208028caa205490eb379a",
      "transactionType": "CALL",
      "contractName": null,
      "contractAddress": "0xbbbbbbbbbb9cc5e90e3b3af64bdaf62c37eeffcb",
      "function": "createMarket((address,address,address,address,uint256))",
      "arguments": [
        "(0xdAC17F958D2ee523a2206206994597C13D831ec7, 0x0022228a2cc5E7eF0274A7Baa600d44da5aB5776, 0xAb1Ee26435fB5E7b005A1d438336d80D097931e7, 0x870aC11D48B15DB9a138Cf899d20F13F79Ba00BC, 945000000000000000)"
      ],
      "transaction": {
        "from": "0xa9ddd91249dfdd450e81e1c56ab60e1a62651701",
        "to": "0xbbbbbbbbbb9cc5e90e3b3af64bdaf62c37eeffcb",
        "gas": "0x47336",
        "value": "0x0",
        "input": "0x8c1358a2000000000000000000000000dac17f958d2ee523a2206206994597c13d831ec70000000000000000000000000022228a2cc5e7ef0274a7baa600d44da5ab5776000000000000000000000000ab1ee26435fb5e7b005a1d438336d80d097931e7000000000000000000000000870ac11d48b15db9a138cf899d20f13f79ba00bc0000000000000000000000000000000000000000000000000d1d507e40be8000",
        "nonce": "0x24a",
        "chainId": "0x1"
      },
      "additionalContracts": [],
      "isFixedGasLimit": false
    },
    {
      "hash": "0x12219791fccaf29f919fe461e7c896ae947b30ff2cee13d032d1dc22e613c949",
      "transactionType": "CALL",
      "contractName": null,
      "contractAddress": "0x0022228a2cc5e7ef0274a7baa600d44da5ab5776",
      "function": "approve(address,uint256)",
      "arguments": [
        "0xBBBBBbbBBb9cC5e90e3b3Af64bdAF62C37EEFFCb",
        "1000000000000000000"
      ],
      "transaction": {
        "from": "0xa9ddd91249dfdd450e81e1c56ab60e1a62651701",
        "to": "0x0022228a2cc5e7ef0274a7baa600d44da5ab5776",
        "gas": "0x11ec1",
        "value": "0x0",
        "input": "0x095ea7b3000000000000000000000000bbbbbbbbbb9cc5e90e3b3af64bdaf62c37eeffcb0000000000000000000000000000000000000000000000000de0b6b3a7640000",
        "nonce": "0x24b",
        "chainId": "0x1"
      },
      "additionalContracts": [],
      "isFixedGasLimit": false
    },
    {
      "hash": "0xeec469c1593fef37a728426e2dafb1f7e96393d43d82d863656ce80a6c40279f",
      "transactionType": "CALL",
      "contractName": null,
      "contractAddress": "0xbbbbbbbbbb9cc5e90e3b3af64bdaf62c37eeffcb",
      "function": "supplyCollateral((address,address,address,address,uint256),uint256,address,bytes)",
      "arguments": [
        "(0xdAC17F958D2ee523a2206206994597C13D831ec7, 0x0022228a2cc5E7eF0274A7Baa600d44da5aB5776, 0xAb1Ee26435fB5E7b005A1d438336d80D097931e7, 0x870aC11D48B15DB9a138Cf899d20F13F79Ba00BC, 945000000000000000)",
        "1000000000000000000",
        "0xA9DdD91249DFdd450E81E1c56Ab60E1A62651701",
        "0x"
      ],
      "transaction": {
        "from": "0xa9ddd91249dfdd450e81e1c56ab60e1a62651701",
        "to": "0xbbbbbbbbbb9cc5e90e3b3af64bdaf62c37eeffcb",
        "gas": "0x1a56f",
        "value": "0x0",
        "input": "0x238d6579000000000000000000000000dac17f958d2ee523a2206206994597c13d831ec70000000000000000000000000022228a2cc5e7ef0274a7baa600d44da5ab5776000000000000000000000000ab1ee26435fb5e7b005a1d438336d80d097931e7000000000000000000000000870ac11d48b15db9a138cf899d20f13f79ba00bc0000000000000000000000000000000000000000000000000d1d507e40be80000000000000000000000000000000000000000000000000000de0b6b3a7640000000000000000000000000000a9ddd91249dfdd450e81e1c56ab60e1a6265170100000000000000000000000000000000000000000000000000000000000001000000000000000000000000000000000000000000000000000000000000000000",
        "nonce": "0x24c",
        "chainId": "0x1"
      },
      "additionalContracts": [],
      "isFixedGasLimit": false
    }
  ],
  "receipts": [
    {
      "status": "0x1",
      "cumulativeGasUsed": "0x106c45e",
      "logs": [
        {
          "address": "0x3a7bb36ee3f3ee32a60e9f2b33c1e5f2e83ad766",
          "topics": [
            "0x6436acb89463dbc9036f1e52aebf32ac0bf5f69e3987c067110c3ac403ebda33"
          ],
          "data": "0x000000000000000000000000a9ddd91249dfdd450e81e1c56ab60e1a62651701000000000000000000000000ab1ee26435fb5e7b005a1d438336d80d097931e7",
          "blockHash": "0xea76b0893e1a7442aa6d7f72eab29f47fed5a8fc57cd584a37065763febaa03f",
          "blockNumber": "0x138523b",
          "transactionHash": "0xaa50e6d24bccdd772a9987d8d376a7e9854147f7296e9cd8bef9477592c58c51",
          "transactionIndex": "0xc7",
          "logIndex": "0x1bf",
          "removed": false
        }
      ],
      "logsBloom": "0x00000000000000000000000000000000000000000000000000000000000000000000000000000000000000000000000000000000000000000000000000000000000000000000000000000000000000000000000000000000000000000000000000000000000000000000000000000000000000000000000000000000000000000000000000000000000000000000000000002000000000000000000000000000000000000000000000000000010000000000000000100000000000000000000000000000000000000000000000000000000000000000000000000000000000000000000000000080000000006000000000000000000000000000000000000000",
      "type": "0x2",
      "transactionHash": "0xaa50e6d24bccdd772a9987d8d376a7e9854147f7296e9cd8bef9477592c58c51",
      "transactionIndex": "0xc7",
      "blockHash": "0xea76b0893e1a7442aa6d7f72eab29f47fed5a8fc57cd584a37065763febaa03f",
      "blockNumber": "0x138523b",
      "gasUsed": "0x958ec",
      "effectiveGasPrice": "0xcf97d16a",
      "from": "0xa9ddd91249dfdd450e81e1c56ab60e1a62651701",
      "to": "0x3a7bb36ee3f3ee32a60e9f2b33c1e5f2e83ad766",
      "contractAddress": null
    },
    {
      "status": "0x1",
      "cumulativeGasUsed": "0xc53a55",
      "logs": [
        {
          "address": "0xbbbbbbbbbb9cc5e90e3b3af64bdaf62c37eeffcb",
          "topics": [
            "0xac4b2400f169220b0c0afdde7a0b32e775ba727ea1cb30b35f935cdaab8683ac",
            "0xa44f90f459658de554346679e449b6166e76d03d9a97bc8573c7dec91c1dbf3a"
          ],
          "data": "0x000000000000000000000000dac17f958d2ee523a2206206994597c13d831ec70000000000000000000000000022228a2cc5e7ef0274a7baa600d44da5ab5776000000000000000000000000ab1ee26435fb5e7b005a1d438336d80d097931e7000000000000000000000000870ac11d48b15db9a138cf899d20f13f79ba00bc0000000000000000000000000000000000000000000000000d1d507e40be8000",
          "blockHash": "0x1dfd9037e48d354ff0f333ab6a6e29b0466ab99c1a41e42468f8d7c568104b32",
          "blockNumber": "0x138523c",
          "transactionHash": "0x191a973970a68331558f8417f33ed482acf31ab5c42208028caa205490eb379a",
          "transactionIndex": "0x89",
          "logIndex": "0x173",
          "removed": false
        },
        {
          "address": "0x870ac11d48b15db9a138cf899d20f13f79ba00bc",
          "topics": [
            "0x7120161a7b3d31251e01294ab351ef15a41b91659a36032e4641bb89b121e321",
            "0xa44f90f459658de554346679e449b6166e76d03d9a97bc8573c7dec91c1dbf3a"
          ],
          "data": "0x0000000000000000000000000000000000000000000000000000000012e687bf000000000000000000000000000000000000000000000000000000004b9a1eff",
          "blockHash": "0x1dfd9037e48d354ff0f333ab6a6e29b0466ab99c1a41e42468f8d7c568104b32",
          "blockNumber": "0x138523c",
          "transactionHash": "0x191a973970a68331558f8417f33ed482acf31ab5c42208028caa205490eb379a",
          "transactionIndex": "0x89",
          "logIndex": "0x174",
          "removed": false
        }
      ],
      "logsBloom": "0x00000000000000000000001000000800000000000000000000000000000000000000000000000000000000000000000000000000000000000000000000844000000000000010000000000000000000000040000000200000000000000000000000000000000000000000000000000000000000000000000000000040000000000000000000000008000000000000000000000000000000000000000000000000000000000000000000000000000000000000000000000000000000000004000020000000000000000001000000000000000000000000000000000000000000000000000000000000000000000001000000000000000000000000000000000010",
      "type": "0x2",
      "transactionHash": "0x191a973970a68331558f8417f33ed482acf31ab5c42208028caa205490eb379a",
      "transactionIndex": "0x89",
      "blockHash": "0x1dfd9037e48d354ff0f333ab6a6e29b0466ab99c1a41e42468f8d7c568104b32",
      "blockNumber": "0x138523c",
      "gasUsed": "0x30af3",
      "effectiveGasPrice": "0xdca5e543",
      "from": "0xa9ddd91249dfdd450e81e1c56ab60e1a62651701",
      "to": "0xbbbbbbbbbb9cc5e90e3b3af64bdaf62c37eeffcb",
      "contractAddress": null
    },
    {
      "status": "0x1",
      "cumulativeGasUsed": "0xd11dcc",
      "logs": [
        {
          "address": "0x0022228a2cc5e7ef0274a7baa600d44da5ab5776",
          "topics": [
            "0x8c5be1e5ebec7d5bd14f71427d1e84f3dd0314c0f7b2291e5b200ac8c7c3b925",
            "0x000000000000000000000000a9ddd91249dfdd450e81e1c56ab60e1a62651701",
            "0x000000000000000000000000bbbbbbbbbb9cc5e90e3b3af64bdaf62c37eeffcb"
          ],
          "data": "0x0000000000000000000000000000000000000000000000000de0b6b3a7640000",
          "blockHash": "0x76c27c5e00b8ecd35c4c3f9649d9658fd4ea5f6c62b375a17fb94dfe8e940b2a",
          "blockNumber": "0x138523d",
          "transactionHash": "0x12219791fccaf29f919fe461e7c896ae947b30ff2cee13d032d1dc22e613c949",
          "transactionIndex": "0x9a",
          "logIndex": "0x163",
          "removed": false
        }
      ],
      "logsBloom": "0x00000000000000000000000000000080000000000000000000000000000000000000000000000000000000000000000000000040000000000000000000200000000000000000000000000000000000000000000000000000000000000000000000000000000000000000000000000000000000000000000000000000000000000000000000000000000000000000000000000000000000000000000000000000820000000000000000000000000000000000000000000000800000080200000000000000000000000000000000000000000000000000000000000000000000000010000001000000000000200000000000000000000000000000000000000008",
      "type": "0x2",
      "transactionHash": "0x12219791fccaf29f919fe461e7c896ae947b30ff2cee13d032d1dc22e613c949",
      "transactionIndex": "0x9a",
      "blockHash": "0x76c27c5e00b8ecd35c4c3f9649d9658fd4ea5f6c62b375a17fb94dfe8e940b2a",
      "blockNumber": "0x138523d",
      "gasUsed": "0xcf9c",
      "effectiveGasPrice": "0xdce395a3",
      "from": "0xa9ddd91249dfdd450e81e1c56ab60e1a62651701",
      "to": "0x0022228a2cc5e7ef0274a7baa600d44da5ab5776",
      "contractAddress": null
    },
    {
      "status": "0x1",
      "cumulativeGasUsed": "0x8d524d",
      "logs": [
        {
          "address": "0xbbbbbbbbbb9cc5e90e3b3af64bdaf62c37eeffcb",
          "topics": [
            "0xa3b9472a1399e17e123f3c2e6586c23e504184d504de59cdaa2b375e880c6184",
            "0xa44f90f459658de554346679e449b6166e76d03d9a97bc8573c7dec91c1dbf3a",
            "0x000000000000000000000000a9ddd91249dfdd450e81e1c56ab60e1a62651701",
            "0x000000000000000000000000a9ddd91249dfdd450e81e1c56ab60e1a62651701"
          ],
          "data": "0x0000000000000000000000000000000000000000000000000de0b6b3a7640000",
          "blockHash": "0x7d565326a4b24062895e3cb9136f3381183aaefb390a4f6cf4849786ddbaf943",
          "blockNumber": "0x138523e",
          "transactionHash": "0xeec469c1593fef37a728426e2dafb1f7e96393d43d82d863656ce80a6c40279f",
          "transactionIndex": "0x5b",
          "logIndex": "0xf4",
          "removed": false
        },
        {
          "address": "0x0022228a2cc5e7ef0274a7baa600d44da5ab5776",
          "topics": [
            "0x8c5be1e5ebec7d5bd14f71427d1e84f3dd0314c0f7b2291e5b200ac8c7c3b925",
            "0x000000000000000000000000a9ddd91249dfdd450e81e1c56ab60e1a62651701",
            "0x000000000000000000000000bbbbbbbbbb9cc5e90e3b3af64bdaf62c37eeffcb"
          ],
          "data": "0x0000000000000000000000000000000000000000000000000000000000000000",
          "blockHash": "0x7d565326a4b24062895e3cb9136f3381183aaefb390a4f6cf4849786ddbaf943",
          "blockNumber": "0x138523e",
          "transactionHash": "0xeec469c1593fef37a728426e2dafb1f7e96393d43d82d863656ce80a6c40279f",
          "transactionIndex": "0x5b",
          "logIndex": "0xf5",
          "removed": false
        },
        {
          "address": "0x0022228a2cc5e7ef0274a7baa600d44da5ab5776",
          "topics": [
            "0xddf252ad1be2c89b69c2b068fc378daa952ba7f163c4a11628f55a4df523b3ef",
            "0x000000000000000000000000a9ddd91249dfdd450e81e1c56ab60e1a62651701",
            "0x000000000000000000000000bbbbbbbbbb9cc5e90e3b3af64bdaf62c37eeffcb"
          ],
          "data": "0x0000000000000000000000000000000000000000000000000de0b6b3a7640000",
          "blockHash": "0x7d565326a4b24062895e3cb9136f3381183aaefb390a4f6cf4849786ddbaf943",
          "blockNumber": "0x138523e",
          "transactionHash": "0xeec469c1593fef37a728426e2dafb1f7e96393d43d82d863656ce80a6c40279f",
          "transactionIndex": "0x5b",
          "logIndex": "0xf6",
          "removed": false
        }
      ],
      "logsBloom": "0x00000000000000000000001000000080000000000000000000000000000000000000000000000000000000000000000000000040000000000000000000200000000000000010000000000008000000000040000000000000000000000000000000000000000000000000000000000000000000000000000000000010000000000000008000000008000000000000000000000000000000000000000000000000820000000000000000000000000000000000000000000000800000080204000020000002000000000000000000000000000000000000000400000000000000000010000001000000000000200000200000000000000000000000000000000008",
      "type": "0x2",
      "transactionHash": "0xeec469c1593fef37a728426e2dafb1f7e96393d43d82d863656ce80a6c40279f",
      "transactionIndex": "0x5b",
      "blockHash": "0x7d565326a4b24062895e3cb9136f3381183aaefb390a4f6cf4849786ddbaf943",
      "blockNumber": "0x138523e",
      "gasUsed": "0x1311d",
      "effectiveGasPrice": "0xdf2de149",
      "from": "0xa9ddd91249dfdd450e81e1c56ab60e1a62651701",
      "to": "0xbbbbbbbbbb9cc5e90e3b3af64bdaf62c37eeffcb",
      "contractAddress": null
    }
  ],
  "libraries": [],
  "pending": [],
  "returns": {},
  "timestamp": 1722932295,
  "chain": 1,
  "commit": "500ec57"
}