{
  "transactions": [
    {
      "hash": "0x8f04e0a463d1cbf4859940ebd83cfba291cb3afbb4e2d9d5d9afe27d0e3bde20",
      "transactionType": "CALL",
      "contractName": null,
      "contractAddress": "0x0000206329b97DB379d5E1Bf586BbDB969C63274",
      "function": "approve(address,uint256)",
      "arguments": [
        "0xBBBBBbbBBb9cC5e90e3b3Af64bdAF62C37EEFFCb",
        "1000000000000000000000"
      ],
      "transaction": {
        "type": "0x02",
        "from": "0xa9ddd91249dfdd450e81e1c56ab60e1a62651701",
        "to": "0x0000206329b97db379d5e1bf586bbdb969c63274",
        "gas": "0x12025",
        "value": "0x0",
        "data": "0x095ea7b3000000000000000000000000bbbbbbbbbb9cc5e90e3b3af64bdaf62c37eeffcb00000000000000000000000000000000000000000000003635c9adc5dea00000",
        "nonce": "0xcf",
        "accessList": []
      },
      "additionalContracts": [],
      "isFixedGasLimit": false
    },
    {
      "hash": "0xa693de3d05748ec3e10833a5f9937d127fb9c9abb2be76ce21da3e109e267843",
      "transactionType": "CALL",
      "contractName": null,
      "contractAddress": "0xBBBBBbbBBb9cC5e90e3b3Af64bdAF62C37EEFFCb",
      "function": null,
      "arguments": null,
      "transaction": {
        "type": "0x02",
        "from": "0xa9ddd91249dfdd450e81e1c56ab60e1a62651701",
        "to": "0xbbbbbbbbbb9cc5e90e3b3af64bdaf62c37eeffcb",
        "gas": "0x20ea9",
        "value": "0x0",
        "data": "0xa99aad890000000000000000000000000000206329b97db379d5e1bf586bbdb969c63274000000000000000000000000c69ad9bab1dee23f4605a82b3354f8e40d1e59660000000000000000000000005441731eed05a8208e795086a5df41416dd34104000000000000000000000000870ac11d48b15db9a138cf899d20f13f79ba00bc0000000000000000000000000000000000000000000000000bef55718ad6000000000000000000000000000000000000000000000000003635c9adc5dea000000000000000000000000000000000000000000000000000000000000000000000000000000000000000000000a9ddd91249dfdd450e81e1c56ab60e1a6265170100000000000000000000000000000000000000000000000000000000000001200000000000000000000000000000000000000000000000000000000000000000",
        "nonce": "0xd0",
        "accessList": []
      },
      "additionalContracts": [],
      "isFixedGasLimit": false
    }
  ],
  "receipts": [
    {
      "transactionHash": "0x8f04e0a463d1cbf4859940ebd83cfba291cb3afbb4e2d9d5d9afe27d0e3bde20",
      "transactionIndex": "0x14",
      "blockHash": "0x445a91b9558a64e2755290dacf42ac755fb068bb450139c9313c261bcaa61499",
      "blockNumber": "0x12c7195",
      "from": "0xA9DdD91249DFdd450E81E1c56Ab60E1A62651701",
      "to": "0x0000206329b97DB379d5E1Bf586BbDB969C63274",
      "cumulativeGasUsed": "0x17cfff",
      "gasUsed": "0xd09e",
      "contractAddress": null,
      "logs": [
        {
          "address": "0x0000206329b97DB379d5E1Bf586BbDB969C63274",
          "topics": [
            "0x8c5be1e5ebec7d5bd14f71427d1e84f3dd0314c0f7b2291e5b200ac8c7c3b925",
            "0x000000000000000000000000a9ddd91249dfdd450e81e1c56ab60e1a62651701",
            "0x000000000000000000000000bbbbbbbbbb9cc5e90e3b3af64bdaf62c37eeffcb"
          ],
          "data": "0x00000000000000000000000000000000000000000000003635c9adc5dea00000",
          "blockHash": "0x445a91b9558a64e2755290dacf42ac755fb068bb450139c9313c261bcaa61499",
          "blockNumber": "0x12c7195",
          "transactionHash": "0x8f04e0a463d1cbf4859940ebd83cfba291cb3afbb4e2d9d5d9afe27d0e3bde20",
          "transactionIndex": "0x14",
          "logIndex": "0x22",
          "removed": false
        }
      ],
      "status": "0x1",
      "logsBloom": "0x00000000000000000000000000000080000000000000000000000000000000000000000000000000000000000000000000000000000000000000000000200000000000000000000000000000000004000000000000000000000000000000000000000000000000000000000000000000000000000000000000000000000000000000000000000000000000000000000000000000000000000000000000000000820000000000000000000000000000000000000000000000800000080000000000000000000000000000000000000000000000004000000000000000000000000010000001000000000000200000000000000000000000000000000000004000",
      "type": "0x2",
      "effectiveGasPrice": "0x4125222a8"
    },
    {
      "transactionHash": "0xa693de3d05748ec3e10833a5f9937d127fb9c9abb2be76ce21da3e109e267843",
      "transactionIndex": "0x11",
      "blockHash": "0x3f1dd5d383344939f5f5d05f2fddc39cbf0cd870806dc2b35bce109ffb96c626",
      "blockNumber": "0x12c7196",
      "from": "0xA9DdD91249DFdd450E81E1c56Ab60E1A62651701",
      "to": "0xBBBBBbbBBb9cC5e90e3b3Af64bdAF62C37EEFFCb",
      "cumulativeGasUsed": "0x23b626",
      "gasUsed": "0x17d4c",
      "contractAddress": null,
      "logs": [
        {
          "address": "0x870aC11D48B15DB9a138Cf899d20F13F79Ba00BC",
          "topics": [
            "0x7120161a7b3d31251e01294ab351ef15a41b91659a36032e4641bb89b121e321",
            "0xcc7b191903e4750ad71898a1594d912adbb5bb1c6effcde9c38f0a798112edd1"
          ],
          "data": "0x0000000000000000000000000000000000000000000000000000000132448de4000000000000000000000000000000000000000000000000000000004d8b31bd",
          "blockHash": "0x3f1dd5d383344939f5f5d05f2fddc39cbf0cd870806dc2b35bce109ffb96c626",
          "blockNumber": "0x12c7196",
          "transactionHash": "0xa693de3d05748ec3e10833a5f9937d127fb9c9abb2be76ce21da3e109e267843",
          "transactionIndex": "0x11",
          "logIndex": "0x4a",
          "removed": false
        },
        {
          "address": "0xBBBBBbbBBb9cC5e90e3b3Af64bdAF62C37EEFFCb",
          "topics": [
            "0x9d9bd501d0657d7dfe415f779a620a62b78bc508ddc0891fbbd8b7ac0f8fce87",
            "0xcc7b191903e4750ad71898a1594d912adbb5bb1c6effcde9c38f0a798112edd1"
          ],
          "data": "0x0000000000000000000000000000000000000000000000000000000132448de400000000000000000000000000000000000000000000000000004afb2af90ee40000000000000000000000000000000000000000000000000000000000000000",
          "blockHash": "0x3f1dd5d383344939f5f5d05f2fddc39cbf0cd870806dc2b35bce109ffb96c626",
          "blockNumber": "0x12c7196",
          "transactionHash": "0xa693de3d05748ec3e10833a5f9937d127fb9c9abb2be76ce21da3e109e267843",
          "transactionIndex": "0x11",
          "logIndex": "0x4b",
          "removed": false
        },
        {
          "address": "0xBBBBBbbBBb9cC5e90e3b3Af64bdAF62C37EEFFCb",
          "topics": [
            "0xedf8870433c83823eb071d3df1caa8d008f12f6440918c20d75a3602cda30fe0",
            "0xcc7b191903e4750ad71898a1594d912adbb5bb1c6effcde9c38f0a798112edd1",
            "0x000000000000000000000000a9ddd91249dfdd450e81e1c56ab60e1a62651701",
            "0x000000000000000000000000a9ddd91249dfdd450e81e1c56ab60e1a62651701"
          ],
          "data": "0x00000000000000000000000000000000000000000000003635c9adc5dea000000000000000000000000000000000000000000000033b1cc7c4f81ab3d4c4a688",
          "blockHash": "0x3f1dd5d383344939f5f5d05f2fddc39cbf0cd870806dc2b35bce109ffb96c626",
          "blockNumber": "0x12c7196",
          "transactionHash": "0xa693de3d05748ec3e10833a5f9937d127fb9c9abb2be76ce21da3e109e267843",
          "transactionIndex": "0x11",
          "logIndex": "0x4c",
          "removed": false
        },
        {
          "address": "0x0000206329b97DB379d5E1Bf586BbDB969C63274",
          "topics": [
            "0x8c5be1e5ebec7d5bd14f71427d1e84f3dd0314c0f7b2291e5b200ac8c7c3b925",
            "0x000000000000000000000000a9ddd91249dfdd450e81e1c56ab60e1a62651701",
            "0x000000000000000000000000bbbbbbbbbb9cc5e90e3b3af64bdaf62c37eeffcb"
          ],
          "data": "0x0000000000000000000000000000000000000000000000000000000000000000",
          "blockHash": "0x3f1dd5d383344939f5f5d05f2fddc39cbf0cd870806dc2b35bce109ffb96c626",
          "blockNumber": "0x12c7196",
          "transactionHash": "0xa693de3d05748ec3e10833a5f9937d127fb9c9abb2be76ce21da3e109e267843",
          "transactionIndex": "0x11",
          "logIndex": "0x4d",
          "removed": false
        },
        {
          "address": "0x0000206329b97DB379d5E1Bf586BbDB969C63274",
          "topics": [
            "0xddf252ad1be2c89b69c2b068fc378daa952ba7f163c4a11628f55a4df523b3ef",
            "0x000000000000000000000000a9ddd91249dfdd450e81e1c56ab60e1a62651701",
            "0x000000000000000000000000bbbbbbbbbb9cc5e90e3b3af64bdaf62c37eeffcb"
          ],
          "data": "0x00000000000000000000000000000000000000000000003635c9adc5dea00000",
          "blockHash": "0x3f1dd5d383344939f5f5d05f2fddc39cbf0cd870806dc2b35bce109ffb96c626",
          "blockNumber": "0x12c7196",
          "transactionHash": "0xa693de3d05748ec3e10833a5f9937d127fb9c9abb2be76ce21da3e109e267843",
          "transactionIndex": "0x11",
          "logIndex": "0x4e",
          "removed": false
        }
      ],
      "status": "0x1",
      "logsBloom": "0x00000000000000000000000000000080000000200000000000000000000000000000400000000000000000000000000000000000000000000000000020a44000000000000010000000000008800004000004000800200000000000080000000000000000000000000000000000000000000000000000000000000010000000000000000000000008000000000000000000000000000000000000000000000000820000000000000000000020000000000000000000000000800000080000000020000002000000000001000000000000000000004000000000000000000000400010000001000000000000200001000000000000000000000000000000004000",
      "type": "0x2",
      "effectiveGasPrice": "0x3fbf61414"
    }
  ],
  "libraries": [],
  "pending": [],
  "returns": {},
  "timestamp": 1713534482,
  "chain": 1,
  "multi": false,
  "commit": "af30618"
}