{
  "transactions": [
    {
      "hash": "0x53d0f7176e9cbce7514556e8b6fe7d5e1c449f4277ef91899939a069614cf156",
      "transactionType": "CALL",
      "contractName": null,
      "contractAddress": "0x0000206329b97DB379d5E1Bf586BbDB969C63274",
      "function": "approve(address,uint256)",
      "arguments": [
        "0xBBBBBbbBBb9cC5e90e3b3Af64bdAF62C37EEFFCb",
        "10000000000000000000"
      ],
      "transaction": {
        "type": "0x02",
        "from": "0xa9ddd91249dfdd450e81e1c56ab60e1a62651701",
        "to": "0x0000206329b97db379d5e1bf586bbdb969c63274",
        "gas": "0xc3d2",
        "value": "0x0",
        "data": "0x095ea7b3000000000000000000000000bbbbbbbbbb9cc5e90e3b3af64bdaf62c37eeffcb0000000000000000000000000000000000000000000000008ac7230489e80000",
        "nonce": "0xa9",
        "accessList": []
      },
      "additionalContracts": [],
      "isFixedGasLimit": false
    },
    {
      "hash": "0x8afd81fb500577525bcabca4431d414fc8d37a8386a84805d5373785dba1b6d1",
      "transactionType": "CALL",
      "contractName": null,
      "contractAddress": "0x3A7bB36Ee3f3eE32A60e9f2b33c1e5f2E83ad766",
      "function": null,
      "arguments": null,
      "transaction": {
        "type": "0x02",
        "from": "0xa9ddd91249dfdd450e81e1c56ab60e1a62651701",
        "to": "0x3a7bb36ee3f3ee32a60e9f2b33c1e5f2e83ad766",
        "gas": "0xd0259",
        "value": "0x0",
        "data": "0xb32cddf400000000000000000000000000000000000000000000000000000000000000000000000000000000000000000000000000000000000000000000000000000001000000000000000000000000c9dfd5c18f12a3ba6293001700810602efe0c45b000000000000000000000000ddb6f90ffb4d3257dd666b69178e5b3c5bf411360000000000000000000000000000000000000000000000000000000000000012000000000000000000000000000000000000000000000000000000000000000000000000000000000000000000000000000000000000000000000000000000010000000000000000000000000000000000000000000000000000000000000000000000000000000000000000000000000000000000000000000000000000000000000000000000000000000000000000000000000000000000000000000000120000000000000000000000000000000000000000000000000000000000000000",
        "nonce": "0xaa",
        "accessList": []
      },
      "additionalContracts": [
        {
          "transactionType": "CREATE2",
          "address": "0x5441731eED05A8208e795086a5dF41416DD34104",
          "initCode": "0x6101a08060405234620002fa578062000f1e803803809162000022828562000331565b833961014092839181010312620002fa576200003e8162000355565b91602082015190620000536040840162000355565b90620000626060850162000355565b926080850151956200007760a0870162000355565b9060c0870151956200008c60e0890162000355565b95610100996200009e8b8b0162000355565b6101209a8b0151956001600160a01b0386811615801590620002ef575b620000d190620000ca6200036a565b90620003bf565b811615801590620002e4575b620000ec90620000ca6200036a565b8715956200015a6040516200010181620002ff565b601f8152620001397f7661756c7420636f6e76657273696f6e2073616d706c65206973207a65726f00918260208201528a15620003bf565b604051906200014882620002ff565b601f825260208201528d1515620003bf565b6080528760a05260c0528960e052828c52838b5288885261016098818a52602496870190818811620002cf57620001bd620001ca94620001c4620001bd95620001b6620001bd620001d19b9a97620001b6620001ca986200045b565b9062000429565b916200045b565b6200044d565b906200044d565b604d8111620002ba57600a0a868102968188041490151715620002a5576200029157506101809304835260405193610a269586620004f8873960805186818161014b0152610304015260a0518681816102e301526105b9015260c0518681816103ac0152610560015260e05186818161038b01526104f301525185818160d9015261032d0152518481816101b9015261035c0152518381816103d5015261049a01525182818161027f01526103fe01525181818161021201526104250152f35b634e487b7160e01b60009081526012600452fd5b50634e487b7160e01b60009081526011600452fd5b82634e487b7160e01b60005260116004526000fd5b87634e487b7160e01b60005260116004526000fd5b5060018b14620000dd565b5060018914620000bb565b600080fd5b604081019081106001600160401b038211176200031b57604052565b634e487b7160e01b600052604160045260246000fd5b601f909101601f19168101906001600160401b038211908210176200031b57604052565b51906001600160a01b0382168203620002fa57565b60405190606082016001600160401b038111838210176200031b5760405260228252616e6560f01b6040837f7661756c7420636f6e76657273696f6e2073616d706c65206973206e6f74206f60208201520152565b15620003c85750565b6040519062461bcd60e51b82528160208060048301528251908160248401526000935b8285106200040f575050604492506000838284010152601f80199101168101030190fd5b8481018201518686016044015293810193859350620003eb565b919082018092116200043757565b634e487b7160e01b600052601160045260246000fd5b919082039182116200043757565b6001600160a01b03168015620004f15760206004916040519283809263313ce56760e01b82525afa908115620004e5576000916200049b575b5060ff1690565b6020813d8211620004dc575b81620004b66020938362000331565b81010312620004d857519060ff82168203620004d5575060ff62000494565b80fd5b5080fd5b3d9150620004a7565b6040513d6000823e3d90fd5b5060009056fe60806040818152600436101561001457600080fd5b600091823560e01c908163054f7ac014610584575080632e6f20a614610516578063461739d2146104be57806356095e1114610450578063a035b1fe146102a3578063acfbd39e14610235578063ce4b5bbe146101dd578063dc53858c1461016f578063eaa2d7b4146101015763f50a47181461009057600080fd5b346100fd57817ffffffffffffffffffffffffffffffffffffffffffffffffffffffffffffffffc3601126100fd576020905173ffffffffffffffffffffffffffffffffffffffff7f0000000000000000000000000000000000000000000000000000000000000000168152f35b5080fd5b50346100fd57817ffffffffffffffffffffffffffffffffffffffffffffffffffffffffffffffffc3601126100fd576020905173ffffffffffffffffffffffffffffffffffffffff7f0000000000000000000000000000000000000000000000000000000000000000168152f35b50346100fd57817ffffffffffffffffffffffffffffffffffffffffffffffffffffffffffffffffc3601126100fd576020905173ffffffffffffffffffffffffffffffffffffffff7f0000000000000000000000000000000000000000000000000000000000000000168152f35b50346100fd57817ffffffffffffffffffffffffffffffffffffffffffffffffffffffffffffffffc3601126100fd57602090517f00000000000000000000000000000000000000000000000000000000000000008152f35b50346100fd57817ffffffffffffffffffffffffffffffffffffffffffffffffffffffffffffffffc3601126100fd576020905173ffffffffffffffffffffffffffffffffffffffff7f0000000000000000000000000000000000000000000000000000000000000000168152f35b50346100fd57817ffffffffffffffffffffffffffffffffffffffffffffffffffffffffffffffffc3601126100fd576020906104496103806103576103287f00000000000000000000000000000000000000000000000000000000000000007f000000000000000000000000000000000000000000000000000000000000000061094a565b6103517f00000000000000000000000000000000000000000000000000000000000000006107a5565b906105dc565b6103517f00000000000000000000000000000000000000000000000000000000000000006107a5565b6104226103f96103d07f00000000000000000000000000000000000000000000000000000000000000007f000000000000000000000000000000000000000000000000000000000000000061094a565b6103517f00000000000000000000000000000000000000000000000000000000000000006107a5565b6103517f00000000000000000000000000000000000000000000000000000000000000006107a5565b907f000000000000000000000000000000000000000000000000000000000000000061061e565b9051908152f35b50346100fd57817ffffffffffffffffffffffffffffffffffffffffffffffffffffffffffffffffc3601126100fd576020905173ffffffffffffffffffffffffffffffffffffffff7f0000000000000000000000000000000000000000000000000000000000000000168152f35b50346100fd57817ffffffffffffffffffffffffffffffffffffffffffffffffffffffffffffffffc3601126100fd57602090517f00000000000000000000000000000000000000000000000000000000000000008152f35b50346100fd57817ffffffffffffffffffffffffffffffffffffffffffffffffffffffffffffffffc3601126100fd576020905173ffffffffffffffffffffffffffffffffffffffff7f0000000000000000000000000000000000000000000000000000000000000000168152f35b8390346100fd57817ffffffffffffffffffffffffffffffffffffffffffffffffffffffffffffffffc3601126100fd576020907f00000000000000000000000000000000000000000000000000000000000000008152f35b818102929181159184041417156105ef57565b7f4e487b7100000000000000000000000000000000000000000000000000000000600052601160045260246000fd5b9091828202917fffffffffffffffffffffffffffffffffffffffffffffffffffffffffffffffff848209938380861095039480860395146106dc57848311156106b25782910981600003821680920460028082600302188083028203028083028203028083028203028083028203028083028203028092029003029360018380600003040190848311900302920304170290565b60046040517f227bc153000000000000000000000000000000000000000000000000000000008152fd5b5050809250156106ea570490565b7f4e487b7100000000000000000000000000000000000000000000000000000000600052601260045260246000fd5b90601f7fffffffffffffffffffffffffffffffffffffffffffffffffffffffffffffffe0910116810190811067ffffffffffffffff82111761075a57604052565b7f4e487b7100000000000000000000000000000000000000000000000000000000600052604160045260246000fd5b519069ffffffffffffffffffff821682036107a057565b600080fd5b73ffffffffffffffffffffffffffffffffffffffff1680156109445760049060a06040918251938480927ffeaf968c0000000000000000000000000000000000000000000000000000000082525afa918215610939576000926108e8575b50805181810181811067ffffffffffffffff82111761075a578252600f81526020917f6e6567617469766520616e73776572000000000000000000000000000000000083830152600084126108585750505090565b5180927f08c379a000000000000000000000000000000000000000000000000000000000825280600483015282519283602484015260005b8481106108d1575050507fffffffffffffffffffffffffffffffffffffffffffffffffffffffffffffffe0601f836000604480968601015201168101030190fd5b818101830151868201604401528593508201610890565b909160a0823d8211610931575b8161090260a09383610719565b8101031261092e575061091481610789565b50610926608060208301519201610789565b509038610803565b80fd5b3d91506108f5565b50513d6000823e3d90fd5b50600190565b73ffffffffffffffffffffffffffffffffffffffff169081156109e9576020906024604051809481937f07a2d13a00000000000000000000000000000000000000000000000000000000835260048301525afa9081156109dd576000916109af575090565b906020823d82116109d5575b816109c860209383610719565b8101031261092e57505190565b3d91506109bb565b6040513d6000823e3d90fd5b505060019056fea2646970667358221220de25ff8dd5708a691db44b0da1e6e734e7659c3f9a1801595bc1fa7bf902c00564736f6c6343000815003300000000000000000000000000000000000000000000000000000000000000000000000000000000000000000000000000000000000000000000000000000001000000000000000000000000c9dfd5c18f12a3ba6293001700810602efe0c45b000000000000000000000000ddb6f90ffb4d3257dd666b69178e5b3c5bf41136000000000000000000000000000000000000000000000000000000000000001200000000000000000000000000000000000000000000000000000000000000000000000000000000000000000000000000000000000000000000000000000001000000000000000000000000000000000000000000000000000000000000000000000000000000000000000000000000000000000000000000000000000000000000000000000000000000000000000000000000000000000000000000000012"
        }
      ],
      "isFixedGasLimit": false
    },
    {
      "hash": "0x3dc02cd73156728273cbaf469d22c28b38ac55ad89c943af039c350b8c3e47b3",
      "transactionType": "CALL",
      "contractName": null,
      "contractAddress": "0xBBBBBbbBBb9cC5e90e3b3Af64bdAF62C37EEFFCb",
      "function": null,
      "arguments": null,
      "transaction": {
        "type": "0x02",
        "from": "0xa9ddd91249dfdd450e81e1c56ab60e1a62651701",
        "to": "0xbbbbbbbbbb9cc5e90e3b3af64bdaf62c37eeffcb",
        "gas": "0x47336",
        "value": "0x0",
        "data": "0x8c1358a20000000000000000000000000000206329b97db379d5e1bf586bbdb969c63274000000000000000000000000c69ad9bab1dee23f4605a82b3354f8e40d1e59660000000000000000000000005441731eed05a8208e795086a5df41416dd34104000000000000000000000000870ac11d48b15db9a138cf899d20f13f79ba00bc0000000000000000000000000000000000000000000000000bef55718ad60000",
        "nonce": "0xab",
        "accessList": []
      },
      "additionalContracts": [],
      "isFixedGasLimit": false
    },
    {
      "hash": "0xc39562b80d9090db94c58b2ec5638bd7d79eb80270a9910cbfcac04223ae472d",
      "transactionType": "CALL",
      "contractName": null,
      "contractAddress": "0xBBBBBbbBBb9cC5e90e3b3Af64bdAF62C37EEFFCb",
      "function": null,
      "arguments": null,
      "transaction": {
        "type": "0x02",
        "from": "0xa9ddd91249dfdd450e81e1c56ab60e1a62651701",
        "to": "0xbbbbbbbbbb9cc5e90e3b3af64bdaf62c37eeffcb",
        "gas": "0x244f7",
        "value": "0x0",
        "data": "0xa99aad890000000000000000000000000000206329b97db379d5e1bf586bbdb969c63274000000000000000000000000c69ad9bab1dee23f4605a82b3354f8e40d1e59660000000000000000000000005441731eed05a8208e795086a5df41416dd34104000000000000000000000000870ac11d48b15db9a138cf899d20f13f79ba00bc0000000000000000000000000000000000000000000000000bef55718ad600000000000000000000000000000000000000000000000000000de0b6b3a76400000000000000000000000000000000000000000000000000000000000000000000000000000000000000000000a9ddd91249dfdd450e81e1c56ab60e1a6265170100000000000000000000000000000000000000000000000000000000000001200000000000000000000000000000000000000000000000000000000000000000",
        "nonce": "0xac",
        "accessList": []
      },
      "additionalContracts": [],
      "isFixedGasLimit": false
    },
    {
      "hash": "0x899ecb9330a8923334a84094c99e92fd7146833d4368cf3b886b82a7a6b407b5",
      "transactionType": "CALL",
      "contractName": null,
      "contractAddress": "0xc69Ad9baB1dEE23F4605a82b3354F8E40d1E5966",
      "function": "approve(address,uint256)",
      "arguments": [
        "0xBBBBBbbBBb9cC5e90e3b3Af64bdAF62C37EEFFCb",
        "10000000000000000"
      ],
      "transaction": {
        "type": "0x02",
        "from": "0xa9ddd91249dfdd450e81e1c56ab60e1a62651701",
        "to": "0xc69ad9bab1dee23f4605a82b3354f8e40d1e5966",
        "gas": "0xf814",
        "value": "0x0",
        "data": "0x095ea7b3000000000000000000000000bbbbbbbbbb9cc5e90e3b3af64bdaf62c37eeffcb000000000000000000000000000000000000000000000000002386f26fc10000",
        "nonce": "0xad",
        "accessList": []
      },
      "additionalContracts": [],
      "isFixedGasLimit": false
    },
    {
      "hash": "0xc67be00c4ccb852266ab85329ba2180dfff2fe0d706a4c88d6b543c9cdb5fa8b",
      "transactionType": "CALL",
      "contractName": null,
      "contractAddress": "0xBBBBBbbBBb9cC5e90e3b3Af64bdAF62C37EEFFCb",
      "function": null,
      "arguments": null,
      "transaction": {
        "type": "0x02",
        "from": "0xa9ddd91249dfdd450e81e1c56ab60e1a62651701",
        "to": "0xbbbbbbbbbb9cc5e90e3b3af64bdaf62c37eeffcb",
        "gas": "0x20525",
        "value": "0x0",
        "data": "0x238d65790000000000000000000000000000206329b97db379d5e1bf586bbdb969c63274000000000000000000000000c69ad9bab1dee23f4605a82b3354f8e40d1e59660000000000000000000000005441731eed05a8208e795086a5df41416dd34104000000000000000000000000870ac11d48b15db9a138cf899d20f13f79ba00bc0000000000000000000000000000000000000000000000000bef55718ad60000000000000000000000000000000000000000000000000000002386f26fc10000000000000000000000000000a9ddd91249dfdd450e81e1c56ab60e1a6265170100000000000000000000000000000000000000000000000000000000000001000000000000000000000000000000000000000000000000000000000000000000",
        "nonce": "0xae",
        "accessList": []
      },
      "additionalContracts": [],
      "isFixedGasLimit": false
    },
    {
      "hash": "0x7845f57f6e43011a8d9c74f82c6066909fcb721f05bbea933d35ff2488eea38f",
      "transactionType": "CALL",
      "contractName": null,
      "contractAddress": "0xBBBBBbbBBb9cC5e90e3b3Af64bdAF62C37EEFFCb",
      "function": null,
      "arguments": null,
      "transaction": {
        "type": "0x02",
        "from": "0xa9ddd91249dfdd450e81e1c56ab60e1a62651701",
        "to": "0xbbbbbbbbbb9cc5e90e3b3af64bdaf62c37eeffcb",
        "gas": "0x5153e",
        "value": "0x0",
        "data": "0x50d8cd4b0000000000000000000000000000206329b97db379d5e1bf586bbdb969c63274000000000000000000000000c69ad9bab1dee23f4605a82b3354f8e40d1e59660000000000000000000000005441731eed05a8208e795086a5df41416dd34104000000000000000000000000870ac11d48b15db9a138cf899d20f13f79ba00bc0000000000000000000000000000000000000000000000000bef55718ad600000000000000000000000000000000000000000000000000000de0b6b3a76400000000000000000000000000000000000000000000000000000000000000000000000000000000000000000000a9ddd91249dfdd450e81e1c56ab60e1a62651701000000000000000000000000a9ddd91249dfdd450e81e1c56ab60e1a62651701",
        "nonce": "0xaf",
        "accessList": []
      },
      "additionalContracts": [],
      "isFixedGasLimit": false
    },
    {
      "hash": "0xf80cba34d95661f93fc9e10e13baed91200238600db427b0c1fd10f72777bc53",
      "transactionType": "CALL",
      "contractName": null,
      "contractAddress": "0xBBBBBbbBBb9cC5e90e3b3Af64bdAF62C37EEFFCb",
      "function": null,
      "arguments": null,
      "transaction": {
        "type": "0x02",
        "from": "0xa9ddd91249dfdd450e81e1c56ab60e1a62651701",
        "to": "0xbbbbbbbbbb9cc5e90e3b3af64bdaf62c37eeffcb",
        "gas": "0x47336",
        "value": "0x0",
        "data": "0x8c1358a20000000000000000000000000000206329b97db379d5e1bf586bbdb969c632740000000000000000000000002371e134e3455e0593363cbf89d3b6cf53740618000000000000000000000000e4ccaa1849e9058f77f555c0fcca4925efd37d8e000000000000000000000000870ac11d48b15db9a138cf899d20f13f79ba00bc0000000000000000000000000000000000000000000000000aaf96eb9d0d0000",
        "nonce": "0xb0",
        "accessList": []
      },
      "additionalContracts": [],
      "isFixedGasLimit": false
    },
    {
      "hash": "0x48f6289934cb41cf589c14a81d5aa196ee5c25068c9a2f3ed0261bc75c68f06f",
      "transactionType": "CALL",
      "contractName": null,
      "contractAddress": "0xBBBBBbbBBb9cC5e90e3b3Af64bdAF62C37EEFFCb",
      "function": null,
      "arguments": null,
      "transaction": {
        "type": "0x02",
        "from": "0xa9ddd91249dfdd450e81e1c56ab60e1a62651701",
        "to": "0xbbbbbbbbbb9cc5e90e3b3af64bdaf62c37eeffcb",
        "gas": "0x244f7",
        "value": "0x0",
        "data": "0xa99aad890000000000000000000000000000206329b97db379d5e1bf586bbdb969c632740000000000000000000000002371e134e3455e0593363cbf89d3b6cf53740618000000000000000000000000e4ccaa1849e9058f77f555c0fcca4925efd37d8e000000000000000000000000870ac11d48b15db9a138cf899d20f13f79ba00bc0000000000000000000000000000000000000000000000000aaf96eb9d0d00000000000000000000000000000000000000000000000000000de0b6b3a76400000000000000000000000000000000000000000000000000000000000000000000000000000000000000000000a9ddd91249dfdd450e81e1c56ab60e1a6265170100000000000000000000000000000000000000000000000000000000000001200000000000000000000000000000000000000000000000000000000000000000",
        "nonce": "0xb1",
        "accessList": []
      },
      "additionalContracts": [],
      "isFixedGasLimit": false
    },
    {
      "hash": "0xf504ecc02fd14d8722e09208d8025926114c692994f74f007fa00f486675f814",
      "transactionType": "CALL",
      "contractName": null,
      "contractAddress": "0x2371e134e3455e0593363cBF89d3b6cf53740618",
      "function": "approve(address,uint256)",
      "arguments": [
        "0xBBBBBbbBBb9cC5e90e3b3Af64bdAF62C37EEFFCb",
        "10000000000000000"
      ],
      "transaction": {
        "type": "0x02",
        "from": "0xa9ddd91249dfdd450e81e1c56ab60e1a62651701",
        "to": "0x2371e134e3455e0593363cbf89d3b6cf53740618",
        "gas": "0xf852",
        "value": "0x0",
        "data": "0x095ea7b3000000000000000000000000bbbbbbbbbb9cc5e90e3b3af64bdaf62c37eeffcb000000000000000000000000000000000000000000000000002386f26fc10000",
        "nonce": "0xb2",
        "accessList": []
      },
      "additionalContracts": [],
      "isFixedGasLimit": false
    },
    {
      "hash": "0xe5c57f815fc919d30ed46c3a06c27fecdb1181f57629bab6c97fa7a04075bd52",
      "transactionType": "CALL",
      "contractName": null,
      "contractAddress": "0xBBBBBbbBBb9cC5e90e3b3Af64bdAF62C37EEFFCb",
      "function": null,
      "arguments": null,
      "transaction": {
        "type": "0x02",
        "from": "0xa9ddd91249dfdd450e81e1c56ab60e1a62651701",
        "to": "0xbbbbbbbbbb9cc5e90e3b3af64bdaf62c37eeffcb",
        "gas": "0x1d174",
        "value": "0x0",
        "data": "0x238d65790000000000000000000000000000206329b97db379d5e1bf586bbdb969c632740000000000000000000000002371e134e3455e0593363cbf89d3b6cf53740618000000000000000000000000e4ccaa1849e9058f77f555c0fcca4925efd37d8e000000000000000000000000870ac11d48b15db9a138cf899d20f13f79ba00bc0000000000000000000000000000000000000000000000000aaf96eb9d0d0000000000000000000000000000000000000000000000000000002386f26fc10000000000000000000000000000a9ddd91249dfdd450e81e1c56ab60e1a6265170100000000000000000000000000000000000000000000000000000000000001000000000000000000000000000000000000000000000000000000000000000000",
        "nonce": "0xb3",
        "accessList": []
      },
      "additionalContracts": [],
      "isFixedGasLimit": false
    },
    {
      "hash": "0x454c8e39984ca243590fc7a7554ecc777c39b5791b2d2fd7f5c38b1f349ec9d7",
      "transactionType": "CALL",
      "contractName": null,
      "contractAddress": "0xBBBBBbbBBb9cC5e90e3b3Af64bdAF62C37EEFFCb",
      "function": null,
      "arguments": null,
      "transaction": {
        "type": "0x02",
        "from": "0xa9ddd91249dfdd450e81e1c56ab60e1a62651701",
        "to": "0xbbbbbbbbbb9cc5e90e3b3af64bdaf62c37eeffcb",
        "gas": "0x68f11",
        "value": "0x0",
        "data": "0x50d8cd4b0000000000000000000000000000206329b97db379d5e1bf586bbdb969c632740000000000000000000000002371e134e3455e0593363cbf89d3b6cf53740618000000000000000000000000e4ccaa1849e9058f77f555c0fcca4925efd37d8e000000000000000000000000870ac11d48b15db9a138cf899d20f13f79ba00bc0000000000000000000000000000000000000000000000000aaf96eb9d0d00000000000000000000000000000000000000000000000000000de0b6b3a76400000000000000000000000000000000000000000000000000000000000000000000000000000000000000000000a9ddd91249dfdd450e81e1c56ab60e1a62651701000000000000000000000000a9ddd91249dfdd450e81e1c56ab60e1a62651701",
        "nonce": "0xb4",
        "accessList": []
      },
      "additionalContracts": [],
      "isFixedGasLimit": false
    },
    {
      "hash": "0x28dd9adab7aa7b0c8cba232005152f1b41ea701101e57a65823f8049ec678e67",
      "transactionType": "CALL",
      "contractName": null,
      "contractAddress": "0x3A7bB36Ee3f3eE32A60e9f2b33c1e5f2E83ad766",
      "function": null,
      "arguments": null,
      "transaction": {
        "type": "0x02",
        "from": "0xa9ddd91249dfdd450e81e1c56ab60e1a62651701",
        "to": "0x3a7bb36ee3f3ee32a60e9f2b33c1e5f2e83ad766",
        "gas": "0xdaa2c",
        "value": "0x0",
        "data": "0xb32cddf400000000000000000000000078fc2c2ed1a4cdb5402365934ae5648adad094d00000000000000000000000000000000000000000000000000de0b6b3a76400000000000000000000000000005f4ec3df9cbd43714fe2740f5e3616155c5b841900000000000000000000000000000000000000000000000000000000000000000000000000000000000000000000000000000000000000000000000000000012000000000000000000000000000000000000000000000000000000000000000000000000000000000000000000000000000000000000000000000000000000010000000000000000000000000000000000000000000000000000000000000000000000000000000000000000000000000000000000000000000000000000000000000000000000000000000000000000000000000000000000000000000000120000000000000000000000000000000000000000000000000000000000000000",
        "nonce": "0xb5",
        "accessList": []
      },
      "additionalContracts": [
        {
          "transactionType": "CREATE2",
          "address": "0x76052A2A28fDCB8124f4686C63C68355b142de3B",
          "initCode": "0x6101a08060405234620002fa578062000f1e803803809162000022828562000331565b833961014092839181010312620002fa576200003e8162000355565b91602082015190620000536040840162000355565b90620000626060850162000355565b926080850151956200007760a0870162000355565b9060c0870151956200008c60e0890162000355565b95610100996200009e8b8b0162000355565b6101209a8b0151956001600160a01b0386811615801590620002ef575b620000d190620000ca6200036a565b90620003bf565b811615801590620002e4575b620000ec90620000ca6200036a565b8715956200015a6040516200010181620002ff565b601f8152620001397f7661756c7420636f6e76657273696f6e2073616d706c65206973207a65726f00918260208201528a15620003bf565b604051906200014882620002ff565b601f825260208201528d1515620003bf565b6080528760a05260c0528960e052828c52838b5288885261016098818a52602496870190818811620002cf57620001bd620001ca94620001c4620001bd95620001b6620001bd620001d19b9a97620001b6620001ca986200045b565b9062000429565b916200045b565b6200044d565b906200044d565b604d8111620002ba57600a0a868102968188041490151715620002a5576200029157506101809304835260405193610a269586620004f8873960805186818161014b0152610304015260a0518681816102e301526105b9015260c0518681816103ac0152610560015260e05186818161038b01526104f301525185818160d9015261032d0152518481816101b9015261035c0152518381816103d5015261049a01525182818161027f01526103fe01525181818161021201526104250152f35b634e487b7160e01b60009081526012600452fd5b50634e487b7160e01b60009081526011600452fd5b82634e487b7160e01b60005260116004526000fd5b87634e487b7160e01b60005260116004526000fd5b5060018b14620000dd565b5060018914620000bb565b600080fd5b604081019081106001600160401b038211176200031b57604052565b634e487b7160e01b600052604160045260246000fd5b601f909101601f19168101906001600160401b038211908210176200031b57604052565b51906001600160a01b0382168203620002fa57565b60405190606082016001600160401b038111838210176200031b5760405260228252616e6560f01b6040837f7661756c7420636f6e76657273696f6e2073616d706c65206973206e6f74206f60208201520152565b15620003c85750565b6040519062461bcd60e51b82528160208060048301528251908160248401526000935b8285106200040f575050604492506000838284010152601f80199101168101030190fd5b8481018201518686016044015293810193859350620003eb565b919082018092116200043757565b634e487b7160e01b600052601160045260246000fd5b919082039182116200043757565b6001600160a01b03168015620004f15760206004916040519283809263313ce56760e01b82525afa908115620004e5576000916200049b575b5060ff1690565b6020813d8211620004dc575b81620004b66020938362000331565b81010312620004d857519060ff82168203620004d5575060ff62000494565b80fd5b5080fd5b3d9150620004a7565b6040513d6000823e3d90fd5b5060009056fe60806040818152600436101561001457600080fd5b600091823560e01c908163054f7ac014610584575080632e6f20a614610516578063461739d2146104be57806356095e1114610450578063a035b1fe146102a3578063acfbd39e14610235578063ce4b5bbe146101dd578063dc53858c1461016f578063eaa2d7b4146101015763f50a47181461009057600080fd5b346100fd57817ffffffffffffffffffffffffffffffffffffffffffffffffffffffffffffffffc3601126100fd576020905173ffffffffffffffffffffffffffffffffffffffff7f0000000000000000000000000000000000000000000000000000000000000000168152f35b5080fd5b50346100fd57817ffffffffffffffffffffffffffffffffffffffffffffffffffffffffffffffffc3601126100fd576020905173ffffffffffffffffffffffffffffffffffffffff7f0000000000000000000000000000000000000000000000000000000000000000168152f35b50346100fd57817ffffffffffffffffffffffffffffffffffffffffffffffffffffffffffffffffc3601126100fd576020905173ffffffffffffffffffffffffffffffffffffffff7f0000000000000000000000000000000000000000000000000000000000000000168152f35b50346100fd57817ffffffffffffffffffffffffffffffffffffffffffffffffffffffffffffffffc3601126100fd57602090517f00000000000000000000000000000000000000000000000000000000000000008152f35b50346100fd57817ffffffffffffffffffffffffffffffffffffffffffffffffffffffffffffffffc3601126100fd576020905173ffffffffffffffffffffffffffffffffffffffff7f0000000000000000000000000000000000000000000000000000000000000000168152f35b50346100fd57817ffffffffffffffffffffffffffffffffffffffffffffffffffffffffffffffffc3601126100fd576020906104496103806103576103287f00000000000000000000000000000000000000000000000000000000000000007f000000000000000000000000000000000000000000000000000000000000000061094a565b6103517f00000000000000000000000000000000000000000000000000000000000000006107a5565b906105dc565b6103517f00000000000000000000000000000000000000000000000000000000000000006107a5565b6104226103f96103d07f00000000000000000000000000000000000000000000000000000000000000007f000000000000000000000000000000000000000000000000000000000000000061094a565b6103517f00000000000000000000000000000000000000000000000000000000000000006107a5565b6103517f00000000000000000000000000000000000000000000000000000000000000006107a5565b907f000000000000000000000000000000000000000000000000000000000000000061061e565b9051908152f35b50346100fd57817ffffffffffffffffffffffffffffffffffffffffffffffffffffffffffffffffc3601126100fd576020905173ffffffffffffffffffffffffffffffffffffffff7f0000000000000000000000000000000000000000000000000000000000000000168152f35b50346100fd57817ffffffffffffffffffffffffffffffffffffffffffffffffffffffffffffffffc3601126100fd57602090517f00000000000000000000000000000000000000000000000000000000000000008152f35b50346100fd57817ffffffffffffffffffffffffffffffffffffffffffffffffffffffffffffffffc3601126100fd576020905173ffffffffffffffffffffffffffffffffffffffff7f0000000000000000000000000000000000000000000000000000000000000000168152f35b8390346100fd57817ffffffffffffffffffffffffffffffffffffffffffffffffffffffffffffffffc3601126100fd576020907f00000000000000000000000000000000000000000000000000000000000000008152f35b818102929181159184041417156105ef57565b7f4e487b7100000000000000000000000000000000000000000000000000000000600052601160045260246000fd5b9091828202917fffffffffffffffffffffffffffffffffffffffffffffffffffffffffffffffff848209938380861095039480860395146106dc57848311156106b25782910981600003821680920460028082600302188083028203028083028203028083028203028083028203028083028203028092029003029360018380600003040190848311900302920304170290565b60046040517f227bc153000000000000000000000000000000000000000000000000000000008152fd5b5050809250156106ea570490565b7f4e487b7100000000000000000000000000000000000000000000000000000000600052601260045260246000fd5b90601f7fffffffffffffffffffffffffffffffffffffffffffffffffffffffffffffffe0910116810190811067ffffffffffffffff82111761075a57604052565b7f4e487b7100000000000000000000000000000000000000000000000000000000600052604160045260246000fd5b519069ffffffffffffffffffff821682036107a057565b600080fd5b73ffffffffffffffffffffffffffffffffffffffff1680156109445760049060a06040918251938480927ffeaf968c0000000000000000000000000000000000000000000000000000000082525afa918215610939576000926108e8575b50805181810181811067ffffffffffffffff82111761075a578252600f81526020917f6e6567617469766520616e73776572000000000000000000000000000000000083830152600084126108585750505090565b5180927f08c379a000000000000000000000000000000000000000000000000000000000825280600483015282519283602484015260005b8481106108d1575050507fffffffffffffffffffffffffffffffffffffffffffffffffffffffffffffffe0601f836000604480968601015201168101030190fd5b818101830151868201604401528593508201610890565b909160a0823d8211610931575b8161090260a09383610719565b8101031261092e575061091481610789565b50610926608060208301519201610789565b509038610803565b80fd5b3d91506108f5565b50513d6000823e3d90fd5b50600190565b73ffffffffffffffffffffffffffffffffffffffff169081156109e9576020906024604051809481937f07a2d13a00000000000000000000000000000000000000000000000000000000835260048301525afa9081156109dd576000916109af575090565b906020823d82116109d5575b816109c860209383610719565b8101031261092e57505190565b3d91506109bb565b6040513d6000823e3d90fd5b505060019056fea2646970667358221220de25ff8dd5708a691db44b0da1e6e734e7659c3f9a1801595bc1fa7bf902c00564736f6c6343000815003300000000000000000000000078fc2c2ed1a4cdb5402365934ae5648adad094d00000000000000000000000000000000000000000000000000de0b6b3a76400000000000000000000000000005f4ec3df9cbd43714fe2740f5e3616155c5b84190000000000000000000000000000000000000000000000000000000000000000000000000000000000000000000000000000000000000000000000000000001200000000000000000000000000000000000000000000000000000000000000000000000000000000000000000000000000000000000000000000000000000001000000000000000000000000000000000000000000000000000000000000000000000000000000000000000000000000000000000000000000000000000000000000000000000000000000000000000000000000000000000000000000000012"
        }
      ],
      "isFixedGasLimit": false
    },
    {
      "hash": "0xb2dfc6ac77f346bb31220a2a97134045a242fca4e48a298921faa4e2d646a48e",
      "transactionType": "CALL",
      "contractName": null,
      "contractAddress": "0xBBBBBbbBBb9cC5e90e3b3Af64bdAF62C37EEFFCb",
      "function": null,
      "arguments": null,
      "transaction": {
        "type": "0x02",
        "from": "0xa9ddd91249dfdd450e81e1c56ab60e1a62651701",
        "to": "0xbbbbbbbbbb9cc5e90e3b3af64bdaf62c37eeffcb",
        "gas": "0x47336",
        "value": "0x0",
        "data": "0x8c1358a20000000000000000000000000000206329b97db379d5e1bf586bbdb969c6327400000000000000000000000078fc2c2ed1a4cdb5402365934ae5648adad094d000000000000000000000000076052a2a28fdcb8124f4686c63c68355b142de3b000000000000000000000000870ac11d48b15db9a138cf899d20f13f79ba00bc0000000000000000000000000000000000000000000000000bef55718ad60000",
        "nonce": "0xb6",
        "accessList": []
      },
      "additionalContracts": [],
      "isFixedGasLimit": false
    },
    {
      "hash": "0xddcea32913d2cbb1d59cbaecdce72c6dc6b3b4265c1dbf6a926c0134ebdc1467",
      "transactionType": "CALL",
      "contractName": null,
      "contractAddress": "0xBBBBBbbBBb9cC5e90e3b3Af64bdAF62C37EEFFCb",
      "function": null,
      "arguments": null,
      "transaction": {
        "type": "0x02",
        "from": "0xa9ddd91249dfdd450e81e1c56ab60e1a62651701",
        "to": "0xbbbbbbbbbb9cc5e90e3b3af64bdaf62c37eeffcb",
        "gas": "0x244f7",
        "value": "0x0",
        "data": "0xa99aad890000000000000000000000000000206329b97db379d5e1bf586bbdb969c6327400000000000000000000000078fc2c2ed1a4cdb5402365934ae5648adad094d000000000000000000000000076052a2a28fdcb8124f4686c63c68355b142de3b000000000000000000000000870ac11d48b15db9a138cf899d20f13f79ba00bc0000000000000000000000000000000000000000000000000bef55718ad600000000000000000000000000000000000000000000000000000de0b6b3a76400000000000000000000000000000000000000000000000000000000000000000000000000000000000000000000a9ddd91249dfdd450e81e1c56ab60e1a6265170100000000000000000000000000000000000000000000000000000000000001200000000000000000000000000000000000000000000000000000000000000000",
        "nonce": "0xb7",
        "accessList": []
      },
      "additionalContracts": [],
      "isFixedGasLimit": false
    },
    {
      "hash": "0x21557e9b492d62a404b707ae5096e9074652f013d63650573da991ae861f61a0",
      "transactionType": "CALL",
      "contractName": null,
      "contractAddress": "0x78Fc2c2eD1A4cDb5402365934aE5648aDAd094d0",
      "function": "approve(address,uint256)",
      "arguments": [
        "0xBBBBBbbBBb9cC5e90e3b3Af64bdAF62C37EEFFCb",
        "10000000000000000"
      ],
      "transaction": {
        "type": "0x02",
        "from": "0xa9ddd91249dfdd450e81e1c56ab60e1a62651701",
        "to": "0x78fc2c2ed1a4cdb5402365934ae5648adad094d0",
        "gas": "0xf852",
        "value": "0x0",
        "data": "0x095ea7b3000000000000000000000000bbbbbbbbbb9cc5e90e3b3af64bdaf62c37eeffcb000000000000000000000000000000000000000000000000002386f26fc10000",
        "nonce": "0xb8",
        "accessList": []
      },
      "additionalContracts": [],
      "isFixedGasLimit": false
    },
    {
      "hash": "0x39b6a60a1051445e8c97f1eca77bae79c693197d43418dff40813255d7e9b370",
      "transactionType": "CALL",
      "contractName": null,
      "contractAddress": "0xBBBBBbbBBb9cC5e90e3b3Af64bdAF62C37EEFFCb",
      "function": null,
      "arguments": null,
      "transaction": {
        "type": "0x02",
        "from": "0xa9ddd91249dfdd450e81e1c56ab60e1a62651701",
        "to": "0xbbbbbbbbbb9cc5e90e3b3af64bdaf62c37eeffcb",
        "gas": "0x1d174",
        "value": "0x0",
        "data": "0x238d65790000000000000000000000000000206329b97db379d5e1bf586bbdb969c6327400000000000000000000000078fc2c2ed1a4cdb5402365934ae5648adad094d000000000000000000000000076052a2a28fdcb8124f4686c63c68355b142de3b000000000000000000000000870ac11d48b15db9a138cf899d20f13f79ba00bc0000000000000000000000000000000000000000000000000bef55718ad60000000000000000000000000000000000000000000000000000002386f26fc10000000000000000000000000000a9ddd91249dfdd450e81e1c56ab60e1a6265170100000000000000000000000000000000000000000000000000000000000001000000000000000000000000000000000000000000000000000000000000000000",
        "nonce": "0xb9",
        "accessList": []
      },
      "additionalContracts": [],
      "isFixedGasLimit": false
    },
    {
      "hash": "0xf637ff4192f5c37a52a9e1adca91c2b34346b33d749127ca2c6ac3da01f37178",
      "transactionType": "CALL",
      "contractName": null,
      "contractAddress": "0xBBBBBbbBBb9cC5e90e3b3Af64bdAF62C37EEFFCb",
      "function": null,
      "arguments": null,
      "transaction": {
        "type": "0x02",
        "from": "0xa9ddd91249dfdd450e81e1c56ab60e1a62651701",
        "to": "0xbbbbbbbbbb9cc5e90e3b3af64bdaf62c37eeffcb",
        "gas": "0x6f90a",
        "value": "0x0",
        "data": "0x50d8cd4b0000000000000000000000000000206329b97db379d5e1bf586bbdb969c6327400000000000000000000000078fc2c2ed1a4cdb5402365934ae5648adad094d000000000000000000000000076052a2a28fdcb8124f4686c63c68355b142de3b000000000000000000000000870ac11d48b15db9a138cf899d20f13f79ba00bc0000000000000000000000000000000000000000000000000bef55718ad600000000000000000000000000000000000000000000000000000de0b6b3a76400000000000000000000000000000000000000000000000000000000000000000000000000000000000000000000a9ddd91249dfdd450e81e1c56ab60e1a62651701000000000000000000000000a9ddd91249dfdd450e81e1c56ab60e1a62651701",
        "nonce": "0xba",
        "accessList": []
      },
      "additionalContracts": [],
      "isFixedGasLimit": false
    },
    {
      "hash": "0x2aa4569a19929f0f7f26e5f080226ef2241eaea5cb083a399aeb25453c8e272c",
      "transactionType": "CALL",
      "contractName": null,
      "contractAddress": "0x3A7bB36Ee3f3eE32A60e9f2b33c1e5f2E83ad766",
      "function": null,
      "arguments": null,
      "transaction": {
        "type": "0x02",
        "from": "0xa9ddd91249dfdd450e81e1c56ab60e1a62651701",
        "to": "0x3a7bb36ee3f3ee32a60e9f2b33c1e5f2e83ad766",
        "gas": "0xce812",
        "value": "0x0",
        "data": "0xb32cddf4000000000000000000000000dd0f28e19c1780eb6396170735d45153d261490d0000000000000000000000000000000000000000000000000de0b6b3a76400000000000000000000000000008fffffd4afb6115b954bd326cbe7b4ba576818f600000000000000000000000000000000000000000000000000000000000000000000000000000000000000000000000000000000000000000000000000000006000000000000000000000000000000000000000000000000000000000000000000000000000000000000000000000000000000000000000000000000000000010000000000000000000000000000000000000000000000000000000000000000000000000000000000000000000000000000000000000000000000000000000000000000000000000000000000000000000000000000000000000000000000120000000000000000000000000000000000000000000000000000000000000000",
        "nonce": "0xbb",
        "accessList": []
      },
      "additionalContracts": [
        {
          "transactionType": "CREATE2",
          "address": "0x3B8c4A340336941524DE276FF730b3Be71157B55",
          "initCode": "0x6101a08060405234620002fa578062000f1e803803809162000022828562000331565b833961014092839181010312620002fa576200003e8162000355565b91602082015190620000536040840162000355565b90620000626060850162000355565b926080850151956200007760a0870162000355565b9060c0870151956200008c60e0890162000355565b95610100996200009e8b8b0162000355565b6101209a8b0151956001600160a01b0386811615801590620002ef575b620000d190620000ca6200036a565b90620003bf565b811615801590620002e4575b620000ec90620000ca6200036a565b8715956200015a6040516200010181620002ff565b601f8152620001397f7661756c7420636f6e76657273696f6e2073616d706c65206973207a65726f00918260208201528a15620003bf565b604051906200014882620002ff565b601f825260208201528d1515620003bf565b6080528760a05260c0528960e052828c52838b5288885261016098818a52602496870190818811620002cf57620001bd620001ca94620001c4620001bd95620001b6620001bd620001d19b9a97620001b6620001ca986200045b565b9062000429565b916200045b565b6200044d565b906200044d565b604d8111620002ba57600a0a868102968188041490151715620002a5576200029157506101809304835260405193610a269586620004f8873960805186818161014b0152610304015260a0518681816102e301526105b9015260c0518681816103ac0152610560015260e05186818161038b01526104f301525185818160d9015261032d0152518481816101b9015261035c0152518381816103d5015261049a01525182818161027f01526103fe01525181818161021201526104250152f35b634e487b7160e01b60009081526012600452fd5b50634e487b7160e01b60009081526011600452fd5b82634e487b7160e01b60005260116004526000fd5b87634e487b7160e01b60005260116004526000fd5b5060018b14620000dd565b5060018914620000bb565b600080fd5b604081019081106001600160401b038211176200031b57604052565b634e487b7160e01b600052604160045260246000fd5b601f909101601f19168101906001600160401b038211908210176200031b57604052565b51906001600160a01b0382168203620002fa57565b60405190606082016001600160401b038111838210176200031b5760405260228252616e6560f01b6040837f7661756c7420636f6e76657273696f6e2073616d706c65206973206e6f74206f60208201520152565b15620003c85750565b6040519062461bcd60e51b82528160208060048301528251908160248401526000935b8285106200040f575050604492506000838284010152601f80199101168101030190fd5b8481018201518686016044015293810193859350620003eb565b919082018092116200043757565b634e487b7160e01b600052601160045260246000fd5b919082039182116200043757565b6001600160a01b03168015620004f15760206004916040519283809263313ce56760e01b82525afa908115620004e5576000916200049b575b5060ff1690565b6020813d8211620004dc575b81620004b66020938362000331565b81010312620004d857519060ff82168203620004d5575060ff62000494565b80fd5b5080fd5b3d9150620004a7565b6040513d6000823e3d90fd5b5060009056fe60806040818152600436101561001457600080fd5b600091823560e01c908163054f7ac014610584575080632e6f20a614610516578063461739d2146104be57806356095e1114610450578063a035b1fe146102a3578063acfbd39e14610235578063ce4b5bbe146101dd578063dc53858c1461016f578063eaa2d7b4146101015763f50a47181461009057600080fd5b346100fd57817ffffffffffffffffffffffffffffffffffffffffffffffffffffffffffffffffc3601126100fd576020905173ffffffffffffffffffffffffffffffffffffffff7f0000000000000000000000000000000000000000000000000000000000000000168152f35b5080fd5b50346100fd57817ffffffffffffffffffffffffffffffffffffffffffffffffffffffffffffffffc3601126100fd576020905173ffffffffffffffffffffffffffffffffffffffff7f0000000000000000000000000000000000000000000000000000000000000000168152f35b50346100fd57817ffffffffffffffffffffffffffffffffffffffffffffffffffffffffffffffffc3601126100fd576020905173ffffffffffffffffffffffffffffffffffffffff7f0000000000000000000000000000000000000000000000000000000000000000168152f35b50346100fd57817ffffffffffffffffffffffffffffffffffffffffffffffffffffffffffffffffc3601126100fd57602090517f00000000000000000000000000000000000000000000000000000000000000008152f35b50346100fd57817ffffffffffffffffffffffffffffffffffffffffffffffffffffffffffffffffc3601126100fd576020905173ffffffffffffffffffffffffffffffffffffffff7f0000000000000000000000000000000000000000000000000000000000000000168152f35b50346100fd57817ffffffffffffffffffffffffffffffffffffffffffffffffffffffffffffffffc3601126100fd576020906104496103806103576103287f00000000000000000000000000000000000000000000000000000000000000007f000000000000000000000000000000000000000000000000000000000000000061094a565b6103517f00000000000000000000000000000000000000000000000000000000000000006107a5565b906105dc565b6103517f00000000000000000000000000000000000000000000000000000000000000006107a5565b6104226103f96103d07f00000000000000000000000000000000000000000000000000000000000000007f000000000000000000000000000000000000000000000000000000000000000061094a565b6103517f00000000000000000000000000000000000000000000000000000000000000006107a5565b6103517f00000000000000000000000000000000000000000000000000000000000000006107a5565b907f000000000000000000000000000000000000000000000000000000000000000061061e565b9051908152f35b50346100fd57817ffffffffffffffffffffffffffffffffffffffffffffffffffffffffffffffffc3601126100fd576020905173ffffffffffffffffffffffffffffffffffffffff7f0000000000000000000000000000000000000000000000000000000000000000168152f35b50346100fd57817ffffffffffffffffffffffffffffffffffffffffffffffffffffffffffffffffc3601126100fd57602090517f00000000000000000000000000000000000000000000000000000000000000008152f35b50346100fd57817ffffffffffffffffffffffffffffffffffffffffffffffffffffffffffffffffc3601126100fd576020905173ffffffffffffffffffffffffffffffffffffffff7f0000000000000000000000000000000000000000000000000000000000000000168152f35b8390346100fd57817ffffffffffffffffffffffffffffffffffffffffffffffffffffffffffffffffc3601126100fd576020907f00000000000000000000000000000000000000000000000000000000000000008152f35b818102929181159184041417156105ef57565b7f4e487b7100000000000000000000000000000000000000000000000000000000600052601160045260246000fd5b9091828202917fffffffffffffffffffffffffffffffffffffffffffffffffffffffffffffffff848209938380861095039480860395146106dc57848311156106b25782910981600003821680920460028082600302188083028203028083028203028083028203028083028203028083028203028092029003029360018380600003040190848311900302920304170290565b60046040517f227bc153000000000000000000000000000000000000000000000000000000008152fd5b5050809250156106ea570490565b7f4e487b7100000000000000000000000000000000000000000000000000000000600052601260045260246000fd5b90601f7fffffffffffffffffffffffffffffffffffffffffffffffffffffffffffffffe0910116810190811067ffffffffffffffff82111761075a57604052565b7f4e487b7100000000000000000000000000000000000000000000000000000000600052604160045260246000fd5b519069ffffffffffffffffffff821682036107a057565b600080fd5b73ffffffffffffffffffffffffffffffffffffffff1680156109445760049060a06040918251938480927ffeaf968c0000000000000000000000000000000000000000000000000000000082525afa918215610939576000926108e8575b50805181810181811067ffffffffffffffff82111761075a578252600f81526020917f6e6567617469766520616e73776572000000000000000000000000000000000083830152600084126108585750505090565b5180927f08c379a000000000000000000000000000000000000000000000000000000000825280600483015282519283602484015260005b8481106108d1575050507fffffffffffffffffffffffffffffffffffffffffffffffffffffffffffffffe0601f836000604480968601015201168101030190fd5b818101830151868201604401528593508201610890565b909160a0823d8211610931575b8161090260a09383610719565b8101031261092e575061091481610789565b50610926608060208301519201610789565b509038610803565b80fd5b3d91506108f5565b50513d6000823e3d90fd5b50600190565b73ffffffffffffffffffffffffffffffffffffffff169081156109e9576020906024604051809481937f07a2d13a00000000000000000000000000000000000000000000000000000000835260048301525afa9081156109dd576000916109af575090565b906020823d82116109d5575b816109c860209383610719565b8101031261092e57505190565b3d91506109bb565b6040513d6000823e3d90fd5b505060019056fea2646970667358221220de25ff8dd5708a691db44b0da1e6e734e7659c3f9a1801595bc1fa7bf902c00564736f6c63430008150033000000000000000000000000dd0f28e19c1780eb6396170735d45153d261490d0000000000000000000000000000000000000000000000000de0b6b3a76400000000000000000000000000008fffffd4afb6115b954bd326cbe7b4ba576818f60000000000000000000000000000000000000000000000000000000000000000000000000000000000000000000000000000000000000000000000000000000600000000000000000000000000000000000000000000000000000000000000000000000000000000000000000000000000000000000000000000000000000001000000000000000000000000000000000000000000000000000000000000000000000000000000000000000000000000000000000000000000000000000000000000000000000000000000000000000000000000000000000000000000000012"
        }
      ],
      "isFixedGasLimit": false
    },
    {
      "hash": null,
      "transactionType": "CALL",
      "contractName": null,
      "contractAddress": "0xBBBBBbbBBb9cC5e90e3b3Af64bdAF62C37EEFFCb",
      "function": null,
      "arguments": null,
      "transaction": {
        "type": "0x02",
        "from": "0xa9ddd91249dfdd450e81e1c56ab60e1a62651701",
        "to": "0xbbbbbbbbbb9cc5e90e3b3af64bdaf62c37eeffcb",
        "gas": "0x47336",
        "value": "0x0",
        "data": "0x8c1358a20000000000000000000000000000206329b97db379d5e1bf586bbdb969c63274000000000000000000000000dd0f28e19c1780eb6396170735d45153d261490d0000000000000000000000003b8c4a340336941524de276ff730b3be71157b55000000000000000000000000870ac11d48b15db9a138cf899d20f13f79ba00bc0000000000000000000000000000000000000000000000000bef55718ad60000",
        "nonce": "0xbc",
        "accessList": []
      },
      "additionalContracts": [],
      "isFixedGasLimit": false
    },
    {
      "hash": null,
      "transactionType": "CALL",
      "contractName": null,
      "contractAddress": "0x0000206329b97DB379d5E1Bf586BbDB969C63274",
      "function": "approve(address,uint256)",
      "arguments": [
        "0xBBBBBbbBBb9cC5e90e3b3Af64bdAF62C37EEFFCb",
        "1000000000000000000"
      ],
      "transaction": {
        "type": "0x02",
        "from": "0xa9ddd91249dfdd450e81e1c56ab60e1a62651701",
        "to": "0x0000206329b97db379d5e1bf586bbdb969c63274",
        "gas": "0xc3d2",
        "value": "0x0",
        "data": "0x095ea7b3000000000000000000000000bbbbbbbbbb9cc5e90e3b3af64bdaf62c37eeffcb0000000000000000000000000000000000000000000000000de0b6b3a7640000",
        "nonce": "0xbd",
        "accessList": []
      },
      "additionalContracts": [],
      "isFixedGasLimit": false
    },
    {
      "hash": null,
      "transactionType": "CALL",
      "contractName": null,
      "contractAddress": "0xBBBBBbbBBb9cC5e90e3b3Af64bdAF62C37EEFFCb",
      "function": null,
      "arguments": null,
      "transaction": {
        "type": "0x02",
        "from": "0xa9ddd91249dfdd450e81e1c56ab60e1a62651701",
        "to": "0xbbbbbbbbbb9cc5e90e3b3af64bdaf62c37eeffcb",
        "gas": "0x22b11",
        "value": "0x0",
        "data": "0xa99aad890000000000000000000000000000206329b97db379d5e1bf586bbdb969c63274000000000000000000000000dd0f28e19c1780eb6396170735d45153d261490d0000000000000000000000003b8c4a340336941524de276ff730b3be71157b55000000000000000000000000870ac11d48b15db9a138cf899d20f13f79ba00bc0000000000000000000000000000000000000000000000000bef55718ad600000000000000000000000000000000000000000000000000000de0b6b3a76400000000000000000000000000000000000000000000000000000000000000000000000000000000000000000000a9ddd91249dfdd450e81e1c56ab60e1a6265170100000000000000000000000000000000000000000000000000000000000001200000000000000000000000000000000000000000000000000000000000000000",
        "nonce": "0xbe",
        "accessList": []
      },
      "additionalContracts": [],
      "isFixedGasLimit": false
    },
    {
      "hash": null,
      "transactionType": "CALL",
      "contractName": null,
      "contractAddress": "0xdd0f28e19C1780eb6396170735D45153D261490d",
      "function": "approve(address,uint256)",
      "arguments": [
        "0xBBBBBbbBBb9cC5e90e3b3Af64bdAF62C37EEFFCb",
        "11700000000000000000"
      ],
      "transaction": {
        "type": "0x02",
        "from": "0xa9ddd91249dfdd450e81e1c56ab60e1a62651701",
        "to": "0xdd0f28e19c1780eb6396170735d45153d261490d",
        "gas": "0xf862",
        "value": "0x0",
        "data": "0x095ea7b3000000000000000000000000bbbbbbbbbb9cc5e90e3b3af64bdaf62c37eeffcb000000000000000000000000000000000000000000000000a25ec002c0120000",
        "nonce": "0xbf",
        "accessList": []
      },
      "additionalContracts": [],
      "isFixedGasLimit": false
    },
    {
      "hash": null,
      "transactionType": "CALL",
      "contractName": null,
      "contractAddress": "0xBBBBBbbBBb9cC5e90e3b3Af64bdAF62C37EEFFCb",
      "function": null,
      "arguments": null,
      "transaction": {
        "type": "0x02",
        "from": "0xa9ddd91249dfdd450e81e1c56ab60e1a62651701",
        "to": "0xbbbbbbbbbb9cc5e90e3b3af64bdaf62c37eeffcb",
        "gas": "0x1d185",
        "value": "0x0",
        "data": "0x238d65790000000000000000000000000000206329b97db379d5e1bf586bbdb969c63274000000000000000000000000dd0f28e19c1780eb6396170735d45153d261490d0000000000000000000000003b8c4a340336941524de276ff730b3be71157b55000000000000000000000000870ac11d48b15db9a138cf899d20f13f79ba00bc0000000000000000000000000000000000000000000000000bef55718ad60000000000000000000000000000000000000000000000000000a25ec002c0120000000000000000000000000000a9ddd91249dfdd450e81e1c56ab60e1a6265170100000000000000000000000000000000000000000000000000000000000001000000000000000000000000000000000000000000000000000000000000000000",
        "nonce": "0xc0",
        "accessList": []
      },
      "additionalContracts": [],
      "isFixedGasLimit": false
    },
    {
      "hash": null,
      "transactionType": "CALL",
      "contractName": null,
      "contractAddress": "0xBBBBBbbBBb9cC5e90e3b3Af64bdAF62C37EEFFCb",
      "function": null,
      "arguments": null,
      "transaction": {
        "type": "0x02",
        "from": "0xa9ddd91249dfdd450e81e1c56ab60e1a62651701",
        "to": "0xbbbbbbbbbb9cc5e90e3b3af64bdaf62c37eeffcb",
        "gas": "0x532c0",
        "value": "0x0",
        "data": "0x50d8cd4b0000000000000000000000000000206329b97db379d5e1bf586bbdb969c63274000000000000000000000000dd0f28e19c1780eb6396170735d45153d261490d0000000000000000000000003b8c4a340336941524de276ff730b3be71157b55000000000000000000000000870ac11d48b15db9a138cf899d20f13f79ba00bc0000000000000000000000000000000000000000000000000bef55718ad600000000000000000000000000000000000000000000000000000de0b6b3a76400000000000000000000000000000000000000000000000000000000000000000000000000000000000000000000a9ddd91249dfdd450e81e1c56ab60e1a62651701000000000000000000000000a9ddd91249dfdd450e81e1c56ab60e1a62651701",
        "nonce": "0xc1",
        "accessList": []
      },
      "additionalContracts": [],
      "isFixedGasLimit": false
    },
    {
      "hash": null,
      "transactionType": "CALL",
      "contractName": null,
      "contractAddress": "0x3A7bB36Ee3f3eE32A60e9f2b33c1e5f2E83ad766",
      "function": null,
      "arguments": null,
      "transaction": {
        "type": "0x02",
        "from": "0xa9ddd91249dfdd450e81e1c56ab60e1a62651701",
        "to": "0x3a7bb36ee3f3ee32a60e9f2b33c1e5f2e83ad766",
        "gas": "0xce812",
        "value": "0x0",
        "data": "0xb32cddf400000000000000000000000095eef579155cd2c5510f312c8fa39208c3be01a80000000000000000000000000000000000000000000000000de0b6b3a76400000000000000000000000000003e7d1eab13ad0104d2750b8863b489d65364e32d00000000000000000000000000000000000000000000000000000000000000000000000000000000000000000000000000000000000000000000000000000006000000000000000000000000000000000000000000000000000000000000000000000000000000000000000000000000000000000000000000000000000000010000000000000000000000000000000000000000000000000000000000000000000000000000000000000000000000000000000000000000000000000000000000000000000000000000000000000000000000000000000000000000000000120000000000000000000000000000000000000000000000000000000000000000",
        "nonce": "0xc2",
        "accessList": []
      },
      "additionalContracts": [
        {
          "transactionType": "CREATE2",
          "address": "0x1f083a4c51E6cAa627A8Cbe7452bF3D6eb815F57",
          "initCode": "0x6101a08060405234620002fa578062000f1e803803809162000022828562000331565b833961014092839181010312620002fa576200003e8162000355565b91602082015190620000536040840162000355565b90620000626060850162000355565b926080850151956200007760a0870162000355565b9060c0870151956200008c60e0890162000355565b95610100996200009e8b8b0162000355565b6101209a8b0151956001600160a01b0386811615801590620002ef575b620000d190620000ca6200036a565b90620003bf565b811615801590620002e4575b620000ec90620000ca6200036a565b8715956200015a6040516200010181620002ff565b601f8152620001397f7661756c7420636f6e76657273696f6e2073616d706c65206973207a65726f00918260208201528a15620003bf565b604051906200014882620002ff565b601f825260208201528d1515620003bf565b6080528760a05260c0528960e052828c52838b5288885261016098818a52602496870190818811620002cf57620001bd620001ca94620001c4620001bd95620001b6620001bd620001d19b9a97620001b6620001ca986200045b565b9062000429565b916200045b565b6200044d565b906200044d565b604d8111620002ba57600a0a868102968188041490151715620002a5576200029157506101809304835260405193610a269586620004f8873960805186818161014b0152610304015260a0518681816102e301526105b9015260c0518681816103ac0152610560015260e05186818161038b01526104f301525185818160d9015261032d0152518481816101b9015261035c0152518381816103d5015261049a01525182818161027f01526103fe01525181818161021201526104250152f35b634e487b7160e01b60009081526012600452fd5b50634e487b7160e01b60009081526011600452fd5b82634e487b7160e01b60005260116004526000fd5b87634e487b7160e01b60005260116004526000fd5b5060018b14620000dd565b5060018914620000bb565b600080fd5b604081019081106001600160401b038211176200031b57604052565b634e487b7160e01b600052604160045260246000fd5b601f909101601f19168101906001600160401b038211908210176200031b57604052565b51906001600160a01b0382168203620002fa57565b60405190606082016001600160401b038111838210176200031b5760405260228252616e6560f01b6040837f7661756c7420636f6e76657273696f6e2073616d706c65206973206e6f74206f60208201520152565b15620003c85750565b6040519062461bcd60e51b82528160208060048301528251908160248401526000935b8285106200040f575050604492506000838284010152601f80199101168101030190fd5b8481018201518686016044015293810193859350620003eb565b919082018092116200043757565b634e487b7160e01b600052601160045260246000fd5b919082039182116200043757565b6001600160a01b03168015620004f15760206004916040519283809263313ce56760e01b82525afa908115620004e5576000916200049b575b5060ff1690565b6020813d8211620004dc575b81620004b66020938362000331565b81010312620004d857519060ff82168203620004d5575060ff62000494565b80fd5b5080fd5b3d9150620004a7565b6040513d6000823e3d90fd5b5060009056fe60806040818152600436101561001457600080fd5b600091823560e01c908163054f7ac014610584575080632e6f20a614610516578063461739d2146104be57806356095e1114610450578063a035b1fe146102a3578063acfbd39e14610235578063ce4b5bbe146101dd578063dc53858c1461016f578063eaa2d7b4146101015763f50a47181461009057600080fd5b346100fd57817ffffffffffffffffffffffffffffffffffffffffffffffffffffffffffffffffc3601126100fd576020905173ffffffffffffffffffffffffffffffffffffffff7f0000000000000000000000000000000000000000000000000000000000000000168152f35b5080fd5b50346100fd57817ffffffffffffffffffffffffffffffffffffffffffffffffffffffffffffffffc3601126100fd576020905173ffffffffffffffffffffffffffffffffffffffff7f0000000000000000000000000000000000000000000000000000000000000000168152f35b50346100fd57817ffffffffffffffffffffffffffffffffffffffffffffffffffffffffffffffffc3601126100fd576020905173ffffffffffffffffffffffffffffffffffffffff7f0000000000000000000000000000000000000000000000000000000000000000168152f35b50346100fd57817ffffffffffffffffffffffffffffffffffffffffffffffffffffffffffffffffc3601126100fd57602090517f00000000000000000000000000000000000000000000000000000000000000008152f35b50346100fd57817ffffffffffffffffffffffffffffffffffffffffffffffffffffffffffffffffc3601126100fd576020905173ffffffffffffffffffffffffffffffffffffffff7f0000000000000000000000000000000000000000000000000000000000000000168152f35b50346100fd57817ffffffffffffffffffffffffffffffffffffffffffffffffffffffffffffffffc3601126100fd576020906104496103806103576103287f00000000000000000000000000000000000000000000000000000000000000007f000000000000000000000000000000000000000000000000000000000000000061094a565b6103517f00000000000000000000000000000000000000000000000000000000000000006107a5565b906105dc565b6103517f00000000000000000000000000000000000000000000000000000000000000006107a5565b6104226103f96103d07f00000000000000000000000000000000000000000000000000000000000000007f000000000000000000000000000000000000000000000000000000000000000061094a565b6103517f00000000000000000000000000000000000000000000000000000000000000006107a5565b6103517f00000000000000000000000000000000000000000000000000000000000000006107a5565b907f000000000000000000000000000000000000000000000000000000000000000061061e565b9051908152f35b50346100fd57817ffffffffffffffffffffffffffffffffffffffffffffffffffffffffffffffffc3601126100fd576020905173ffffffffffffffffffffffffffffffffffffffff7f0000000000000000000000000000000000000000000000000000000000000000168152f35b50346100fd57817ffffffffffffffffffffffffffffffffffffffffffffffffffffffffffffffffc3601126100fd57602090517f00000000000000000000000000000000000000000000000000000000000000008152f35b50346100fd57817ffffffffffffffffffffffffffffffffffffffffffffffffffffffffffffffffc3601126100fd576020905173ffffffffffffffffffffffffffffffffffffffff7f0000000000000000000000000000000000000000000000000000000000000000168152f35b8390346100fd57817ffffffffffffffffffffffffffffffffffffffffffffffffffffffffffffffffc3601126100fd576020907f00000000000000000000000000000000000000000000000000000000000000008152f35b818102929181159184041417156105ef57565b7f4e487b7100000000000000000000000000000000000000000000000000000000600052601160045260246000fd5b9091828202917fffffffffffffffffffffffffffffffffffffffffffffffffffffffffffffffff848209938380861095039480860395146106dc57848311156106b25782910981600003821680920460028082600302188083028203028083028203028083028203028083028203028083028203028092029003029360018380600003040190848311900302920304170290565b60046040517f227bc153000000000000000000000000000000000000000000000000000000008152fd5b5050809250156106ea570490565b7f4e487b7100000000000000000000000000000000000000000000000000000000600052601260045260246000fd5b90601f7fffffffffffffffffffffffffffffffffffffffffffffffffffffffffffffffe0910116810190811067ffffffffffffffff82111761075a57604052565b7f4e487b7100000000000000000000000000000000000000000000000000000000600052604160045260246000fd5b519069ffffffffffffffffffff821682036107a057565b600080fd5b73ffffffffffffffffffffffffffffffffffffffff1680156109445760049060a06040918251938480927ffeaf968c0000000000000000000000000000000000000000000000000000000082525afa918215610939576000926108e8575b50805181810181811067ffffffffffffffff82111761075a578252600f81526020917f6e6567617469766520616e73776572000000000000000000000000000000000083830152600084126108585750505090565b5180927f08c379a000000000000000000000000000000000000000000000000000000000825280600483015282519283602484015260005b8481106108d1575050507fffffffffffffffffffffffffffffffffffffffffffffffffffffffffffffffe0601f836000604480968601015201168101030190fd5b818101830151868201604401528593508201610890565b909160a0823d8211610931575b8161090260a09383610719565b8101031261092e575061091481610789565b50610926608060208301519201610789565b509038610803565b80fd5b3d91506108f5565b50513d6000823e3d90fd5b50600190565b73ffffffffffffffffffffffffffffffffffffffff169081156109e9576020906024604051809481937f07a2d13a00000000000000000000000000000000000000000000000000000000835260048301525afa9081156109dd576000916109af575090565b906020823d82116109d5575b816109c860209383610719565b8101031261092e57505190565b3d91506109bb565b6040513d6000823e3d90fd5b505060019056fea2646970667358221220de25ff8dd5708a691db44b0da1e6e734e7659c3f9a1801595bc1fa7bf902c00564736f6c6343000815003300000000000000000000000095eef579155cd2c5510f312c8fa39208c3be01a80000000000000000000000000000000000000000000000000de0b6b3a76400000000000000000000000000003e7d1eab13ad0104d2750b8863b489d65364e32d0000000000000000000000000000000000000000000000000000000000000000000000000000000000000000000000000000000000000000000000000000000600000000000000000000000000000000000000000000000000000000000000000000000000000000000000000000000000000000000000000000000000000001000000000000000000000000000000000000000000000000000000000000000000000000000000000000000000000000000000000000000000000000000000000000000000000000000000000000000000000000000000000000000000000012"
        }
      ],
      "isFixedGasLimit": false
    },
    {
      "hash": null,
      "transactionType": "CALL",
      "contractName": null,
      "contractAddress": "0xBBBBBbbBBb9cC5e90e3b3Af64bdAF62C37EEFFCb",
      "function": null,
      "arguments": null,
      "transaction": {
        "type": "0x02",
        "from": "0xa9ddd91249dfdd450e81e1c56ab60e1a62651701",
        "to": "0xbbbbbbbbbb9cc5e90e3b3af64bdaf62c37eeffcb",
        "gas": "0x433fb",
        "value": "0x0",
        "data": "0x8c1358a20000000000000000000000000000206329b97db379d5e1bf586bbdb969c6327400000000000000000000000095eef579155cd2c5510f312c8fa39208c3be01a80000000000000000000000001f083a4c51e6caa627a8cbe7452bf3d6eb815f57000000000000000000000000870ac11d48b15db9a138cf899d20f13f79ba00bc0000000000000000000000000000000000000000000000000cb2bba6f17b8000",
        "nonce": "0xc3",
        "accessList": []
      },
      "additionalContracts": [],
      "isFixedGasLimit": false
    },
    {
      "hash": null,
      "transactionType": "CALL",
      "contractName": null,
      "contractAddress": "0x0000206329b97DB379d5E1Bf586BbDB969C63274",
      "function": "approve(address,uint256)",
      "arguments": [
        "0xBBBBBbbBBb9cC5e90e3b3Af64bdAF62C37EEFFCb",
        "1000000000000000000"
      ],
      "transaction": {
        "type": "0x02",
        "from": "0xa9ddd91249dfdd450e81e1c56ab60e1a62651701",
        "to": "0x0000206329b97db379d5e1bf586bbdb969c63274",
        "gas": "0x13108",
        "value": "0x0",
        "data": "0x095ea7b3000000000000000000000000bbbbbbbbbb9cc5e90e3b3af64bdaf62c37eeffcb0000000000000000000000000000000000000000000000000de0b6b3a7640000",
        "nonce": "0xc4",
        "accessList": []
      },
      "additionalContracts": [],
      "isFixedGasLimit": false
    },
    {
      "hash": null,
      "transactionType": "CALL",
      "contractName": null,
      "contractAddress": "0xBBBBBbbBBb9cC5e90e3b3Af64bdAF62C37EEFFCb",
      "function": null,
      "arguments": null,
      "transaction": {
        "type": "0x02",
        "from": "0xa9ddd91249dfdd450e81e1c56ab60e1a62651701",
        "to": "0xbbbbbbbbbb9cc5e90e3b3af64bdaf62c37eeffcb",
        "gas": "0x24bcb",
        "value": "0x0",
        "data": "0xa99aad890000000000000000000000000000206329b97db379d5e1bf586bbdb969c6327400000000000000000000000095eef579155cd2c5510f312c8fa39208c3be01a80000000000000000000000001f083a4c51e6caa627a8cbe7452bf3d6eb815f57000000000000000000000000870ac11d48b15db9a138cf899d20f13f79ba00bc0000000000000000000000000000000000000000000000000cb2bba6f17b80000000000000000000000000000000000000000000000000000de0b6b3a76400000000000000000000000000000000000000000000000000000000000000000000000000000000000000000000a9ddd91249dfdd450e81e1c56ab60e1a6265170100000000000000000000000000000000000000000000000000000000000001200000000000000000000000000000000000000000000000000000000000000000",
        "nonce": "0xc5",
        "accessList": []
      },
      "additionalContracts": [],
      "isFixedGasLimit": false
    },
    {
      "hash": null,
      "transactionType": "CALL",
      "contractName": null,
      "contractAddress": "0x95EeF579155cd2C5510F312c8fA39208c3Be01a8",
      "function": "approve(address,uint256)",
      "arguments": [
        "0xBBBBBbbBBb9cC5e90e3b3Af64bdAF62C37EEFFCb",
        "11700000000000000000"
      ],
      "transaction": {
        "type": "0x02",
        "from": "0xa9ddd91249dfdd450e81e1c56ab60e1a62651701",
        "to": "0x95eef579155cd2c5510f312c8fa39208c3be01a8",
        "gas": "0xf862",
        "value": "0x0",
        "data": "0x095ea7b3000000000000000000000000bbbbbbbbbb9cc5e90e3b3af64bdaf62c37eeffcb000000000000000000000000000000000000000000000000a25ec002c0120000",
        "nonce": "0xc6",
        "accessList": []
      },
      "additionalContracts": [],
      "isFixedGasLimit": false
    },
    {
      "hash": null,
      "transactionType": "CALL",
      "contractName": null,
      "contractAddress": "0xBBBBBbbBBb9cC5e90e3b3Af64bdAF62C37EEFFCb",
      "function": null,
      "arguments": null,
      "transaction": {
        "type": "0x02",
        "from": "0xa9ddd91249dfdd450e81e1c56ab60e1a62651701",
        "to": "0xbbbbbbbbbb9cc5e90e3b3af64bdaf62c37eeffcb",
        "gas": "0x1d196",
        "value": "0x0",
        "data": "0x238d65790000000000000000000000000000206329b97db379d5e1bf586bbdb969c6327400000000000000000000000095eef579155cd2c5510f312c8fa39208c3be01a80000000000000000000000001f083a4c51e6caa627a8cbe7452bf3d6eb815f57000000000000000000000000870ac11d48b15db9a138cf899d20f13f79ba00bc0000000000000000000000000000000000000000000000000cb2bba6f17b8000000000000000000000000000000000000000000000000000a25ec002c0120000000000000000000000000000a9ddd91249dfdd450e81e1c56ab60e1a6265170100000000000000000000000000000000000000000000000000000000000001000000000000000000000000000000000000000000000000000000000000000000",
        "nonce": "0xc7",
        "accessList": []
      },
      "additionalContracts": [],
      "isFixedGasLimit": false
    },
    {
      "hash": null,
      "transactionType": "CALL",
      "contractName": null,
      "contractAddress": "0xBBBBBbbBBb9cC5e90e3b3Af64bdAF62C37EEFFCb",
      "function": null,
      "arguments": null,
      "transaction": {
        "type": "0x02",
        "from": "0xa9ddd91249dfdd450e81e1c56ab60e1a62651701",
        "to": "0xbbbbbbbbbb9cc5e90e3b3af64bdaf62c37eeffcb",
        "gas": "0x518e2",
        "value": "0x0",
        "data": "0x50d8cd4b0000000000000000000000000000206329b97db379d5e1bf586bbdb969c6327400000000000000000000000095eef579155cd2c5510f312c8fa39208c3be01a80000000000000000000000001f083a4c51e6caa627a8cbe7452bf3d6eb815f57000000000000000000000000870ac11d48b15db9a138cf899d20f13f79ba00bc0000000000000000000000000000000000000000000000000cb2bba6f17b80000000000000000000000000000000000000000000000000000de0b6b3a76400000000000000000000000000000000000000000000000000000000000000000000000000000000000000000000a9ddd91249dfdd450e81e1c56ab60e1a62651701000000000000000000000000a9ddd91249dfdd450e81e1c56ab60e1a62651701",
        "nonce": "0xc8",
        "accessList": []
      },
      "additionalContracts": [],
      "isFixedGasLimit": false
    }
  ],
  "receipts": [
    {
      "transactionHash": "0x53d0f7176e9cbce7514556e8b6fe7d5e1c449f4277ef91899939a069614cf156",
      "transactionIndex": "0x96",
      "blockHash": "0xaf31a9f617381096d8ac70f9f1955d0701c1ac280c6410d287e75fbc021963d3",
      "blockNumber": "0x12c6c62",
      "from": "0xA9DdD91249DFdd450E81E1c56Ab60E1A62651701",
      "to": "0x0000206329b97DB379d5E1Bf586BbDB969C63274",
      "cumulativeGasUsed": "0xa0d166",
      "gasUsed": "0x8dc6",
      "contractAddress": null,
      "logs": [
        {
          "address": "0x0000206329b97DB379d5E1Bf586BbDB969C63274",
          "topics": [
            "0x8c5be1e5ebec7d5bd14f71427d1e84f3dd0314c0f7b2291e5b200ac8c7c3b925",
            "0x000000000000000000000000a9ddd91249dfdd450e81e1c56ab60e1a62651701",
            "0x000000000000000000000000bbbbbbbbbb9cc5e90e3b3af64bdaf62c37eeffcb"
          ],
          "data": "0x0000000000000000000000000000000000000000000000008ac7230489e80000",
          "blockHash": "0xaf31a9f617381096d8ac70f9f1955d0701c1ac280c6410d287e75fbc021963d3",
          "blockNumber": "0x12c6c62",
          "transactionHash": "0x53d0f7176e9cbce7514556e8b6fe7d5e1c449f4277ef91899939a069614cf156",
          "transactionIndex": "0x96",
          "logIndex": "0x117",
          "removed": false
        }
      ],
      "status": "0x1",
      "logsBloom": "0x00000000000000000000000000000080000000000000000000000000000000000000000000000000000000000000000000000000000000000000000000200000000000000000000000000000000004000000000000000000000000000000000000000000000000000000000000000000000000000000000000000000000000000000000000000000000000000000000000000000000000000000000000000000820000000000000000000000000000000000000000000000800000080000000000000000000000000000000000000000000000004000000000000000000000000010000001000000000000200000000000000000000000000000000000004000",
      "type": "0x2",
      "effectiveGasPrice": "0x325572aa2"
    },
    {
      "transactionHash": "0x8afd81fb500577525bcabca4431d414fc8d37a8386a84805d5373785dba1b6d1",
      "transactionIndex": "0x15",
      "blockHash": "0x83895cc3afa7bfc93d0c1616243b4851d9a204428eca9a77ce97f3ffb73ca9d8",
      "blockNumber": "0x12c6c63",
      "from": "0xA9DdD91249DFdd450E81E1c56Ab60E1A62651701",
      "to": "0x3A7bB36Ee3f3eE32A60e9f2b33c1e5f2E83ad766",
      "cumulativeGasUsed": "0x1c887d",
      "gasUsed": "0x96c24",
      "contractAddress": null,
      "logs": [
        {
          "address": "0x3A7bB36Ee3f3eE32A60e9f2b33c1e5f2E83ad766",
          "topics": [
            "0x6436acb89463dbc9036f1e52aebf32ac0bf5f69e3987c067110c3ac403ebda33"
          ],
          "data": "0x000000000000000000000000a9ddd91249dfdd450e81e1c56ab60e1a626517010000000000000000000000005441731eed05a8208e795086a5df41416dd34104",
          "blockHash": "0x83895cc3afa7bfc93d0c1616243b4851d9a204428eca9a77ce97f3ffb73ca9d8",
          "blockNumber": "0x12c6c63",
          "transactionHash": "0x8afd81fb500577525bcabca4431d414fc8d37a8386a84805d5373785dba1b6d1",
          "transactionIndex": "0x15",
          "logIndex": "0x24",
          "removed": false
        }
      ],
      "status": "0x1",
      "logsBloom": "0x00000000000000000000000000000000000000000000000000000000000000000000000000000000000000000000000000000000000000000000000000000000000000000000000000000000000000000000000000000000000000000000000000000000000000000000000000000000000000000000000000000000000000000000000000000000000000000000000000002000000000000000000000000000000000000000000000000000010000000000000000100000000000000000000000000000000000000000000000000000000000000000000000000000000000000000000000000080000000006000000000000000000000000000000000000000",
      "type": "0x2",
      "effectiveGasPrice": "0x3278cbc8f"
    },
    {
      "transactionHash": "0x3dc02cd73156728273cbaf469d22c28b38ac55ad89c943af039c350b8c3e47b3",
      "transactionIndex": "0xc",
      "blockHash": "0x629c179451fa1f357665d4080e51b98599e56b6588bb048ebe72fc96c1b13cbc",
      "blockNumber": "0x12c6c64",
      "from": "0xA9DdD91249DFdd450E81E1c56Ab60E1A62651701",
      "to": "0xBBBBBbbBBb9cC5e90e3b3Af64bdAF62C37EEFFCb",
      "cumulativeGasUsed": "0x11c59f",
      "gasUsed": "0x30af3",
      "contractAddress": null,
      "logs": [
        {
          "address": "0xBBBBBbbBBb9cC5e90e3b3Af64bdAF62C37EEFFCb",
          "topics": [
            "0xac4b2400f169220b0c0afdde7a0b32e775ba727ea1cb30b35f935cdaab8683ac",
            "0xcc7b191903e4750ad71898a1594d912adbb5bb1c6effcde9c38f0a798112edd1"
          ],
          "data": "0x0000000000000000000000000000206329b97db379d5e1bf586bbdb969c63274000000000000000000000000c69ad9bab1dee23f4605a82b3354f8e40d1e59660000000000000000000000005441731eed05a8208e795086a5df41416dd34104000000000000000000000000870ac11d48b15db9a138cf899d20f13f79ba00bc0000000000000000000000000000000000000000000000000bef55718ad60000",
          "blockHash": "0x629c179451fa1f357665d4080e51b98599e56b6588bb048ebe72fc96c1b13cbc",
          "blockNumber": "0x12c6c64",
          "transactionHash": "0x3dc02cd73156728273cbaf469d22c28b38ac55ad89c943af039c350b8c3e47b3",
          "transactionIndex": "0xc",
          "logIndex": "0x20",
          "removed": false
        },
        {
          "address": "0x870aC11D48B15DB9a138Cf899d20F13F79Ba00BC",
          "topics": [
            "0x7120161a7b3d31251e01294ab351ef15a41b91659a36032e4641bb89b121e321",
            "0xcc7b191903e4750ad71898a1594d912adbb5bb1c6effcde9c38f0a798112edd1"
          ],
          "data": "0x0000000000000000000000000000000000000000000000000000000012e687bf000000000000000000000000000000000000000000000000000000004b9a1eff",
          "blockHash": "0x629c179451fa1f357665d4080e51b98599e56b6588bb048ebe72fc96c1b13cbc",
          "blockNumber": "0x12c6c64",
          "transactionHash": "0x3dc02cd73156728273cbaf469d22c28b38ac55ad89c943af039c350b8c3e47b3",
          "transactionIndex": "0xc",
          "logIndex": "0x21",
          "removed": false
        }
      ],
      "status": "0x1",
      "logsBloom": "0x00000000000000000000000000000800000000200000000000000000000000000000000000000000000000000000000000000000000000000000000000844000000000000010000000000000000000000004000000200000000000000000000000000000000000000000000000000000000000000000000000000040000000000000000000000008000000000000000000000000000000000000000000000000000000000000000000000020000000000000000000000000000000000000000020000000000000000001000000000000000000000000000000000000000000000000000000000000000000000001000000000000000000000000000000000010",
      "type": "0x2",
      "effectiveGasPrice": "0x32918db5d"
    },
    {
      "transactionHash": "0xc39562b80d9090db94c58b2ec5638bd7d79eb80270a9910cbfcac04223ae472d",
      "transactionIndex": "0x11",
      "blockHash": "0xfeeac8609b77bdbbbed094705012b863f707655c26697ede982f7f3343e3e915",
      "blockNumber": "0x12c6c65",
      "from": "0xA9DdD91249DFdd450E81E1c56Ab60E1A62651701",
      "to": "0xBBBBBbbBBb9cC5e90e3b3Af64bdAF62C37EEFFCb",
      "cumulativeGasUsed": "0x424fba",
      "gasUsed": "0x20a2d",
      "contractAddress": null,
      "logs": [
        {
          "address": "0x870aC11D48B15DB9a138Cf899d20F13F79Ba00BC",
          "topics": [
            "0x7120161a7b3d31251e01294ab351ef15a41b91659a36032e4641bb89b121e321",
            "0xcc7b191903e4750ad71898a1594d912adbb5bb1c6effcde9c38f0a798112edd1"
          ],
          "data": "0x0000000000000000000000000000000000000000000000000000000012e67bf7000000000000000000000000000000000000000000000000000000004b99c0ba",
          "blockHash": "0xfeeac8609b77bdbbbed094705012b863f707655c26697ede982f7f3343e3e915",
          "blockNumber": "0x12c6c65",
          "transactionHash": "0xc39562b80d9090db94c58b2ec5638bd7d79eb80270a9910cbfcac04223ae472d",
          "transactionIndex": "0x11",
          "logIndex": "0x43",
          "removed": false
        },
        {
          "address": "0xBBBBBbbBBb9cC5e90e3b3Af64bdAF62C37EEFFCb",
          "topics": [
            "0x9d9bd501d0657d7dfe415f779a620a62b78bc508ddc0891fbbd8b7ac0f8fce87",
            "0xcc7b191903e4750ad71898a1594d912adbb5bb1c6effcde9c38f0a798112edd1"
          ],
          "data": "0x0000000000000000000000000000000000000000000000000000000012e67bf700000000000000000000000000000000000000000000000000000000000000000000000000000000000000000000000000000000000000000000000000000000",
          "blockHash": "0xfeeac8609b77bdbbbed094705012b863f707655c26697ede982f7f3343e3e915",
          "blockNumber": "0x12c6c65",
          "transactionHash": "0xc39562b80d9090db94c58b2ec5638bd7d79eb80270a9910cbfcac04223ae472d",
          "transactionIndex": "0x11",
          "logIndex": "0x44",
          "removed": false
        },
        {
          "address": "0xBBBBBbbBBb9cC5e90e3b3Af64bdAF62C37EEFFCb",
          "topics": [
            "0xedf8870433c83823eb071d3df1caa8d008f12f6440918c20d75a3602cda30fe0",
            "0xcc7b191903e4750ad71898a1594d912adbb5bb1c6effcde9c38f0a798112edd1",
            "0x000000000000000000000000a9ddd91249dfdd450e81e1c56ab60e1a62651701",
            "0x000000000000000000000000a9ddd91249dfdd450e81e1c56ab60e1a62651701"
          ],
          "data": "0x0000000000000000000000000000000000000000000000000de0b6b3a764000000000000000000000000000000000000000000000000d3c21bcecceda1000000",
          "blockHash": "0xfeeac8609b77bdbbbed094705012b863f707655c26697ede982f7f3343e3e915",
          "blockNumber": "0x12c6c65",
          "transactionHash": "0xc39562b80d9090db94c58b2ec5638bd7d79eb80270a9910cbfcac04223ae472d",
          "transactionIndex": "0x11",
          "logIndex": "0x45",
          "removed": false
        },
        {
          "address": "0x0000206329b97DB379d5E1Bf586BbDB969C63274",
          "topics": [
            "0x8c5be1e5ebec7d5bd14f71427d1e84f3dd0314c0f7b2291e5b200ac8c7c3b925",
            "0x000000000000000000000000a9ddd91249dfdd450e81e1c56ab60e1a62651701",
            "0x000000000000000000000000bbbbbbbbbb9cc5e90e3b3af64bdaf62c37eeffcb"
          ],
          "data": "0x0000000000000000000000000000000000000000000000007ce66c50e2840000",
          "blockHash": "0xfeeac8609b77bdbbbed094705012b863f707655c26697ede982f7f3343e3e915",
          "blockNumber": "0x12c6c65",
          "transactionHash": "0xc39562b80d9090db94c58b2ec5638bd7d79eb80270a9910cbfcac04223ae472d",
          "transactionIndex": "0x11",
          "logIndex": "0x46",
          "removed": false
        },
        {
          "address": "0x0000206329b97DB379d5E1Bf586BbDB969C63274",
          "topics": [
            "0xddf252ad1be2c89b69c2b068fc378daa952ba7f163c4a11628f55a4df523b3ef",
            "0x000000000000000000000000a9ddd91249dfdd450e81e1c56ab60e1a62651701",
            "0x000000000000000000000000bbbbbbbbbb9cc5e90e3b3af64bdaf62c37eeffcb"
          ],
          "data": "0x0000000000000000000000000000000000000000000000000de0b6b3a7640000",
          "blockHash": "0xfeeac8609b77bdbbbed094705012b863f707655c26697ede982f7f3343e3e915",
          "blockNumber": "0x12c6c65",
          "transactionHash": "0xc39562b80d9090db94c58b2ec5638bd7d79eb80270a9910cbfcac04223ae472d",
          "transactionIndex": "0x11",
          "logIndex": "0x47",
          "removed": false
        }
      ],
      "status": "0x1",
      "logsBloom": "0x00000000000000000000000000000080000000200000000000000000000000000000400000000000000000000000000000000000000000000000000020a44000000000000010000000000008800004000004000800200000000000080000000000000000000000000000000000000000000000000000000000000010000000000000000000000008000000000000000000000000000000000000000000000000820000000000000000000020000000000000000000000000800000080000000020000002000000000001000000000000000000004000000000000000000000400010000001000000000000200001000000000000000000000000000000004000",
      "type": "0x2",
      "effectiveGasPrice": "0x32ba509cc"
    },
    {
      "transactionHash": "0x899ecb9330a8923334a84094c99e92fd7146833d4368cf3b886b82a7a6b407b5",
      "transactionIndex": "0x31",
      "blockHash": "0xa35a8bd97f2e54c8b8dfd5e6fe10d166c16679cda867c1f23e2fb267a61e1851",
      "blockNumber": "0x12c6c66",
      "from": "0xA9DdD91249DFdd450E81E1c56Ab60E1A62651701",
      "to": "0xc69Ad9baB1dEE23F4605a82b3354F8E40d1E5966",
      "cumulativeGasUsed": "0x669674",
      "gasUsed": "0xb39c",
      "contractAddress": null,
      "logs": [
        {
          "address": "0xc69Ad9baB1dEE23F4605a82b3354F8E40d1E5966",
          "topics": [
            "0x8c5be1e5ebec7d5bd14f71427d1e84f3dd0314c0f7b2291e5b200ac8c7c3b925",
            "0x000000000000000000000000a9ddd91249dfdd450e81e1c56ab60e1a62651701",
            "0x000000000000000000000000bbbbbbbbbb9cc5e90e3b3af64bdaf62c37eeffcb"
          ],
          "data": "0x000000000000000000000000000000000000000000000000002386f26fc10000",
          "blockHash": "0xa35a8bd97f2e54c8b8dfd5e6fe10d166c16679cda867c1f23e2fb267a61e1851",
          "blockNumber": "0x12c6c66",
          "transactionHash": "0x899ecb9330a8923334a84094c99e92fd7146833d4368cf3b886b82a7a6b407b5",
          "transactionIndex": "0x31",
          "logIndex": "0x124",
          "removed": false
        }
      ],
      "status": "0x1",
      "logsBloom": "0x00000000000000000000000000000080000000000000080000000000000000000000000000000000000000000000000000000000000000000000000000200000000000000000000000000000000000000000000000000000000000000000000000000000000000000000000000000000000000000000000000000000000000000000000000000000000000000000000000020000000000000000000000000000820000000000000000000000000000000000000000000000800000080000000000000000000000000000000000000000000000000000000000000000000000000010000001000000000000200000000000000000000000000000000000001000",
      "type": "0x2",
      "effectiveGasPrice": "0x31e18f44f"
    },
    {
      "transactionHash": "0xc67be00c4ccb852266ab85329ba2180dfff2fe0d706a4c88d6b543c9cdb5fa8b",
      "transactionIndex": "0x5",
      "blockHash": "0x476285d34244744af82ff53b431444a563476d3f66dd915f09dc6f502bed8b81",
      "blockNumber": "0x12c6c67",
      "from": "0xA9DdD91249DFdd450E81E1c56Ab60E1A62651701",
      "to": "0xBBBBBbbBBb9cC5e90e3b3Af64bdAF62C37EEFFCb",
      "cumulativeGasUsed": "0x6c46f",
      "gasUsed": "0x1619b",
      "contractAddress": null,
      "logs": [
        {
          "address": "0xBBBBBbbBBb9cC5e90e3b3Af64bdAF62C37EEFFCb",
          "topics": [
            "0xa3b9472a1399e17e123f3c2e6586c23e504184d504de59cdaa2b375e880c6184",
            "0xcc7b191903e4750ad71898a1594d912adbb5bb1c6effcde9c38f0a798112edd1",
            "0x000000000000000000000000a9ddd91249dfdd450e81e1c56ab60e1a62651701",
            "0x000000000000000000000000a9ddd91249dfdd450e81e1c56ab60e1a62651701"
          ],
          "data": "0x000000000000000000000000000000000000000000000000002386f26fc10000",
          "blockHash": "0x476285d34244744af82ff53b431444a563476d3f66dd915f09dc6f502bed8b81",
          "blockNumber": "0x12c6c67",
          "transactionHash": "0xc67be00c4ccb852266ab85329ba2180dfff2fe0d706a4c88d6b543c9cdb5fa8b",
          "transactionIndex": "0x5",
          "logIndex": "0x9",
          "removed": false
        },
        {
          "address": "0xc69Ad9baB1dEE23F4605a82b3354F8E40d1E5966",
          "topics": [
            "0x8c5be1e5ebec7d5bd14f71427d1e84f3dd0314c0f7b2291e5b200ac8c7c3b925",
            "0x000000000000000000000000a9ddd91249dfdd450e81e1c56ab60e1a62651701",
            "0x000000000000000000000000bbbbbbbbbb9cc5e90e3b3af64bdaf62c37eeffcb"
          ],
          "data": "0x0000000000000000000000000000000000000000000000000000000000000000",
          "blockHash": "0x476285d34244744af82ff53b431444a563476d3f66dd915f09dc6f502bed8b81",
          "blockNumber": "0x12c6c67",
          "transactionHash": "0xc67be00c4ccb852266ab85329ba2180dfff2fe0d706a4c88d6b543c9cdb5fa8b",
          "transactionIndex": "0x5",
          "logIndex": "0xa",
          "removed": false
        },
        {
          "address": "0xc69Ad9baB1dEE23F4605a82b3354F8E40d1E5966",
          "topics": [
            "0xddf252ad1be2c89b69c2b068fc378daa952ba7f163c4a11628f55a4df523b3ef",
            "0x000000000000000000000000a9ddd91249dfdd450e81e1c56ab60e1a62651701",
            "0x000000000000000000000000bbbbbbbbbb9cc5e90e3b3af64bdaf62c37eeffcb"
          ],
          "data": "0x000000000000000000000000000000000000000000000000002386f26fc10000",
          "blockHash": "0x476285d34244744af82ff53b431444a563476d3f66dd915f09dc6f502bed8b81",
          "blockNumber": "0x12c6c67",
          "transactionHash": "0xc67be00c4ccb852266ab85329ba2180dfff2fe0d706a4c88d6b543c9cdb5fa8b",
          "transactionIndex": "0x5",
          "logIndex": "0xb",
          "removed": false
        }
      ],
      "status": "0x1",
      "logsBloom": "0x00000000000000000000000000000080000000200000080000000000000000000000000000000000000000000000000000000000000000000000000000200000000000000010000000000008000000000004000000000000000000000000000000000000000000000000000000000000000000000000000000000010000000000000008000000008000000000000000000020000000000000000000000000000820000000000000000000020000000000000000000000000800000080000000020000002000000000000000000000000000000000000000400000000000000000010000001000000000000200000200000000000000000000000000000001000",
      "type": "0x2",
      "effectiveGasPrice": "0x34007ae66"
    },
    {
      "transactionHash": "0x7845f57f6e43011a8d9c74f82c6066909fcb721f05bbea933d35ff2488eea38f",
      "transactionIndex": "0xf",
      "blockHash": "0xb6cac8a4bd55df01c0150e8dd0559555148a1f5b56d194e6b6bdcb11daf9f5a3",
      "blockNumber": "0x12c6c68",
      "from": "0xA9DdD91249DFdd450E81E1c56Ab60E1A62651701",
      "to": "0xBBBBBbbBBb9cC5e90e3b3Af64bdAF62C37EEFFCb",
      "cumulativeGasUsed": "0x187f72",
      "gasUsed": "0x40d15",
      "contractAddress": null,
      "logs": [
        {
          "address": "0x870aC11D48B15DB9a138Cf899d20F13F79Ba00BC",
          "topics": [
            "0x7120161a7b3d31251e01294ab351ef15a41b91659a36032e4641bb89b121e321",
            "0xcc7b191903e4750ad71898a1594d912adbb5bb1c6effcde9c38f0a798112edd1"
          ],
          "data": "0x0000000000000000000000000000000000000000000000000000000012e64cd5000000000000000000000000000000000000000000000000000000004b98a5f0",
          "blockHash": "0xb6cac8a4bd55df01c0150e8dd0559555148a1f5b56d194e6b6bdcb11daf9f5a3",
          "blockNumber": "0x12c6c68",
          "transactionHash": "0x7845f57f6e43011a8d9c74f82c6066909fcb721f05bbea933d35ff2488eea38f",
          "transactionIndex": "0xf",
          "logIndex": "0x28",
          "removed": false
        },
        {
          "address": "0xBBBBBbbBBb9cC5e90e3b3Af64bdAF62C37EEFFCb",
          "topics": [
            "0x9d9bd501d0657d7dfe415f779a620a62b78bc508ddc0891fbbd8b7ac0f8fce87",
            "0xcc7b191903e4750ad71898a1594d912adbb5bb1c6effcde9c38f0a798112edd1"
          ],
          "data": "0x0000000000000000000000000000000000000000000000000000000012e64cd500000000000000000000000000000000000000000000000000000000000000000000000000000000000000000000000000000000000000000000000000000000",
          "blockHash": "0xb6cac8a4bd55df01c0150e8dd0559555148a1f5b56d194e6b6bdcb11daf9f5a3",
          "blockNumber": "0x12c6c68",
          "transactionHash": "0x7845f57f6e43011a8d9c74f82c6066909fcb721f05bbea933d35ff2488eea38f",
          "transactionIndex": "0xf",
          "logIndex": "0x29",
          "removed": false
        },
        {
          "address": "0xBBBBBbbBBb9cC5e90e3b3Af64bdAF62C37EEFFCb",
          "topics": [
            "0x570954540bed6b1304a87dfe815a5eda4a648f7097a16240dcd85c9b5fd42a43",
            "0xcc7b191903e4750ad71898a1594d912adbb5bb1c6effcde9c38f0a798112edd1",
            "0x000000000000000000000000a9ddd91249dfdd450e81e1c56ab60e1a62651701",
            "0x000000000000000000000000a9ddd91249dfdd450e81e1c56ab60e1a62651701"
          ],
          "data": "0x000000000000000000000000a9ddd91249dfdd450e81e1c56ab60e1a626517010000000000000000000000000000000000000000000000000de0b6b3a764000000000000000000000000000000000000000000000000d3c21bcecceda1000000",
          "blockHash": "0xb6cac8a4bd55df01c0150e8dd0559555148a1f5b56d194e6b6bdcb11daf9f5a3",
          "blockNumber": "0x12c6c68",
          "transactionHash": "0x7845f57f6e43011a8d9c74f82c6066909fcb721f05bbea933d35ff2488eea38f",
          "transactionIndex": "0xf",
          "logIndex": "0x2a",
          "removed": false
        },
        {
          "address": "0x0000206329b97DB379d5E1Bf586BbDB969C63274",
          "topics": [
            "0xddf252ad1be2c89b69c2b068fc378daa952ba7f163c4a11628f55a4df523b3ef",
            "0x000000000000000000000000bbbbbbbbbb9cc5e90e3b3af64bdaf62c37eeffcb",
            "0x000000000000000000000000a9ddd91249dfdd450e81e1c56ab60e1a62651701"
          ],
          "data": "0x0000000000000000000000000000000000000000000000000de0b6b3a7640000",
          "blockHash": "0xb6cac8a4bd55df01c0150e8dd0559555148a1f5b56d194e6b6bdcb11daf9f5a3",
          "blockNumber": "0x12c6c68",
          "transactionHash": "0x7845f57f6e43011a8d9c74f82c6066909fcb721f05bbea933d35ff2488eea38f",
          "transactionIndex": "0xf",
          "logIndex": "0x2b",
          "removed": false
        }
      ],
      "status": "0x1",
      "logsBloom": "0x00000000000000000002000000000080000000200000000000000000000000000000400000000000000000000000000000000000000000000000000020844000000000000010000000000008000004000004000000200000000000080000000000000000000000000000000000000000000000000000000000000010000000000000000000000008000000000000000000000000000000000000000000000000800000000000000000000020000000000000000000000000800000080000000020000002000000000001000000000000000000004000000000000000000000000000004001000008000000200001000000000000000000000000000000004000",
      "type": "0x2",
      "effectiveGasPrice": "0x31ed154ea"
    },
    {
      "transactionHash": "0xf80cba34d95661f93fc9e10e13baed91200238600db427b0c1fd10f72777bc53",
      "transactionIndex": "0x16",
      "blockHash": "0x384506bb167577db1f4996812a8287b50f0b518919cf9d38aa6613829240d92c",
      "blockNumber": "0x12c6c69",
      "from": "0xA9DdD91249DFdd450E81E1c56Ab60E1A62651701",
      "to": "0xBBBBBbbBBb9cC5e90e3b3Af64bdAF62C37EEFFCb",
      "cumulativeGasUsed": "0x2ce61b",
      "gasUsed": "0x30af3",
      "contractAddress": null,
      "logs": [
        {
          "address": "0xBBBBBbbBBb9cC5e90e3b3Af64bdAF62C37EEFFCb",
          "topics": [
            "0xac4b2400f169220b0c0afdde7a0b32e775ba727ea1cb30b35f935cdaab8683ac",
            "0xdfd730c597116b2ab4b5ec2a10fef3e6bc1e8c9ae495ca7d2a351704592d6bbe"
          ],
          "data": "0x0000000000000000000000000000206329b97db379d5e1bf586bbdb969c632740000000000000000000000002371e134e3455e0593363cbf89d3b6cf53740618000000000000000000000000e4ccaa1849e9058f77f555c0fcca4925efd37d8e000000000000000000000000870ac11d48b15db9a138cf899d20f13f79ba00bc0000000000000000000000000000000000000000000000000aaf96eb9d0d0000",
          "blockHash": "0x384506bb167577db1f4996812a8287b50f0b518919cf9d38aa6613829240d92c",
          "blockNumber": "0x12c6c69",
          "transactionHash": "0xf80cba34d95661f93fc9e10e13baed91200238600db427b0c1fd10f72777bc53",
          "transactionIndex": "0x16",
          "logIndex": "0x59",
          "removed": false
        },
        {
          "address": "0x870aC11D48B15DB9a138Cf899d20F13F79Ba00BC",
          "topics": [
            "0x7120161a7b3d31251e01294ab351ef15a41b91659a36032e4641bb89b121e321",
            "0xdfd730c597116b2ab4b5ec2a10fef3e6bc1e8c9ae495ca7d2a351704592d6bbe"
          ],
          "data": "0x0000000000000000000000000000000000000000000000000000000012e687bf000000000000000000000000000000000000000000000000000000004b9a1eff",
          "blockHash": "0x384506bb167577db1f4996812a8287b50f0b518919cf9d38aa6613829240d92c",
          "blockNumber": "0x12c6c69",
          "transactionHash": "0xf80cba34d95661f93fc9e10e13baed91200238600db427b0c1fd10f72777bc53",
          "transactionIndex": "0x16",
          "logIndex": "0x5a",
          "removed": false
        }
      ],
      "status": "0x1",
      "logsBloom": "0x00000000000000000000000000000800000000000000000000000000000000000000000000000000000000000000000000000000000000000000000000844800000000000010000000000000000000000000000000200000000000000000000000000000000000000000000000000000000000000000000000000040000000000000000000000008000000000000000000000000000000000000000000000000000000000000000000008000000000000000000000000000000000000000000020080000000000000001000000000000000000000000000000000000000000000000000000000000000000000001000000000000000000000000000000000010",
      "type": "0x2",
      "effectiveGasPrice": "0x3179acdc2"
    },
    {
      "transactionHash": "0x48f6289934cb41cf589c14a81d5aa196ee5c25068c9a2f3ed0261bc75c68f06f",
      "transactionIndex": "0x3",
      "blockHash": "0x4e128f2be385b2e2f67c344533dcd2799d735bc1de216183ee0caa34cba94a4f",
      "blockNumber": "0x12c6c6a",
      "from": "0xA9DdD91249DFdd450E81E1c56Ab60E1A62651701",
      "to": "0xBBBBBbbBBb9cC5e90e3b3Af64bdAF62C37EEFFCb",
      "cumulativeGasUsed": "0x7f775",
      "gasUsed": "0x20a2d",
      "contractAddress": null,
      "logs": [
        {
          "address": "0x870aC11D48B15DB9a138Cf899d20F13F79Ba00BC",
          "topics": [
            "0x7120161a7b3d31251e01294ab351ef15a41b91659a36032e4641bb89b121e321",
            "0xdfd730c597116b2ab4b5ec2a10fef3e6bc1e8c9ae495ca7d2a351704592d6bbe"
          ],
          "data": "0x0000000000000000000000000000000000000000000000000000000012e67bf7000000000000000000000000000000000000000000000000000000004b99c0ba",
          "blockHash": "0x4e128f2be385b2e2f67c344533dcd2799d735bc1de216183ee0caa34cba94a4f",
          "blockNumber": "0x12c6c6a",
          "transactionHash": "0x48f6289934cb41cf589c14a81d5aa196ee5c25068c9a2f3ed0261bc75c68f06f",
          "transactionIndex": "0x3",
          "logIndex": "0xe",
          "removed": false
        },
        {
          "address": "0xBBBBBbbBBb9cC5e90e3b3Af64bdAF62C37EEFFCb",
          "topics": [
            "0x9d9bd501d0657d7dfe415f779a620a62b78bc508ddc0891fbbd8b7ac0f8fce87",
            "0xdfd730c597116b2ab4b5ec2a10fef3e6bc1e8c9ae495ca7d2a351704592d6bbe"
          ],
          "data": "0x0000000000000000000000000000000000000000000000000000000012e67bf700000000000000000000000000000000000000000000000000000000000000000000000000000000000000000000000000000000000000000000000000000000",
          "blockHash": "0x4e128f2be385b2e2f67c344533dcd2799d735bc1de216183ee0caa34cba94a4f",
          "blockNumber": "0x12c6c6a",
          "transactionHash": "0x48f6289934cb41cf589c14a81d5aa196ee5c25068c9a2f3ed0261bc75c68f06f",
          "transactionIndex": "0x3",
          "logIndex": "0xf",
          "removed": false
        },
        {
          "address": "0xBBBBBbbBBb9cC5e90e3b3Af64bdAF62C37EEFFCb",
          "topics": [
            "0xedf8870433c83823eb071d3df1caa8d008f12f6440918c20d75a3602cda30fe0",
            "0xdfd730c597116b2ab4b5ec2a10fef3e6bc1e8c9ae495ca7d2a351704592d6bbe",
            "0x000000000000000000000000a9ddd91249dfdd450e81e1c56ab60e1a62651701",
            "0x000000000000000000000000a9ddd91249dfdd450e81e1c56ab60e1a62651701"
          ],
          "data": "0x0000000000000000000000000000000000000000000000000de0b6b3a764000000000000000000000000000000000000000000000000d3c21bcecceda1000000",
          "blockHash": "0x4e128f2be385b2e2f67c344533dcd2799d735bc1de216183ee0caa34cba94a4f",
          "blockNumber": "0x12c6c6a",
          "transactionHash": "0x48f6289934cb41cf589c14a81d5aa196ee5c25068c9a2f3ed0261bc75c68f06f",
          "transactionIndex": "0x3",
          "logIndex": "0x10",
          "removed": false
        },
        {
          "address": "0x0000206329b97DB379d5E1Bf586BbDB969C63274",
          "topics": [
            "0x8c5be1e5ebec7d5bd14f71427d1e84f3dd0314c0f7b2291e5b200ac8c7c3b925",
            "0x000000000000000000000000a9ddd91249dfdd450e81e1c56ab60e1a62651701",
            "0x000000000000000000000000bbbbbbbbbb9cc5e90e3b3af64bdaf62c37eeffcb"
          ],
          "data": "0x0000000000000000000000000000000000000000000000006f05b59d3b200000",
          "blockHash": "0x4e128f2be385b2e2f67c344533dcd2799d735bc1de216183ee0caa34cba94a4f",
          "blockNumber": "0x12c6c6a",
          "transactionHash": "0x48f6289934cb41cf589c14a81d5aa196ee5c25068c9a2f3ed0261bc75c68f06f",
          "transactionIndex": "0x3",
          "logIndex": "0x11",
          "removed": false
        },
        {
          "address": "0x0000206329b97DB379d5E1Bf586BbDB969C63274",
          "topics": [
            "0xddf252ad1be2c89b69c2b068fc378daa952ba7f163c4a11628f55a4df523b3ef",
            "0x000000000000000000000000a9ddd91249dfdd450e81e1c56ab60e1a62651701",
            "0x000000000000000000000000bbbbbbbbbb9cc5e90e3b3af64bdaf62c37eeffcb"
          ],
          "data": "0x0000000000000000000000000000000000000000000000000de0b6b3a7640000",
          "blockHash": "0x4e128f2be385b2e2f67c344533dcd2799d735bc1de216183ee0caa34cba94a4f",
          "blockNumber": "0x12c6c6a",
          "transactionHash": "0x48f6289934cb41cf589c14a81d5aa196ee5c25068c9a2f3ed0261bc75c68f06f",
          "transactionIndex": "0x3",
          "logIndex": "0x12",
          "removed": false
        }
      ],
      "status": "0x1",
      "logsBloom": "0x00000000000000000000000000000080000000000000000000000000000000000000400000000000000000000000000000000000000000000000000020a44800000000000010000000000008800004000000000800200000000000080000000000000000000000000000000000000000000000000000000000000010000000000000000000000008000000000000000000000000000000000000000000000000820000000000000000008000000000000000000000000000800000080000000020080002000000000001000000000000000000004000000000000000000000400010000001000000000000200001000000000000000000000000000000004000",
      "type": "0x2",
      "effectiveGasPrice": "0x31e2267cb"
    },
    {
      "transactionHash": "0xf504ecc02fd14d8722e09208d8025926114c692994f74f007fa00f486675f814",
      "transactionIndex": "0x1f",
      "blockHash": "0x4c6383dcb98957e582ba5e642e890b570829cde551174725d5157505c3029de6",
      "blockNumber": "0x12c6c6b",
      "from": "0xA9DdD91249DFdd450E81E1c56Ab60E1A62651701",
      "to": "0x2371e134e3455e0593363cBF89d3b6cf53740618",
      "cumulativeGasUsed": "0x3ccc1c",
      "gasUsed": "0xb3c8",
      "contractAddress": null,
      "logs": [
        {
          "address": "0x2371e134e3455e0593363cBF89d3b6cf53740618",
          "topics": [
            "0x8c5be1e5ebec7d5bd14f71427d1e84f3dd0314c0f7b2291e5b200ac8c7c3b925",
            "0x000000000000000000000000a9ddd91249dfdd450e81e1c56ab60e1a62651701",
            "0x000000000000000000000000bbbbbbbbbb9cc5e90e3b3af64bdaf62c37eeffcb"
          ],
          "data": "0x000000000000000000000000000000000000000000000000002386f26fc10000",
          "blockHash": "0x4c6383dcb98957e582ba5e642e890b570829cde551174725d5157505c3029de6",
          "blockNumber": "0x12c6c6b",
          "transactionHash": "0xf504ecc02fd14d8722e09208d8025926114c692994f74f007fa00f486675f814",
          "transactionIndex": "0x1f",
          "logIndex": "0x72",
          "removed": false
        }
      ],
      "status": "0x1",
      "logsBloom": "0x00000000000000000000000000000080000000000000000010000000000000000000000000000000000000000000000000000000000000000000000000200000000000000000000000000000000000000000000000000000000000000000000000000000000000000000000000000000010000000000000000000000000000000000000000000000000000000000000000000000000000000000000000000000820000000000000000000000000000000000000000000040800000080000000000000000000000000000000000000000000000000000000000000000000000000010000001000000000000200000000000000000000000000000000000000000",
      "type": "0x2",
      "effectiveGasPrice": "0x32d29674c"
    },
    {
      "transactionHash": "0xe5c57f815fc919d30ed46c3a06c27fecdb1181f57629bab6c97fa7a04075bd52",
      "transactionIndex": "0xf",
      "blockHash": "0x4e14f479679fe0a2349d5c939892dc75e1c671fc6194826370728d7b6b789342",
      "blockNumber": "0x12c6c6c",
      "from": "0xA9DdD91249DFdd450E81E1c56Ab60E1A62651701",
      "to": "0xBBBBBbbBBb9cC5e90e3b3Af64bdAF62C37EEFFCb",
      "cumulativeGasUsed": "0x287e32",
      "gasUsed": "0x150fc",
      "contractAddress": null,
      "logs": [
        {
          "address": "0xBBBBBbbBBb9cC5e90e3b3Af64bdAF62C37EEFFCb",
          "topics": [
            "0xa3b9472a1399e17e123f3c2e6586c23e504184d504de59cdaa2b375e880c6184",
            "0xdfd730c597116b2ab4b5ec2a10fef3e6bc1e8c9ae495ca7d2a351704592d6bbe",
            "0x000000000000000000000000a9ddd91249dfdd450e81e1c56ab60e1a62651701",
            "0x000000000000000000000000a9ddd91249dfdd450e81e1c56ab60e1a62651701"
          ],
          "data": "0x000000000000000000000000000000000000000000000000002386f26fc10000",
          "blockHash": "0x4e14f479679fe0a2349d5c939892dc75e1c671fc6194826370728d7b6b789342",
          "blockNumber": "0x12c6c6c",
          "transactionHash": "0xe5c57f815fc919d30ed46c3a06c27fecdb1181f57629bab6c97fa7a04075bd52",
          "transactionIndex": "0xf",
          "logIndex": "0x4e",
          "removed": false
        },
        {
          "address": "0x2371e134e3455e0593363cBF89d3b6cf53740618",
          "topics": [
            "0xddf252ad1be2c89b69c2b068fc378daa952ba7f163c4a11628f55a4df523b3ef",
            "0x000000000000000000000000a9ddd91249dfdd450e81e1c56ab60e1a62651701",
            "0x000000000000000000000000bbbbbbbbbb9cc5e90e3b3af64bdaf62c37eeffcb"
          ],
          "data": "0x000000000000000000000000000000000000000000000000002386f26fc10000",
          "blockHash": "0x4e14f479679fe0a2349d5c939892dc75e1c671fc6194826370728d7b6b789342",
          "blockNumber": "0x12c6c6c",
          "transactionHash": "0xe5c57f815fc919d30ed46c3a06c27fecdb1181f57629bab6c97fa7a04075bd52",
          "transactionIndex": "0xf",
          "logIndex": "0x4f",
          "removed": false
        }
      ],
      "status": "0x1",
      "logsBloom": "0x00000000000000000000000000000080000000000000000010000000000000000000000000000000000000000000000000000000000000000000000000000800000000000010000000000008000000000000000000000000000000000000000000000000000000000000000000000000010000000000000000000010000000000000008000000008000000000000000000000000000000000000000000000000800000000000000000008000000000000000000000000040800000080000000020080002000000000000000000000000000000000000000400000000000000000000000001000000000000200000200000000000000000000000000000000000",
      "type": "0x2",
      "effectiveGasPrice": "0x3212b4f1c"
    },
    {
      "transactionHash": "0x454c8e39984ca243590fc7a7554ecc777c39b5791b2d2fd7f5c38b1f349ec9d7",
      "transactionIndex": "0x10",
      "blockHash": "0xb1aa09579b009ce505cda028caef7acdde6474330fd144eb87f1a36763df8912",
      "blockNumber": "0x12c6c6d",
      "from": "0xA9DdD91249DFdd450E81E1c56Ab60E1A62651701",
      "to": "0xBBBBBbbBBb9cC5e90e3b3Af64bdAF62C37EEFFCb",
      "cumulativeGasUsed": "0x173665",
      "gasUsed": "0x514a7",
      "contractAddress": null,
      "logs": [
        {
          "address": "0x870aC11D48B15DB9a138Cf899d20F13F79Ba00BC",
          "topics": [
            "0x7120161a7b3d31251e01294ab351ef15a41b91659a36032e4641bb89b121e321",
            "0xdfd730c597116b2ab4b5ec2a10fef3e6bc1e8c9ae495ca7d2a351704592d6bbe"
          ],
          "data": "0x0000000000000000000000000000000000000000000000000000000012e64cd5000000000000000000000000000000000000000000000000000000004b98a5f0",
          "blockHash": "0xb1aa09579b009ce505cda028caef7acdde6474330fd144eb87f1a36763df8912",
          "blockNumber": "0x12c6c6d",
          "transactionHash": "0x454c8e39984ca243590fc7a7554ecc777c39b5791b2d2fd7f5c38b1f349ec9d7",
          "transactionIndex": "0x10",
          "logIndex": "0x21",
          "removed": false
        },
        {
          "address": "0xBBBBBbbBBb9cC5e90e3b3Af64bdAF62C37EEFFCb",
          "topics": [
            "0x9d9bd501d0657d7dfe415f779a620a62b78bc508ddc0891fbbd8b7ac0f8fce87",
            "0xdfd730c597116b2ab4b5ec2a10fef3e6bc1e8c9ae495ca7d2a351704592d6bbe"
          ],
          "data": "0x0000000000000000000000000000000000000000000000000000000012e64cd500000000000000000000000000000000000000000000000000000000000000000000000000000000000000000000000000000000000000000000000000000000",
          "blockHash": "0xb1aa09579b009ce505cda028caef7acdde6474330fd144eb87f1a36763df8912",
          "blockNumber": "0x12c6c6d",
          "transactionHash": "0x454c8e39984ca243590fc7a7554ecc777c39b5791b2d2fd7f5c38b1f349ec9d7",
          "transactionIndex": "0x10",
          "logIndex": "0x22",
          "removed": false
        },
        {
          "address": "0xBBBBBbbBBb9cC5e90e3b3Af64bdAF62C37EEFFCb",
          "topics": [
            "0x570954540bed6b1304a87dfe815a5eda4a648f7097a16240dcd85c9b5fd42a43",
            "0xdfd730c597116b2ab4b5ec2a10fef3e6bc1e8c9ae495ca7d2a351704592d6bbe",
            "0x000000000000000000000000a9ddd91249dfdd450e81e1c56ab60e1a62651701",
            "0x000000000000000000000000a9ddd91249dfdd450e81e1c56ab60e1a62651701"
          ],
          "data": "0x000000000000000000000000a9ddd91249dfdd450e81e1c56ab60e1a626517010000000000000000000000000000000000000000000000000de0b6b3a764000000000000000000000000000000000000000000000000d3c21bcecceda1000000",
          "blockHash": "0xb1aa09579b009ce505cda028caef7acdde6474330fd144eb87f1a36763df8912",
          "blockNumber": "0x12c6c6d",
          "transactionHash": "0x454c8e39984ca243590fc7a7554ecc777c39b5791b2d2fd7f5c38b1f349ec9d7",
          "transactionIndex": "0x10",
          "logIndex": "0x23",
          "removed": false
        },
        {
          "address": "0x0000206329b97DB379d5E1Bf586BbDB969C63274",
          "topics": [
            "0xddf252ad1be2c89b69c2b068fc378daa952ba7f163c4a11628f55a4df523b3ef",
            "0x000000000000000000000000bbbbbbbbbb9cc5e90e3b3af64bdaf62c37eeffcb",
            "0x000000000000000000000000a9ddd91249dfdd450e81e1c56ab60e1a62651701"
          ],
          "data": "0x0000000000000000000000000000000000000000000000000de0b6b3a7640000",
          "blockHash": "0xb1aa09579b009ce505cda028caef7acdde6474330fd144eb87f1a36763df8912",
          "blockNumber": "0x12c6c6d",
          "transactionHash": "0x454c8e39984ca243590fc7a7554ecc777c39b5791b2d2fd7f5c38b1f349ec9d7",
          "transactionIndex": "0x10",
          "logIndex": "0x24",
          "removed": false
        }
      ],
      "status": "0x1",
      "logsBloom": "0x00000000000000000002000000000080000000000000000000000000000000000000400000000000000000000000000000000000000000000000000020844800000000000010000000000008000004000000000000200000000000080000000000000000000000000000000000000000000000000000000000000010000000000000000000000008000000000000000000000000000000000000000000000000800000000000000000008000000000000000000000000000800000080000000020080002000000000001000000000000000000004000000000000000000000000000004001000008000000200001000000000000000000000000000000004000",
      "type": "0x2",
      "effectiveGasPrice": "0x32837cb45"
    },
    {
      "transactionHash": "0x28dd9adab7aa7b0c8cba232005152f1b41ea701101e57a65823f8049ec678e67",
      "transactionIndex": "0x15",
      "blockHash": "0xc568c6debeab26cf66b72a48e76c6ab15922c12d57fe8781247a096207a35111",
      "blockNumber": "0x12c6c6e",
      "from": "0xA9DdD91249DFdd450E81E1c56Ab60E1A62651701",
      "to": "0x3A7bB36Ee3f3eE32A60e9f2b33c1e5f2E83ad766",
      "cumulativeGasUsed": "0x200e0a",
      "gasUsed": "0x958f0",
      "contractAddress": null,
      "logs": [
        {
          "address": "0x3A7bB36Ee3f3eE32A60e9f2b33c1e5f2E83ad766",
          "topics": [
            "0x6436acb89463dbc9036f1e52aebf32ac0bf5f69e3987c067110c3ac403ebda33"
          ],
          "data": "0x000000000000000000000000a9ddd91249dfdd450e81e1c56ab60e1a6265170100000000000000000000000076052a2a28fdcb8124f4686c63c68355b142de3b",
          "blockHash": "0xc568c6debeab26cf66b72a48e76c6ab15922c12d57fe8781247a096207a35111",
          "blockNumber": "0x12c6c6e",
          "transactionHash": "0x28dd9adab7aa7b0c8cba232005152f1b41ea701101e57a65823f8049ec678e67",
          "transactionIndex": "0x15",
          "logIndex": "0x30",
          "removed": false
        }
      ],
      "status": "0x1",
      "logsBloom": "0x00000000000000000000000000000000000000000000000000000000000000000000000000000000000000000000000000000000000000000000000000000000000000000000000000000000000000000000000000000000000000000000000000000000000000000000000000000000000000000000000000000000000000000000000000000000000000000000000000002000000000000000000000000000000000000000000000000000010000000000000000100000000000000000000000000000000000000000000000000000000000000000000000000000000000000000000000000080000000006000000000000000000000000000000000000000",
      "type": "0x2",
      "effectiveGasPrice": "0x2f760491b"
    },
    {
      "transactionHash": "0xb2dfc6ac77f346bb31220a2a97134045a242fca4e48a298921faa4e2d646a48e",
      "transactionIndex": "0x5",
      "blockHash": "0x5d227cd3e6851e801f7c72c21a36334fbb3489c1b1aab21d3fc81497b573bbf6",
      "blockNumber": "0x12c6c6f",
      "from": "0xA9DdD91249DFdd450E81E1c56Ab60E1A62651701",
      "to": "0xBBBBBbbBBb9cC5e90e3b3Af64bdAF62C37EEFFCb",
      "cumulativeGasUsed": "0x9fd1b",
      "gasUsed": "0x30af3",
      "contractAddress": null,
      "logs": [
        {
          "address": "0xBBBBBbbBBb9cC5e90e3b3Af64bdAF62C37EEFFCb",
          "topics": [
            "0xac4b2400f169220b0c0afdde7a0b32e775ba727ea1cb30b35f935cdaab8683ac",
            "0x540266e1879fff261908dcd4f4c623ce99dcd4c9ae7004e9c97ed80bfcb9ea21"
          ],
          "data": "0x0000000000000000000000000000206329b97db379d5e1bf586bbdb969c6327400000000000000000000000078fc2c2ed1a4cdb5402365934ae5648adad094d000000000000000000000000076052a2a28fdcb8124f4686c63c68355b142de3b000000000000000000000000870ac11d48b15db9a138cf899d20f13f79ba00bc0000000000000000000000000000000000000000000000000bef55718ad60000",
          "blockHash": "0x5d227cd3e6851e801f7c72c21a36334fbb3489c1b1aab21d3fc81497b573bbf6",
          "blockNumber": "0x12c6c6f",
          "transactionHash": "0xb2dfc6ac77f346bb31220a2a97134045a242fca4e48a298921faa4e2d646a48e",
          "transactionIndex": "0x5",
          "logIndex": "0xd",
          "removed": false
        },
        {
          "address": "0x870aC11D48B15DB9a138Cf899d20F13F79Ba00BC",
          "topics": [
            "0x7120161a7b3d31251e01294ab351ef15a41b91659a36032e4641bb89b121e321",
            "0x540266e1879fff261908dcd4f4c623ce99dcd4c9ae7004e9c97ed80bfcb9ea21"
          ],
          "data": "0x0000000000000000000000000000000000000000000000000000000012e687bf000000000000000000000000000000000000000000000000000000004b9a1eff",
          "blockHash": "0x5d227cd3e6851e801f7c72c21a36334fbb3489c1b1aab21d3fc81497b573bbf6",
          "blockNumber": "0x12c6c6f",
          "transactionHash": "0xb2dfc6ac77f346bb31220a2a97134045a242fca4e48a298921faa4e2d646a48e",
          "transactionIndex": "0x5",
          "logIndex": "0xe",
          "removed": false
        }
      ],
      "status": "0x1",
      "logsBloom": "0x00000000000000000000000000000800000000000000000000000000000000000000000000000000000000000000000000000000000000000000000000844000000000000010000000000000000000000000000000200000000000000000000000000000000000000000000000000000000000000002000000000040000000000000000000000008000000000000000000000000000000000000000000000000004000000002000000000000000000000000000000000000000000000000000020000000000000000001000000000000000000000000000000000000000000000000000000000000000000000001000000000000000000000000000000000010",
      "type": "0x2",
      "effectiveGasPrice": "0x32e6abdfb"
    },
    {
      "transactionHash": "0xddcea32913d2cbb1d59cbaecdce72c6dc6b3b4265c1dbf6a926c0134ebdc1467",
      "transactionIndex": "0xd",
      "blockHash": "0x53b0a849efc62bfedb1611e32ff1dded1ea3e46767e041fb1e3308fb1bf69dee",
      "blockNumber": "0x12c6c70",
      "from": "0xA9DdD91249DFdd450E81E1c56Ab60E1A62651701",
      "to": "0xBBBBBbbBBb9cC5e90e3b3Af64bdAF62C37EEFFCb",
      "cumulativeGasUsed": "0x1985de",
      "gasUsed": "0x20a2d",
      "contractAddress": null,
      "logs": [
        {
          "address": "0x870aC11D48B15DB9a138Cf899d20F13F79Ba00BC",
          "topics": [
            "0x7120161a7b3d31251e01294ab351ef15a41b91659a36032e4641bb89b121e321",
            "0x540266e1879fff261908dcd4f4c623ce99dcd4c9ae7004e9c97ed80bfcb9ea21"
          ],
          "data": "0x0000000000000000000000000000000000000000000000000000000012e67bf7000000000000000000000000000000000000000000000000000000004b99c0ba",
          "blockHash": "0x53b0a849efc62bfedb1611e32ff1dded1ea3e46767e041fb1e3308fb1bf69dee",
          "blockNumber": "0x12c6c70",
          "transactionHash": "0xddcea32913d2cbb1d59cbaecdce72c6dc6b3b4265c1dbf6a926c0134ebdc1467",
          "transactionIndex": "0xd",
          "logIndex": "0x18",
          "removed": false
        },
        {
          "address": "0xBBBBBbbBBb9cC5e90e3b3Af64bdAF62C37EEFFCb",
          "topics": [
            "0x9d9bd501d0657d7dfe415f779a620a62b78bc508ddc0891fbbd8b7ac0f8fce87",
            "0x540266e1879fff261908dcd4f4c623ce99dcd4c9ae7004e9c97ed80bfcb9ea21"
          ],
          "data": "0x0000000000000000000000000000000000000000000000000000000012e67bf700000000000000000000000000000000000000000000000000000000000000000000000000000000000000000000000000000000000000000000000000000000",
          "blockHash": "0x53b0a849efc62bfedb1611e32ff1dded1ea3e46767e041fb1e3308fb1bf69dee",
          "blockNumber": "0x12c6c70",
          "transactionHash": "0xddcea32913d2cbb1d59cbaecdce72c6dc6b3b4265c1dbf6a926c0134ebdc1467",
          "transactionIndex": "0xd",
          "logIndex": "0x19",
          "removed": false
        },
        {
          "address": "0xBBBBBbbBBb9cC5e90e3b3Af64bdAF62C37EEFFCb",
          "topics": [
            "0xedf8870433c83823eb071d3df1caa8d008f12f6440918c20d75a3602cda30fe0",
            "0x540266e1879fff261908dcd4f4c623ce99dcd4c9ae7004e9c97ed80bfcb9ea21",
            "0x000000000000000000000000a9ddd91249dfdd450e81e1c56ab60e1a62651701",
            "0x000000000000000000000000a9ddd91249dfdd450e81e1c56ab60e1a62651701"
          ],
          "data": "0x0000000000000000000000000000000000000000000000000de0b6b3a764000000000000000000000000000000000000000000000000d3c21bcecceda1000000",
          "blockHash": "0x53b0a849efc62bfedb1611e32ff1dded1ea3e46767e041fb1e3308fb1bf69dee",
          "blockNumber": "0x12c6c70",
          "transactionHash": "0xddcea32913d2cbb1d59cbaecdce72c6dc6b3b4265c1dbf6a926c0134ebdc1467",
          "transactionIndex": "0xd",
          "logIndex": "0x1a",
          "removed": false
        },
        {
          "address": "0x0000206329b97DB379d5E1Bf586BbDB969C63274",
          "topics": [
            "0x8c5be1e5ebec7d5bd14f71427d1e84f3dd0314c0f7b2291e5b200ac8c7c3b925",
            "0x000000000000000000000000a9ddd91249dfdd450e81e1c56ab60e1a62651701",
            "0x000000000000000000000000bbbbbbbbbb9cc5e90e3b3af64bdaf62c37eeffcb"
          ],
          "data": "0x0000000000000000000000000000000000000000000000006124fee993bc0000",
          "blockHash": "0x53b0a849efc62bfedb1611e32ff1dded1ea3e46767e041fb1e3308fb1bf69dee",
          "blockNumber": "0x12c6c70",
          "transactionHash": "0xddcea32913d2cbb1d59cbaecdce72c6dc6b3b4265c1dbf6a926c0134ebdc1467",
          "transactionIndex": "0xd",
          "logIndex": "0x1b",
          "removed": false
        },
        {
          "address": "0x0000206329b97DB379d5E1Bf586BbDB969C63274",
          "topics": [
            "0xddf252ad1be2c89b69c2b068fc378daa952ba7f163c4a11628f55a4df523b3ef",
            "0x000000000000000000000000a9ddd91249dfdd450e81e1c56ab60e1a62651701",
            "0x000000000000000000000000bbbbbbbbbb9cc5e90e3b3af64bdaf62c37eeffcb"
          ],
          "data": "0x0000000000000000000000000000000000000000000000000de0b6b3a7640000",
          "blockHash": "0x53b0a849efc62bfedb1611e32ff1dded1ea3e46767e041fb1e3308fb1bf69dee",
          "blockNumber": "0x12c6c70",
          "transactionHash": "0xddcea32913d2cbb1d59cbaecdce72c6dc6b3b4265c1dbf6a926c0134ebdc1467",
          "transactionIndex": "0xd",
          "logIndex": "0x1c",
          "removed": false
        }
      ],
      "status": "0x1",
      "logsBloom": "0x00000000000000000000000000000080000000000000000000000000000000000000400000000000000000000000000000000000000000000000000020a44000000000000010000000000008800004000000000800200000000000080000000000000000000000000000000000000000000000000002000000000010000000000000000000000008000000000000000000000000000000000000000000000000824000000002000000000000000000000000000000000000800000080000000020000002000000000001000000000000000000004000000000000000000000400010000001000000000000200001000000000000000000000000000000004000",
      "type": "0x2",
      "effectiveGasPrice": "0x2f029d656"
    },
    {
      "transactionHash": "0x21557e9b492d62a404b707ae5096e9074652f013d63650573da991ae861f61a0",
      "transactionIndex": "0x1a",
      "blockHash": "0x61b3cc9c32e8dd323160dc4adeec7d464034dac8edfbae5afbc8e29e20c0b15e",
      "blockNumber": "0x12c6c71",
      "from": "0xA9DdD91249DFdd450E81E1c56Ab60E1A62651701",
      "to": "0x78Fc2c2eD1A4cDb5402365934aE5648aDAd094d0",
      "cumulativeGasUsed": "0x249ea1",
      "gasUsed": "0xb3c8",
      "contractAddress": null,
      "logs": [
        {
          "address": "0x78Fc2c2eD1A4cDb5402365934aE5648aDAd094d0",
          "topics": [
            "0x8c5be1e5ebec7d5bd14f71427d1e84f3dd0314c0f7b2291e5b200ac8c7c3b925",
            "0x000000000000000000000000a9ddd91249dfdd450e81e1c56ab60e1a62651701",
            "0x000000000000000000000000bbbbbbbbbb9cc5e90e3b3af64bdaf62c37eeffcb"
          ],
          "data": "0x000000000000000000000000000000000000000000000000002386f26fc10000",
          "blockHash": "0x61b3cc9c32e8dd323160dc4adeec7d464034dac8edfbae5afbc8e29e20c0b15e",
          "blockNumber": "0x12c6c71",
          "transactionHash": "0x21557e9b492d62a404b707ae5096e9074652f013d63650573da991ae861f61a0",
          "transactionIndex": "0x1a",
          "logIndex": "0x4e",
          "removed": false
        }
      ],
      "status": "0x1",
      "logsBloom": "0x00000000000000000000000000000080000000000000000000000000000000000000000000000000000000000000000000000000000000000000000000200000000000000000000000000000000000000000000000000000000000000000000000000000000000000000000000000000000000000000000000000000000000000000000000000000000000000000000000000000000000000000010000000000820020000000000000000000000000000000000000000000800000080000000000000000000000000000000000000000000000000000000000000000000008000010000001000000000000200000000000000000000000000000000000000000",
      "type": "0x2",
      "effectiveGasPrice": "0x31a803d87"
    },
    {
      "transactionHash": "0x39b6a60a1051445e8c97f1eca77bae79c693197d43418dff40813255d7e9b370",
      "transactionIndex": "0xa",
      "blockHash": "0x3c2643eb6fcabe4e429a372e0f6a2656cbc0428b823754d5282b86dbb4507b6f",
      "blockNumber": "0x12c6c72",
      "from": "0xA9DdD91249DFdd450E81E1c56Ab60E1A62651701",
      "to": "0xBBBBBbbBBb9cC5e90e3b3Af64bdAF62C37EEFFCb",
      "cumulativeGasUsed": "0x769f6",
      "gasUsed": "0x150fc",
      "contractAddress": null,
      "logs": [
        {
          "address": "0xBBBBBbbBBb9cC5e90e3b3Af64bdAF62C37EEFFCb",
          "topics": [
            "0xa3b9472a1399e17e123f3c2e6586c23e504184d504de59cdaa2b375e880c6184",
            "0x540266e1879fff261908dcd4f4c623ce99dcd4c9ae7004e9c97ed80bfcb9ea21",
            "0x000000000000000000000000a9ddd91249dfdd450e81e1c56ab60e1a62651701",
            "0x000000000000000000000000a9ddd91249dfdd450e81e1c56ab60e1a62651701"
          ],
          "data": "0x000000000000000000000000000000000000000000000000002386f26fc10000",
          "blockHash": "0x3c2643eb6fcabe4e429a372e0f6a2656cbc0428b823754d5282b86dbb4507b6f",
          "blockNumber": "0x12c6c72",
          "transactionHash": "0x39b6a60a1051445e8c97f1eca77bae79c693197d43418dff40813255d7e9b370",
          "transactionIndex": "0xa",
          "logIndex": "0x6",
          "removed": false
        },
        {
          "address": "0x78Fc2c2eD1A4cDb5402365934aE5648aDAd094d0",
          "topics": [
            "0xddf252ad1be2c89b69c2b068fc378daa952ba7f163c4a11628f55a4df523b3ef",
            "0x000000000000000000000000a9ddd91249dfdd450e81e1c56ab60e1a62651701",
            "0x000000000000000000000000bbbbbbbbbb9cc5e90e3b3af64bdaf62c37eeffcb"
          ],
          "data": "0x000000000000000000000000000000000000000000000000002386f26fc10000",
          "blockHash": "0x3c2643eb6fcabe4e429a372e0f6a2656cbc0428b823754d5282b86dbb4507b6f",
          "blockNumber": "0x12c6c72",
          "transactionHash": "0x39b6a60a1051445e8c97f1eca77bae79c693197d43418dff40813255d7e9b370",
          "transactionIndex": "0xa",
          "logIndex": "0x7",
          "removed": false
        }
      ],
      "status": "0x1",
      "logsBloom": "0x00000000000000000000000000000080000000000000000000000000000000000000000000000000000000000000000000000000000000000000000000000000000000000010000000000008000000000000000000000000000000000000000000000000000000000000000000000000000000000002000000000010000000000000008000000008000000000000000000000000000000000000010000000000804020000002000000000000000000000000000000000000800000080000000020000002000000000000000000000000000000000000000400000000000008000000000001000000000000200000200000000000000000000000000000000000",
      "type": "0x2",
      "effectiveGasPrice": "0x310551c46"
    },
    {
      "transactionHash": "0xf637ff4192f5c37a52a9e1adca91c2b34346b33d749127ca2c6ac3da01f37178",
      "transactionIndex": "0x42",
      "blockHash": "0x2642d4944df3c4a2a480a658a31cb344d512439244d4116f997206988542ec0e",
      "blockNumber": "0x12c6c73",
      "from": "0xA9DdD91249DFdd450E81E1c56Ab60E1A62651701",
      "to": "0xBBBBBbbBBb9cC5e90e3b3Af64bdAF62C37EEFFCb",
      "cumulativeGasUsed": "0x7351ff",
      "gasUsed": "0x51994",
      "contractAddress": null,
      "logs": [
        {
          "address": "0x870aC11D48B15DB9a138Cf899d20F13F79Ba00BC",
          "topics": [
            "0x7120161a7b3d31251e01294ab351ef15a41b91659a36032e4641bb89b121e321",
            "0x540266e1879fff261908dcd4f4c623ce99dcd4c9ae7004e9c97ed80bfcb9ea21"
          ],
          "data": "0x0000000000000000000000000000000000000000000000000000000012e64cd5000000000000000000000000000000000000000000000000000000004b98a5f0",
          "blockHash": "0x2642d4944df3c4a2a480a658a31cb344d512439244d4116f997206988542ec0e",
          "blockNumber": "0x12c6c73",
          "transactionHash": "0xf637ff4192f5c37a52a9e1adca91c2b34346b33d749127ca2c6ac3da01f37178",
          "transactionIndex": "0x42",
          "logIndex": "0xb7",
          "removed": false
        },
        {
          "address": "0xBBBBBbbBBb9cC5e90e3b3Af64bdAF62C37EEFFCb",
          "topics": [
            "0x9d9bd501d0657d7dfe415f779a620a62b78bc508ddc0891fbbd8b7ac0f8fce87",
            "0x540266e1879fff261908dcd4f4c623ce99dcd4c9ae7004e9c97ed80bfcb9ea21"
          ],
          "data": "0x0000000000000000000000000000000000000000000000000000000012e64cd500000000000000000000000000000000000000000000000000000000000000000000000000000000000000000000000000000000000000000000000000000000",
          "blockHash": "0x2642d4944df3c4a2a480a658a31cb344d512439244d4116f997206988542ec0e",
          "blockNumber": "0x12c6c73",
          "transactionHash": "0xf637ff4192f5c37a52a9e1adca91c2b34346b33d749127ca2c6ac3da01f37178",
          "transactionIndex": "0x42",
          "logIndex": "0xb8",
          "removed": false
        },
        {
          "address": "0xBBBBBbbBBb9cC5e90e3b3Af64bdAF62C37EEFFCb",
          "topics": [
            "0x570954540bed6b1304a87dfe815a5eda4a648f7097a16240dcd85c9b5fd42a43",
            "0x540266e1879fff261908dcd4f4c623ce99dcd4c9ae7004e9c97ed80bfcb9ea21",
            "0x000000000000000000000000a9ddd91249dfdd450e81e1c56ab60e1a62651701",
            "0x000000000000000000000000a9ddd91249dfdd450e81e1c56ab60e1a62651701"
          ],
          "data": "0x000000000000000000000000a9ddd91249dfdd450e81e1c56ab60e1a626517010000000000000000000000000000000000000000000000000de0b6b3a764000000000000000000000000000000000000000000000000d3c21bcecceda1000000",
          "blockHash": "0x2642d4944df3c4a2a480a658a31cb344d512439244d4116f997206988542ec0e",
          "blockNumber": "0x12c6c73",
          "transactionHash": "0xf637ff4192f5c37a52a9e1adca91c2b34346b33d749127ca2c6ac3da01f37178",
          "transactionIndex": "0x42",
          "logIndex": "0xb9",
          "removed": false
        },
        {
          "address": "0x0000206329b97DB379d5E1Bf586BbDB969C63274",
          "topics": [
            "0xddf252ad1be2c89b69c2b068fc378daa952ba7f163c4a11628f55a4df523b3ef",
            "0x000000000000000000000000bbbbbbbbbb9cc5e90e3b3af64bdaf62c37eeffcb",
            "0x000000000000000000000000a9ddd91249dfdd450e81e1c56ab60e1a62651701"
          ],
          "data": "0x0000000000000000000000000000000000000000000000000de0b6b3a7640000",
          "blockHash": "0x2642d4944df3c4a2a480a658a31cb344d512439244d4116f997206988542ec0e",
          "blockNumber": "0x12c6c73",
          "transactionHash": "0xf637ff4192f5c37a52a9e1adca91c2b34346b33d749127ca2c6ac3da01f37178",
          "transactionIndex": "0x42",
          "logIndex": "0xba",
          "removed": false
        }
      ],
      "status": "0x1",
      "logsBloom": "0x00000000000000000002000000000080000000000000000000000000000000000000400000000000000000000000000000000000000000000000000020844000000000000010000000000008000004000000000000200000000000080000000000000000000000000000000000000000000000000002000000000010000000000000000000000008000000000000000000000000000000000000000000000000804000000002000000000000000000000000000000000000800000080000000020000002000000000001000000000000000000004000000000000000000000000000004001000008000000200001000000000000000000000000000000004000",
      "type": "0x2",
      "effectiveGasPrice": "0x2ced6474c"
    }
  ],
  "libraries": [],
  "pending": [],
  "returns": {},
  "timestamp": 1713518603,
  "chain": 1,
  "multi": false,
  "commit": "d71af18"
}