{
  "transactions": [
    {
      "hash": "0x02338f21f317db42a92582ede3a8d89dd61f8e2dd0085682acd4c70ddb0923cf",
      "transactionType": "CALL",
      "contractName": null,
      "contractAddress": "0x0000206329b97DB379d5E1Bf586BbDB969C63274",
      "function": "approve(address,uint256)",
      "arguments": [
        "0xBBBBBbbBBb9cC5e90e3b3Af64bdAF62C37EEFFCb",
        "10000000000000000000"
      ],
      "transaction": {
        "type": "0x02",
        "from": "0xa9ddd91249dfdd450e81e1c56ab60e1a62651701",
        "to": "0x0000206329b97db379d5e1bf586bbdb969c63274",
        "gas": "0xc3d2",
        "value": "0x0",
        "data": "0x095ea7b3000000000000000000000000bbbbbbbbbb9cc5e90e3b3af64bdaf62c37eeffcb0000000000000000000000000000000000000000000000008ac7230489e80000",
        "nonce": "0xbb",
        "accessList": []
      },
      "additionalContracts": [],
      "isFixedGasLimit": false
    },
    {
      "hash": "0x7ffa45f29b2d74a77574baaf598f985fb96c743927dfc2bd7e491ec80faecda6",
      "transactionType": "CALL",
      "contractName": null,
      "contractAddress": "0x3A7bB36Ee3f3eE32A60e9f2b33c1e5f2E83ad766",
      "function": null,
      "arguments": null,
      "transaction": {
        "type": "0x02",
        "from": "0xa9ddd91249dfdd450e81e1c56ab60e1a62651701",
        "to": "0x3a7bb36ee3f3ee32a60e9f2b33c1e5f2e83ad766",
        "gas": "0xce812",
        "value": "0x0",
        "data": "0xb32cddf4000000000000000000000000dd0f28e19c1780eb6396170735d45153d261490d0000000000000000000000000000000000000000000000000de0b6b3a76400000000000000000000000000008fffffd4afb6115b954bd326cbe7b4ba576818f600000000000000000000000000000000000000000000000000000000000000000000000000000000000000000000000000000000000000000000000000000006000000000000000000000000000000000000000000000000000000000000000000000000000000000000000000000000000000000000000000000000000000010000000000000000000000000000000000000000000000000000000000000000000000000000000000000000000000000000000000000000000000000000000000000000000000000000000000000000000000000000000000000000000000120000000000000000000000000000000000000000000000000000000000000000",
        "nonce": "0xbc",
        "accessList": []
      },
      "additionalContracts": [
        {
          "transactionType": "CREATE2",
          "address": "0x3B8c4A340336941524DE276FF730b3Be71157B55",
          "initCode": "0x6101a08060405234620002fa578062000f1e803803809162000022828562000331565b833961014092839181010312620002fa576200003e8162000355565b91602082015190620000536040840162000355565b90620000626060850162000355565b926080850151956200007760a0870162000355565b9060c0870151956200008c60e0890162000355565b95610100996200009e8b8b0162000355565b6101209a8b0151956001600160a01b0386811615801590620002ef575b620000d190620000ca6200036a565b90620003bf565b811615801590620002e4575b620000ec90620000ca6200036a565b8715956200015a6040516200010181620002ff565b601f8152620001397f7661756c7420636f6e76657273696f6e2073616d706c65206973207a65726f00918260208201528a15620003bf565b604051906200014882620002ff565b601f825260208201528d1515620003bf565b6080528760a05260c0528960e052828c52838b5288885261016098818a52602496870190818811620002cf57620001bd620001ca94620001c4620001bd95620001b6620001bd620001d19b9a97620001b6620001ca986200045b565b9062000429565b916200045b565b6200044d565b906200044d565b604d8111620002ba57600a0a868102968188041490151715620002a5576200029157506101809304835260405193610a269586620004f8873960805186818161014b0152610304015260a0518681816102e301526105b9015260c0518681816103ac0152610560015260e05186818161038b01526104f301525185818160d9015261032d0152518481816101b9015261035c0152518381816103d5015261049a01525182818161027f01526103fe01525181818161021201526104250152f35b634e487b7160e01b60009081526012600452fd5b50634e487b7160e01b60009081526011600452fd5b82634e487b7160e01b60005260116004526000fd5b87634e487b7160e01b60005260116004526000fd5b5060018b14620000dd565b5060018914620000bb565b600080fd5b604081019081106001600160401b038211176200031b57604052565b634e487b7160e01b600052604160045260246000fd5b601f909101601f19168101906001600160401b038211908210176200031b57604052565b51906001600160a01b0382168203620002fa57565b60405190606082016001600160401b038111838210176200031b5760405260228252616e6560f01b6040837f7661756c7420636f6e76657273696f6e2073616d706c65206973206e6f74206f60208201520152565b15620003c85750565b6040519062461bcd60e51b82528160208060048301528251908160248401526000935b8285106200040f575050604492506000838284010152601f80199101168101030190fd5b8481018201518686016044015293810193859350620003eb565b919082018092116200043757565b634e487b7160e01b600052601160045260246000fd5b919082039182116200043757565b6001600160a01b03168015620004f15760206004916040519283809263313ce56760e01b82525afa908115620004e5576000916200049b575b5060ff1690565b6020813d8211620004dc575b81620004b66020938362000331565b81010312620004d857519060ff82168203620004d5575060ff62000494565b80fd5b5080fd5b3d9150620004a7565b6040513d6000823e3d90fd5b5060009056fe60806040818152600436101561001457600080fd5b600091823560e01c908163054f7ac014610584575080632e6f20a614610516578063461739d2146104be57806356095e1114610450578063a035b1fe146102a3578063acfbd39e14610235578063ce4b5bbe146101dd578063dc53858c1461016f578063eaa2d7b4146101015763f50a47181461009057600080fd5b346100fd57817ffffffffffffffffffffffffffffffffffffffffffffffffffffffffffffffffc3601126100fd576020905173ffffffffffffffffffffffffffffffffffffffff7f0000000000000000000000000000000000000000000000000000000000000000168152f35b5080fd5b50346100fd57817ffffffffffffffffffffffffffffffffffffffffffffffffffffffffffffffffc3601126100fd576020905173ffffffffffffffffffffffffffffffffffffffff7f0000000000000000000000000000000000000000000000000000000000000000168152f35b50346100fd57817ffffffffffffffffffffffffffffffffffffffffffffffffffffffffffffffffc3601126100fd576020905173ffffffffffffffffffffffffffffffffffffffff7f0000000000000000000000000000000000000000000000000000000000000000168152f35b50346100fd57817ffffffffffffffffffffffffffffffffffffffffffffffffffffffffffffffffc3601126100fd57602090517f00000000000000000000000000000000000000000000000000000000000000008152f35b50346100fd57817ffffffffffffffffffffffffffffffffffffffffffffffffffffffffffffffffc3601126100fd576020905173ffffffffffffffffffffffffffffffffffffffff7f0000000000000000000000000000000000000000000000000000000000000000168152f35b50346100fd57817ffffffffffffffffffffffffffffffffffffffffffffffffffffffffffffffffc3601126100fd576020906104496103806103576103287f00000000000000000000000000000000000000000000000000000000000000007f000000000000000000000000000000000000000000000000000000000000000061094a565b6103517f00000000000000000000000000000000000000000000000000000000000000006107a5565b906105dc565b6103517f00000000000000000000000000000000000000000000000000000000000000006107a5565b6104226103f96103d07f00000000000000000000000000000000000000000000000000000000000000007f000000000000000000000000000000000000000000000000000000000000000061094a565b6103517f00000000000000000000000000000000000000000000000000000000000000006107a5565b6103517f00000000000000000000000000000000000000000000000000000000000000006107a5565b907f000000000000000000000000000000000000000000000000000000000000000061061e565b9051908152f35b50346100fd57817ffffffffffffffffffffffffffffffffffffffffffffffffffffffffffffffffc3601126100fd576020905173ffffffffffffffffffffffffffffffffffffffff7f0000000000000000000000000000000000000000000000000000000000000000168152f35b50346100fd57817ffffffffffffffffffffffffffffffffffffffffffffffffffffffffffffffffc3601126100fd57602090517f00000000000000000000000000000000000000000000000000000000000000008152f35b50346100fd57817ffffffffffffffffffffffffffffffffffffffffffffffffffffffffffffffffc3601126100fd576020905173ffffffffffffffffffffffffffffffffffffffff7f0000000000000000000000000000000000000000000000000000000000000000168152f35b8390346100fd57817ffffffffffffffffffffffffffffffffffffffffffffffffffffffffffffffffc3601126100fd576020907f00000000000000000000000000000000000000000000000000000000000000008152f35b818102929181159184041417156105ef57565b7f4e487b7100000000000000000000000000000000000000000000000000000000600052601160045260246000fd5b9091828202917fffffffffffffffffffffffffffffffffffffffffffffffffffffffffffffffff848209938380861095039480860395146106dc57848311156106b25782910981600003821680920460028082600302188083028203028083028203028083028203028083028203028083028203028092029003029360018380600003040190848311900302920304170290565b60046040517f227bc153000000000000000000000000000000000000000000000000000000008152fd5b5050809250156106ea570490565b7f4e487b7100000000000000000000000000000000000000000000000000000000600052601260045260246000fd5b90601f7fffffffffffffffffffffffffffffffffffffffffffffffffffffffffffffffe0910116810190811067ffffffffffffffff82111761075a57604052565b7f4e487b7100000000000000000000000000000000000000000000000000000000600052604160045260246000fd5b519069ffffffffffffffffffff821682036107a057565b600080fd5b73ffffffffffffffffffffffffffffffffffffffff1680156109445760049060a06040918251938480927ffeaf968c0000000000000000000000000000000000000000000000000000000082525afa918215610939576000926108e8575b50805181810181811067ffffffffffffffff82111761075a578252600f81526020917f6e6567617469766520616e73776572000000000000000000000000000000000083830152600084126108585750505090565b5180927f08c379a000000000000000000000000000000000000000000000000000000000825280600483015282519283602484015260005b8481106108d1575050507fffffffffffffffffffffffffffffffffffffffffffffffffffffffffffffffe0601f836000604480968601015201168101030190fd5b818101830151868201604401528593508201610890565b909160a0823d8211610931575b8161090260a09383610719565b8101031261092e575061091481610789565b50610926608060208301519201610789565b509038610803565b80fd5b3d91506108f5565b50513d6000823e3d90fd5b50600190565b73ffffffffffffffffffffffffffffffffffffffff169081156109e9576020906024604051809481937f07a2d13a00000000000000000000000000000000000000000000000000000000835260048301525afa9081156109dd576000916109af575090565b906020823d82116109d5575b816109c860209383610719565b8101031261092e57505190565b3d91506109bb565b6040513d6000823e3d90fd5b505060019056fea2646970667358221220de25ff8dd5708a691db44b0da1e6e734e7659c3f9a1801595bc1fa7bf902c00564736f6c63430008150033000000000000000000000000dd0f28e19c1780eb6396170735d45153d261490d0000000000000000000000000000000000000000000000000de0b6b3a76400000000000000000000000000008fffffd4afb6115b954bd326cbe7b4ba576818f60000000000000000000000000000000000000000000000000000000000000000000000000000000000000000000000000000000000000000000000000000000600000000000000000000000000000000000000000000000000000000000000000000000000000000000000000000000000000000000000000000000000000001000000000000000000000000000000000000000000000000000000000000000000000000000000000000000000000000000000000000000000000000000000000000000000000000000000000000000000000000000000000000000000000012"
        }
      ],
      "isFixedGasLimit": false
    },
    {
      "hash": "0x6cf28db4e016020118b7609872030ec2cff555bbcc6b588df3fbafd6589f052a",
      "transactionType": "CALL",
      "contractName": null,
      "contractAddress": "0xBBBBBbbBBb9cC5e90e3b3Af64bdAF62C37EEFFCb",
      "function": null,
      "arguments": null,
      "transaction": {
        "type": "0x02",
        "from": "0xa9ddd91249dfdd450e81e1c56ab60e1a62651701",
        "to": "0xbbbbbbbbbb9cc5e90e3b3af64bdaf62c37eeffcb",
        "gas": "0x47336",
        "value": "0x0",
        "data": "0x8c1358a20000000000000000000000000000206329b97db379d5e1bf586bbdb969c63274000000000000000000000000dd0f28e19c1780eb6396170735d45153d261490d0000000000000000000000003b8c4a340336941524de276ff730b3be71157b55000000000000000000000000870ac11d48b15db9a138cf899d20f13f79ba00bc0000000000000000000000000000000000000000000000000bef55718ad60000",
        "nonce": "0xbd",
        "accessList": []
      },
      "additionalContracts": [],
      "isFixedGasLimit": false
    },
    {
      "hash": null,
      "transactionType": "CALL",
      "contractName": null,
      "contractAddress": "0x0000206329b97DB379d5E1Bf586BbDB969C63274",
      "function": "approve(address,uint256)",
      "arguments": [
        "0xBBBBBbbBBb9cC5e90e3b3Af64bdAF62C37EEFFCb",
        "1000000000000000000"
      ],
      "transaction": {
        "type": "0x02",
        "from": "0xa9ddd91249dfdd450e81e1c56ab60e1a62651701",
        "to": "0x0000206329b97db379d5e1bf586bbdb969c63274",
        "gas": "0xc3d2",
        "value": "0x0",
        "data": "0x095ea7b3000000000000000000000000bbbbbbbbbb9cc5e90e3b3af64bdaf62c37eeffcb0000000000000000000000000000000000000000000000000de0b6b3a7640000",
        "nonce": "0xbe",
        "accessList": []
      },
      "additionalContracts": [],
      "isFixedGasLimit": false
    },
    {
      "hash": null,
      "transactionType": "CALL",
      "contractName": null,
      "contractAddress": "0xBBBBBbbBBb9cC5e90e3b3Af64bdAF62C37EEFFCb",
      "function": null,
      "arguments": null,
      "transaction": {
        "type": "0x02",
        "from": "0xa9ddd91249dfdd450e81e1c56ab60e1a62651701",
        "to": "0xbbbbbbbbbb9cc5e90e3b3af64bdaf62c37eeffcb",
        "gas": "0x22b11",
        "value": "0x0",
        "data": "0xa99aad890000000000000000000000000000206329b97db379d5e1bf586bbdb969c63274000000000000000000000000dd0f28e19c1780eb6396170735d45153d261490d0000000000000000000000003b8c4a340336941524de276ff730b3be71157b55000000000000000000000000870ac11d48b15db9a138cf899d20f13f79ba00bc0000000000000000000000000000000000000000000000000bef55718ad600000000000000000000000000000000000000000000000000000de0b6b3a76400000000000000000000000000000000000000000000000000000000000000000000000000000000000000000000a9ddd91249dfdd450e81e1c56ab60e1a6265170100000000000000000000000000000000000000000000000000000000000001200000000000000000000000000000000000000000000000000000000000000000",
        "nonce": "0xbf",
        "accessList": []
      },
      "additionalContracts": [],
      "isFixedGasLimit": false
    },
    {
      "hash": null,
      "transactionType": "CALL",
      "contractName": null,
      "contractAddress": "0xdd0f28e19C1780eb6396170735D45153D261490d",
      "function": "approve(address,uint256)",
      "arguments": [
        "0xBBBBBbbBBb9cC5e90e3b3Af64bdAF62C37EEFFCb",
        "11700000000000000000"
      ],
      "transaction": {
        "type": "0x02",
        "from": "0xa9ddd91249dfdd450e81e1c56ab60e1a62651701",
        "to": "0xdd0f28e19c1780eb6396170735d45153d261490d",
        "gas": "0xf862",
        "value": "0x0",
        "data": "0x095ea7b3000000000000000000000000bbbbbbbbbb9cc5e90e3b3af64bdaf62c37eeffcb000000000000000000000000000000000000000000000000a25ec002c0120000",
        "nonce": "0xc0",
        "accessList": []
      },
      "additionalContracts": [],
      "isFixedGasLimit": false
    },
    {
      "hash": null,
      "transactionType": "CALL",
      "contractName": null,
      "contractAddress": "0xBBBBBbbBBb9cC5e90e3b3Af64bdAF62C37EEFFCb",
      "function": null,
      "arguments": null,
      "transaction": {
        "type": "0x02",
        "from": "0xa9ddd91249dfdd450e81e1c56ab60e1a62651701",
        "to": "0xbbbbbbbbbb9cc5e90e3b3af64bdaf62c37eeffcb",
        "gas": "0x1d185",
        "value": "0x0",
        "data": "0x238d65790000000000000000000000000000206329b97db379d5e1bf586bbdb969c63274000000000000000000000000dd0f28e19c1780eb6396170735d45153d261490d0000000000000000000000003b8c4a340336941524de276ff730b3be71157b55000000000000000000000000870ac11d48b15db9a138cf899d20f13f79ba00bc0000000000000000000000000000000000000000000000000bef55718ad60000000000000000000000000000000000000000000000000000a25ec002c0120000000000000000000000000000a9ddd91249dfdd450e81e1c56ab60e1a6265170100000000000000000000000000000000000000000000000000000000000001000000000000000000000000000000000000000000000000000000000000000000",
        "nonce": "0xc1",
        "accessList": []
      },
      "additionalContracts": [],
      "isFixedGasLimit": false
    },
    {
      "hash": null,
      "transactionType": "CALL",
      "contractName": null,
      "contractAddress": "0xBBBBBbbBBb9cC5e90e3b3Af64bdAF62C37EEFFCb",
      "function": null,
      "arguments": null,
      "transaction": {
        "type": "0x02",
        "from": "0xa9ddd91249dfdd450e81e1c56ab60e1a62651701",
        "to": "0xbbbbbbbbbb9cc5e90e3b3af64bdaf62c37eeffcb",
        "gas": "0x532c0",
        "value": "0x0",
        "data": "0x50d8cd4b0000000000000000000000000000206329b97db379d5e1bf586bbdb969c63274000000000000000000000000dd0f28e19c1780eb6396170735d45153d261490d0000000000000000000000003b8c4a340336941524de276ff730b3be71157b55000000000000000000000000870ac11d48b15db9a138cf899d20f13f79ba00bc0000000000000000000000000000000000000000000000000bef55718ad600000000000000000000000000000000000000000000000000000de0b6b3a76400000000000000000000000000000000000000000000000000000000000000000000000000000000000000000000a9ddd91249dfdd450e81e1c56ab60e1a62651701000000000000000000000000a9ddd91249dfdd450e81e1c56ab60e1a62651701",
        "nonce": "0xc2",
        "accessList": []
      },
      "additionalContracts": [],
      "isFixedGasLimit": false
    },
    {
      "hash": null,
      "transactionType": "CALL",
      "contractName": null,
      "contractAddress": "0x3A7bB36Ee3f3eE32A60e9f2b33c1e5f2E83ad766",
      "function": null,
      "arguments": null,
      "transaction": {
        "type": "0x02",
        "from": "0xa9ddd91249dfdd450e81e1c56ab60e1a62651701",
        "to": "0x3a7bb36ee3f3ee32a60e9f2b33c1e5f2e83ad766",
        "gas": "0xce812",
        "value": "0x0",
        "data": "0xb32cddf400000000000000000000000095eef579155cd2c5510f312c8fa39208c3be01a80000000000000000000000000000000000000000000000000de0b6b3a76400000000000000000000000000003e7d1eab13ad0104d2750b8863b489d65364e32d00000000000000000000000000000000000000000000000000000000000000000000000000000000000000000000000000000000000000000000000000000006000000000000000000000000000000000000000000000000000000000000000000000000000000000000000000000000000000000000000000000000000000010000000000000000000000000000000000000000000000000000000000000000000000000000000000000000000000000000000000000000000000000000000000000000000000000000000000000000000000000000000000000000000000120000000000000000000000000000000000000000000000000000000000000000",
        "nonce": "0xc3",
        "accessList": []
      },
      "additionalContracts": [
        {
          "transactionType": "CREATE2",
          "address": "0x1f083a4c51E6cAa627A8Cbe7452bF3D6eb815F57",
          "initCode": "0x6101a08060405234620002fa578062000f1e803803809162000022828562000331565b833961014092839181010312620002fa576200003e8162000355565b91602082015190620000536040840162000355565b90620000626060850162000355565b926080850151956200007760a0870162000355565b9060c0870151956200008c60e0890162000355565b95610100996200009e8b8b0162000355565b6101209a8b0151956001600160a01b0386811615801590620002ef575b620000d190620000ca6200036a565b90620003bf565b811615801590620002e4575b620000ec90620000ca6200036a565b8715956200015a6040516200010181620002ff565b601f8152620001397f7661756c7420636f6e76657273696f6e2073616d706c65206973207a65726f00918260208201528a15620003bf565b604051906200014882620002ff565b601f825260208201528d1515620003bf565b6080528760a05260c0528960e052828c52838b5288885261016098818a52602496870190818811620002cf57620001bd620001ca94620001c4620001bd95620001b6620001bd620001d19b9a97620001b6620001ca986200045b565b9062000429565b916200045b565b6200044d565b906200044d565b604d8111620002ba57600a0a868102968188041490151715620002a5576200029157506101809304835260405193610a269586620004f8873960805186818161014b0152610304015260a0518681816102e301526105b9015260c0518681816103ac0152610560015260e05186818161038b01526104f301525185818160d9015261032d0152518481816101b9015261035c0152518381816103d5015261049a01525182818161027f01526103fe01525181818161021201526104250152f35b634e487b7160e01b60009081526012600452fd5b50634e487b7160e01b60009081526011600452fd5b82634e487b7160e01b60005260116004526000fd5b87634e487b7160e01b60005260116004526000fd5b5060018b14620000dd565b5060018914620000bb565b600080fd5b604081019081106001600160401b038211176200031b57604052565b634e487b7160e01b600052604160045260246000fd5b601f909101601f19168101906001600160401b038211908210176200031b57604052565b51906001600160a01b0382168203620002fa57565b60405190606082016001600160401b038111838210176200031b5760405260228252616e6560f01b6040837f7661756c7420636f6e76657273696f6e2073616d706c65206973206e6f74206f60208201520152565b15620003c85750565b6040519062461bcd60e51b82528160208060048301528251908160248401526000935b8285106200040f575050604492506000838284010152601f80199101168101030190fd5b8481018201518686016044015293810193859350620003eb565b919082018092116200043757565b634e487b7160e01b600052601160045260246000fd5b919082039182116200043757565b6001600160a01b03168015620004f15760206004916040519283809263313ce56760e01b82525afa908115620004e5576000916200049b575b5060ff1690565b6020813d8211620004dc575b81620004b66020938362000331565b81010312620004d857519060ff82168203620004d5575060ff62000494565b80fd5b5080fd5b3d9150620004a7565b6040513d6000823e3d90fd5b5060009056fe60806040818152600436101561001457600080fd5b600091823560e01c908163054f7ac014610584575080632e6f20a614610516578063461739d2146104be57806356095e1114610450578063a035b1fe146102a3578063acfbd39e14610235578063ce4b5bbe146101dd578063dc53858c1461016f578063eaa2d7b4146101015763f50a47181461009057600080fd5b346100fd57817ffffffffffffffffffffffffffffffffffffffffffffffffffffffffffffffffc3601126100fd576020905173ffffffffffffffffffffffffffffffffffffffff7f0000000000000000000000000000000000000000000000000000000000000000168152f35b5080fd5b50346100fd57817ffffffffffffffffffffffffffffffffffffffffffffffffffffffffffffffffc3601126100fd576020905173ffffffffffffffffffffffffffffffffffffffff7f0000000000000000000000000000000000000000000000000000000000000000168152f35b50346100fd57817ffffffffffffffffffffffffffffffffffffffffffffffffffffffffffffffffc3601126100fd576020905173ffffffffffffffffffffffffffffffffffffffff7f0000000000000000000000000000000000000000000000000000000000000000168152f35b50346100fd57817ffffffffffffffffffffffffffffffffffffffffffffffffffffffffffffffffc3601126100fd57602090517f00000000000000000000000000000000000000000000000000000000000000008152f35b50346100fd57817ffffffffffffffffffffffffffffffffffffffffffffffffffffffffffffffffc3601126100fd576020905173ffffffffffffffffffffffffffffffffffffffff7f0000000000000000000000000000000000000000000000000000000000000000168152f35b50346100fd57817ffffffffffffffffffffffffffffffffffffffffffffffffffffffffffffffffc3601126100fd576020906104496103806103576103287f00000000000000000000000000000000000000000000000000000000000000007f000000000000000000000000000000000000000000000000000000000000000061094a565b6103517f00000000000000000000000000000000000000000000000000000000000000006107a5565b906105dc565b6103517f00000000000000000000000000000000000000000000000000000000000000006107a5565b6104226103f96103d07f00000000000000000000000000000000000000000000000000000000000000007f000000000000000000000000000000000000000000000000000000000000000061094a565b6103517f00000000000000000000000000000000000000000000000000000000000000006107a5565b6103517f00000000000000000000000000000000000000000000000000000000000000006107a5565b907f000000000000000000000000000000000000000000000000000000000000000061061e565b9051908152f35b50346100fd57817ffffffffffffffffffffffffffffffffffffffffffffffffffffffffffffffffc3601126100fd576020905173ffffffffffffffffffffffffffffffffffffffff7f0000000000000000000000000000000000000000000000000000000000000000168152f35b50346100fd57817ffffffffffffffffffffffffffffffffffffffffffffffffffffffffffffffffc3601126100fd57602090517f00000000000000000000000000000000000000000000000000000000000000008152f35b50346100fd57817ffffffffffffffffffffffffffffffffffffffffffffffffffffffffffffffffc3601126100fd576020905173ffffffffffffffffffffffffffffffffffffffff7f0000000000000000000000000000000000000000000000000000000000000000168152f35b8390346100fd57817ffffffffffffffffffffffffffffffffffffffffffffffffffffffffffffffffc3601126100fd576020907f00000000000000000000000000000000000000000000000000000000000000008152f35b818102929181159184041417156105ef57565b7f4e487b7100000000000000000000000000000000000000000000000000000000600052601160045260246000fd5b9091828202917fffffffffffffffffffffffffffffffffffffffffffffffffffffffffffffffff848209938380861095039480860395146106dc57848311156106b25782910981600003821680920460028082600302188083028203028083028203028083028203028083028203028083028203028092029003029360018380600003040190848311900302920304170290565b60046040517f227bc153000000000000000000000000000000000000000000000000000000008152fd5b5050809250156106ea570490565b7f4e487b7100000000000000000000000000000000000000000000000000000000600052601260045260246000fd5b90601f7fffffffffffffffffffffffffffffffffffffffffffffffffffffffffffffffe0910116810190811067ffffffffffffffff82111761075a57604052565b7f4e487b7100000000000000000000000000000000000000000000000000000000600052604160045260246000fd5b519069ffffffffffffffffffff821682036107a057565b600080fd5b73ffffffffffffffffffffffffffffffffffffffff1680156109445760049060a06040918251938480927ffeaf968c0000000000000000000000000000000000000000000000000000000082525afa918215610939576000926108e8575b50805181810181811067ffffffffffffffff82111761075a578252600f81526020917f6e6567617469766520616e73776572000000000000000000000000000000000083830152600084126108585750505090565b5180927f08c379a000000000000000000000000000000000000000000000000000000000825280600483015282519283602484015260005b8481106108d1575050507fffffffffffffffffffffffffffffffffffffffffffffffffffffffffffffffe0601f836000604480968601015201168101030190fd5b818101830151868201604401528593508201610890565b909160a0823d8211610931575b8161090260a09383610719565b8101031261092e575061091481610789565b50610926608060208301519201610789565b509038610803565b80fd5b3d91506108f5565b50513d6000823e3d90fd5b50600190565b73ffffffffffffffffffffffffffffffffffffffff169081156109e9576020906024604051809481937f07a2d13a00000000000000000000000000000000000000000000000000000000835260048301525afa9081156109dd576000916109af575090565b906020823d82116109d5575b816109c860209383610719565b8101031261092e57505190565b3d91506109bb565b6040513d6000823e3d90fd5b505060019056fea2646970667358221220de25ff8dd5708a691db44b0da1e6e734e7659c3f9a1801595bc1fa7bf902c00564736f6c6343000815003300000000000000000000000095eef579155cd2c5510f312c8fa39208c3be01a80000000000000000000000000000000000000000000000000de0b6b3a76400000000000000000000000000003e7d1eab13ad0104d2750b8863b489d65364e32d0000000000000000000000000000000000000000000000000000000000000000000000000000000000000000000000000000000000000000000000000000000600000000000000000000000000000000000000000000000000000000000000000000000000000000000000000000000000000000000000000000000000000001000000000000000000000000000000000000000000000000000000000000000000000000000000000000000000000000000000000000000000000000000000000000000000000000000000000000000000000000000000000000000000000012"
        }
      ],
      "isFixedGasLimit": false
    },
    {
      "hash": null,
      "transactionType": "CALL",
      "contractName": null,
      "contractAddress": "0xBBBBBbbBBb9cC5e90e3b3Af64bdAF62C37EEFFCb",
      "function": null,
      "arguments": null,
      "transaction": {
        "type": "0x02",
        "from": "0xa9ddd91249dfdd450e81e1c56ab60e1a62651701",
        "to": "0xbbbbbbbbbb9cc5e90e3b3af64bdaf62c37eeffcb",
        "gas": "0x433fb",
        "value": "0x0",
        "data": "0x8c1358a20000000000000000000000000000206329b97db379d5e1bf586bbdb969c6327400000000000000000000000095eef579155cd2c5510f312c8fa39208c3be01a80000000000000000000000001f083a4c51e6caa627a8cbe7452bf3d6eb815f57000000000000000000000000870ac11d48b15db9a138cf899d20f13f79ba00bc0000000000000000000000000000000000000000000000000cb2bba6f17b8000",
        "nonce": "0xc4",
        "accessList": []
      },
      "additionalContracts": [],
      "isFixedGasLimit": false
    },
    {
      "hash": null,
      "transactionType": "CALL",
      "contractName": null,
      "contractAddress": "0x0000206329b97DB379d5E1Bf586BbDB969C63274",
      "function": "approve(address,uint256)",
      "arguments": [
        "0xBBBBBbbBBb9cC5e90e3b3Af64bdAF62C37EEFFCb",
        "1000000000000000000"
      ],
      "transaction": {
        "type": "0x02",
        "from": "0xa9ddd91249dfdd450e81e1c56ab60e1a62651701",
        "to": "0x0000206329b97db379d5e1bf586bbdb969c63274",
        "gas": "0x13108",
        "value": "0x0",
        "data": "0x095ea7b3000000000000000000000000bbbbbbbbbb9cc5e90e3b3af64bdaf62c37eeffcb0000000000000000000000000000000000000000000000000de0b6b3a7640000",
        "nonce": "0xc5",
        "accessList": []
      },
      "additionalContracts": [],
      "isFixedGasLimit": false
    },
    {
      "hash": null,
      "transactionType": "CALL",
      "contractName": null,
      "contractAddress": "0xBBBBBbbBBb9cC5e90e3b3Af64bdAF62C37EEFFCb",
      "function": null,
      "arguments": null,
      "transaction": {
        "type": "0x02",
        "from": "0xa9ddd91249dfdd450e81e1c56ab60e1a62651701",
        "to": "0xbbbbbbbbbb9cc5e90e3b3af64bdaf62c37eeffcb",
        "gas": "0x24bcb",
        "value": "0x0",
        "data": "0xa99aad890000000000000000000000000000206329b97db379d5e1bf586bbdb969c6327400000000000000000000000095eef579155cd2c5510f312c8fa39208c3be01a80000000000000000000000001f083a4c51e6caa627a8cbe7452bf3d6eb815f57000000000000000000000000870ac11d48b15db9a138cf899d20f13f79ba00bc0000000000000000000000000000000000000000000000000cb2bba6f17b80000000000000000000000000000000000000000000000000000de0b6b3a76400000000000000000000000000000000000000000000000000000000000000000000000000000000000000000000a9ddd91249dfdd450e81e1c56ab60e1a6265170100000000000000000000000000000000000000000000000000000000000001200000000000000000000000000000000000000000000000000000000000000000",
        "nonce": "0xc6",
        "accessList": []
      },
      "additionalContracts": [],
      "isFixedGasLimit": false
    },
    {
      "hash": null,
      "transactionType": "CALL",
      "contractName": null,
      "contractAddress": "0x95EeF579155cd2C5510F312c8fA39208c3Be01a8",
      "function": "approve(address,uint256)",
      "arguments": [
        "0xBBBBBbbBBb9cC5e90e3b3Af64bdAF62C37EEFFCb",
        "11700000000000000000"
      ],
      "transaction": {
        "type": "0x02",
        "from": "0xa9ddd91249dfdd450e81e1c56ab60e1a62651701",
        "to": "0x95eef579155cd2c5510f312c8fa39208c3be01a8",
        "gas": "0xf862",
        "value": "0x0",
        "data": "0x095ea7b3000000000000000000000000bbbbbbbbbb9cc5e90e3b3af64bdaf62c37eeffcb000000000000000000000000000000000000000000000000a25ec002c0120000",
        "nonce": "0xc7",
        "accessList": []
      },
      "additionalContracts": [],
      "isFixedGasLimit": false
    },
    {
      "hash": null,
      "transactionType": "CALL",
      "contractName": null,
      "contractAddress": "0xBBBBBbbBBb9cC5e90e3b3Af64bdAF62C37EEFFCb",
      "function": null,
      "arguments": null,
      "transaction": {
        "type": "0x02",
        "from": "0xa9ddd91249dfdd450e81e1c56ab60e1a62651701",
        "to": "0xbbbbbbbbbb9cc5e90e3b3af64bdaf62c37eeffcb",
        "gas": "0x1d196",
        "value": "0x0",
        "data": "0x238d65790000000000000000000000000000206329b97db379d5e1bf586bbdb969c6327400000000000000000000000095eef579155cd2c5510f312c8fa39208c3be01a80000000000000000000000001f083a4c51e6caa627a8cbe7452bf3d6eb815f57000000000000000000000000870ac11d48b15db9a138cf899d20f13f79ba00bc0000000000000000000000000000000000000000000000000cb2bba6f17b8000000000000000000000000000000000000000000000000000a25ec002c0120000000000000000000000000000a9ddd91249dfdd450e81e1c56ab60e1a6265170100000000000000000000000000000000000000000000000000000000000001000000000000000000000000000000000000000000000000000000000000000000",
        "nonce": "0xc8",
        "accessList": []
      },
      "additionalContracts": [],
      "isFixedGasLimit": false
    },
    {
      "hash": null,
      "transactionType": "CALL",
      "contractName": null,
      "contractAddress": "0xBBBBBbbBBb9cC5e90e3b3Af64bdAF62C37EEFFCb",
      "function": null,
      "arguments": null,
      "transaction": {
        "type": "0x02",
        "from": "0xa9ddd91249dfdd450e81e1c56ab60e1a62651701",
        "to": "0xbbbbbbbbbb9cc5e90e3b3af64bdaf62c37eeffcb",
        "gas": "0x518e2",
        "value": "0x0",
        "data": "0x50d8cd4b0000000000000000000000000000206329b97db379d5e1bf586bbdb969c6327400000000000000000000000095eef579155cd2c5510f312c8fa39208c3be01a80000000000000000000000001f083a4c51e6caa627a8cbe7452bf3d6eb815f57000000000000000000000000870ac11d48b15db9a138cf899d20f13f79ba00bc0000000000000000000000000000000000000000000000000cb2bba6f17b80000000000000000000000000000000000000000000000000000de0b6b3a76400000000000000000000000000000000000000000000000000000000000000000000000000000000000000000000a9ddd91249dfdd450e81e1c56ab60e1a62651701000000000000000000000000a9ddd91249dfdd450e81e1c56ab60e1a62651701",
        "nonce": "0xc9",
        "accessList": []
      },
      "additionalContracts": [],
      "isFixedGasLimit": false
    }
  ],
  "receipts": [
    {
      "transactionHash": "0x02338f21f317db42a92582ede3a8d89dd61f8e2dd0085682acd4c70ddb0923cf",
      "transactionIndex": "0x1b",
      "blockHash": "0x6d357adcbaaf6bc1d85b25f1f9ea20a44c89dab366a2ea458d86973d83c7b69c",
      "blockNumber": "0x12c6c83",
      "from": "0xA9DdD91249DFdd450E81E1c56Ab60E1A62651701",
      "to": "0x0000206329b97DB379d5E1Bf586BbDB969C63274",
      "cumulativeGasUsed": "0x4290bd",
      "gasUsed": "0x8dc6",
      "contractAddress": null,
      "logs": [
        {
          "address": "0x0000206329b97DB379d5E1Bf586BbDB969C63274",
          "topics": [
            "0x8c5be1e5ebec7d5bd14f71427d1e84f3dd0314c0f7b2291e5b200ac8c7c3b925",
            "0x000000000000000000000000a9ddd91249dfdd450e81e1c56ab60e1a62651701",
            "0x000000000000000000000000bbbbbbbbbb9cc5e90e3b3af64bdaf62c37eeffcb"
          ],
          "data": "0x0000000000000000000000000000000000000000000000008ac7230489e80000",
          "blockHash": "0x6d357adcbaaf6bc1d85b25f1f9ea20a44c89dab366a2ea458d86973d83c7b69c",
          "blockNumber": "0x12c6c83",
          "transactionHash": "0x02338f21f317db42a92582ede3a8d89dd61f8e2dd0085682acd4c70ddb0923cf",
          "transactionIndex": "0x1b",
          "logIndex": "0x92",
          "removed": false
        }
      ],
      "status": "0x1",
      "logsBloom": "0x00000000000000000000000000000080000000000000000000000000000000000000000000000000000000000000000000000000000000000000000000200000000000000000000000000000000004000000000000000000000000000000000000000000000000000000000000000000000000000000000000000000000000000000000000000000000000000000000000000000000000000000000000000000820000000000000000000000000000000000000000000000800000080000000000000000000000000000000000000000000000004000000000000000000000000010000001000000000000200000000000000000000000000000000000004000",
      "type": "0x2",
      "effectiveGasPrice": "0x2dc159827"
    },
    {
      "transactionHash": "0x7ffa45f29b2d74a77574baaf598f985fb96c743927dfc2bd7e491ec80faecda6",
      "transactionIndex": "0x24",
      "blockHash": "0xe64cb1a98f858be019580991283a1b053dd4c724c843aed3f50b294e8b048459",
      "blockNumber": "0x12c6c84",
      "from": "0xA9DdD91249DFdd450E81E1c56Ab60E1A62651701",
      "to": "0x3A7bB36Ee3f3eE32A60e9f2b33c1e5f2E83ad766",
      "cumulativeGasUsed": "0x254b28",
      "gasUsed": "0x9591d",
      "contractAddress": null,
      "logs": [
        {
          "address": "0x3A7bB36Ee3f3eE32A60e9f2b33c1e5f2E83ad766",
          "topics": [
            "0x6436acb89463dbc9036f1e52aebf32ac0bf5f69e3987c067110c3ac403ebda33"
          ],
          "data": "0x000000000000000000000000a9ddd91249dfdd450e81e1c56ab60e1a626517010000000000000000000000003b8c4a340336941524de276ff730b3be71157b55",
          "blockHash": "0xe64cb1a98f858be019580991283a1b053dd4c724c843aed3f50b294e8b048459",
          "blockNumber": "0x12c6c84",
          "transactionHash": "0x7ffa45f29b2d74a77574baaf598f985fb96c743927dfc2bd7e491ec80faecda6",
          "transactionIndex": "0x24",
          "logIndex": "0x2c",
          "removed": false
        }
      ],
      "status": "0x1",
      "logsBloom": "0x00000000000000000000000000000000000000000000000000000000000000000000000000000000000000000000000000000000000000000000000000000000000000000000000000000000000000000000000000000000000000000000000000000000000000000000000000000000000000000000000000000000000000000000000000000000000000000000000000002000000000000000000000000000000000000000000000000000010000000000000000100000000000000000000000000000000000000000000000000000000000000000000000000000000000000000000000000080000000006000000000000000000000000000000000000000",
      "type": "0x2",
      "effectiveGasPrice": "0x2da9f62ee"
    },
    {
      "transactionHash": "0x6cf28db4e016020118b7609872030ec2cff555bbcc6b588df3fbafd6589f052a",
      "transactionIndex": "0x1a",
      "blockHash": "0x2a7ffc43e71875b8fc42e13bfab9fd6b04ac7a46ae98a5d581db5f1b4060d6a6",
      "blockNumber": "0x12c6c85",
      "from": "0xA9DdD91249DFdd450E81E1c56Ab60E1A62651701",
      "to": "0xBBBBBbbBBb9cC5e90e3b3Af64bdAF62C37EEFFCb",
      "cumulativeGasUsed": "0x218aa2",
      "gasUsed": "0x30af3",
      "contractAddress": null,
      "logs": [
        {
          "address": "0xBBBBBbbBBb9cC5e90e3b3Af64bdAF62C37EEFFCb",
          "topics": [
            "0xac4b2400f169220b0c0afdde7a0b32e775ba727ea1cb30b35f935cdaab8683ac",
            "0x7f2eec1f78d0412e61fa3be531e36052460583e7f9b5c1efc1407f10c48a775d"
          ],
          "data": "0x0000000000000000000000000000206329b97db379d5e1bf586bbdb969c63274000000000000000000000000dd0f28e19c1780eb6396170735d45153d261490d0000000000000000000000003b8c4a340336941524de276ff730b3be71157b55000000000000000000000000870ac11d48b15db9a138cf899d20f13f79ba00bc0000000000000000000000000000000000000000000000000bef55718ad60000",
          "blockHash": "0x2a7ffc43e71875b8fc42e13bfab9fd6b04ac7a46ae98a5d581db5f1b4060d6a6",
          "blockNumber": "0x12c6c85",
          "transactionHash": "0x6cf28db4e016020118b7609872030ec2cff555bbcc6b588df3fbafd6589f052a",
          "transactionIndex": "0x1a",
          "logIndex": "0x29",
          "removed": false
        },
        {
          "address": "0x870aC11D48B15DB9a138Cf899d20F13F79Ba00BC",
          "topics": [
            "0x7120161a7b3d31251e01294ab351ef15a41b91659a36032e4641bb89b121e321",
            "0x7f2eec1f78d0412e61fa3be531e36052460583e7f9b5c1efc1407f10c48a775d"
          ],
          "data": "0x0000000000000000000000000000000000000000000000000000000012e687bf000000000000000000000000000000000000000000000000000000004b9a1eff",
          "blockHash": "0x2a7ffc43e71875b8fc42e13bfab9fd6b04ac7a46ae98a5d581db5f1b4060d6a6",
          "blockNumber": "0x12c6c85",
          "transactionHash": "0x6cf28db4e016020118b7609872030ec2cff555bbcc6b588df3fbafd6589f052a",
          "transactionIndex": "0x1a",
          "logIndex": "0x2a",
          "removed": false
        }
      ],
      "status": "0x1",
      "logsBloom": "0x00000000000000000000000000000800000000000000000000000000000000000000000000000000000000000000000000000000000000000000000000844000000000000010000000000000000000000000000000200000000000000000000000000000000000000000000000000000000000000000000000000040000000000000000000000008000000000000000000000000010000000000000000000000000000000000000000000000000000000000000000000000200000000000000020000000000000000001000000000000000000000000000000000000000000000000000000000000000000000001000000000000000000000040000000000010",
      "type": "0x2",
      "effectiveGasPrice": "0x2d4c82630"
    }
  ],
  "libraries": [],
  "pending": [],
  "returns": {},
  "timestamp": 1713518790,
  "chain": 1,
  "multi": false,
  "commit": "d71af18"
}