{
  "transactions": [
    {
      "hash": "0xa10868b7eb3b0ce5b3865f3cf78410cfbb05a74854807c675e01a35c35700d8f",
      "transactionType": "CALL",
      "contractName": null,
      "contractAddress": "0x3A7bB36Ee3f3eE32A60e9f2b33c1e5f2E83ad766",
      "function": null,
      "arguments": null,
      "transaction": {
        "type": "0x02",
        "from": "0xa9ddd91249dfdd450e81e1c56ab60e1a62651701",
        "to": "0x3a7bb36ee3f3ee32a60e9f2b33c1e5f2e83ad766",
        "gas": "0xce7c3",
        "value": "0x0",
        "data": "0xb32cddf4000000000000000000000000004626a008b1acdc4c74ab51644093b155e59a230000000000000000000000000000000000000000000000000de0b6b3a7640000000000000000000000000000b4d5289c58ce36080b0748b47f859d8f50dfaacb00000000000000000000000000000000000000000000000000000000000000000000000000000000000000000000000000000000000000000000000000000012000000000000000000000000000000000000000000000000000000000000000000000000000000000000000000000000000000000000000000000000000000010000000000000000000000000000000000000000000000000000000000000000000000000000000000000000000000000000000000000000000000000000000000000000000000000000000000000000000000000000000000000000000000120000000000000000000000000000000000000000000000000000000000000000",
        "nonce": "0xd7",
        "accessList": []
      },
      "additionalContracts": [
        {
          "transactionType": "CREATE2",
          "address": "0xc20560B8C4E25f62946f8d3C496d097629986007",
          "initCode": "0x6101a08060405234620002fa578062000f1e803803809162000022828562000331565b833961014092839181010312620002fa576200003e8162000355565b91602082015190620000536040840162000355565b90620000626060850162000355565b926080850151956200007760a0870162000355565b9060c0870151956200008c60e0890162000355565b95610100996200009e8b8b0162000355565b6101209a8b0151956001600160a01b0386811615801590620002ef575b620000d190620000ca6200036a565b90620003bf565b811615801590620002e4575b620000ec90620000ca6200036a565b8715956200015a6040516200010181620002ff565b601f8152620001397f7661756c7420636f6e76657273696f6e2073616d706c65206973207a65726f00918260208201528a15620003bf565b604051906200014882620002ff565b601f825260208201528d1515620003bf565b6080528760a05260c0528960e052828c52838b5288885261016098818a52602496870190818811620002cf57620001bd620001ca94620001c4620001bd95620001b6620001bd620001d19b9a97620001b6620001ca986200045b565b9062000429565b916200045b565b6200044d565b906200044d565b604d8111620002ba57600a0a868102968188041490151715620002a5576200029157506101809304835260405193610a269586620004f8873960805186818161014b0152610304015260a0518681816102e301526105b9015260c0518681816103ac0152610560015260e05186818161038b01526104f301525185818160d9015261032d0152518481816101b9015261035c0152518381816103d5015261049a01525182818161027f01526103fe01525181818161021201526104250152f35b634e487b7160e01b60009081526012600452fd5b50634e487b7160e01b60009081526011600452fd5b82634e487b7160e01b60005260116004526000fd5b87634e487b7160e01b60005260116004526000fd5b5060018b14620000dd565b5060018914620000bb565b600080fd5b604081019081106001600160401b038211176200031b57604052565b634e487b7160e01b600052604160045260246000fd5b601f909101601f19168101906001600160401b038211908210176200031b57604052565b51906001600160a01b0382168203620002fa57565b60405190606082016001600160401b038111838210176200031b5760405260228252616e6560f01b6040837f7661756c7420636f6e76657273696f6e2073616d706c65206973206e6f74206f60208201520152565b15620003c85750565b6040519062461bcd60e51b82528160208060048301528251908160248401526000935b8285106200040f575050604492506000838284010152601f80199101168101030190fd5b8481018201518686016044015293810193859350620003eb565b919082018092116200043757565b634e487b7160e01b600052601160045260246000fd5b919082039182116200043757565b6001600160a01b03168015620004f15760206004916040519283809263313ce56760e01b82525afa908115620004e5576000916200049b575b5060ff1690565b6020813d8211620004dc575b81620004b66020938362000331565b81010312620004d857519060ff82168203620004d5575060ff62000494565b80fd5b5080fd5b3d9150620004a7565b6040513d6000823e3d90fd5b5060009056fe60806040818152600436101561001457600080fd5b600091823560e01c908163054f7ac014610584575080632e6f20a614610516578063461739d2146104be57806356095e1114610450578063a035b1fe146102a3578063acfbd39e14610235578063ce4b5bbe146101dd578063dc53858c1461016f578063eaa2d7b4146101015763f50a47181461009057600080fd5b346100fd57817ffffffffffffffffffffffffffffffffffffffffffffffffffffffffffffffffc3601126100fd576020905173ffffffffffffffffffffffffffffffffffffffff7f0000000000000000000000000000000000000000000000000000000000000000168152f35b5080fd5b50346100fd57817ffffffffffffffffffffffffffffffffffffffffffffffffffffffffffffffffc3601126100fd576020905173ffffffffffffffffffffffffffffffffffffffff7f0000000000000000000000000000000000000000000000000000000000000000168152f35b50346100fd57817ffffffffffffffffffffffffffffffffffffffffffffffffffffffffffffffffc3601126100fd576020905173ffffffffffffffffffffffffffffffffffffffff7f0000000000000000000000000000000000000000000000000000000000000000168152f35b50346100fd57817ffffffffffffffffffffffffffffffffffffffffffffffffffffffffffffffffc3601126100fd57602090517f00000000000000000000000000000000000000000000000000000000000000008152f35b50346100fd57817ffffffffffffffffffffffffffffffffffffffffffffffffffffffffffffffffc3601126100fd576020905173ffffffffffffffffffffffffffffffffffffffff7f0000000000000000000000000000000000000000000000000000000000000000168152f35b50346100fd57817ffffffffffffffffffffffffffffffffffffffffffffffffffffffffffffffffc3601126100fd576020906104496103806103576103287f00000000000000000000000000000000000000000000000000000000000000007f000000000000000000000000000000000000000000000000000000000000000061094a565b6103517f00000000000000000000000000000000000000000000000000000000000000006107a5565b906105dc565b6103517f00000000000000000000000000000000000000000000000000000000000000006107a5565b6104226103f96103d07f00000000000000000000000000000000000000000000000000000000000000007f000000000000000000000000000000000000000000000000000000000000000061094a565b6103517f00000000000000000000000000000000000000000000000000000000000000006107a5565b6103517f00000000000000000000000000000000000000000000000000000000000000006107a5565b907f000000000000000000000000000000000000000000000000000000000000000061061e565b9051908152f35b50346100fd57817ffffffffffffffffffffffffffffffffffffffffffffffffffffffffffffffffc3601126100fd576020905173ffffffffffffffffffffffffffffffffffffffff7f0000000000000000000000000000000000000000000000000000000000000000168152f35b50346100fd57817ffffffffffffffffffffffffffffffffffffffffffffffffffffffffffffffffc3601126100fd57602090517f00000000000000000000000000000000000000000000000000000000000000008152f35b50346100fd57817ffffffffffffffffffffffffffffffffffffffffffffffffffffffffffffffffc3601126100fd576020905173ffffffffffffffffffffffffffffffffffffffff7f0000000000000000000000000000000000000000000000000000000000000000168152f35b8390346100fd57817ffffffffffffffffffffffffffffffffffffffffffffffffffffffffffffffffc3601126100fd576020907f00000000000000000000000000000000000000000000000000000000000000008152f35b818102929181159184041417156105ef57565b7f4e487b7100000000000000000000000000000000000000000000000000000000600052601160045260246000fd5b9091828202917fffffffffffffffffffffffffffffffffffffffffffffffffffffffffffffffff848209938380861095039480860395146106dc57848311156106b25782910981600003821680920460028082600302188083028203028083028203028083028203028083028203028083028203028092029003029360018380600003040190848311900302920304170290565b60046040517f227bc153000000000000000000000000000000000000000000000000000000008152fd5b5050809250156106ea570490565b7f4e487b7100000000000000000000000000000000000000000000000000000000600052601260045260246000fd5b90601f7fffffffffffffffffffffffffffffffffffffffffffffffffffffffffffffffe0910116810190811067ffffffffffffffff82111761075a57604052565b7f4e487b7100000000000000000000000000000000000000000000000000000000600052604160045260246000fd5b519069ffffffffffffffffffff821682036107a057565b600080fd5b73ffffffffffffffffffffffffffffffffffffffff1680156109445760049060a06040918251938480927ffeaf968c0000000000000000000000000000000000000000000000000000000082525afa918215610939576000926108e8575b50805181810181811067ffffffffffffffff82111761075a578252600f81526020917f6e6567617469766520616e73776572000000000000000000000000000000000083830152600084126108585750505090565b5180927f08c379a000000000000000000000000000000000000000000000000000000000825280600483015282519283602484015260005b8481106108d1575050507fffffffffffffffffffffffffffffffffffffffffffffffffffffffffffffffe0601f836000604480968601015201168101030190fd5b818101830151868201604401528593508201610890565b909160a0823d8211610931575b8161090260a09383610719565b8101031261092e575061091481610789565b50610926608060208301519201610789565b509038610803565b80fd5b3d91506108f5565b50513d6000823e3d90fd5b50600190565b73ffffffffffffffffffffffffffffffffffffffff169081156109e9576020906024604051809481937f07a2d13a00000000000000000000000000000000000000000000000000000000835260048301525afa9081156109dd576000916109af575090565b906020823d82116109d5575b816109c860209383610719565b8101031261092e57505190565b3d91506109bb565b6040513d6000823e3d90fd5b505060019056fea2646970667358221220de25ff8dd5708a691db44b0da1e6e734e7659c3f9a1801595bc1fa7bf902c00564736f6c63430008150033000000000000000000000000004626a008b1acdc4c74ab51644093b155e59a230000000000000000000000000000000000000000000000000de0b6b3a7640000000000000000000000000000b4d5289c58ce36080b0748b47f859d8f50dfaacb0000000000000000000000000000000000000000000000000000000000000000000000000000000000000000000000000000000000000000000000000000001200000000000000000000000000000000000000000000000000000000000000000000000000000000000000000000000000000000000000000000000000000001000000000000000000000000000000000000000000000000000000000000000000000000000000000000000000000000000000000000000000000000000000000000000000000000000000000000000000000000000000000000000000000012"
        }
      ],
      "isFixedGasLimit": false
    },
    {
      "hash": "0xa04fa08a5d93fb65ce16810a0feb2c12664708f796f8ed5c1c0e45a6fe7a5cea",
      "transactionType": "CALL",
      "contractName": null,
      "contractAddress": "0xBBBBBbbBBb9cC5e90e3b3Af64bdAF62C37EEFFCb",
      "function": null,
      "arguments": null,
      "transaction": {
        "type": "0x02",
        "from": "0xa9ddd91249dfdd450e81e1c56ab60e1a62651701",
        "to": "0xbbbbbbbbbb9cc5e90e3b3af64bdaf62c37eeffcb",
        "gas": "0x47359",
        "value": "0x0",
        "data": "0x8c1358a20000000000000000000000003231cb76718cdef2155fc47b5286d82e6eda273f000000000000000000000000004626a008b1acdc4c74ab51644093b155e59a23000000000000000000000000c20560b8c4e25f62946f8d3c496d097629986007000000000000000000000000870ac11d48b15db9a138cf899d20f13f79ba00bc0000000000000000000000000000000000000000000000000d1d507e40be8000",
        "nonce": "0xd8",
        "accessList": []
      },
      "additionalContracts": [],
      "isFixedGasLimit": false
    },
    {
      "hash": "0xb3c8ed8cc97ed18b41ff1a558822e9289aaf16b4d3c6992f857f5b34068846d0",
      "transactionType": "CALL",
      "contractName": null,
      "contractAddress": "0x3231Cb76718CDeF2155FC47b5286d82e6eDA273f",
      "function": "approve(address,uint256)",
      "arguments": [
        "0xBBBBBbbBBb9cC5e90e3b3Af64bdAF62C37EEFFCb",
        "1000000000000000000"
      ],
      "transaction": {
        "type": "0x02",
        "from": "0xa9ddd91249dfdd450e81e1c56ab60e1a62651701",
        "to": "0x3231cb76718cdef2155fc47b5286d82e6eda273f",
        "gas": "0x18739",
        "value": "0x0",
        "data": "0x095ea7b3000000000000000000000000bbbbbbbbbb9cc5e90e3b3af64bdaf62c37eeffcb0000000000000000000000000000000000000000000000000de0b6b3a7640000",
        "nonce": "0xd9",
        "accessList": []
      },
      "additionalContracts": [],
      "isFixedGasLimit": false
    },
    {
      "hash": "0x9ffe30e65c3832267351a2c031f616cf0df0c902860bad8d270773ed50ca9558",
      "transactionType": "CALL",
      "contractName": null,
      "contractAddress": "0x004626A008B1aCdC4c74ab51644093b155e59A23",
      "function": "approve(address,uint256)",
      "arguments": [
        "0xBBBBBbbBBb9cC5e90e3b3Af64bdAF62C37EEFFCb",
        "2500000000000000000"
      ],
      "transaction": {
        "type": "0x02",
        "from": "0xa9ddd91249dfdd450e81e1c56ab60e1a62651701",
        "to": "0x004626a008b1acdc4c74ab51644093b155e59a23",
        "gas": "0x11ec1",
        "value": "0x0",
        "data": "0x095ea7b3000000000000000000000000bbbbbbbbbb9cc5e90e3b3af64bdaf62c37eeffcb00000000000000000000000000000000000000000000000022b1c8c1227a0000",
        "nonce": "0xda",
        "accessList": []
      },
      "additionalContracts": [],
      "isFixedGasLimit": false
    },
    {
      "hash": "0x16c872fcaa72e762fe852c12cecfd885c0dac805f0ed433908f49af75c53eeb2",
      "transactionType": "CALL",
      "contractName": null,
      "contractAddress": "0xBBBBBbbBBb9cC5e90e3b3Af64bdAF62C37EEFFCb",
      "function": null,
      "arguments": null,
      "transaction": {
        "type": "0x02",
        "from": "0xa9ddd91249dfdd450e81e1c56ab60e1a62651701",
        "to": "0xbbbbbbbbbb9cc5e90e3b3af64bdaf62c37eeffcb",
        "gas": "0x2f7ed",
        "value": "0x0",
        "data": "0xa99aad890000000000000000000000003231cb76718cdef2155fc47b5286d82e6eda273f000000000000000000000000004626a008b1acdc4c74ab51644093b155e59a23000000000000000000000000c20560b8c4e25f62946f8d3c496d097629986007000000000000000000000000870ac11d48b15db9a138cf899d20f13f79ba00bc0000000000000000000000000000000000000000000000000d1d507e40be80000000000000000000000000000000000000000000000000000de0b6b3a76400000000000000000000000000000000000000000000000000000000000000000000000000000000000000000000a9ddd91249dfdd450e81e1c56ab60e1a6265170100000000000000000000000000000000000000000000000000000000000001200000000000000000000000000000000000000000000000000000000000000000",
        "nonce": "0xdb",
        "accessList": []
      },
      "additionalContracts": [],
      "isFixedGasLimit": false
    },
    {
      "hash": "0x5d24c63c740a9f2b1809b6e1af09bf4cfb2fa3e153849ff22cc1b2b870a67a05",
      "transactionType": "CALL",
      "contractName": null,
      "contractAddress": "0xBBBBBbbBBb9cC5e90e3b3Af64bdAF62C37EEFFCb",
      "function": null,
      "arguments": null,
      "transaction": {
        "type": "0x02",
        "from": "0xa9ddd91249dfdd450e81e1c56ab60e1a62651701",
        "to": "0xbbbbbbbbbb9cc5e90e3b3af64bdaf62c37eeffcb",
        "gas": "0x2200e",
        "value": "0x0",
        "data": "0x238d65790000000000000000000000003231cb76718cdef2155fc47b5286d82e6eda273f000000000000000000000000004626a008b1acdc4c74ab51644093b155e59a23000000000000000000000000c20560b8c4e25f62946f8d3c496d097629986007000000000000000000000000870ac11d48b15db9a138cf899d20f13f79ba00bc0000000000000000000000000000000000000000000000000d1d507e40be800000000000000000000000000000000000000000000000000022b1c8c1227a0000000000000000000000000000a9ddd91249dfdd450e81e1c56ab60e1a6265170100000000000000000000000000000000000000000000000000000000000001000000000000000000000000000000000000000000000000000000000000000000",
        "nonce": "0xdc",
        "accessList": []
      },
      "additionalContracts": [],
      "isFixedGasLimit": false
    },
    {
      "hash": "0xb7503a15586279f6e84a82786f49a9a6187d19e8db6dcde8e9453f185033e309",
      "transactionType": "CALL",
      "contractName": null,
      "contractAddress": "0xBBBBBbbBBb9cC5e90e3b3Af64bdAF62C37EEFFCb",
      "function": null,
      "arguments": null,
      "transaction": {
        "type": "0x02",
        "from": "0xa9ddd91249dfdd450e81e1c56ab60e1a62651701",
        "to": "0xbbbbbbbbbb9cc5e90e3b3af64bdaf62c37eeffcb",
        "gas": "0x3c2af",
        "value": "0x0",
        "data": "0x50d8cd4b0000000000000000000000003231cb76718cdef2155fc47b5286d82e6eda273f000000000000000000000000004626a008b1acdc4c74ab51644093b155e59a23000000000000000000000000c20560b8c4e25f62946f8d3c496d097629986007000000000000000000000000870ac11d48b15db9a138cf899d20f13f79ba00bc0000000000000000000000000000000000000000000000000d1d507e40be80000000000000000000000000000000000000000000000000000dbd2fc137a300000000000000000000000000000000000000000000000000000000000000000000000000000000000000000000a9ddd91249dfdd450e81e1c56ab60e1a62651701000000000000000000000000a9ddd91249dfdd450e81e1c56ab60e1a62651701",
        "nonce": "0xdd",
        "accessList": []
      },
      "additionalContracts": [],
      "isFixedGasLimit": false
    }
  ],
  "receipts": [
    {
      "transactionHash": "0xa10868b7eb3b0ce5b3865f3cf78410cfbb05a74854807c675e01a35c35700d8f",
      "transactionIndex": "0xd",
      "blockHash": "0xb309f15bbd4e5f5601588de7eb87137ad22d38cb271272d69efa933be226aca1",
      "blockNumber": "0x12cf647",
      "from": "0xA9DdD91249DFdd450E81E1c56Ab60E1A62651701",
      "to": "0x3A7bB36Ee3f3eE32A60e9f2b33c1e5f2E83ad766",
      "cumulativeGasUsed": "0x133d3a",
      "gasUsed": "0x958e4",
      "contractAddress": null,
      "logs": [
        {
          "address": "0x3A7bB36Ee3f3eE32A60e9f2b33c1e5f2E83ad766",
          "topics": [
            "0x6436acb89463dbc9036f1e52aebf32ac0bf5f69e3987c067110c3ac403ebda33"
          ],
          "data": "0x000000000000000000000000a9ddd91249dfdd450e81e1c56ab60e1a62651701000000000000000000000000c20560b8c4e25f62946f8d3c496d097629986007",
          "blockHash": "0xb309f15bbd4e5f5601588de7eb87137ad22d38cb271272d69efa933be226aca1",
          "blockNumber": "0x12cf647",
          "transactionHash": "0xa10868b7eb3b0ce5b3865f3cf78410cfbb05a74854807c675e01a35c35700d8f",
          "transactionIndex": "0xd",
          "logIndex": "0xe",
          "removed": false
        }
      ],
      "status": "0x1",
      "logsBloom": "0x00000000000000000000000000000000000000000000000000000000000000000000000000000000000000000000000000000000000000000000000000000000000000000000000000000000000000000000000000000000000000000000000000000000000000000000000000000000000000000000000000000000000000000000000000000000000000000000000000002000000000000000000000000000000000000000000000000000010000000000000000100000000000000000000000000000000000000000000000000000000000000000000000000000000000000000000000000080000000006000000000000000000000000000000000000000",
      "type": "0x2",
      "effectiveGasPrice": "0x2f3bb46c5"
    },
    {
      "transactionHash": "0xa04fa08a5d93fb65ce16810a0feb2c12664708f796f8ed5c1c0e45a6fe7a5cea",
      "transactionIndex": "0x33",
      "blockHash": "0xe3410ce55ff4b61d52c649a5530e5f64518c3c560af8af8a9cd4995f6c8adf25",
      "blockNumber": "0x12cf648",
      "from": "0xA9DdD91249DFdd450E81E1c56Ab60E1A62651701",
      "to": "0xBBBBBbbBBb9cC5e90e3b3Af64bdAF62C37EEFFCb",
      "cumulativeGasUsed": "0x3e045a",
      "gasUsed": "0x30b0b",
      "contractAddress": null,
      "logs": [
        {
          "address": "0xBBBBBbbBBb9cC5e90e3b3Af64bdAF62C37EEFFCb",
          "topics": [
            "0xac4b2400f169220b0c0afdde7a0b32e775ba727ea1cb30b35f935cdaab8683ac",
            "0x3e6cea6ad0e3c8fd5bb51f9bd9b9af30946f1d245543f409b6add8b754c03d8b"
          ],
          "data": "0x0000000000000000000000003231cb76718cdef2155fc47b5286d82e6eda273f000000000000000000000000004626a008b1acdc4c74ab51644093b155e59a23000000000000000000000000c20560b8c4e25f62946f8d3c496d097629986007000000000000000000000000870ac11d48b15db9a138cf899d20f13f79ba00bc0000000000000000000000000000000000000000000000000d1d507e40be8000",
          "blockHash": "0xe3410ce55ff4b61d52c649a5530e5f64518c3c560af8af8a9cd4995f6c8adf25",
          "blockNumber": "0x12cf648",
          "transactionHash": "0xa04fa08a5d93fb65ce16810a0feb2c12664708f796f8ed5c1c0e45a6fe7a5cea",
          "transactionIndex": "0x33",
          "logIndex": "0x66",
          "removed": false
        },
        {
          "address": "0x870aC11D48B15DB9a138Cf899d20F13F79Ba00BC",
          "topics": [
            "0x7120161a7b3d31251e01294ab351ef15a41b91659a36032e4641bb89b121e321",
            "0x3e6cea6ad0e3c8fd5bb51f9bd9b9af30946f1d245543f409b6add8b754c03d8b"
          ],
          "data": "0x0000000000000000000000000000000000000000000000000000000012e687bf000000000000000000000000000000000000000000000000000000004b9a1eff",
          "blockHash": "0xe3410ce55ff4b61d52c649a5530e5f64518c3c560af8af8a9cd4995f6c8adf25",
          "blockNumber": "0x12cf648",
          "transactionHash": "0xa04fa08a5d93fb65ce16810a0feb2c12664708f796f8ed5c1c0e45a6fe7a5cea",
          "transactionIndex": "0x33",
          "logIndex": "0x67",
          "removed": false
        }
      ],
      "status": "0x1",
      "logsBloom": "0x00000000000000000000000000000800000000000000000000000000080000000000000000000000000000000000000000000000000000000000000000844000000000000010000000000000000000000000000000200000000000000000000000000000000000000000000000000000000000000000000000000040000000000000000000000008000000000000000000000000000000000000000000000000000000000000000000000000000000000000000000000000000000000000000020000000000000000001000010000000000000000000000000000000000000000000000000000000000000040001000000000000000000000000000000000010",
      "type": "0x2",
      "effectiveGasPrice": "0x2eb80727a"
    },
    {
      "transactionHash": "0xb3c8ed8cc97ed18b41ff1a558822e9289aaf16b4d3c6992f857f5b34068846d0",
      "transactionIndex": "0x19",
      "blockHash": "0xa8aefb4e096db9a3767d938329260022afcc70ae9029a8c58b90618e361fbd63",
      "blockNumber": "0x12cf649",
      "from": "0xA9DdD91249DFdd450E81E1c56Ab60E1A62651701",
      "to": "0x3231Cb76718CDeF2155FC47b5286d82e6eDA273f",
      "cumulativeGasUsed": "0x241c7a",
      "gasUsed": "0x10b81",
      "contractAddress": null,
      "logs": [
        {
          "address": "0x3231Cb76718CDeF2155FC47b5286d82e6eDA273f",
          "topics": [
            "0x8c5be1e5ebec7d5bd14f71427d1e84f3dd0314c0f7b2291e5b200ac8c7c3b925",
            "0x000000000000000000000000a9ddd91249dfdd450e81e1c56ab60e1a62651701",
            "0x000000000000000000000000bbbbbbbbbb9cc5e90e3b3af64bdaf62c37eeffcb"
          ],
          "data": "0x0000000000000000000000000000000000000000000000000de0b6b3a7640000",
          "blockHash": "0xa8aefb4e096db9a3767d938329260022afcc70ae9029a8c58b90618e361fbd63",
          "blockNumber": "0x12cf649",
          "transactionHash": "0xb3c8ed8cc97ed18b41ff1a558822e9289aaf16b4d3c6992f857f5b34068846d0",
          "transactionIndex": "0x19",
          "logIndex": "0x47",
          "removed": false
        }
      ],
      "status": "0x1",
      "logsBloom": "0x00000000000000000000000000000080000000000000000000000000000000000000000000000000000000000000000000000000000000000000000000200000000000000000000000000000000000000000000000000000000000000000000000000000000000000000000000000000000000000000000000000000000000000000000000000000000000000000000000000000000000000000000000000000820000000000000000000000000000000000000000000000800000080000000000000000000000000000000000000000000000000000000000000000004000000010000001010000000000200000000000000000000000800000000000000000",
      "type": "0x2",
      "effectiveGasPrice": "0x2e843040f"
    },
    {
      "transactionHash": "0x9ffe30e65c3832267351a2c031f616cf0df0c902860bad8d270773ed50ca9558",
      "transactionIndex": "0x8",
      "blockHash": "0xc5c67c05a2a38a92665f21e911c0a99a27d352f0e41857019740e92477fca602",
      "blockNumber": "0x12cf64a",
      "from": "0xA9DdD91249DFdd450E81E1c56Ab60E1A62651701",
      "to": "0x004626A008B1aCdC4c74ab51644093b155e59A23",
      "cumulativeGasUsed": "0x993d4",
      "gasUsed": "0xcf9c",
      "contractAddress": null,
      "logs": [
        {
          "address": "0x004626A008B1aCdC4c74ab51644093b155e59A23",
          "topics": [
            "0x8c5be1e5ebec7d5bd14f71427d1e84f3dd0314c0f7b2291e5b200ac8c7c3b925",
            "0x000000000000000000000000a9ddd91249dfdd450e81e1c56ab60e1a62651701",
            "0x000000000000000000000000bbbbbbbbbb9cc5e90e3b3af64bdaf62c37eeffcb"
          ],
          "data": "0x00000000000000000000000000000000000000000000000022b1c8c1227a0000",
          "blockHash": "0xc5c67c05a2a38a92665f21e911c0a99a27d352f0e41857019740e92477fca602",
          "blockNumber": "0x12cf64a",
          "transactionHash": "0x9ffe30e65c3832267351a2c031f616cf0df0c902860bad8d270773ed50ca9558",
          "transactionIndex": "0x8",
          "logIndex": "0xb",
          "removed": false
        }
      ],
      "status": "0x1",
      "logsBloom": "0x00000000000000000000000000000080000000010000000000000000000000000000000000000000000000000000000000000000000000000000000000200000000000000000000000000000000000000000000000000000000000020000000000000000000000000000000000000000000000000000080000000000000000000000000000000000000000000000000000000000000000000000000000000000820000000000000000000000000000000000000000000000800000080000000000000000000000000000000000000000000000000000000000000000000000000010000001000000000000200000000000000000000000000000000000000000",
      "type": "0x2",
      "effectiveGasPrice": "0x2d505c042"
    },
    {
      "transactionHash": "0x16c872fcaa72e762fe852c12cecfd885c0dac805f0ed433908f49af75c53eeb2",
      "transactionIndex": "0x2f",
      "blockHash": "0x51067a4949e3fce7212d8dd3e9fae6a212ec3b8fb0578af2d67ebe9a26265b24",
      "blockNumber": "0x12cf64b",
      "from": "0xA9DdD91249DFdd450E81E1c56Ab60E1A62651701",
      "to": "0xBBBBBbbBBb9cC5e90e3b3Af64bdAF62C37EEFFCb",
      "cumulativeGasUsed": "0x4f3b27",
      "gasUsed": "0x28bbd",
      "contractAddress": null,
      "logs": [
        {
          "address": "0x870aC11D48B15DB9a138Cf899d20F13F79Ba00BC",
          "topics": [
            "0x7120161a7b3d31251e01294ab351ef15a41b91659a36032e4641bb89b121e321",
            "0x3e6cea6ad0e3c8fd5bb51f9bd9b9af30946f1d245543f409b6add8b754c03d8b"
          ],
          "data": "0x0000000000000000000000000000000000000000000000000000000012e66466000000000000000000000000000000000000000000000000000000004b990434",
          "blockHash": "0x51067a4949e3fce7212d8dd3e9fae6a212ec3b8fb0578af2d67ebe9a26265b24",
          "blockNumber": "0x12cf64b",
          "transactionHash": "0x16c872fcaa72e762fe852c12cecfd885c0dac805f0ed433908f49af75c53eeb2",
          "transactionIndex": "0x2f",
          "logIndex": "0xa5",
          "removed": false
        },
        {
          "address": "0xBBBBBbbBBb9cC5e90e3b3Af64bdAF62C37EEFFCb",
          "topics": [
            "0x9d9bd501d0657d7dfe415f779a620a62b78bc508ddc0891fbbd8b7ac0f8fce87",
            "0x3e6cea6ad0e3c8fd5bb51f9bd9b9af30946f1d245543f409b6add8b754c03d8b"
          ],
          "data": "0x0000000000000000000000000000000000000000000000000000000012e6646600000000000000000000000000000000000000000000000000000000000000000000000000000000000000000000000000000000000000000000000000000000",
          "blockHash": "0x51067a4949e3fce7212d8dd3e9fae6a212ec3b8fb0578af2d67ebe9a26265b24",
          "blockNumber": "0x12cf64b",
          "transactionHash": "0x16c872fcaa72e762fe852c12cecfd885c0dac805f0ed433908f49af75c53eeb2",
          "transactionIndex": "0x2f",
          "logIndex": "0xa6",
          "removed": false
        },
        {
          "address": "0xBBBBBbbBBb9cC5e90e3b3Af64bdAF62C37EEFFCb",
          "topics": [
            "0xedf8870433c83823eb071d3df1caa8d008f12f6440918c20d75a3602cda30fe0",
            "0x3e6cea6ad0e3c8fd5bb51f9bd9b9af30946f1d245543f409b6add8b754c03d8b",
            "0x000000000000000000000000a9ddd91249dfdd450e81e1c56ab60e1a62651701",
            "0x000000000000000000000000a9ddd91249dfdd450e81e1c56ab60e1a62651701"
          ],
          "data": "0x0000000000000000000000000000000000000000000000000de0b6b3a764000000000000000000000000000000000000000000000000d3c21bcecceda1000000",
          "blockHash": "0x51067a4949e3fce7212d8dd3e9fae6a212ec3b8fb0578af2d67ebe9a26265b24",
          "blockNumber": "0x12cf64b",
          "transactionHash": "0x16c872fcaa72e762fe852c12cecfd885c0dac805f0ed433908f49af75c53eeb2",
          "transactionIndex": "0x2f",
          "logIndex": "0xa7",
          "removed": false
        },
        {
          "address": "0x774681A648125D46f35017cF6CEC43A41857254e",
          "topics": [
            "0x7421973e31248bda00bf2f04b80b46b34fc9e23ab57848234aed6cc5d437b6a8",
            "0x000000000000000000000000a9ddd91249dfdd450e81e1c56ab60e1a62651701",
            "0x000000000000000000000000bbbbbbbbbb9cc5e90e3b3af64bdaf62c37eeffcb"
          ],
          "data": "0x0000000000000000000000000000000000000000000000000de0b6b3a76400000000000000000000000000000000000000000000000000000000000000000001",
          "blockHash": "0x51067a4949e3fce7212d8dd3e9fae6a212ec3b8fb0578af2d67ebe9a26265b24",
          "blockNumber": "0x12cf64b",
          "transactionHash": "0x16c872fcaa72e762fe852c12cecfd885c0dac805f0ed433908f49af75c53eeb2",
          "transactionIndex": "0x2f",
          "logIndex": "0xa8",
          "removed": false
        },
        {
          "address": "0x3231Cb76718CDeF2155FC47b5286d82e6eDA273f",
          "topics": [
            "0xddf252ad1be2c89b69c2b068fc378daa952ba7f163c4a11628f55a4df523b3ef",
            "0x000000000000000000000000a9ddd91249dfdd450e81e1c56ab60e1a62651701",
            "0x000000000000000000000000bbbbbbbbbb9cc5e90e3b3af64bdaf62c37eeffcb"
          ],
          "data": "0x0000000000000000000000000000000000000000000000000de0b6b3a7640000",
          "blockHash": "0x51067a4949e3fce7212d8dd3e9fae6a212ec3b8fb0578af2d67ebe9a26265b24",
          "blockNumber": "0x12cf64b",
          "transactionHash": "0x16c872fcaa72e762fe852c12cecfd885c0dac805f0ed433908f49af75c53eeb2",
          "transactionIndex": "0x2f",
          "logIndex": "0xa9",
          "removed": false
        }
      ],
      "status": "0x1",
      "logsBloom": "0x00000000000000000000400000000080000000000000000000000000080000000000400000000000000000000000080000000000000000000000000820844000000000000010000080000008800000000000000800200000000000080000000000000000000000000000000000000000000000000000000000000010000000000000000000000008000000000000000200000000000080000000000000000000800000000000000000000000000000000000000000000000800000080000000020000002000000000001000010000000000000000000000000000000004000400000000001010000000000240001000000000000000000800000000000000000",
      "type": "0x2",
      "effectiveGasPrice": "0x29d5cf647"
    },
    {
      "transactionHash": "0x5d24c63c740a9f2b1809b6e1af09bf4cfb2fa3e153849ff22cc1b2b870a67a05",
      "transactionIndex": "0x1c",
      "blockHash": "0x254f019c25bddc5ccf210bc0ed5019b9ba28e98534cf73e9c84696a361aea455",
      "blockNumber": "0x12cf64c",
      "from": "0xA9DdD91249DFdd450E81E1c56Ab60E1A62651701",
      "to": "0xBBBBBbbBBb9cC5e90e3b3Af64bdAF62C37EEFFCb",
      "cumulativeGasUsed": "0x4cc43c",
      "gasUsed": "0x17401",
      "contractAddress": null,
      "logs": [
        {
          "address": "0xBBBBBbbBBb9cC5e90e3b3Af64bdAF62C37EEFFCb",
          "topics": [
            "0xa3b9472a1399e17e123f3c2e6586c23e504184d504de59cdaa2b375e880c6184",
            "0x3e6cea6ad0e3c8fd5bb51f9bd9b9af30946f1d245543f409b6add8b754c03d8b",
            "0x000000000000000000000000a9ddd91249dfdd450e81e1c56ab60e1a62651701",
            "0x000000000000000000000000a9ddd91249dfdd450e81e1c56ab60e1a62651701"
          ],
          "data": "0x00000000000000000000000000000000000000000000000022b1c8c1227a0000",
          "blockHash": "0x254f019c25bddc5ccf210bc0ed5019b9ba28e98534cf73e9c84696a361aea455",
          "blockNumber": "0x12cf64c",
          "transactionHash": "0x5d24c63c740a9f2b1809b6e1af09bf4cfb2fa3e153849ff22cc1b2b870a67a05",
          "transactionIndex": "0x1c",
          "logIndex": "0xb0",
          "removed": false
        },
        {
          "address": "0x004626A008B1aCdC4c74ab51644093b155e59A23",
          "topics": [
            "0x8c5be1e5ebec7d5bd14f71427d1e84f3dd0314c0f7b2291e5b200ac8c7c3b925",
            "0x000000000000000000000000a9ddd91249dfdd450e81e1c56ab60e1a62651701",
            "0x000000000000000000000000bbbbbbbbbb9cc5e90e3b3af64bdaf62c37eeffcb"
          ],
          "data": "0x0000000000000000000000000000000000000000000000000000000000000000",
          "blockHash": "0x254f019c25bddc5ccf210bc0ed5019b9ba28e98534cf73e9c84696a361aea455",
          "blockNumber": "0x12cf64c",
          "transactionHash": "0x5d24c63c740a9f2b1809b6e1af09bf4cfb2fa3e153849ff22cc1b2b870a67a05",
          "transactionIndex": "0x1c",
          "logIndex": "0xb1",
          "removed": false
        },
        {
          "address": "0x004626A008B1aCdC4c74ab51644093b155e59A23",
          "topics": [
            "0xddf252ad1be2c89b69c2b068fc378daa952ba7f163c4a11628f55a4df523b3ef",
            "0x000000000000000000000000a9ddd91249dfdd450e81e1c56ab60e1a62651701",
            "0x000000000000000000000000bbbbbbbbbb9cc5e90e3b3af64bdaf62c37eeffcb"
          ],
          "data": "0x00000000000000000000000000000000000000000000000022b1c8c1227a0000",
          "blockHash": "0x254f019c25bddc5ccf210bc0ed5019b9ba28e98534cf73e9c84696a361aea455",
          "blockNumber": "0x12cf64c",
          "transactionHash": "0x5d24c63c740a9f2b1809b6e1af09bf4cfb2fa3e153849ff22cc1b2b870a67a05",
          "transactionIndex": "0x1c",
          "logIndex": "0xb2",
          "removed": false
        }
      ],
      "status": "0x1",
      "logsBloom": "0x00000000000000000000000000000080000000010000000000000000080000000000000000000000000000000000000000000000000000000000000000200000000000000010000000000008000000000000000000000000000000020000000000000000000000000000000000000000000000000000080000000010000000000000008000000008000000000000000000000000000000000000000000000000820000000000000000000000000000000000000000000000800000080000000020000002000000000000000010000000000000000000000400000000000000000010000001000000000000240000200000000000000000000000000000000000",
      "type": "0x2",
      "effectiveGasPrice": "0x2c041f5f5"
    },
    {
      "transactionHash": "0xb7503a15586279f6e84a82786f49a9a6187d19e8db6dcde8e9453f185033e309",
      "transactionIndex": "0x1a",
      "blockHash": "0x77028cb2bcb67d35b6b02240600e02030147a2b766a995514a3cc2b11952cd44",
      "blockNumber": "0x12cf64d",
      "from": "0xA9DdD91249DFdd450E81E1c56Ab60E1A62651701",
      "to": "0xBBBBBbbBBb9cC5e90e3b3Af64bdAF62C37EEFFCb",
      "cumulativeGasUsed": "0x288a9c",
      "gasUsed": "0x317c5",
      "contractAddress": null,
      "logs": [
        {
          "address": "0x870aC11D48B15DB9a138Cf899d20F13F79Ba00BC",
          "topics": [
            "0x7120161a7b3d31251e01294ab351ef15a41b91659a36032e4641bb89b121e321",
            "0x3e6cea6ad0e3c8fd5bb51f9bd9b9af30946f1d245543f409b6add8b754c03d8b"
          ],
          "data": "0x0000000000000000000000000000000000000000000000000000000012e6297c000000000000000000000000000000000000000000000000000000004b9847af",
          "blockHash": "0x77028cb2bcb67d35b6b02240600e02030147a2b766a995514a3cc2b11952cd44",
          "blockNumber": "0x12cf64d",
          "transactionHash": "0xb7503a15586279f6e84a82786f49a9a6187d19e8db6dcde8e9453f185033e309",
          "transactionIndex": "0x1a",
          "logIndex": "0x48",
          "removed": false
        },
        {
          "address": "0xBBBBBbbBBb9cC5e90e3b3Af64bdAF62C37EEFFCb",
          "topics": [
            "0x9d9bd501d0657d7dfe415f779a620a62b78bc508ddc0891fbbd8b7ac0f8fce87",
            "0x3e6cea6ad0e3c8fd5bb51f9bd9b9af30946f1d245543f409b6add8b754c03d8b"
          ],
          "data": "0x0000000000000000000000000000000000000000000000000000000012e6297c00000000000000000000000000000000000000000000000000000000000000000000000000000000000000000000000000000000000000000000000000000000",
          "blockHash": "0x77028cb2bcb67d35b6b02240600e02030147a2b766a995514a3cc2b11952cd44",
          "blockNumber": "0x12cf64d",
          "transactionHash": "0xb7503a15586279f6e84a82786f49a9a6187d19e8db6dcde8e9453f185033e309",
          "transactionIndex": "0x1a",
          "logIndex": "0x49",
          "removed": false
        },
        {
          "address": "0xBBBBBbbBBb9cC5e90e3b3Af64bdAF62C37EEFFCb",
          "topics": [
            "0x570954540bed6b1304a87dfe815a5eda4a648f7097a16240dcd85c9b5fd42a43",
            "0x3e6cea6ad0e3c8fd5bb51f9bd9b9af30946f1d245543f409b6add8b754c03d8b",
            "0x000000000000000000000000a9ddd91249dfdd450e81e1c56ab60e1a62651701",
            "0x000000000000000000000000a9ddd91249dfdd450e81e1c56ab60e1a62651701"
          ],
          "data": "0x000000000000000000000000a9ddd91249dfdd450e81e1c56ab60e1a626517010000000000000000000000000000000000000000000000000dbd2fc137a3000000000000000000000000000000000000000000000000d1a401ee0332eec00000",
          "blockHash": "0x77028cb2bcb67d35b6b02240600e02030147a2b766a995514a3cc2b11952cd44",
          "blockNumber": "0x12cf64d",
          "transactionHash": "0xb7503a15586279f6e84a82786f49a9a6187d19e8db6dcde8e9453f185033e309",
          "transactionIndex": "0x1a",
          "logIndex": "0x4a",
          "removed": false
        },
        {
          "address": "0x774681A648125D46f35017cF6CEC43A41857254e",
          "topics": [
            "0x7421973e31248bda00bf2f04b80b46b34fc9e23ab57848234aed6cc5d437b6a8",
            "0x000000000000000000000000bbbbbbbbbb9cc5e90e3b3af64bdaf62c37eeffcb",
            "0x000000000000000000000000a9ddd91249dfdd450e81e1c56ab60e1a62651701"
          ],
          "data": "0x0000000000000000000000000000000000000000000000000dbd2fc137a300000000000000000000000000000000000000000000000000000000000000000001",
          "blockHash": "0x77028cb2bcb67d35b6b02240600e02030147a2b766a995514a3cc2b11952cd44",
          "blockNumber": "0x12cf64d",
          "transactionHash": "0xb7503a15586279f6e84a82786f49a9a6187d19e8db6dcde8e9453f185033e309",
          "transactionIndex": "0x1a",
          "logIndex": "0x4b",
          "removed": false
        },
        {
          "address": "0x3231Cb76718CDeF2155FC47b5286d82e6eDA273f",
          "topics": [
            "0xddf252ad1be2c89b69c2b068fc378daa952ba7f163c4a11628f55a4df523b3ef",
            "0x000000000000000000000000bbbbbbbbbb9cc5e90e3b3af64bdaf62c37eeffcb",
            "0x000000000000000000000000a9ddd91249dfdd450e81e1c56ab60e1a62651701"
          ],
          "data": "0x0000000000000000000000000000000000000000000000000dbd2fc137a30000",
          "blockHash": "0x77028cb2bcb67d35b6b02240600e02030147a2b766a995514a3cc2b11952cd44",
          "blockNumber": "0x12cf64d",
          "transactionHash": "0xb7503a15586279f6e84a82786f49a9a6187d19e8db6dcde8e9453f185033e309",
          "transactionIndex": "0x1a",
          "logIndex": "0x4c",
          "removed": false
        }
      ],
      "status": "0x1",
      "logsBloom": "0x00000000000000000002400000000080000000000000000000000000080000000000400000000000000000000000080000000000000000000000000820844000000000000010000080000008000000000000000000200000000000080000000000000000000000000000000000000000000000000000000000000010000000000000000000000008000000000000000200000000000080000000000000000000800000000000000000000000000000000000000000000000800000080000000020000002000000000001000010000000000000000000000000000000004000000000004001010008000000240001000000000000000000800000000000000000",
      "type": "0x2",
      "effectiveGasPrice": "0x2b9d61adb"
    }
  ],
  "libraries": [],
  "pending": [],
  "returns": {},
  "timestamp": 1713944957,
  "chain": 1,
  "multi": false,
  "commit": "89f9128"
}