{
  "transactions": [
    {
      "hash": "0x9efc73dcba1a1ea9659955a973f5ae56a05c5041ddda8684119748cfbfe51491",
      "transactionType": "CALL",
      "contractName": null,
      "contractAddress": "0x0000206329b97DB379d5E1Bf586BbDB969C63274",
      "function": "approve(address,uint256)",
      "arguments": [
        "0xBBBBBbbBBb9cC5e90e3b3Af64bdAF62C37EEFFCb",
        "10000000000000000000"
      ],
      "transaction": {
        "type": "0x02",
        "from": "0xa9ddd91249dfdd450e81e1c56ab60e1a62651701",
        "to": "0x0000206329b97db379d5e1bf586bbdb969c63274",
        "gas": "0xb4b7",
        "value": "0x0",
        "data": "0x095ea7b3000000000000000000000000bbbbbbbbbb9cc5e90e3b3af64bdaf62c37eeffcb0000000000000000000000000000000000000000000000008ac7230489e80000",
        "nonce": "0xbe",
        "accessList": []
      },
      "additionalContracts": [],
      "isFixedGasLimit": false
    },
    {
      "hash": "0xcc9d90e7ba57804f749420d55f28e9de3a14bc88cdcc410f2ceac8b608d71ea5",
      "transactionType": "CALL",
      "contractName": null,
      "contractAddress": "0x3A7bB36Ee3f3eE32A60e9f2b33c1e5f2E83ad766",
      "function": null,
      "arguments": null,
      "transaction": {
        "type": "0x02",
        "from": "0xa9ddd91249dfdd450e81e1c56ab60e1a62651701",
        "to": "0x3a7bb36ee3f3ee32a60e9f2b33c1e5f2e83ad766",
        "gas": "0xce812",
        "value": "0x0",
        "data": "0xb32cddf400000000000000000000000095eef579155cd2c5510f312c8fa39208c3be01a80000000000000000000000000000000000000000000000000de0b6b3a76400000000000000000000000000003e7d1eab13ad0104d2750b8863b489d65364e32d00000000000000000000000000000000000000000000000000000000000000000000000000000000000000000000000000000000000000000000000000000006000000000000000000000000000000000000000000000000000000000000000000000000000000000000000000000000000000000000000000000000000000010000000000000000000000000000000000000000000000000000000000000000000000000000000000000000000000000000000000000000000000000000000000000000000000000000000000000000000000000000000000000000000000120000000000000000000000000000000000000000000000000000000000000000",
        "nonce": "0xbf",
        "accessList": []
      },
      "additionalContracts": [
        {
          "transactionType": "CREATE2",
          "address": "0x1f083a4c51E6cAa627A8Cbe7452bF3D6eb815F57",
          "initCode": "0x6101a08060405234620002fa578062000f1e803803809162000022828562000331565b833961014092839181010312620002fa576200003e8162000355565b91602082015190620000536040840162000355565b90620000626060850162000355565b926080850151956200007760a0870162000355565b9060c0870151956200008c60e0890162000355565b95610100996200009e8b8b0162000355565b6101209a8b0151956001600160a01b0386811615801590620002ef575b620000d190620000ca6200036a565b90620003bf565b811615801590620002e4575b620000ec90620000ca6200036a565b8715956200015a6040516200010181620002ff565b601f8152620001397f7661756c7420636f6e76657273696f6e2073616d706c65206973207a65726f00918260208201528a15620003bf565b604051906200014882620002ff565b601f825260208201528d1515620003bf565b6080528760a05260c0528960e052828c52838b5288885261016098818a52602496870190818811620002cf57620001bd620001ca94620001c4620001bd95620001b6620001bd620001d19b9a97620001b6620001ca986200045b565b9062000429565b916200045b565b6200044d565b906200044d565b604d8111620002ba57600a0a868102968188041490151715620002a5576200029157506101809304835260405193610a269586620004f8873960805186818161014b0152610304015260a0518681816102e301526105b9015260c0518681816103ac0152610560015260e05186818161038b01526104f301525185818160d9015261032d0152518481816101b9015261035c0152518381816103d5015261049a01525182818161027f01526103fe01525181818161021201526104250152f35b634e487b7160e01b60009081526012600452fd5b50634e487b7160e01b60009081526011600452fd5b82634e487b7160e01b60005260116004526000fd5b87634e487b7160e01b60005260116004526000fd5b5060018b14620000dd565b5060018914620000bb565b600080fd5b604081019081106001600160401b038211176200031b57604052565b634e487b7160e01b600052604160045260246000fd5b601f909101601f19168101906001600160401b038211908210176200031b57604052565b51906001600160a01b0382168203620002fa57565b60405190606082016001600160401b038111838210176200031b5760405260228252616e6560f01b6040837f7661756c7420636f6e76657273696f6e2073616d706c65206973206e6f74206f60208201520152565b15620003c85750565b6040519062461bcd60e51b82528160208060048301528251908160248401526000935b8285106200040f575050604492506000838284010152601f80199101168101030190fd5b8481018201518686016044015293810193859350620003eb565b919082018092116200043757565b634e487b7160e01b600052601160045260246000fd5b919082039182116200043757565b6001600160a01b03168015620004f15760206004916040519283809263313ce56760e01b82525afa908115620004e5576000916200049b575b5060ff1690565b6020813d8211620004dc575b81620004b66020938362000331565b81010312620004d857519060ff82168203620004d5575060ff62000494565b80fd5b5080fd5b3d9150620004a7565b6040513d6000823e3d90fd5b5060009056fe60806040818152600436101561001457600080fd5b600091823560e01c908163054f7ac014610584575080632e6f20a614610516578063461739d2146104be57806356095e1114610450578063a035b1fe146102a3578063acfbd39e14610235578063ce4b5bbe146101dd578063dc53858c1461016f578063eaa2d7b4146101015763f50a47181461009057600080fd5b346100fd57817ffffffffffffffffffffffffffffffffffffffffffffffffffffffffffffffffc3601126100fd576020905173ffffffffffffffffffffffffffffffffffffffff7f0000000000000000000000000000000000000000000000000000000000000000168152f35b5080fd5b50346100fd57817ffffffffffffffffffffffffffffffffffffffffffffffffffffffffffffffffc3601126100fd576020905173ffffffffffffffffffffffffffffffffffffffff7f0000000000000000000000000000000000000000000000000000000000000000168152f35b50346100fd57817ffffffffffffffffffffffffffffffffffffffffffffffffffffffffffffffffc3601126100fd576020905173ffffffffffffffffffffffffffffffffffffffff7f0000000000000000000000000000000000000000000000000000000000000000168152f35b50346100fd57817ffffffffffffffffffffffffffffffffffffffffffffffffffffffffffffffffc3601126100fd57602090517f00000000000000000000000000000000000000000000000000000000000000008152f35b50346100fd57817ffffffffffffffffffffffffffffffffffffffffffffffffffffffffffffffffc3601126100fd576020905173ffffffffffffffffffffffffffffffffffffffff7f0000000000000000000000000000000000000000000000000000000000000000168152f35b50346100fd57817ffffffffffffffffffffffffffffffffffffffffffffffffffffffffffffffffc3601126100fd576020906104496103806103576103287f00000000000000000000000000000000000000000000000000000000000000007f000000000000000000000000000000000000000000000000000000000000000061094a565b6103517f00000000000000000000000000000000000000000000000000000000000000006107a5565b906105dc565b6103517f00000000000000000000000000000000000000000000000000000000000000006107a5565b6104226103f96103d07f00000000000000000000000000000000000000000000000000000000000000007f000000000000000000000000000000000000000000000000000000000000000061094a565b6103517f00000000000000000000000000000000000000000000000000000000000000006107a5565b6103517f00000000000000000000000000000000000000000000000000000000000000006107a5565b907f000000000000000000000000000000000000000000000000000000000000000061061e565b9051908152f35b50346100fd57817ffffffffffffffffffffffffffffffffffffffffffffffffffffffffffffffffc3601126100fd576020905173ffffffffffffffffffffffffffffffffffffffff7f0000000000000000000000000000000000000000000000000000000000000000168152f35b50346100fd57817ffffffffffffffffffffffffffffffffffffffffffffffffffffffffffffffffc3601126100fd57602090517f00000000000000000000000000000000000000000000000000000000000000008152f35b50346100fd57817ffffffffffffffffffffffffffffffffffffffffffffffffffffffffffffffffc3601126100fd576020905173ffffffffffffffffffffffffffffffffffffffff7f0000000000000000000000000000000000000000000000000000000000000000168152f35b8390346100fd57817ffffffffffffffffffffffffffffffffffffffffffffffffffffffffffffffffc3601126100fd576020907f00000000000000000000000000000000000000000000000000000000000000008152f35b818102929181159184041417156105ef57565b7f4e487b7100000000000000000000000000000000000000000000000000000000600052601160045260246000fd5b9091828202917fffffffffffffffffffffffffffffffffffffffffffffffffffffffffffffffff848209938380861095039480860395146106dc57848311156106b25782910981600003821680920460028082600302188083028203028083028203028083028203028083028203028083028203028092029003029360018380600003040190848311900302920304170290565b60046040517f227bc153000000000000000000000000000000000000000000000000000000008152fd5b5050809250156106ea570490565b7f4e487b7100000000000000000000000000000000000000000000000000000000600052601260045260246000fd5b90601f7fffffffffffffffffffffffffffffffffffffffffffffffffffffffffffffffe0910116810190811067ffffffffffffffff82111761075a57604052565b7f4e487b7100000000000000000000000000000000000000000000000000000000600052604160045260246000fd5b519069ffffffffffffffffffff821682036107a057565b600080fd5b73ffffffffffffffffffffffffffffffffffffffff1680156109445760049060a06040918251938480927ffeaf968c0000000000000000000000000000000000000000000000000000000082525afa918215610939576000926108e8575b50805181810181811067ffffffffffffffff82111761075a578252600f81526020917f6e6567617469766520616e73776572000000000000000000000000000000000083830152600084126108585750505090565b5180927f08c379a000000000000000000000000000000000000000000000000000000000825280600483015282519283602484015260005b8481106108d1575050507fffffffffffffffffffffffffffffffffffffffffffffffffffffffffffffffe0601f836000604480968601015201168101030190fd5b818101830151868201604401528593508201610890565b909160a0823d8211610931575b8161090260a09383610719565b8101031261092e575061091481610789565b50610926608060208301519201610789565b509038610803565b80fd5b3d91506108f5565b50513d6000823e3d90fd5b50600190565b73ffffffffffffffffffffffffffffffffffffffff169081156109e9576020906024604051809481937f07a2d13a00000000000000000000000000000000000000000000000000000000835260048301525afa9081156109dd576000916109af575090565b906020823d82116109d5575b816109c860209383610719565b8101031261092e57505190565b3d91506109bb565b6040513d6000823e3d90fd5b505060019056fea2646970667358221220de25ff8dd5708a691db44b0da1e6e734e7659c3f9a1801595bc1fa7bf902c00564736f6c6343000815003300000000000000000000000095eef579155cd2c5510f312c8fa39208c3be01a80000000000000000000000000000000000000000000000000de0b6b3a76400000000000000000000000000003e7d1eab13ad0104d2750b8863b489d65364e32d0000000000000000000000000000000000000000000000000000000000000000000000000000000000000000000000000000000000000000000000000000000600000000000000000000000000000000000000000000000000000000000000000000000000000000000000000000000000000000000000000000000000000001000000000000000000000000000000000000000000000000000000000000000000000000000000000000000000000000000000000000000000000000000000000000000000000000000000000000000000000000000000000000000000000012"
        }
      ],
      "isFixedGasLimit": false
    },
    {
      "hash": "0x57934a3d4ef7a36188e42cc1e8a834906ad0f35166a057c9ae126d9899579b4d",
      "transactionType": "CALL",
      "contractName": null,
      "contractAddress": "0xBBBBBbbBBb9cC5e90e3b3Af64bdAF62C37EEFFCb",
      "function": null,
      "arguments": null,
      "transaction": {
        "type": "0x02",
        "from": "0xa9ddd91249dfdd450e81e1c56ab60e1a62651701",
        "to": "0xbbbbbbbbbb9cc5e90e3b3af64bdaf62c37eeffcb",
        "gas": "0x433fb",
        "value": "0x0",
        "data": "0x8c1358a20000000000000000000000000000206329b97db379d5e1bf586bbdb969c6327400000000000000000000000095eef579155cd2c5510f312c8fa39208c3be01a80000000000000000000000001f083a4c51e6caa627a8cbe7452bf3d6eb815f57000000000000000000000000870ac11d48b15db9a138cf899d20f13f79ba00bc0000000000000000000000000000000000000000000000000cb2bba6f17b8000",
        "nonce": "0xc0",
        "accessList": []
      },
      "additionalContracts": [],
      "isFixedGasLimit": false
    },
    {
      "hash": "0xc95774ae3291232c8bc94b900dae1c9329b2818ec83f730968a3623d4f20c418",
      "transactionType": "CALL",
      "contractName": null,
      "contractAddress": "0x0000206329b97DB379d5E1Bf586BbDB969C63274",
      "function": "approve(address,uint256)",
      "arguments": [
        "0xBBBBBbbBBb9cC5e90e3b3Af64bdAF62C37EEFFCb",
        "1000000000000000000"
      ],
      "transaction": {
        "type": "0x02",
        "from": "0xa9ddd91249dfdd450e81e1c56ab60e1a62651701",
        "to": "0x0000206329b97db379d5e1bf586bbdb969c63274",
        "gas": "0xc3d2",
        "value": "0x0",
        "data": "0x095ea7b3000000000000000000000000bbbbbbbbbb9cc5e90e3b3af64bdaf62c37eeffcb0000000000000000000000000000000000000000000000000de0b6b3a7640000",
        "nonce": "0xc1",
        "accessList": []
      },
      "additionalContracts": [],
      "isFixedGasLimit": false
    },
    {
      "hash": "0x33e6101b3fbee3474f3cba1e77a96a7de40cf0e8c9e92dec9a5ed4de145703fb",
      "transactionType": "CALL",
      "contractName": null,
      "contractAddress": "0xBBBBBbbBBb9cC5e90e3b3Af64bdAF62C37EEFFCb",
      "function": null,
      "arguments": null,
      "transaction": {
        "type": "0x02",
        "from": "0xa9ddd91249dfdd450e81e1c56ab60e1a62651701",
        "to": "0xbbbbbbbbbb9cc5e90e3b3af64bdaf62c37eeffcb",
        "gas": "0x24bcb",
        "value": "0x0",
        "data": "0xa99aad890000000000000000000000000000206329b97db379d5e1bf586bbdb969c6327400000000000000000000000095eef579155cd2c5510f312c8fa39208c3be01a80000000000000000000000001f083a4c51e6caa627a8cbe7452bf3d6eb815f57000000000000000000000000870ac11d48b15db9a138cf899d20f13f79ba00bc0000000000000000000000000000000000000000000000000cb2bba6f17b80000000000000000000000000000000000000000000000000000de0b6b3a76400000000000000000000000000000000000000000000000000000000000000000000000000000000000000000000a9ddd91249dfdd450e81e1c56ab60e1a6265170100000000000000000000000000000000000000000000000000000000000001200000000000000000000000000000000000000000000000000000000000000000",
        "nonce": "0xc2",
        "accessList": []
      },
      "additionalContracts": [],
      "isFixedGasLimit": false
    },
    {
      "hash": "0x345560d9a84e8b18386acbfc9f01924a5d528c419fc3e48a010e33944f36c52e",
      "transactionType": "CALL",
      "contractName": null,
      "contractAddress": "0x95EeF579155cd2C5510F312c8fA39208c3Be01a8",
      "function": "approve(address,uint256)",
      "arguments": [
        "0xBBBBBbbBBb9cC5e90e3b3Af64bdAF62C37EEFFCb",
        "11700000000000000000"
      ],
      "transaction": {
        "type": "0x02",
        "from": "0xa9ddd91249dfdd450e81e1c56ab60e1a62651701",
        "to": "0x95eef579155cd2c5510f312c8fa39208c3be01a8",
        "gas": "0xf862",
        "value": "0x0",
        "data": "0x095ea7b3000000000000000000000000bbbbbbbbbb9cc5e90e3b3af64bdaf62c37eeffcb000000000000000000000000000000000000000000000000a25ec002c0120000",
        "nonce": "0xc3",
        "accessList": []
      },
      "additionalContracts": [],
      "isFixedGasLimit": false
    },
    {
      "hash": "0xab8ab2391a1d163fe62c2de680810ea8facf3b5c5e49af0755863a20cfa91754",
      "transactionType": "CALL",
      "contractName": null,
      "contractAddress": "0xBBBBBbbBBb9cC5e90e3b3Af64bdAF62C37EEFFCb",
      "function": null,
      "arguments": null,
      "transaction": {
        "type": "0x02",
        "from": "0xa9ddd91249dfdd450e81e1c56ab60e1a62651701",
        "to": "0xbbbbbbbbbb9cc5e90e3b3af64bdaf62c37eeffcb",
        "gas": "0x1d196",
        "value": "0x0",
        "data": "0x238d65790000000000000000000000000000206329b97db379d5e1bf586bbdb969c6327400000000000000000000000095eef579155cd2c5510f312c8fa39208c3be01a80000000000000000000000001f083a4c51e6caa627a8cbe7452bf3d6eb815f57000000000000000000000000870ac11d48b15db9a138cf899d20f13f79ba00bc0000000000000000000000000000000000000000000000000cb2bba6f17b8000000000000000000000000000000000000000000000000000a25ec002c0120000000000000000000000000000a9ddd91249dfdd450e81e1c56ab60e1a6265170100000000000000000000000000000000000000000000000000000000000001000000000000000000000000000000000000000000000000000000000000000000",
        "nonce": "0xc4",
        "accessList": []
      },
      "additionalContracts": [],
      "isFixedGasLimit": false
    },
    {
      "hash": "0xc25466f10aa9bb3fe961216201509d6a3aeb5ae094d3015a416225a910d950c8",
      "transactionType": "CALL",
      "contractName": null,
      "contractAddress": "0xBBBBBbbBBb9cC5e90e3b3Af64bdAF62C37EEFFCb",
      "function": null,
      "arguments": null,
      "transaction": {
        "type": "0x02",
        "from": "0xa9ddd91249dfdd450e81e1c56ab60e1a62651701",
        "to": "0xbbbbbbbbbb9cc5e90e3b3af64bdaf62c37eeffcb",
        "gas": "0x518e2",
        "value": "0x0",
        "data": "0x50d8cd4b0000000000000000000000000000206329b97db379d5e1bf586bbdb969c6327400000000000000000000000095eef579155cd2c5510f312c8fa39208c3be01a80000000000000000000000001f083a4c51e6caa627a8cbe7452bf3d6eb815f57000000000000000000000000870ac11d48b15db9a138cf899d20f13f79ba00bc0000000000000000000000000000000000000000000000000cb2bba6f17b80000000000000000000000000000000000000000000000000000de0b6b3a76400000000000000000000000000000000000000000000000000000000000000000000000000000000000000000000a9ddd91249dfdd450e81e1c56ab60e1a62651701000000000000000000000000a9ddd91249dfdd450e81e1c56ab60e1a62651701",
        "nonce": "0xc5",
        "accessList": []
      },
      "additionalContracts": [],
      "isFixedGasLimit": false
    }
  ],
  "receipts": [
    {
      "transactionHash": "0x9efc73dcba1a1ea9659955a973f5ae56a05c5041ddda8684119748cfbfe51491",
      "transactionIndex": "0x18",
      "blockHash": "0x5fb8ac207a55490fd4a207e3c2a1104329737b6295416c976f9dcb9bb3dcca02",
      "blockNumber": "0x12c6cb4",
      "from": "0xA9DdD91249DFdd450E81E1c56Ab60E1A62651701",
      "to": "0x0000206329b97DB379d5E1Bf586BbDB969C63274",
      "cumulativeGasUsed": "0x24b03b",
      "gasUsed": "0x82d6",
      "contractAddress": null,
      "logs": [
        {
          "address": "0x0000206329b97DB379d5E1Bf586BbDB969C63274",
          "topics": [
            "0x8c5be1e5ebec7d5bd14f71427d1e84f3dd0314c0f7b2291e5b200ac8c7c3b925",
            "0x000000000000000000000000a9ddd91249dfdd450e81e1c56ab60e1a62651701",
            "0x000000000000000000000000bbbbbbbbbb9cc5e90e3b3af64bdaf62c37eeffcb"
          ],
          "data": "0x0000000000000000000000000000000000000000000000008ac7230489e80000",
          "blockHash": "0x5fb8ac207a55490fd4a207e3c2a1104329737b6295416c976f9dcb9bb3dcca02",
          "blockNumber": "0x12c6cb4",
          "transactionHash": "0x9efc73dcba1a1ea9659955a973f5ae56a05c5041ddda8684119748cfbfe51491",
          "transactionIndex": "0x18",
          "logIndex": "0x4e",
          "removed": false
        }
      ],
      "status": "0x1",
      "logsBloom": "0x00000000000000000000000000000080000000000000000000000000000000000000000000000000000000000000000000000000000000000000000000200000000000000000000000000000000004000000000000000000000000000000000000000000000000000000000000000000000000000000000000000000000000000000000000000000000000000000000000000000000000000000000000000000820000000000000000000000000000000000000000000000800000080000000000000000000000000000000000000000000000004000000000000000000000000010000001000000000000200000000000000000000000000000000000004000",
      "type": "0x2",
      "effectiveGasPrice": "0x2bcf739ae"
    },
    {
      "transactionHash": "0xcc9d90e7ba57804f749420d55f28e9de3a14bc88cdcc410f2ceac8b608d71ea5",
      "transactionIndex": "0x5",
      "blockHash": "0x74c74a72001da7fd7e34a0e1d58a70201399a36d325422be817e9652bebe2f5e",
      "blockNumber": "0x12c6cb5",
      "from": "0xA9DdD91249DFdd450E81E1c56Ab60E1A62651701",
      "to": "0x3A7bB36Ee3f3eE32A60e9f2b33c1e5f2E83ad766",
      "cumulativeGasUsed": "0x1b8810",
      "gasUsed": "0x9591d",
      "contractAddress": null,
      "logs": [
        {
          "address": "0x3A7bB36Ee3f3eE32A60e9f2b33c1e5f2E83ad766",
          "topics": [
            "0x6436acb89463dbc9036f1e52aebf32ac0bf5f69e3987c067110c3ac403ebda33"
          ],
          "data": "0x000000000000000000000000a9ddd91249dfdd450e81e1c56ab60e1a626517010000000000000000000000001f083a4c51e6caa627a8cbe7452bf3d6eb815f57",
          "blockHash": "0x74c74a72001da7fd7e34a0e1d58a70201399a36d325422be817e9652bebe2f5e",
          "blockNumber": "0x12c6cb5",
          "transactionHash": "0xcc9d90e7ba57804f749420d55f28e9de3a14bc88cdcc410f2ceac8b608d71ea5",
          "transactionIndex": "0x5",
          "logIndex": "0x31",
          "removed": false
        }
      ],
      "status": "0x1",
      "logsBloom": "0x00000000000000000000000000000000000000000000000000000000000000000000000000000000000000000000000000000000000000000000000000000000000000000000000000000000000000000000000000000000000000000000000000000000000000000000000000000000000000000000000000000000000000000000000000000000000000000000000000002000000000000000000000000000000000000000000000000000010000000000000000100000000000000000000000000000000000000000000000000000000000000000000000000000000000000000000000000080000000006000000000000000000000000000000000000000",
      "type": "0x2",
      "effectiveGasPrice": "0x2b96cfd40"
    },
    {
      "transactionHash": "0x57934a3d4ef7a36188e42cc1e8a834906ad0f35166a057c9ae126d9899579b4d",
      "transactionIndex": "0x8",
      "blockHash": "0x6148c294971549b1102115e8b0d776513acd6ff1465d8b423b6dbdf204bed20b",
      "blockNumber": "0x12c6cb6",
      "from": "0xA9DdD91249DFdd450E81E1c56Ab60E1A62651701",
      "to": "0xBBBBBbbBBb9cC5e90e3b3Af64bdAF62C37EEFFCb",
      "cumulativeGasUsed": "0x188ba5",
      "gasUsed": "0x30aff",
      "contractAddress": null,
      "logs": [
        {
          "address": "0xBBBBBbbBBb9cC5e90e3b3Af64bdAF62C37EEFFCb",
          "topics": [
            "0xac4b2400f169220b0c0afdde7a0b32e775ba727ea1cb30b35f935cdaab8683ac",
            "0x5d09770b08517329e25b7dff8f32ad7098c8b6fd075660cdabec3e717ca8068f"
          ],
          "data": "0x0000000000000000000000000000206329b97db379d5e1bf586bbdb969c6327400000000000000000000000095eef579155cd2c5510f312c8fa39208c3be01a80000000000000000000000001f083a4c51e6caa627a8cbe7452bf3d6eb815f57000000000000000000000000870ac11d48b15db9a138cf899d20f13f79ba00bc0000000000000000000000000000000000000000000000000cb2bba6f17b8000",
          "blockHash": "0x6148c294971549b1102115e8b0d776513acd6ff1465d8b423b6dbdf204bed20b",
          "blockNumber": "0x12c6cb6",
          "transactionHash": "0x57934a3d4ef7a36188e42cc1e8a834906ad0f35166a057c9ae126d9899579b4d",
          "transactionIndex": "0x8",
          "logIndex": "0x49",
          "removed": false
        },
        {
          "address": "0x870aC11D48B15DB9a138Cf899d20F13F79Ba00BC",
          "topics": [
            "0x7120161a7b3d31251e01294ab351ef15a41b91659a36032e4641bb89b121e321",
            "0x5d09770b08517329e25b7dff8f32ad7098c8b6fd075660cdabec3e717ca8068f"
          ],
          "data": "0x0000000000000000000000000000000000000000000000000000000012e687bf000000000000000000000000000000000000000000000000000000004b9a1eff",
          "blockHash": "0x6148c294971549b1102115e8b0d776513acd6ff1465d8b423b6dbdf204bed20b",
          "blockNumber": "0x12c6cb6",
          "transactionHash": "0x57934a3d4ef7a36188e42cc1e8a834906ad0f35166a057c9ae126d9899579b4d",
          "transactionIndex": "0x8",
          "logIndex": "0x4a",
          "removed": false
        }
      ],
      "status": "0x1",
      "logsBloom": "0x00000000000000000000000000000800000000000000000000000000000000000000000000000000000000000000000000000000000000000000000000844000000000000010000000000000000000000020000000200000000000000000000000000000000000000000000000000000000000000000000000000040000000000000000000000008000000000000000000000000000000000000000000000000000000000000000000000000000000000000000000000000000000000000000020000000000000000001080000000010000000000000000000000000000000000000000000000000000000000001000000000000000000000000000000000010",
      "type": "0x2",
      "effectiveGasPrice": "0x2daf30347"
    },
    {
      "transactionHash": "0xc95774ae3291232c8bc94b900dae1c9329b2818ec83f730968a3623d4f20c418",
      "transactionIndex": "0xd",
      "blockHash": "0x0787be82857dfcf57138df060b57353efc709b88f1dd648d6658d08484409bf9",
      "blockNumber": "0x12c6cb7",
      "from": "0xA9DdD91249DFdd450E81E1c56Ab60E1A62651701",
      "to": "0x0000206329b97DB379d5E1Bf586BbDB969C63274",
      "cumulativeGasUsed": "0x175a96",
      "gasUsed": "0x8dc6",
      "contractAddress": null,
      "logs": [
        {
          "address": "0x0000206329b97DB379d5E1Bf586BbDB969C63274",
          "topics": [
            "0x8c5be1e5ebec7d5bd14f71427d1e84f3dd0314c0f7b2291e5b200ac8c7c3b925",
            "0x000000000000000000000000a9ddd91249dfdd450e81e1c56ab60e1a62651701",
            "0x000000000000000000000000bbbbbbbbbb9cc5e90e3b3af64bdaf62c37eeffcb"
          ],
          "data": "0x0000000000000000000000000000000000000000000000000de0b6b3a7640000",
          "blockHash": "0x0787be82857dfcf57138df060b57353efc709b88f1dd648d6658d08484409bf9",
          "blockNumber": "0x12c6cb7",
          "transactionHash": "0xc95774ae3291232c8bc94b900dae1c9329b2818ec83f730968a3623d4f20c418",
          "transactionIndex": "0xd",
          "logIndex": "0x38",
          "removed": false
        }
      ],
      "status": "0x1",
      "logsBloom": "0x00000000000000000000000000000080000000000000000000000000000000000000000000000000000000000000000000000000000000000000000000200000000000000000000000000000000004000000000000000000000000000000000000000000000000000000000000000000000000000000000000000000000000000000000000000000000000000000000000000000000000000000000000000000820000000000000000000000000000000000000000000000800000080000000000000000000000000000000000000000000000004000000000000000000000000010000001000000000000200000000000000000000000000000000000004000",
      "type": "0x2",
      "effectiveGasPrice": "0x2d1a08989"
    },
    {
      "transactionHash": "0x33e6101b3fbee3474f3cba1e77a96a7de40cf0e8c9e92dec9a5ed4de145703fb",
      "transactionIndex": "0x1e",
      "blockHash": "0x08f4a5f9d310f80cad609844dc93ca7b4c6ece80321469086ad33e44dbd1349a",
      "blockNumber": "0x12c6cb8",
      "from": "0xA9DdD91249DFdd450E81E1c56Ab60E1A62651701",
      "to": "0xBBBBBbbBBb9cC5e90e3b3Af64bdAF62C37EEFFCb",
      "cumulativeGasUsed": "0x28311a",
      "gasUsed": "0x1f779",
      "contractAddress": null,
      "logs": [
        {
          "address": "0x870aC11D48B15DB9a138Cf899d20F13F79Ba00BC",
          "topics": [
            "0x7120161a7b3d31251e01294ab351ef15a41b91659a36032e4641bb89b121e321",
            "0x5d09770b08517329e25b7dff8f32ad7098c8b6fd075660cdabec3e717ca8068f"
          ],
          "data": "0x0000000000000000000000000000000000000000000000000000000012e6702e000000000000000000000000000000000000000000000000000000004b996277",
          "blockHash": "0x08f4a5f9d310f80cad609844dc93ca7b4c6ece80321469086ad33e44dbd1349a",
          "blockNumber": "0x12c6cb8",
          "transactionHash": "0x33e6101b3fbee3474f3cba1e77a96a7de40cf0e8c9e92dec9a5ed4de145703fb",
          "transactionIndex": "0x1e",
          "logIndex": "0x58",
          "removed": false
        },
        {
          "address": "0xBBBBBbbBBb9cC5e90e3b3Af64bdAF62C37EEFFCb",
          "topics": [
            "0x9d9bd501d0657d7dfe415f779a620a62b78bc508ddc0891fbbd8b7ac0f8fce87",
            "0x5d09770b08517329e25b7dff8f32ad7098c8b6fd075660cdabec3e717ca8068f"
          ],
          "data": "0x0000000000000000000000000000000000000000000000000000000012e6702e00000000000000000000000000000000000000000000000000000000000000000000000000000000000000000000000000000000000000000000000000000000",
          "blockHash": "0x08f4a5f9d310f80cad609844dc93ca7b4c6ece80321469086ad33e44dbd1349a",
          "blockNumber": "0x12c6cb8",
          "transactionHash": "0x33e6101b3fbee3474f3cba1e77a96a7de40cf0e8c9e92dec9a5ed4de145703fb",
          "transactionIndex": "0x1e",
          "logIndex": "0x59",
          "removed": false
        },
        {
          "address": "0xBBBBBbbBBb9cC5e90e3b3Af64bdAF62C37EEFFCb",
          "topics": [
            "0xedf8870433c83823eb071d3df1caa8d008f12f6440918c20d75a3602cda30fe0",
            "0x5d09770b08517329e25b7dff8f32ad7098c8b6fd075660cdabec3e717ca8068f",
            "0x000000000000000000000000a9ddd91249dfdd450e81e1c56ab60e1a62651701",
            "0x000000000000000000000000a9ddd91249dfdd450e81e1c56ab60e1a62651701"
          ],
          "data": "0x0000000000000000000000000000000000000000000000000de0b6b3a764000000000000000000000000000000000000000000000000d3c21bcecceda1000000",
          "blockHash": "0x08f4a5f9d310f80cad609844dc93ca7b4c6ece80321469086ad33e44dbd1349a",
          "blockNumber": "0x12c6cb8",
          "transactionHash": "0x33e6101b3fbee3474f3cba1e77a96a7de40cf0e8c9e92dec9a5ed4de145703fb",
          "transactionIndex": "0x1e",
          "logIndex": "0x5a",
          "removed": false
        },
        {
          "address": "0x0000206329b97DB379d5E1Bf586BbDB969C63274",
          "topics": [
            "0x8c5be1e5ebec7d5bd14f71427d1e84f3dd0314c0f7b2291e5b200ac8c7c3b925",
            "0x000000000000000000000000a9ddd91249dfdd450e81e1c56ab60e1a62651701",
            "0x000000000000000000000000bbbbbbbbbb9cc5e90e3b3af64bdaf62c37eeffcb"
          ],
          "data": "0x0000000000000000000000000000000000000000000000000000000000000000",
          "blockHash": "0x08f4a5f9d310f80cad609844dc93ca7b4c6ece80321469086ad33e44dbd1349a",
          "blockNumber": "0x12c6cb8",
          "transactionHash": "0x33e6101b3fbee3474f3cba1e77a96a7de40cf0e8c9e92dec9a5ed4de145703fb",
          "transactionIndex": "0x1e",
          "logIndex": "0x5b",
          "removed": false
        },
        {
          "address": "0x0000206329b97DB379d5E1Bf586BbDB969C63274",
          "topics": [
            "0xddf252ad1be2c89b69c2b068fc378daa952ba7f163c4a11628f55a4df523b3ef",
            "0x000000000000000000000000a9ddd91249dfdd450e81e1c56ab60e1a62651701",
            "0x000000000000000000000000bbbbbbbbbb9cc5e90e3b3af64bdaf62c37eeffcb"
          ],
          "data": "0x0000000000000000000000000000000000000000000000000de0b6b3a7640000",
          "blockHash": "0x08f4a5f9d310f80cad609844dc93ca7b4c6ece80321469086ad33e44dbd1349a",
          "blockNumber": "0x12c6cb8",
          "transactionHash": "0x33e6101b3fbee3474f3cba1e77a96a7de40cf0e8c9e92dec9a5ed4de145703fb",
          "transactionIndex": "0x1e",
          "logIndex": "0x5c",
          "removed": false
        }
      ],
      "status": "0x1",
      "logsBloom": "0x00000000000000000000000000000080000000000000000000000000000000000000400000000000000000000000000000000000000000000000000020a44000000000000010000000000008800004000020000800200000000000080000000000000000000000000000000000000000000000000000000000000010000000000000000000000008000000000000000000000000000000000000000000000000820000000000000000000000000000000000000000000000800000080000000020000002000000000001080000000010000000004000000000000000000000400010000001000000000000200001000000000000000000000000000000004000",
      "type": "0x2",
      "effectiveGasPrice": "0x2bc7545be"
    },
    {
      "transactionHash": "0x345560d9a84e8b18386acbfc9f01924a5d528c419fc3e48a010e33944f36c52e",
      "transactionIndex": "0x1d",
      "blockHash": "0xb74a83bd6a1d72d5b4acdb7b76bf8ec489a0d9e80d24f1588daafdc0a402e57c",
      "blockNumber": "0x12c6cb9",
      "from": "0xA9DdD91249DFdd450E81E1c56Ab60E1A62651701",
      "to": "0x95EeF579155cd2C5510F312c8fA39208c3Be01a8",
      "cumulativeGasUsed": "0x3177a3",
      "gasUsed": "0xb3d4",
      "contractAddress": null,
      "logs": [
        {
          "address": "0x95EeF579155cd2C5510F312c8fA39208c3Be01a8",
          "topics": [
            "0x8c5be1e5ebec7d5bd14f71427d1e84f3dd0314c0f7b2291e5b200ac8c7c3b925",
            "0x000000000000000000000000a9ddd91249dfdd450e81e1c56ab60e1a62651701",
            "0x000000000000000000000000bbbbbbbbbb9cc5e90e3b3af64bdaf62c37eeffcb"
          ],
          "data": "0x000000000000000000000000000000000000000000000000a25ec002c0120000",
          "blockHash": "0xb74a83bd6a1d72d5b4acdb7b76bf8ec489a0d9e80d24f1588daafdc0a402e57c",
          "blockNumber": "0x12c6cb9",
          "transactionHash": "0x345560d9a84e8b18386acbfc9f01924a5d528c419fc3e48a010e33944f36c52e",
          "transactionIndex": "0x1d",
          "logIndex": "0x5e",
          "removed": false
        }
      ],
      "status": "0x1",
      "logsBloom": "0x00000000000000000000000000000080000000000000000000000000000001000000000000000000000000000000000000000000000000000000000000200000000000000000000000000000000000000000000000000000000000008000000000000000000000000000000000000000000000000000000000000000000000000000000000000000000000000000000000000000000000000000000000000000820000000000000000000000000000000000000000000000800000080000000800000000000000000000000000000000000000000000000000000000000000000010000001000000000000200000000000000000000000000000000000000000",
      "type": "0x2",
      "effectiveGasPrice": "0x2c79e8979"
    },
    {
      "transactionHash": "0xab8ab2391a1d163fe62c2de680810ea8facf3b5c5e49af0755863a20cfa91754",
      "transactionIndex": "0x16",
      "blockHash": "0xdda45d23047331092471baed272eed82cc9a621b5de08826d3940b74876c606f",
      "blockNumber": "0x12c6cba",
      "from": "0xA9DdD91249DFdd450E81E1c56Ab60E1A62651701",
      "to": "0xBBBBBbbBBb9cC5e90e3b3Af64bdAF62C37EEFFCb",
      "cumulativeGasUsed": "0x314351",
      "gasUsed": "0x15114",
      "contractAddress": null,
      "logs": [
        {
          "address": "0xBBBBBbbBBb9cC5e90e3b3Af64bdAF62C37EEFFCb",
          "topics": [
            "0xa3b9472a1399e17e123f3c2e6586c23e504184d504de59cdaa2b375e880c6184",
            "0x5d09770b08517329e25b7dff8f32ad7098c8b6fd075660cdabec3e717ca8068f",
            "0x000000000000000000000000a9ddd91249dfdd450e81e1c56ab60e1a62651701",
            "0x000000000000000000000000a9ddd91249dfdd450e81e1c56ab60e1a62651701"
          ],
          "data": "0x000000000000000000000000000000000000000000000000a25ec002c0120000",
          "blockHash": "0xdda45d23047331092471baed272eed82cc9a621b5de08826d3940b74876c606f",
          "blockNumber": "0x12c6cba",
          "transactionHash": "0xab8ab2391a1d163fe62c2de680810ea8facf3b5c5e49af0755863a20cfa91754",
          "transactionIndex": "0x16",
          "logIndex": "0x6b",
          "removed": false
        },
        {
          "address": "0x95EeF579155cd2C5510F312c8fA39208c3Be01a8",
          "topics": [
            "0xddf252ad1be2c89b69c2b068fc378daa952ba7f163c4a11628f55a4df523b3ef",
            "0x000000000000000000000000a9ddd91249dfdd450e81e1c56ab60e1a62651701",
            "0x000000000000000000000000bbbbbbbbbb9cc5e90e3b3af64bdaf62c37eeffcb"
          ],
          "data": "0x000000000000000000000000000000000000000000000000a25ec002c0120000",
          "blockHash": "0xdda45d23047331092471baed272eed82cc9a621b5de08826d3940b74876c606f",
          "blockNumber": "0x12c6cba",
          "transactionHash": "0xab8ab2391a1d163fe62c2de680810ea8facf3b5c5e49af0755863a20cfa91754",
          "transactionIndex": "0x16",
          "logIndex": "0x6c",
          "removed": false
        }
      ],
      "status": "0x1",
      "logsBloom": "0x00000000000000000000000000000080000000000000000000000000000001000000000000000000000000000000000000000000000000000000000000000000000000000010000000000008000000000020000000000000000000008000000000000000000000000000000000000000000000000000000000000010000000000000008000000008000000000000000000000000000000000000000000000000800000000000000000000000000000000000000000000000800000080000000820000002000000000000080000000010000000000000000400000000000000000000000001000000000000200000200000000000000000000000000000000000",
      "type": "0x2",
      "effectiveGasPrice": "0x2cc1fb481"
    },
    {
      "transactionHash": "0xc25466f10aa9bb3fe961216201509d6a3aeb5ae094d3015a416225a910d950c8",
      "transactionIndex": "0x30",
      "blockHash": "0xda607d2036dd664c3242b9d709e53d3b15d287d3e2195e1e9db51d4c0bb4b4b8",
      "blockNumber": "0x12c6cbb",
      "from": "0xA9DdD91249DFdd450E81E1c56Ab60E1A62651701",
      "to": "0xBBBBBbbBBb9cC5e90e3b3Af64bdAF62C37EEFFCb",
      "cumulativeGasUsed": "0x41c3d6",
      "gasUsed": "0x405c0",
      "contractAddress": null,
      "logs": [
        {
          "address": "0x870aC11D48B15DB9a138Cf899d20F13F79Ba00BC",
          "topics": [
            "0x7120161a7b3d31251e01294ab351ef15a41b91659a36032e4641bb89b121e321",
            "0x5d09770b08517329e25b7dff8f32ad7098c8b6fd075660cdabec3e717ca8068f"
          ],
          "data": "0x0000000000000000000000000000000000000000000000000000000012e63544000000000000000000000000000000000000000000000000000000004b9847af",
          "blockHash": "0xda607d2036dd664c3242b9d709e53d3b15d287d3e2195e1e9db51d4c0bb4b4b8",
          "blockNumber": "0x12c6cbb",
          "transactionHash": "0xc25466f10aa9bb3fe961216201509d6a3aeb5ae094d3015a416225a910d950c8",
          "transactionIndex": "0x30",
          "logIndex": "0x80",
          "removed": false
        },
        {
          "address": "0xBBBBBbbBBb9cC5e90e3b3Af64bdAF62C37EEFFCb",
          "topics": [
            "0x9d9bd501d0657d7dfe415f779a620a62b78bc508ddc0891fbbd8b7ac0f8fce87",
            "0x5d09770b08517329e25b7dff8f32ad7098c8b6fd075660cdabec3e717ca8068f"
          ],
          "data": "0x0000000000000000000000000000000000000000000000000000000012e6354400000000000000000000000000000000000000000000000000000000000000000000000000000000000000000000000000000000000000000000000000000000",
          "blockHash": "0xda607d2036dd664c3242b9d709e53d3b15d287d3e2195e1e9db51d4c0bb4b4b8",
          "blockNumber": "0x12c6cbb",
          "transactionHash": "0xc25466f10aa9bb3fe961216201509d6a3aeb5ae094d3015a416225a910d950c8",
          "transactionIndex": "0x30",
          "logIndex": "0x81",
          "removed": false
        },
        {
          "address": "0xBBBBBbbBBb9cC5e90e3b3Af64bdAF62C37EEFFCb",
          "topics": [
            "0x570954540bed6b1304a87dfe815a5eda4a648f7097a16240dcd85c9b5fd42a43",
            "0x5d09770b08517329e25b7dff8f32ad7098c8b6fd075660cdabec3e717ca8068f",
            "0x000000000000000000000000a9ddd91249dfdd450e81e1c56ab60e1a62651701",
            "0x000000000000000000000000a9ddd91249dfdd450e81e1c56ab60e1a62651701"
          ],
          "data": "0x000000000000000000000000a9ddd91249dfdd450e81e1c56ab60e1a626517010000000000000000000000000000000000000000000000000de0b6b3a764000000000000000000000000000000000000000000000000d3c21bcecceda1000000",
          "blockHash": "0xda607d2036dd664c3242b9d709e53d3b15d287d3e2195e1e9db51d4c0bb4b4b8",
          "blockNumber": "0x12c6cbb",
          "transactionHash": "0xc25466f10aa9bb3fe961216201509d6a3aeb5ae094d3015a416225a910d950c8",
          "transactionIndex": "0x30",
          "logIndex": "0x82",
          "removed": false
        },
        {
          "address": "0x0000206329b97DB379d5E1Bf586BbDB969C63274",
          "topics": [
            "0xddf252ad1be2c89b69c2b068fc378daa952ba7f163c4a11628f55a4df523b3ef",
            "0x000000000000000000000000bbbbbbbbbb9cc5e90e3b3af64bdaf62c37eeffcb",
            "0x000000000000000000000000a9ddd91249dfdd450e81e1c56ab60e1a62651701"
          ],
          "data": "0x0000000000000000000000000000000000000000000000000de0b6b3a7640000",
          "blockHash": "0xda607d2036dd664c3242b9d709e53d3b15d287d3e2195e1e9db51d4c0bb4b4b8",
          "blockNumber": "0x12c6cbb",
          "transactionHash": "0xc25466f10aa9bb3fe961216201509d6a3aeb5ae094d3015a416225a910d950c8",
          "transactionIndex": "0x30",
          "logIndex": "0x83",
          "removed": false
        }
      ],
      "status": "0x1",
      "logsBloom": "0x00000000000000000002000000000080000000000000000000000000000000000000400000000000000000000000000000000000000000000000000020844000000000000010000000000008000004000020000000200000000000080000000000000000000000000000000000000000000000000000000000000010000000000000000000000008000000000000000000000000000000000000000000000000800000000000000000000000000000000000000000000000800000080000000020000002000000000001080000000010000000004000000000000000000000000000004001000008000000200001000000000000000000000000000000004000",
      "type": "0x2",
      "effectiveGasPrice": "0x2d0f9a345"
    }
  ],
  "libraries": [],
  "pending": [],
  "returns": {},
  "timestamp": 1713519438,
  "chain": 1,
  "multi": false,
  "commit": "d71af18"
}