{
  "transactions": [
    {
      "hash": "0xbfe728d654f9db672b75b3ba58553940cd57d2aeab94a10f08500ef1ca4b9291",
      "transactionType": "CALL",
      "contractName": null,
      "contractAddress": "0x0000206329b97DB379d5E1Bf586BbDB969C63274",
      "function": "approve(address,uint256)",
      "arguments": [
        "0xBBBBBbbBBb9cC5e90e3b3Af64bdAF62C37EEFFCb",
        "10000000000000000000"
      ],
      "transaction": {
        "type": "0x02",
        "from": "0xa9ddd91249dfdd450e81e1c56ab60e1a62651701",
        "to": "0x0000206329b97db379d5e1bf586bbdb969c63274",
        "gas": "0xc3d2",
        "value": "0x0",
        "data": "0x095ea7b3000000000000000000000000bbbbbbbbbb9cc5e90e3b3af64bdaf62c37eeffcb0000000000000000000000000000000000000000000000008ac7230489e80000",
        "nonce": "0xa9",
        "accessList": []
      },
      "additionalContracts": [],
      "isFixedGasLimit": false
    },
    {
      "hash": "0x954b447ef0a80515722acf994c94e25b6d77eb592ba5aa32e705b0b9a0266add",
      "transactionType": "CALL",
      "contractName": null,
      "contractAddress": "0x3A7bB36Ee3f3eE32A60e9f2b33c1e5f2E83ad766",
      "function": null,
      "arguments": null,
      "transaction": {
        "type": "0x02",
        "from": "0xa9ddd91249dfdd450e81e1c56ab60e1a62651701",
        "to": "0x3a7bb36ee3f3ee32a60e9f2b33c1e5f2e83ad766",
        "gas": "0xd0259",
        "value": "0x0",
        "data": "0xb32cddf400000000000000000000000000000000000000000000000000000000000000000000000000000000000000000000000000000000000000000000000000000001000000000000000000000000c9dfd5c18f12a3ba6293001700810602efe0c45b000000000000000000000000ddb6f90ffb4d3257dd666b69178e5b3c5bf411360000000000000000000000000000000000000000000000000000000000000012000000000000000000000000000000000000000000000000000000000000000000000000000000000000000000000000000000000000000000000000000000010000000000000000000000000000000000000000000000000000000000000000000000000000000000000000000000000000000000000000000000000000000000000000000000000000000000000000000000000000000000000000000000120000000000000000000000000000000000000000000000000000000000000000",
        "nonce": "0xaa",
        "accessList": []
      },
      "additionalContracts": [
        {
          "transactionType": "CREATE2",
          "address": "0x5441731eED05A8208e795086a5dF41416DD34104",
          "initCode": "0x6101a08060405234620002fa578062000f1e803803809162000022828562000331565b833961014092839181010312620002fa576200003e8162000355565b91602082015190620000536040840162000355565b90620000626060850162000355565b926080850151956200007760a0870162000355565b9060c0870151956200008c60e0890162000355565b95610100996200009e8b8b0162000355565b6101209a8b0151956001600160a01b0386811615801590620002ef575b620000d190620000ca6200036a565b90620003bf565b811615801590620002e4575b620000ec90620000ca6200036a565b8715956200015a6040516200010181620002ff565b601f8152620001397f7661756c7420636f6e76657273696f6e2073616d706c65206973207a65726f00918260208201528a15620003bf565b604051906200014882620002ff565b601f825260208201528d1515620003bf565b6080528760a05260c0528960e052828c52838b5288885261016098818a52602496870190818811620002cf57620001bd620001ca94620001c4620001bd95620001b6620001bd620001d19b9a97620001b6620001ca986200045b565b9062000429565b916200045b565b6200044d565b906200044d565b604d8111620002ba57600a0a868102968188041490151715620002a5576200029157506101809304835260405193610a269586620004f8873960805186818161014b0152610304015260a0518681816102e301526105b9015260c0518681816103ac0152610560015260e05186818161038b01526104f301525185818160d9015261032d0152518481816101b9015261035c0152518381816103d5015261049a01525182818161027f01526103fe01525181818161021201526104250152f35b634e487b7160e01b60009081526012600452fd5b50634e487b7160e01b60009081526011600452fd5b82634e487b7160e01b60005260116004526000fd5b87634e487b7160e01b60005260116004526000fd5b5060018b14620000dd565b5060018914620000bb565b600080fd5b604081019081106001600160401b038211176200031b57604052565b634e487b7160e01b600052604160045260246000fd5b601f909101601f19168101906001600160401b038211908210176200031b57604052565b51906001600160a01b0382168203620002fa57565b60405190606082016001600160401b038111838210176200031b5760405260228252616e6560f01b6040837f7661756c7420636f6e76657273696f6e2073616d706c65206973206e6f74206f60208201520152565b15620003c85750565b6040519062461bcd60e51b82528160208060048301528251908160248401526000935b8285106200040f575050604492506000838284010152601f80199101168101030190fd5b8481018201518686016044015293810193859350620003eb565b919082018092116200043757565b634e487b7160e01b600052601160045260246000fd5b919082039182116200043757565b6001600160a01b03168015620004f15760206004916040519283809263313ce56760e01b82525afa908115620004e5576000916200049b575b5060ff1690565b6020813d8211620004dc575b81620004b66020938362000331565b81010312620004d857519060ff82168203620004d5575060ff62000494565b80fd5b5080fd5b3d9150620004a7565b6040513d6000823e3d90fd5b5060009056fe60806040818152600436101561001457600080fd5b600091823560e01c908163054f7ac014610584575080632e6f20a614610516578063461739d2146104be57806356095e1114610450578063a035b1fe146102a3578063acfbd39e14610235578063ce4b5bbe146101dd578063dc53858c1461016f578063eaa2d7b4146101015763f50a47181461009057600080fd5b346100fd57817ffffffffffffffffffffffffffffffffffffffffffffffffffffffffffffffffc3601126100fd576020905173ffffffffffffffffffffffffffffffffffffffff7f0000000000000000000000000000000000000000000000000000000000000000168152f35b5080fd5b50346100fd57817ffffffffffffffffffffffffffffffffffffffffffffffffffffffffffffffffc3601126100fd576020905173ffffffffffffffffffffffffffffffffffffffff7f0000000000000000000000000000000000000000000000000000000000000000168152f35b50346100fd57817ffffffffffffffffffffffffffffffffffffffffffffffffffffffffffffffffc3601126100fd576020905173ffffffffffffffffffffffffffffffffffffffff7f0000000000000000000000000000000000000000000000000000000000000000168152f35b50346100fd57817ffffffffffffffffffffffffffffffffffffffffffffffffffffffffffffffffc3601126100fd57602090517f00000000000000000000000000000000000000000000000000000000000000008152f35b50346100fd57817ffffffffffffffffffffffffffffffffffffffffffffffffffffffffffffffffc3601126100fd576020905173ffffffffffffffffffffffffffffffffffffffff7f0000000000000000000000000000000000000000000000000000000000000000168152f35b50346100fd57817ffffffffffffffffffffffffffffffffffffffffffffffffffffffffffffffffc3601126100fd576020906104496103806103576103287f00000000000000000000000000000000000000000000000000000000000000007f000000000000000000000000000000000000000000000000000000000000000061094a565b6103517f00000000000000000000000000000000000000000000000000000000000000006107a5565b906105dc565b6103517f00000000000000000000000000000000000000000000000000000000000000006107a5565b6104226103f96103d07f00000000000000000000000000000000000000000000000000000000000000007f000000000000000000000000000000000000000000000000000000000000000061094a565b6103517f00000000000000000000000000000000000000000000000000000000000000006107a5565b6103517f00000000000000000000000000000000000000000000000000000000000000006107a5565b907f000000000000000000000000000000000000000000000000000000000000000061061e565b9051908152f35b50346100fd57817ffffffffffffffffffffffffffffffffffffffffffffffffffffffffffffffffc3601126100fd576020905173ffffffffffffffffffffffffffffffffffffffff7f0000000000000000000000000000000000000000000000000000000000000000168152f35b50346100fd57817ffffffffffffffffffffffffffffffffffffffffffffffffffffffffffffffffc3601126100fd57602090517f00000000000000000000000000000000000000000000000000000000000000008152f35b50346100fd57817ffffffffffffffffffffffffffffffffffffffffffffffffffffffffffffffffc3601126100fd576020905173ffffffffffffffffffffffffffffffffffffffff7f0000000000000000000000000000000000000000000000000000000000000000168152f35b8390346100fd57817ffffffffffffffffffffffffffffffffffffffffffffffffffffffffffffffffc3601126100fd576020907f00000000000000000000000000000000000000000000000000000000000000008152f35b818102929181159184041417156105ef57565b7f4e487b7100000000000000000000000000000000000000000000000000000000600052601160045260246000fd5b9091828202917fffffffffffffffffffffffffffffffffffffffffffffffffffffffffffffffff848209938380861095039480860395146106dc57848311156106b25782910981600003821680920460028082600302188083028203028083028203028083028203028083028203028083028203028092029003029360018380600003040190848311900302920304170290565b60046040517f227bc153000000000000000000000000000000000000000000000000000000008152fd5b5050809250156106ea570490565b7f4e487b7100000000000000000000000000000000000000000000000000000000600052601260045260246000fd5b90601f7fffffffffffffffffffffffffffffffffffffffffffffffffffffffffffffffe0910116810190811067ffffffffffffffff82111761075a57604052565b7f4e487b7100000000000000000000000000000000000000000000000000000000600052604160045260246000fd5b519069ffffffffffffffffffff821682036107a057565b600080fd5b73ffffffffffffffffffffffffffffffffffffffff1680156109445760049060a06040918251938480927ffeaf968c0000000000000000000000000000000000000000000000000000000082525afa918215610939576000926108e8575b50805181810181811067ffffffffffffffff82111761075a578252600f81526020917f6e6567617469766520616e73776572000000000000000000000000000000000083830152600084126108585750505090565b5180927f08c379a000000000000000000000000000000000000000000000000000000000825280600483015282519283602484015260005b8481106108d1575050507fffffffffffffffffffffffffffffffffffffffffffffffffffffffffffffffe0601f836000604480968601015201168101030190fd5b818101830151868201604401528593508201610890565b909160a0823d8211610931575b8161090260a09383610719565b8101031261092e575061091481610789565b50610926608060208301519201610789565b509038610803565b80fd5b3d91506108f5565b50513d6000823e3d90fd5b50600190565b73ffffffffffffffffffffffffffffffffffffffff169081156109e9576020906024604051809481937f07a2d13a00000000000000000000000000000000000000000000000000000000835260048301525afa9081156109dd576000916109af575090565b906020823d82116109d5575b816109c860209383610719565b8101031261092e57505190565b3d91506109bb565b6040513d6000823e3d90fd5b505060019056fea2646970667358221220de25ff8dd5708a691db44b0da1e6e734e7659c3f9a1801595bc1fa7bf902c00564736f6c6343000815003300000000000000000000000000000000000000000000000000000000000000000000000000000000000000000000000000000000000000000000000000000001000000000000000000000000c9dfd5c18f12a3ba6293001700810602efe0c45b000000000000000000000000ddb6f90ffb4d3257dd666b69178e5b3c5bf41136000000000000000000000000000000000000000000000000000000000000001200000000000000000000000000000000000000000000000000000000000000000000000000000000000000000000000000000000000000000000000000000001000000000000000000000000000000000000000000000000000000000000000000000000000000000000000000000000000000000000000000000000000000000000000000000000000000000000000000000000000000000000000000000012"
        }
      ],
      "isFixedGasLimit": false
    },
    {
      "hash": "0xc19eaa3931e7fe81773bf91e1cdb8d36ef21860fd0e9aee0c4b3fc08200255c6",
      "transactionType": "CALL",
      "contractName": null,
      "contractAddress": "0xBBBBBbbBBb9cC5e90e3b3Af64bdAF62C37EEFFCb",
      "function": null,
      "arguments": null,
      "transaction": {
        "type": "0x02",
        "from": "0xa9ddd91249dfdd450e81e1c56ab60e1a62651701",
        "to": "0xbbbbbbbbbb9cc5e90e3b3af64bdaf62c37eeffcb",
        "gas": "0x47336",
        "value": "0x0",
        "data": "0x8c1358a20000000000000000000000000000206329b97db379d5e1bf586bbdb969c63274000000000000000000000000c69ad9bab1dee23f4605a82b3354f8e40d1e59660000000000000000000000005441731eed05a8208e795086a5df41416dd34104000000000000000000000000870ac11d48b15db9a138cf899d20f13f79ba00bc0000000000000000000000000000000000000000000000000bef55718ad60000",
        "nonce": "0xab",
        "accessList": []
      },
      "additionalContracts": [],
      "isFixedGasLimit": false
    },
    {
      "hash": "0x93f78dc610a61d86a80762eba135d10e239aeb78e6702d8bee3bd3d216f63673",
      "transactionType": "CALL",
      "contractName": null,
      "contractAddress": "0xBBBBBbbBBb9cC5e90e3b3Af64bdAF62C37EEFFCb",
      "function": null,
      "arguments": null,
      "transaction": {
        "type": "0x02",
        "from": "0xa9ddd91249dfdd450e81e1c56ab60e1a62651701",
        "to": "0xbbbbbbbbbb9cc5e90e3b3af64bdaf62c37eeffcb",
        "gas": "0x244f7",
        "value": "0x0",
        "data": "0xa99aad890000000000000000000000000000206329b97db379d5e1bf586bbdb969c63274000000000000000000000000c69ad9bab1dee23f4605a82b3354f8e40d1e59660000000000000000000000005441731eed05a8208e795086a5df41416dd34104000000000000000000000000870ac11d48b15db9a138cf899d20f13f79ba00bc0000000000000000000000000000000000000000000000000bef55718ad600000000000000000000000000000000000000000000000000000de0b6b3a76400000000000000000000000000000000000000000000000000000000000000000000000000000000000000000000a9ddd91249dfdd450e81e1c56ab60e1a6265170100000000000000000000000000000000000000000000000000000000000001200000000000000000000000000000000000000000000000000000000000000000",
        "nonce": "0xac",
        "accessList": []
      },
      "additionalContracts": [],
      "isFixedGasLimit": false
    },
    {
      "hash": "0x060ba92f36ee3660c7c51975ce59ebf0bce6339a1e4ba00fa1e16ba24013b961",
      "transactionType": "CALL",
      "contractName": null,
      "contractAddress": "0xc69Ad9baB1dEE23F4605a82b3354F8E40d1E5966",
      "function": "approve(address,uint256)",
      "arguments": [
        "0xBBBBBbbBBb9cC5e90e3b3Af64bdAF62C37EEFFCb",
        "10000000000000000"
      ],
      "transaction": {
        "type": "0x02",
        "from": "0xa9ddd91249dfdd450e81e1c56ab60e1a62651701",
        "to": "0xc69ad9bab1dee23f4605a82b3354f8e40d1e5966",
        "gas": "0xf814",
        "value": "0x0",
        "data": "0x095ea7b3000000000000000000000000bbbbbbbbbb9cc5e90e3b3af64bdaf62c37eeffcb000000000000000000000000000000000000000000000000002386f26fc10000",
        "nonce": "0xad",
        "accessList": []
      },
      "additionalContracts": [],
      "isFixedGasLimit": false
    },
    {
      "hash": "0x75d6729a78b51df8c9edc6b229ce35d98f7b33173e4b10e68ddb7c31cd3fcab3",
      "transactionType": "CALL",
      "contractName": null,
      "contractAddress": "0xBBBBBbbBBb9cC5e90e3b3Af64bdAF62C37EEFFCb",
      "function": null,
      "arguments": null,
      "transaction": {
        "type": "0x02",
        "from": "0xa9ddd91249dfdd450e81e1c56ab60e1a62651701",
        "to": "0xbbbbbbbbbb9cc5e90e3b3af64bdaf62c37eeffcb",
        "gas": "0x20525",
        "value": "0x0",
        "data": "0x238d65790000000000000000000000000000206329b97db379d5e1bf586bbdb969c63274000000000000000000000000c69ad9bab1dee23f4605a82b3354f8e40d1e59660000000000000000000000005441731eed05a8208e795086a5df41416dd34104000000000000000000000000870ac11d48b15db9a138cf899d20f13f79ba00bc0000000000000000000000000000000000000000000000000bef55718ad60000000000000000000000000000000000000000000000000000002386f26fc10000000000000000000000000000a9ddd91249dfdd450e81e1c56ab60e1a6265170100000000000000000000000000000000000000000000000000000000000001000000000000000000000000000000000000000000000000000000000000000000",
        "nonce": "0xae",
        "accessList": []
      },
      "additionalContracts": [],
      "isFixedGasLimit": false
    },
    {
      "hash": "0x6a7ca7b97fc278a7b5a72bbd7fcf331418adcf85194285bb2f013bddf6718bb2",
      "transactionType": "CALL",
      "contractName": null,
      "contractAddress": "0xBBBBBbbBBb9cC5e90e3b3Af64bdAF62C37EEFFCb",
      "function": null,
      "arguments": null,
      "transaction": {
        "type": "0x02",
        "from": "0xa9ddd91249dfdd450e81e1c56ab60e1a62651701",
        "to": "0xbbbbbbbbbb9cc5e90e3b3af64bdaf62c37eeffcb",
        "gas": "0x4fb3d",
        "value": "0x0",
        "data": "0x50d8cd4b0000000000000000000000000000206329b97db379d5e1bf586bbdb969c63274000000000000000000000000c69ad9bab1dee23f4605a82b3354f8e40d1e59660000000000000000000000005441731eed05a8208e795086a5df41416dd34104000000000000000000000000870ac11d48b15db9a138cf899d20f13f79ba00bc0000000000000000000000000000000000000000000000000bef55718ad600000000000000000000000000000000000000000000000000000de0b6b3a76400000000000000000000000000000000000000000000000000000000000000000000000000000000000000000000a9ddd91249dfdd450e81e1c56ab60e1a62651701000000000000000000000000a9ddd91249dfdd450e81e1c56ab60e1a62651701",
        "nonce": "0xaf",
        "accessList": []
      },
      "additionalContracts": [],
      "isFixedGasLimit": false
    },
    {
      "hash": "0xbf0bc6db73bdf900d90be8b3e8c76bb5274d68bf7e5e49ae612279ce3069b435",
      "transactionType": "CALL",
      "contractName": null,
      "contractAddress": "0xBBBBBbbBBb9cC5e90e3b3Af64bdAF62C37EEFFCb",
      "function": null,
      "arguments": null,
      "transaction": {
        "type": "0x02",
        "from": "0xa9ddd91249dfdd450e81e1c56ab60e1a62651701",
        "to": "0xbbbbbbbbbb9cc5e90e3b3af64bdaf62c37eeffcb",
        "gas": "0x47336",
        "value": "0x0",
        "data": "0x8c1358a20000000000000000000000000000206329b97db379d5e1bf586bbdb969c632740000000000000000000000002371e134e3455e0593363cbf89d3b6cf53740618000000000000000000000000e4ccaa1849e9058f77f555c0fcca4925efd37d8e000000000000000000000000870ac11d48b15db9a138cf899d20f13f79ba00bc0000000000000000000000000000000000000000000000000aaf96eb9d0d0000",
        "nonce": "0xb0",
        "accessList": []
      },
      "additionalContracts": [],
      "isFixedGasLimit": false
    },
    {
      "hash": "0x49f0eb9610650c8fc0aaaecf0ac2ae6fc8eeeff36c6c750c1484cbb66321d133",
      "transactionType": "CALL",
      "contractName": null,
      "contractAddress": "0xBBBBBbbBBb9cC5e90e3b3Af64bdAF62C37EEFFCb",
      "function": null,
      "arguments": null,
      "transaction": {
        "type": "0x02",
        "from": "0xa9ddd91249dfdd450e81e1c56ab60e1a62651701",
        "to": "0xbbbbbbbbbb9cc5e90e3b3af64bdaf62c37eeffcb",
        "gas": "0x244f7",
        "value": "0x0",
        "data": "0xa99aad890000000000000000000000000000206329b97db379d5e1bf586bbdb969c632740000000000000000000000002371e134e3455e0593363cbf89d3b6cf53740618000000000000000000000000e4ccaa1849e9058f77f555c0fcca4925efd37d8e000000000000000000000000870ac11d48b15db9a138cf899d20f13f79ba00bc0000000000000000000000000000000000000000000000000aaf96eb9d0d00000000000000000000000000000000000000000000000000000de0b6b3a76400000000000000000000000000000000000000000000000000000000000000000000000000000000000000000000a9ddd91249dfdd450e81e1c56ab60e1a6265170100000000000000000000000000000000000000000000000000000000000001200000000000000000000000000000000000000000000000000000000000000000",
        "nonce": "0xb1",
        "accessList": []
      },
      "additionalContracts": [],
      "isFixedGasLimit": false
    },
    {
      "hash": "0x0bf5e78c7f5293da05aa6669aeb742aac10ad499d29a9971e0ba4df15e257d5d",
      "transactionType": "CALL",
      "contractName": null,
      "contractAddress": "0x2371e134e3455e0593363cBF89d3b6cf53740618",
      "function": "approve(address,uint256)",
      "arguments": [
        "0xBBBBBbbBBb9cC5e90e3b3Af64bdAF62C37EEFFCb",
        "10000000000000000"
      ],
      "transaction": {
        "type": "0x02",
        "from": "0xa9ddd91249dfdd450e81e1c56ab60e1a62651701",
        "to": "0x2371e134e3455e0593363cbf89d3b6cf53740618",
        "gas": "0xf852",
        "value": "0x0",
        "data": "0x095ea7b3000000000000000000000000bbbbbbbbbb9cc5e90e3b3af64bdaf62c37eeffcb000000000000000000000000000000000000000000000000002386f26fc10000",
        "nonce": "0xb2",
        "accessList": []
      },
      "additionalContracts": [],
      "isFixedGasLimit": false
    },
    {
      "hash": "0x4d0622fdb5770fd227cf370c5035138f22f57f5f7c04e6457104ffc4a0a18fdc",
      "transactionType": "CALL",
      "contractName": null,
      "contractAddress": "0xBBBBBbbBBb9cC5e90e3b3Af64bdAF62C37EEFFCb",
      "function": null,
      "arguments": null,
      "transaction": {
        "type": "0x02",
        "from": "0xa9ddd91249dfdd450e81e1c56ab60e1a62651701",
        "to": "0xbbbbbbbbbb9cc5e90e3b3af64bdaf62c37eeffcb",
        "gas": "0x1d174",
        "value": "0x0",
        "data": "0x238d65790000000000000000000000000000206329b97db379d5e1bf586bbdb969c632740000000000000000000000002371e134e3455e0593363cbf89d3b6cf53740618000000000000000000000000e4ccaa1849e9058f77f555c0fcca4925efd37d8e000000000000000000000000870ac11d48b15db9a138cf899d20f13f79ba00bc0000000000000000000000000000000000000000000000000aaf96eb9d0d0000000000000000000000000000000000000000000000000000002386f26fc10000000000000000000000000000a9ddd91249dfdd450e81e1c56ab60e1a6265170100000000000000000000000000000000000000000000000000000000000001000000000000000000000000000000000000000000000000000000000000000000",
        "nonce": "0xb3",
        "accessList": []
      },
      "additionalContracts": [],
      "isFixedGasLimit": false
    },
    {
      "hash": "0xe84bbf9b2eb1272e708023688803a8fdf5351f1fc195ac85ff880550162610a6",
      "transactionType": "CALL",
      "contractName": null,
      "contractAddress": "0xBBBBBbbBBb9cC5e90e3b3Af64bdAF62C37EEFFCb",
      "function": null,
      "arguments": null,
      "transaction": {
        "type": "0x02",
        "from": "0xa9ddd91249dfdd450e81e1c56ab60e1a62651701",
        "to": "0xbbbbbbbbbb9cc5e90e3b3af64bdaf62c37eeffcb",
        "gas": "0x68f11",
        "value": "0x0",
        "data": "0x50d8cd4b0000000000000000000000000000206329b97db379d5e1bf586bbdb969c632740000000000000000000000002371e134e3455e0593363cbf89d3b6cf53740618000000000000000000000000e4ccaa1849e9058f77f555c0fcca4925efd37d8e000000000000000000000000870ac11d48b15db9a138cf899d20f13f79ba00bc0000000000000000000000000000000000000000000000000aaf96eb9d0d00000000000000000000000000000000000000000000000000000de0b6b3a76400000000000000000000000000000000000000000000000000000000000000000000000000000000000000000000a9ddd91249dfdd450e81e1c56ab60e1a62651701000000000000000000000000a9ddd91249dfdd450e81e1c56ab60e1a62651701",
        "nonce": "0xb4",
        "accessList": []
      },
      "additionalContracts": [],
      "isFixedGasLimit": false
    },
    {
      "hash": "0xac5d30396bc036b9c44087a18019e8db99642cd5c438d38ff636302967dd9189",
      "transactionType": "CALL",
      "contractName": null,
      "contractAddress": "0x3A7bB36Ee3f3eE32A60e9f2b33c1e5f2E83ad766",
      "function": null,
      "arguments": null,
      "transaction": {
        "type": "0x02",
        "from": "0xa9ddd91249dfdd450e81e1c56ab60e1a62651701",
        "to": "0x3a7bb36ee3f3ee32a60e9f2b33c1e5f2e83ad766",
        "gas": "0xdaa2c",
        "value": "0x0",
        "data": "0xb32cddf400000000000000000000000078fc2c2ed1a4cdb5402365934ae5648adad094d00000000000000000000000000000000000000000000000000de0b6b3a76400000000000000000000000000005f4ec3df9cbd43714fe2740f5e3616155c5b841900000000000000000000000000000000000000000000000000000000000000000000000000000000000000000000000000000000000000000000000000000012000000000000000000000000000000000000000000000000000000000000000000000000000000000000000000000000000000000000000000000000000000010000000000000000000000000000000000000000000000000000000000000000000000000000000000000000000000000000000000000000000000000000000000000000000000000000000000000000000000000000000000000000000000120000000000000000000000000000000000000000000000000000000000000000",
        "nonce": "0xb5",
        "accessList": []
      },
      "additionalContracts": [
        {
          "transactionType": "CREATE2",
          "address": "0x76052A2A28fDCB8124f4686C63C68355b142de3B",
          "initCode": "0x6101a08060405234620002fa578062000f1e803803809162000022828562000331565b833961014092839181010312620002fa576200003e8162000355565b91602082015190620000536040840162000355565b90620000626060850162000355565b926080850151956200007760a0870162000355565b9060c0870151956200008c60e0890162000355565b95610100996200009e8b8b0162000355565b6101209a8b0151956001600160a01b0386811615801590620002ef575b620000d190620000ca6200036a565b90620003bf565b811615801590620002e4575b620000ec90620000ca6200036a565b8715956200015a6040516200010181620002ff565b601f8152620001397f7661756c7420636f6e76657273696f6e2073616d706c65206973207a65726f00918260208201528a15620003bf565b604051906200014882620002ff565b601f825260208201528d1515620003bf565b6080528760a05260c0528960e052828c52838b5288885261016098818a52602496870190818811620002cf57620001bd620001ca94620001c4620001bd95620001b6620001bd620001d19b9a97620001b6620001ca986200045b565b9062000429565b916200045b565b6200044d565b906200044d565b604d8111620002ba57600a0a868102968188041490151715620002a5576200029157506101809304835260405193610a269586620004f8873960805186818161014b0152610304015260a0518681816102e301526105b9015260c0518681816103ac0152610560015260e05186818161038b01526104f301525185818160d9015261032d0152518481816101b9015261035c0152518381816103d5015261049a01525182818161027f01526103fe01525181818161021201526104250152f35b634e487b7160e01b60009081526012600452fd5b50634e487b7160e01b60009081526011600452fd5b82634e487b7160e01b60005260116004526000fd5b87634e487b7160e01b60005260116004526000fd5b5060018b14620000dd565b5060018914620000bb565b600080fd5b604081019081106001600160401b038211176200031b57604052565b634e487b7160e01b600052604160045260246000fd5b601f909101601f19168101906001600160401b038211908210176200031b57604052565b51906001600160a01b0382168203620002fa57565b60405190606082016001600160401b038111838210176200031b5760405260228252616e6560f01b6040837f7661756c7420636f6e76657273696f6e2073616d706c65206973206e6f74206f60208201520152565b15620003c85750565b6040519062461bcd60e51b82528160208060048301528251908160248401526000935b8285106200040f575050604492506000838284010152601f80199101168101030190fd5b8481018201518686016044015293810193859350620003eb565b919082018092116200043757565b634e487b7160e01b600052601160045260246000fd5b919082039182116200043757565b6001600160a01b03168015620004f15760206004916040519283809263313ce56760e01b82525afa908115620004e5576000916200049b575b5060ff1690565b6020813d8211620004dc575b81620004b66020938362000331565b81010312620004d857519060ff82168203620004d5575060ff62000494565b80fd5b5080fd5b3d9150620004a7565b6040513d6000823e3d90fd5b5060009056fe60806040818152600436101561001457600080fd5b600091823560e01c908163054f7ac014610584575080632e6f20a614610516578063461739d2146104be57806356095e1114610450578063a035b1fe146102a3578063acfbd39e14610235578063ce4b5bbe146101dd578063dc53858c1461016f578063eaa2d7b4146101015763f50a47181461009057600080fd5b346100fd57817ffffffffffffffffffffffffffffffffffffffffffffffffffffffffffffffffc3601126100fd576020905173ffffffffffffffffffffffffffffffffffffffff7f0000000000000000000000000000000000000000000000000000000000000000168152f35b5080fd5b50346100fd57817ffffffffffffffffffffffffffffffffffffffffffffffffffffffffffffffffc3601126100fd576020905173ffffffffffffffffffffffffffffffffffffffff7f0000000000000000000000000000000000000000000000000000000000000000168152f35b50346100fd57817ffffffffffffffffffffffffffffffffffffffffffffffffffffffffffffffffc3601126100fd576020905173ffffffffffffffffffffffffffffffffffffffff7f0000000000000000000000000000000000000000000000000000000000000000168152f35b50346100fd57817ffffffffffffffffffffffffffffffffffffffffffffffffffffffffffffffffc3601126100fd57602090517f00000000000000000000000000000000000000000000000000000000000000008152f35b50346100fd57817ffffffffffffffffffffffffffffffffffffffffffffffffffffffffffffffffc3601126100fd576020905173ffffffffffffffffffffffffffffffffffffffff7f0000000000000000000000000000000000000000000000000000000000000000168152f35b50346100fd57817ffffffffffffffffffffffffffffffffffffffffffffffffffffffffffffffffc3601126100fd576020906104496103806103576103287f00000000000000000000000000000000000000000000000000000000000000007f000000000000000000000000000000000000000000000000000000000000000061094a565b6103517f00000000000000000000000000000000000000000000000000000000000000006107a5565b906105dc565b6103517f00000000000000000000000000000000000000000000000000000000000000006107a5565b6104226103f96103d07f00000000000000000000000000000000000000000000000000000000000000007f000000000000000000000000000000000000000000000000000000000000000061094a565b6103517f00000000000000000000000000000000000000000000000000000000000000006107a5565b6103517f00000000000000000000000000000000000000000000000000000000000000006107a5565b907f000000000000000000000000000000000000000000000000000000000000000061061e565b9051908152f35b50346100fd57817ffffffffffffffffffffffffffffffffffffffffffffffffffffffffffffffffc3601126100fd576020905173ffffffffffffffffffffffffffffffffffffffff7f0000000000000000000000000000000000000000000000000000000000000000168152f35b50346100fd57817ffffffffffffffffffffffffffffffffffffffffffffffffffffffffffffffffc3601126100fd57602090517f00000000000000000000000000000000000000000000000000000000000000008152f35b50346100fd57817ffffffffffffffffffffffffffffffffffffffffffffffffffffffffffffffffc3601126100fd576020905173ffffffffffffffffffffffffffffffffffffffff7f0000000000000000000000000000000000000000000000000000000000000000168152f35b8390346100fd57817ffffffffffffffffffffffffffffffffffffffffffffffffffffffffffffffffc3601126100fd576020907f00000000000000000000000000000000000000000000000000000000000000008152f35b818102929181159184041417156105ef57565b7f4e487b7100000000000000000000000000000000000000000000000000000000600052601160045260246000fd5b9091828202917fffffffffffffffffffffffffffffffffffffffffffffffffffffffffffffffff848209938380861095039480860395146106dc57848311156106b25782910981600003821680920460028082600302188083028203028083028203028083028203028083028203028083028203028092029003029360018380600003040190848311900302920304170290565b60046040517f227bc153000000000000000000000000000000000000000000000000000000008152fd5b5050809250156106ea570490565b7f4e487b7100000000000000000000000000000000000000000000000000000000600052601260045260246000fd5b90601f7fffffffffffffffffffffffffffffffffffffffffffffffffffffffffffffffe0910116810190811067ffffffffffffffff82111761075a57604052565b7f4e487b7100000000000000000000000000000000000000000000000000000000600052604160045260246000fd5b519069ffffffffffffffffffff821682036107a057565b600080fd5b73ffffffffffffffffffffffffffffffffffffffff1680156109445760049060a06040918251938480927ffeaf968c0000000000000000000000000000000000000000000000000000000082525afa918215610939576000926108e8575b50805181810181811067ffffffffffffffff82111761075a578252600f81526020917f6e6567617469766520616e73776572000000000000000000000000000000000083830152600084126108585750505090565b5180927f08c379a000000000000000000000000000000000000000000000000000000000825280600483015282519283602484015260005b8481106108d1575050507fffffffffffffffffffffffffffffffffffffffffffffffffffffffffffffffe0601f836000604480968601015201168101030190fd5b818101830151868201604401528593508201610890565b909160a0823d8211610931575b8161090260a09383610719565b8101031261092e575061091481610789565b50610926608060208301519201610789565b509038610803565b80fd5b3d91506108f5565b50513d6000823e3d90fd5b50600190565b73ffffffffffffffffffffffffffffffffffffffff169081156109e9576020906024604051809481937f07a2d13a00000000000000000000000000000000000000000000000000000000835260048301525afa9081156109dd576000916109af575090565b906020823d82116109d5575b816109c860209383610719565b8101031261092e57505190565b3d91506109bb565b6040513d6000823e3d90fd5b505060019056fea2646970667358221220de25ff8dd5708a691db44b0da1e6e734e7659c3f9a1801595bc1fa7bf902c00564736f6c6343000815003300000000000000000000000078fc2c2ed1a4cdb5402365934ae5648adad094d00000000000000000000000000000000000000000000000000de0b6b3a76400000000000000000000000000005f4ec3df9cbd43714fe2740f5e3616155c5b84190000000000000000000000000000000000000000000000000000000000000000000000000000000000000000000000000000000000000000000000000000001200000000000000000000000000000000000000000000000000000000000000000000000000000000000000000000000000000000000000000000000000000001000000000000000000000000000000000000000000000000000000000000000000000000000000000000000000000000000000000000000000000000000000000000000000000000000000000000000000000000000000000000000000000012"
        }
      ],
      "isFixedGasLimit": false
    },
    {
      "hash": "0xf8f561ae4eecd6be79486b66f5b0929a3f6ccaffcf68640407ac8af574fce92e",
      "transactionType": "CALL",
      "contractName": null,
      "contractAddress": "0xBBBBBbbBBb9cC5e90e3b3Af64bdAF62C37EEFFCb",
      "function": null,
      "arguments": null,
      "transaction": {
        "type": "0x02",
        "from": "0xa9ddd91249dfdd450e81e1c56ab60e1a62651701",
        "to": "0xbbbbbbbbbb9cc5e90e3b3af64bdaf62c37eeffcb",
        "gas": "0x47336",
        "value": "0x0",
        "data": "0x8c1358a20000000000000000000000000000206329b97db379d5e1bf586bbdb969c6327400000000000000000000000078fc2c2ed1a4cdb5402365934ae5648adad094d000000000000000000000000076052a2a28fdcb8124f4686c63c68355b142de3b000000000000000000000000870ac11d48b15db9a138cf899d20f13f79ba00bc0000000000000000000000000000000000000000000000000bef55718ad60000",
        "nonce": "0xb6",
        "accessList": []
      },
      "additionalContracts": [],
      "isFixedGasLimit": false
    },
    {
      "hash": "0xb412d998ca9fb09ab698e7edbf19856ba7ca14e510e3b6097f3100fefc859226",
      "transactionType": "CALL",
      "contractName": null,
      "contractAddress": "0xBBBBBbbBBb9cC5e90e3b3Af64bdAF62C37EEFFCb",
      "function": null,
      "arguments": null,
      "transaction": {
        "type": "0x02",
        "from": "0xa9ddd91249dfdd450e81e1c56ab60e1a62651701",
        "to": "0xbbbbbbbbbb9cc5e90e3b3af64bdaf62c37eeffcb",
        "gas": "0x244f7",
        "value": "0x0",
        "data": "0xa99aad890000000000000000000000000000206329b97db379d5e1bf586bbdb969c6327400000000000000000000000078fc2c2ed1a4cdb5402365934ae5648adad094d000000000000000000000000076052a2a28fdcb8124f4686c63c68355b142de3b000000000000000000000000870ac11d48b15db9a138cf899d20f13f79ba00bc0000000000000000000000000000000000000000000000000bef55718ad600000000000000000000000000000000000000000000000000000de0b6b3a76400000000000000000000000000000000000000000000000000000000000000000000000000000000000000000000a9ddd91249dfdd450e81e1c56ab60e1a6265170100000000000000000000000000000000000000000000000000000000000001200000000000000000000000000000000000000000000000000000000000000000",
        "nonce": "0xb7",
        "accessList": []
      },
      "additionalContracts": [],
      "isFixedGasLimit": false
    },
    {
      "hash": "0x24729058f1e3dd6303d3e9a8c6b5ab99903c7eb96ba38064f20ef893e396b3de",
      "transactionType": "CALL",
      "contractName": null,
      "contractAddress": "0x78Fc2c2eD1A4cDb5402365934aE5648aDAd094d0",
      "function": "approve(address,uint256)",
      "arguments": [
        "0xBBBBBbbBBb9cC5e90e3b3Af64bdAF62C37EEFFCb",
        "10000000000000000"
      ],
      "transaction": {
        "type": "0x02",
        "from": "0xa9ddd91249dfdd450e81e1c56ab60e1a62651701",
        "to": "0x78fc2c2ed1a4cdb5402365934ae5648adad094d0",
        "gas": "0xf852",
        "value": "0x0",
        "data": "0x095ea7b3000000000000000000000000bbbbbbbbbb9cc5e90e3b3af64bdaf62c37eeffcb000000000000000000000000000000000000000000000000002386f26fc10000",
        "nonce": "0xb8",
        "accessList": []
      },
      "additionalContracts": [],
      "isFixedGasLimit": false
    },
    {
      "hash": "0xa89af387d8c447e7f1071eeb9fe4ede2c8a23998f9f422ab7b1be406262df783",
      "transactionType": "CALL",
      "contractName": null,
      "contractAddress": "0xBBBBBbbBBb9cC5e90e3b3Af64bdAF62C37EEFFCb",
      "function": null,
      "arguments": null,
      "transaction": {
        "type": "0x02",
        "from": "0xa9ddd91249dfdd450e81e1c56ab60e1a62651701",
        "to": "0xbbbbbbbbbb9cc5e90e3b3af64bdaf62c37eeffcb",
        "gas": "0x1d174",
        "value": "0x0",
        "data": "0x238d65790000000000000000000000000000206329b97db379d5e1bf586bbdb969c6327400000000000000000000000078fc2c2ed1a4cdb5402365934ae5648adad094d000000000000000000000000076052a2a28fdcb8124f4686c63c68355b142de3b000000000000000000000000870ac11d48b15db9a138cf899d20f13f79ba00bc0000000000000000000000000000000000000000000000000bef55718ad60000000000000000000000000000000000000000000000000000002386f26fc10000000000000000000000000000a9ddd91249dfdd450e81e1c56ab60e1a6265170100000000000000000000000000000000000000000000000000000000000001000000000000000000000000000000000000000000000000000000000000000000",
        "nonce": "0xb9",
        "accessList": []
      },
      "additionalContracts": [],
      "isFixedGasLimit": false
    },
    {
      "hash": "0x730f41b37bca3856243fab18159c736ee555e3713ca9523822d4c7e18ee1e95b",
      "transactionType": "CALL",
      "contractName": null,
      "contractAddress": "0xBBBBBbbBBb9cC5e90e3b3Af64bdAF62C37EEFFCb",
      "function": null,
      "arguments": null,
      "transaction": {
        "type": "0x02",
        "from": "0xa9ddd91249dfdd450e81e1c56ab60e1a62651701",
        "to": "0xbbbbbbbbbb9cc5e90e3b3af64bdaf62c37eeffcb",
        "gas": "0x6f90a",
        "value": "0x0",
        "data": "0x50d8cd4b0000000000000000000000000000206329b97db379d5e1bf586bbdb969c6327400000000000000000000000078fc2c2ed1a4cdb5402365934ae5648adad094d000000000000000000000000076052a2a28fdcb8124f4686c63c68355b142de3b000000000000000000000000870ac11d48b15db9a138cf899d20f13f79ba00bc0000000000000000000000000000000000000000000000000bef55718ad600000000000000000000000000000000000000000000000000000de0b6b3a76400000000000000000000000000000000000000000000000000000000000000000000000000000000000000000000a9ddd91249dfdd450e81e1c56ab60e1a62651701000000000000000000000000a9ddd91249dfdd450e81e1c56ab60e1a62651701",
        "nonce": "0xba",
        "accessList": []
      },
      "additionalContracts": [],
      "isFixedGasLimit": false
    }
  ],
  "receipts": [
    {
      "transactionHash": "0xbfe728d654f9db672b75b3ba58553940cd57d2aeab94a10f08500ef1ca4b9291",
      "transactionIndex": "0x0",
      "blockHash": "0x535b8abdbe643429b28c9cf39cd47de045925c3ebefd617f48444c4ac00bf9b4",
      "blockNumber": "0x12c6c13",
      "from": "0xA9DdD91249DFdd450E81E1c56Ab60E1A62651701",
      "to": "0x0000206329b97DB379d5E1Bf586BbDB969C63274",
      "cumulativeGasUsed": "0x8dc6",
      "gasUsed": "0x8dc6",
      "contractAddress": null,
      "logs": [
        {
          "address": "0x0000206329b97DB379d5E1Bf586BbDB969C63274",
          "topics": [
            "0x8c5be1e5ebec7d5bd14f71427d1e84f3dd0314c0f7b2291e5b200ac8c7c3b925",
            "0x000000000000000000000000a9ddd91249dfdd450e81e1c56ab60e1a62651701",
            "0x000000000000000000000000bbbbbbbbbb9cc5e90e3b3af64bdaf62c37eeffcb"
          ],
          "data": "0x0000000000000000000000000000000000000000000000008ac7230489e80000",
          "blockHash": "0x535b8abdbe643429b28c9cf39cd47de045925c3ebefd617f48444c4ac00bf9b4",
          "blockNumber": "0x12c6c13",
          "transactionHash": "0xbfe728d654f9db672b75b3ba58553940cd57d2aeab94a10f08500ef1ca4b9291",
          "transactionIndex": "0x0",
          "logIndex": "0x0",
          "removed": false
        }
      ],
      "status": "0x1",
      "logsBloom": "0x00000000000000000000000000000080000000000000000000000000000000000000000000000000000000000000000000000000000000000000000000200000000000000000000000000000000004000000000000000000000000000000000000000000000000000000000000000000000000000000000000000000000000000000000000000000000000000000000000000000000000000000000000000000820000000000000000000000000000000000000000000000800000080000000000000000000000000000000000000000000000004000000000000000000000000010000001000000000000200000000000000000000000000000000000004000",
      "type": "0x2",
      "effectiveGasPrice": "0x376a70202"
    },
    {
      "transactionHash": "0x954b447ef0a80515722acf994c94e25b6d77eb592ba5aa32e705b0b9a0266add",
      "transactionIndex": "0x0",
      "blockHash": "0x9822a0e072c0d8ec9d5560a9c027d1524ecc573d546d714a437e202e927403c9",
      "blockNumber": "0x12c6c14",
      "from": "0xA9DdD91249DFdd450E81E1c56Ab60E1A62651701",
      "to": "0x3A7bB36Ee3f3eE32A60e9f2b33c1e5f2E83ad766",
      "cumulativeGasUsed": "0x96c24",
      "gasUsed": "0x96c24",
      "contractAddress": null,
      "logs": [
        {
          "address": "0x3A7bB36Ee3f3eE32A60e9f2b33c1e5f2E83ad766",
          "topics": [
            "0x6436acb89463dbc9036f1e52aebf32ac0bf5f69e3987c067110c3ac403ebda33"
          ],
          "data": "0x000000000000000000000000a9ddd91249dfdd450e81e1c56ab60e1a626517010000000000000000000000005441731eed05a8208e795086a5df41416dd34104",
          "blockHash": "0x9822a0e072c0d8ec9d5560a9c027d1524ecc573d546d714a437e202e927403c9",
          "blockNumber": "0x12c6c14",
          "transactionHash": "0x954b447ef0a80515722acf994c94e25b6d77eb592ba5aa32e705b0b9a0266add",
          "transactionIndex": "0x0",
          "logIndex": "0x0",
          "removed": false
        }
      ],
      "status": "0x1",
      "logsBloom": "0x00000000000000000000000000000000000000000000000000000000000000000000000000000000000000000000000000000000000000000000000000000000000000000000000000000000000000000000000000000000000000000000000000000000000000000000000000000000000000000000000000000000000000000000000000000000000000000000000000002000000000000000000000000000000000000000000000000000010000000000000000100000000000000000000000000000000000000000000000000000000000000000000000000000000000000000000000000080000000006000000000000000000000000000000000000000",
      "type": "0x2",
      "effectiveGasPrice": "0x31e62fbd5"
    },
    {
      "transactionHash": "0xc19eaa3931e7fe81773bf91e1cdb8d36ef21860fd0e9aee0c4b3fc08200255c6",
      "transactionIndex": "0x0",
      "blockHash": "0x1490d253aea1d84f310be012ee62eb421ed75a3b4dd912fb6ee27fd4e12de062",
      "blockNumber": "0x12c6c15",
      "from": "0xA9DdD91249DFdd450E81E1c56Ab60E1A62651701",
      "to": "0xBBBBBbbBBb9cC5e90e3b3Af64bdAF62C37EEFFCb",
      "cumulativeGasUsed": "0x30af3",
      "gasUsed": "0x30af3",
      "contractAddress": null,
      "logs": [
        {
          "address": "0xBBBBBbbBBb9cC5e90e3b3Af64bdAF62C37EEFFCb",
          "topics": [
            "0xac4b2400f169220b0c0afdde7a0b32e775ba727ea1cb30b35f935cdaab8683ac",
            "0xcc7b191903e4750ad71898a1594d912adbb5bb1c6effcde9c38f0a798112edd1"
          ],
          "data": "0x0000000000000000000000000000206329b97db379d5e1bf586bbdb969c63274000000000000000000000000c69ad9bab1dee23f4605a82b3354f8e40d1e59660000000000000000000000005441731eed05a8208e795086a5df41416dd34104000000000000000000000000870ac11d48b15db9a138cf899d20f13f79ba00bc0000000000000000000000000000000000000000000000000bef55718ad60000",
          "blockHash": "0x1490d253aea1d84f310be012ee62eb421ed75a3b4dd912fb6ee27fd4e12de062",
          "blockNumber": "0x12c6c15",
          "transactionHash": "0xc19eaa3931e7fe81773bf91e1cdb8d36ef21860fd0e9aee0c4b3fc08200255c6",
          "transactionIndex": "0x0",
          "logIndex": "0x0",
          "removed": false
        },
        {
          "address": "0x870aC11D48B15DB9a138Cf899d20F13F79Ba00BC",
          "topics": [
            "0x7120161a7b3d31251e01294ab351ef15a41b91659a36032e4641bb89b121e321",
            "0xcc7b191903e4750ad71898a1594d912adbb5bb1c6effcde9c38f0a798112edd1"
          ],
          "data": "0x0000000000000000000000000000000000000000000000000000000012e687bf000000000000000000000000000000000000000000000000000000004b9a1eff",
          "blockHash": "0x1490d253aea1d84f310be012ee62eb421ed75a3b4dd912fb6ee27fd4e12de062",
          "blockNumber": "0x12c6c15",
          "transactionHash": "0xc19eaa3931e7fe81773bf91e1cdb8d36ef21860fd0e9aee0c4b3fc08200255c6",
          "transactionIndex": "0x0",
          "logIndex": "0x1",
          "removed": false
        }
      ],
      "status": "0x1",
      "logsBloom": "0x00000000000000000000000000000800000000200000000000000000000000000000000000000000000000000000000000000000000000000000000000844000000000000010000000000000000000000004000000200000000000000000000000000000000000000000000000000000000000000000000000000040000000000000000000000008000000000000000000000000000000000000000000000000000000000000000000000020000000000000000000000000000000000000000020000000000000000001000000000000000000000000000000000000000000000000000000000000000000000001000000000000000000000000000000000010",
      "type": "0x2",
      "effectiveGasPrice": "0x2d420d9dd"
    },
    {
      "transactionHash": "0x93f78dc610a61d86a80762eba135d10e239aeb78e6702d8bee3bd3d216f63673",
      "transactionIndex": "0x0",
      "blockHash": "0x4e1ff748a4062a4358f6c96104d64958ea77fb3b1f9184439b9bcaf13e837b08",
      "blockNumber": "0x12c6c16",
      "from": "0xA9DdD91249DFdd450E81E1c56Ab60E1A62651701",
      "to": "0xBBBBBbbBBb9cC5e90e3b3Af64bdAF62C37EEFFCb",
      "cumulativeGasUsed": "0x20a2d",
      "gasUsed": "0x20a2d",
      "contractAddress": null,
      "logs": [
        {
          "address": "0x870aC11D48B15DB9a138Cf899d20F13F79Ba00BC",
          "topics": [
            "0x7120161a7b3d31251e01294ab351ef15a41b91659a36032e4641bb89b121e321",
            "0xcc7b191903e4750ad71898a1594d912adbb5bb1c6effcde9c38f0a798112edd1"
          ],
          "data": "0x0000000000000000000000000000000000000000000000000000000012e686c4000000000000000000000000000000000000000000000000000000004b9a1723",
          "blockHash": "0x4e1ff748a4062a4358f6c96104d64958ea77fb3b1f9184439b9bcaf13e837b08",
          "blockNumber": "0x12c6c16",
          "transactionHash": "0x93f78dc610a61d86a80762eba135d10e239aeb78e6702d8bee3bd3d216f63673",
          "transactionIndex": "0x0",
          "logIndex": "0x0",
          "removed": false
        },
        {
          "address": "0xBBBBBbbBBb9cC5e90e3b3Af64bdAF62C37EEFFCb",
          "topics": [
            "0x9d9bd501d0657d7dfe415f779a620a62b78bc508ddc0891fbbd8b7ac0f8fce87",
            "0xcc7b191903e4750ad71898a1594d912adbb5bb1c6effcde9c38f0a798112edd1"
          ],
          "data": "0x0000000000000000000000000000000000000000000000000000000012e686c400000000000000000000000000000000000000000000000000000000000000000000000000000000000000000000000000000000000000000000000000000000",
          "blockHash": "0x4e1ff748a4062a4358f6c96104d64958ea77fb3b1f9184439b9bcaf13e837b08",
          "blockNumber": "0x12c6c16",
          "transactionHash": "0x93f78dc610a61d86a80762eba135d10e239aeb78e6702d8bee3bd3d216f63673",
          "transactionIndex": "0x0",
          "logIndex": "0x1",
          "removed": false
        },
        {
          "address": "0xBBBBBbbBBb9cC5e90e3b3Af64bdAF62C37EEFFCb",
          "topics": [
            "0xedf8870433c83823eb071d3df1caa8d008f12f6440918c20d75a3602cda30fe0",
            "0xcc7b191903e4750ad71898a1594d912adbb5bb1c6effcde9c38f0a798112edd1",
            "0x000000000000000000000000a9ddd91249dfdd450e81e1c56ab60e1a62651701",
            "0x000000000000000000000000a9ddd91249dfdd450e81e1c56ab60e1a62651701"
          ],
          "data": "0x0000000000000000000000000000000000000000000000000de0b6b3a764000000000000000000000000000000000000000000000000d3c21bcecceda1000000",
          "blockHash": "0x4e1ff748a4062a4358f6c96104d64958ea77fb3b1f9184439b9bcaf13e837b08",
          "blockNumber": "0x12c6c16",
          "transactionHash": "0x93f78dc610a61d86a80762eba135d10e239aeb78e6702d8bee3bd3d216f63673",
          "transactionIndex": "0x0",
          "logIndex": "0x2",
          "removed": false
        },
        {
          "address": "0x0000206329b97DB379d5E1Bf586BbDB969C63274",
          "topics": [
            "0x8c5be1e5ebec7d5bd14f71427d1e84f3dd0314c0f7b2291e5b200ac8c7c3b925",
            "0x000000000000000000000000a9ddd91249dfdd450e81e1c56ab60e1a62651701",
            "0x000000000000000000000000bbbbbbbbbb9cc5e90e3b3af64bdaf62c37eeffcb"
          ],
          "data": "0x0000000000000000000000000000000000000000000000007ce66c50e2840000",
          "blockHash": "0x4e1ff748a4062a4358f6c96104d64958ea77fb3b1f9184439b9bcaf13e837b08",
          "blockNumber": "0x12c6c16",
          "transactionHash": "0x93f78dc610a61d86a80762eba135d10e239aeb78e6702d8bee3bd3d216f63673",
          "transactionIndex": "0x0",
          "logIndex": "0x3",
          "removed": false
        },
        {
          "address": "0x0000206329b97DB379d5E1Bf586BbDB969C63274",
          "topics": [
            "0xddf252ad1be2c89b69c2b068fc378daa952ba7f163c4a11628f55a4df523b3ef",
            "0x000000000000000000000000a9ddd91249dfdd450e81e1c56ab60e1a62651701",
            "0x000000000000000000000000bbbbbbbbbb9cc5e90e3b3af64bdaf62c37eeffcb"
          ],
          "data": "0x0000000000000000000000000000000000000000000000000de0b6b3a7640000",
          "blockHash": "0x4e1ff748a4062a4358f6c96104d64958ea77fb3b1f9184439b9bcaf13e837b08",
          "blockNumber": "0x12c6c16",
          "transactionHash": "0x93f78dc610a61d86a80762eba135d10e239aeb78e6702d8bee3bd3d216f63673",
          "transactionIndex": "0x0",
          "logIndex": "0x4",
          "removed": false
        }
      ],
      "status": "0x1",
      "logsBloom": "0x00000000000000000000000000000080000000200000000000000000000000000000400000000000000000000000000000000000000000000000000020a44000000000000010000000000008800004000004000800200000000000080000000000000000000000000000000000000000000000000000000000000010000000000000000000000008000000000000000000000000000000000000000000000000820000000000000000000020000000000000000000000000800000080000000020000002000000000001000000000000000000004000000000000000000000400010000001000000000000200001000000000000000000000000000000004000",
      "type": "0x2",
      "effectiveGasPrice": "0x290dec5d8"
    },
    {
      "transactionHash": "0x060ba92f36ee3660c7c51975ce59ebf0bce6339a1e4ba00fa1e16ba24013b961",
      "transactionIndex": "0x0",
      "blockHash": "0xa5075c6b32ed8a7e323ac3349cbd56fc5026fab876684a0c81630a5cd2769027",
      "blockNumber": "0x12c6c17",
      "from": "0xA9DdD91249DFdd450E81E1c56Ab60E1A62651701",
      "to": "0xc69Ad9baB1dEE23F4605a82b3354F8E40d1E5966",
      "cumulativeGasUsed": "0xb39c",
      "gasUsed": "0xb39c",
      "contractAddress": null,
      "logs": [
        {
          "address": "0xc69Ad9baB1dEE23F4605a82b3354F8E40d1E5966",
          "topics": [
            "0x8c5be1e5ebec7d5bd14f71427d1e84f3dd0314c0f7b2291e5b200ac8c7c3b925",
            "0x000000000000000000000000a9ddd91249dfdd450e81e1c56ab60e1a62651701",
            "0x000000000000000000000000bbbbbbbbbb9cc5e90e3b3af64bdaf62c37eeffcb"
          ],
          "data": "0x000000000000000000000000000000000000000000000000002386f26fc10000",
          "blockHash": "0xa5075c6b32ed8a7e323ac3349cbd56fc5026fab876684a0c81630a5cd2769027",
          "blockNumber": "0x12c6c17",
          "transactionHash": "0x060ba92f36ee3660c7c51975ce59ebf0bce6339a1e4ba00fa1e16ba24013b961",
          "transactionIndex": "0x0",
          "logIndex": "0x0",
          "removed": false
        }
      ],
      "status": "0x1",
      "logsBloom": "0x00000000000000000000000000000080000000000000080000000000000000000000000000000000000000000000000000000000000000000000000000200000000000000000000000000000000000000000000000000000000000000000000000000000000000000000000000000000000000000000000000000000000000000000000000000000000000000000000000020000000000000000000000000000820000000000000000000000000000000000000000000000800000080000000000000000000000000000000000000000000000000000000000000000000000000010000001000000000000200000000000000000000000000000000000001000",
      "type": "0x2",
      "effectiveGasPrice": "0x255a54d96"
    },
    {
      "transactionHash": "0x75d6729a78b51df8c9edc6b229ce35d98f7b33173e4b10e68ddb7c31cd3fcab3",
      "transactionIndex": "0x0",
      "blockHash": "0xe97e2c0ba89b9ddc7f8a061d417c9327c9dc9d6342a93b5e84b7ae1d23768cae",
      "blockNumber": "0x12c6c18",
      "from": "0xA9DdD91249DFdd450E81E1c56Ab60E1A62651701",
      "to": "0xBBBBBbbBBb9cC5e90e3b3Af64bdAF62C37EEFFCb",
      "cumulativeGasUsed": "0x1619b",
      "gasUsed": "0x1619b",
      "contractAddress": null,
      "logs": [
        {
          "address": "0xBBBBBbbBBb9cC5e90e3b3Af64bdAF62C37EEFFCb",
          "topics": [
            "0xa3b9472a1399e17e123f3c2e6586c23e504184d504de59cdaa2b375e880c6184",
            "0xcc7b191903e4750ad71898a1594d912adbb5bb1c6effcde9c38f0a798112edd1",
            "0x000000000000000000000000a9ddd91249dfdd450e81e1c56ab60e1a62651701",
            "0x000000000000000000000000a9ddd91249dfdd450e81e1c56ab60e1a62651701"
          ],
          "data": "0x000000000000000000000000000000000000000000000000002386f26fc10000",
          "blockHash": "0xe97e2c0ba89b9ddc7f8a061d417c9327c9dc9d6342a93b5e84b7ae1d23768cae",
          "blockNumber": "0x12c6c18",
          "transactionHash": "0x75d6729a78b51df8c9edc6b229ce35d98f7b33173e4b10e68ddb7c31cd3fcab3",
          "transactionIndex": "0x0",
          "logIndex": "0x0",
          "removed": false
        },
        {
          "address": "0xc69Ad9baB1dEE23F4605a82b3354F8E40d1E5966",
          "topics": [
            "0x8c5be1e5ebec7d5bd14f71427d1e84f3dd0314c0f7b2291e5b200ac8c7c3b925",
            "0x000000000000000000000000a9ddd91249dfdd450e81e1c56ab60e1a62651701",
            "0x000000000000000000000000bbbbbbbbbb9cc5e90e3b3af64bdaf62c37eeffcb"
          ],
          "data": "0x0000000000000000000000000000000000000000000000000000000000000000",
          "blockHash": "0xe97e2c0ba89b9ddc7f8a061d417c9327c9dc9d6342a93b5e84b7ae1d23768cae",
          "blockNumber": "0x12c6c18",
          "transactionHash": "0x75d6729a78b51df8c9edc6b229ce35d98f7b33173e4b10e68ddb7c31cd3fcab3",
          "transactionIndex": "0x0",
          "logIndex": "0x1",
          "removed": false
        },
        {
          "address": "0xc69Ad9baB1dEE23F4605a82b3354F8E40d1E5966",
          "topics": [
            "0xddf252ad1be2c89b69c2b068fc378daa952ba7f163c4a11628f55a4df523b3ef",
            "0x000000000000000000000000a9ddd91249dfdd450e81e1c56ab60e1a62651701",
            "0x000000000000000000000000bbbbbbbbbb9cc5e90e3b3af64bdaf62c37eeffcb"
          ],
          "data": "0x000000000000000000000000000000000000000000000000002386f26fc10000",
          "blockHash": "0xe97e2c0ba89b9ddc7f8a061d417c9327c9dc9d6342a93b5e84b7ae1d23768cae",
          "blockNumber": "0x12c6c18",
          "transactionHash": "0x75d6729a78b51df8c9edc6b229ce35d98f7b33173e4b10e68ddb7c31cd3fcab3",
          "transactionIndex": "0x0",
          "logIndex": "0x2",
          "removed": false
        }
      ],
      "status": "0x1",
      "logsBloom": "0x00000000000000000000000000000080000000200000080000000000000000000000000000000000000000000000000000000000000000000000000000200000000000000010000000000008000000000004000000000000000000000000000000000000000000000000000000000000000000000000000000000010000000000000008000000008000000000000000000020000000000000000000000000000820000000000000000000020000000000000000000000000800000080000000020000002000000000000000000000000000000000000000400000000000000000010000001000000000000200000200000000000000000000000000000001000",
      "type": "0x2",
      "effectiveGasPrice": "0x22173c503"
    },
    {
      "transactionHash": "0x6a7ca7b97fc278a7b5a72bbd7fcf331418adcf85194285bb2f013bddf6718bb2",
      "transactionIndex": "0x0",
      "blockHash": "0x5295d2d8ed86fa68bc8ed989be1f647c855d9e9c47f9c519f03d23bf23e82743",
      "blockNumber": "0x12c6c19",
      "from": "0xA9DdD91249DFdd450E81E1c56Ab60E1A62651701",
      "to": "0xBBBBBbbBBb9cC5e90e3b3Af64bdAF62C37EEFFCb",
      "cumulativeGasUsed": "0x3fc4c",
      "gasUsed": "0x3fc4c",
      "contractAddress": null,
      "logs": [
        {
          "address": "0x870aC11D48B15DB9a138Cf899d20F13F79Ba00BC",
          "topics": [
            "0x7120161a7b3d31251e01294ab351ef15a41b91659a36032e4641bb89b121e321",
            "0xcc7b191903e4750ad71898a1594d912adbb5bb1c6effcde9c38f0a798112edd1"
          ],
          "data": "0x0000000000000000000000000000000000000000000000000000000012e682d6000000000000000000000000000000000000000000000000000000004b99ff91",
          "blockHash": "0x5295d2d8ed86fa68bc8ed989be1f647c855d9e9c47f9c519f03d23bf23e82743",
          "blockNumber": "0x12c6c19",
          "transactionHash": "0x6a7ca7b97fc278a7b5a72bbd7fcf331418adcf85194285bb2f013bddf6718bb2",
          "transactionIndex": "0x0",
          "logIndex": "0x0",
          "removed": false
        },
        {
          "address": "0xBBBBBbbBBb9cC5e90e3b3Af64bdAF62C37EEFFCb",
          "topics": [
            "0x9d9bd501d0657d7dfe415f779a620a62b78bc508ddc0891fbbd8b7ac0f8fce87",
            "0xcc7b191903e4750ad71898a1594d912adbb5bb1c6effcde9c38f0a798112edd1"
          ],
          "data": "0x0000000000000000000000000000000000000000000000000000000012e682d600000000000000000000000000000000000000000000000000000000000000000000000000000000000000000000000000000000000000000000000000000000",
          "blockHash": "0x5295d2d8ed86fa68bc8ed989be1f647c855d9e9c47f9c519f03d23bf23e82743",
          "blockNumber": "0x12c6c19",
          "transactionHash": "0x6a7ca7b97fc278a7b5a72bbd7fcf331418adcf85194285bb2f013bddf6718bb2",
          "transactionIndex": "0x0",
          "logIndex": "0x1",
          "removed": false
        },
        {
          "address": "0xBBBBBbbBBb9cC5e90e3b3Af64bdAF62C37EEFFCb",
          "topics": [
            "0x570954540bed6b1304a87dfe815a5eda4a648f7097a16240dcd85c9b5fd42a43",
            "0xcc7b191903e4750ad71898a1594d912adbb5bb1c6effcde9c38f0a798112edd1",
            "0x000000000000000000000000a9ddd91249dfdd450e81e1c56ab60e1a62651701",
            "0x000000000000000000000000a9ddd91249dfdd450e81e1c56ab60e1a62651701"
          ],
          "data": "0x000000000000000000000000a9ddd91249dfdd450e81e1c56ab60e1a626517010000000000000000000000000000000000000000000000000de0b6b3a764000000000000000000000000000000000000000000000000d3c21bcecceda1000000",
          "blockHash": "0x5295d2d8ed86fa68bc8ed989be1f647c855d9e9c47f9c519f03d23bf23e82743",
          "blockNumber": "0x12c6c19",
          "transactionHash": "0x6a7ca7b97fc278a7b5a72bbd7fcf331418adcf85194285bb2f013bddf6718bb2",
          "transactionIndex": "0x0",
          "logIndex": "0x2",
          "removed": false
        },
        {
          "address": "0x0000206329b97DB379d5E1Bf586BbDB969C63274",
          "topics": [
            "0xddf252ad1be2c89b69c2b068fc378daa952ba7f163c4a11628f55a4df523b3ef",
            "0x000000000000000000000000bbbbbbbbbb9cc5e90e3b3af64bdaf62c37eeffcb",
            "0x000000000000000000000000a9ddd91249dfdd450e81e1c56ab60e1a62651701"
          ],
          "data": "0x0000000000000000000000000000000000000000000000000de0b6b3a7640000",
          "blockHash": "0x5295d2d8ed86fa68bc8ed989be1f647c855d9e9c47f9c519f03d23bf23e82743",
          "blockNumber": "0x12c6c19",
          "transactionHash": "0x6a7ca7b97fc278a7b5a72bbd7fcf331418adcf85194285bb2f013bddf6718bb2",
          "transactionIndex": "0x0",
          "logIndex": "0x3",
          "removed": false
        }
      ],
      "status": "0x1",
      "logsBloom": "0x00000000000000000002000000000080000000200000000000000000000000000000400000000000000000000000000000000000000000000000000020844000000000000010000000000008000004000004000000200000000000080000000000000000000000000000000000000000000000000000000000000010000000000000000000000008000000000000000000000000000000000000000000000000800000000000000000000020000000000000000000000000800000080000000020000002000000000001000000000000000000004000000000000000000000000000004001000008000000200001000000000000000000000000000000004000",
      "type": "0x2",
      "effectiveGasPrice": "0x1f3e625dd"
    },
    {
      "transactionHash": "0xbf0bc6db73bdf900d90be8b3e8c76bb5274d68bf7e5e49ae612279ce3069b435",
      "transactionIndex": "0x0",
      "blockHash": "0x95146e689b2de6c57c880270b1e0ece2a572080b8777acdaf49d6eaea3812ac0",
      "blockNumber": "0x12c6c1a",
      "from": "0xA9DdD91249DFdd450E81E1c56Ab60E1A62651701",
      "to": "0xBBBBBbbBBb9cC5e90e3b3Af64bdAF62C37EEFFCb",
      "cumulativeGasUsed": "0x30af3",
      "gasUsed": "0x30af3",
      "contractAddress": null,
      "logs": [
        {
          "address": "0xBBBBBbbBBb9cC5e90e3b3Af64bdAF62C37EEFFCb",
          "topics": [
            "0xac4b2400f169220b0c0afdde7a0b32e775ba727ea1cb30b35f935cdaab8683ac",
            "0xdfd730c597116b2ab4b5ec2a10fef3e6bc1e8c9ae495ca7d2a351704592d6bbe"
          ],
          "data": "0x0000000000000000000000000000206329b97db379d5e1bf586bbdb969c632740000000000000000000000002371e134e3455e0593363cbf89d3b6cf53740618000000000000000000000000e4ccaa1849e9058f77f555c0fcca4925efd37d8e000000000000000000000000870ac11d48b15db9a138cf899d20f13f79ba00bc0000000000000000000000000000000000000000000000000aaf96eb9d0d0000",
          "blockHash": "0x95146e689b2de6c57c880270b1e0ece2a572080b8777acdaf49d6eaea3812ac0",
          "blockNumber": "0x12c6c1a",
          "transactionHash": "0xbf0bc6db73bdf900d90be8b3e8c76bb5274d68bf7e5e49ae612279ce3069b435",
          "transactionIndex": "0x0",
          "logIndex": "0x0",
          "removed": false
        },
        {
          "address": "0x870aC11D48B15DB9a138Cf899d20F13F79Ba00BC",
          "topics": [
            "0x7120161a7b3d31251e01294ab351ef15a41b91659a36032e4641bb89b121e321",
            "0xdfd730c597116b2ab4b5ec2a10fef3e6bc1e8c9ae495ca7d2a351704592d6bbe"
          ],
          "data": "0x0000000000000000000000000000000000000000000000000000000012e687bf000000000000000000000000000000000000000000000000000000004b9a1eff",
          "blockHash": "0x95146e689b2de6c57c880270b1e0ece2a572080b8777acdaf49d6eaea3812ac0",
          "blockNumber": "0x12c6c1a",
          "transactionHash": "0xbf0bc6db73bdf900d90be8b3e8c76bb5274d68bf7e5e49ae612279ce3069b435",
          "transactionIndex": "0x0",
          "logIndex": "0x1",
          "removed": false
        }
      ],
      "status": "0x1",
      "logsBloom": "0x00000000000000000000000000000800000000000000000000000000000000000000000000000000000000000000000000000000000000000000000000844800000000000010000000000000000000000000000000200000000000000000000000000000000000000000000000000000000000000000000000000040000000000000000000000008000000000000000000000000000000000000000000000000000000000000000000008000000000000000000000000000000000000000000020080000000000000001000000000000000000000000000000000000000000000000000000000000000000000001000000000000000000000000000000000010",
      "type": "0x2",
      "effectiveGasPrice": "0x1cc7656fa"
    },
    {
      "transactionHash": "0x49f0eb9610650c8fc0aaaecf0ac2ae6fc8eeeff36c6c750c1484cbb66321d133",
      "transactionIndex": "0x0",
      "blockHash": "0xbcc03b3e063ffd0d16529c57f0131fc6f406d6c24e0e725dcfe7c1ebc4680d5e",
      "blockNumber": "0x12c6c1b",
      "from": "0xA9DdD91249DFdd450E81E1c56Ab60E1A62651701",
      "to": "0xBBBBBbbBBb9cC5e90e3b3Af64bdAF62C37EEFFCb",
      "cumulativeGasUsed": "0x20a2d",
      "gasUsed": "0x20a2d",
      "contractAddress": null,
      "logs": [
        {
          "address": "0x870aC11D48B15DB9a138Cf899d20F13F79Ba00BC",
          "topics": [
            "0x7120161a7b3d31251e01294ab351ef15a41b91659a36032e4641bb89b121e321",
            "0xdfd730c597116b2ab4b5ec2a10fef3e6bc1e8c9ae495ca7d2a351704592d6bbe"
          ],
          "data": "0x0000000000000000000000000000000000000000000000000000000012e686c4000000000000000000000000000000000000000000000000000000004b9a1723",
          "blockHash": "0xbcc03b3e063ffd0d16529c57f0131fc6f406d6c24e0e725dcfe7c1ebc4680d5e",
          "blockNumber": "0x12c6c1b",
          "transactionHash": "0x49f0eb9610650c8fc0aaaecf0ac2ae6fc8eeeff36c6c750c1484cbb66321d133",
          "transactionIndex": "0x0",
          "logIndex": "0x0",
          "removed": false
        },
        {
          "address": "0xBBBBBbbBBb9cC5e90e3b3Af64bdAF62C37EEFFCb",
          "topics": [
            "0x9d9bd501d0657d7dfe415f779a620a62b78bc508ddc0891fbbd8b7ac0f8fce87",
            "0xdfd730c597116b2ab4b5ec2a10fef3e6bc1e8c9ae495ca7d2a351704592d6bbe"
          ],
          "data": "0x0000000000000000000000000000000000000000000000000000000012e686c400000000000000000000000000000000000000000000000000000000000000000000000000000000000000000000000000000000000000000000000000000000",
          "blockHash": "0xbcc03b3e063ffd0d16529c57f0131fc6f406d6c24e0e725dcfe7c1ebc4680d5e",
          "blockNumber": "0x12c6c1b",
          "transactionHash": "0x49f0eb9610650c8fc0aaaecf0ac2ae6fc8eeeff36c6c750c1484cbb66321d133",
          "transactionIndex": "0x0",
          "logIndex": "0x1",
          "removed": false
        },
        {
          "address": "0xBBBBBbbBBb9cC5e90e3b3Af64bdAF62C37EEFFCb",
          "topics": [
            "0xedf8870433c83823eb071d3df1caa8d008f12f6440918c20d75a3602cda30fe0",
            "0xdfd730c597116b2ab4b5ec2a10fef3e6bc1e8c9ae495ca7d2a351704592d6bbe",
            "0x000000000000000000000000a9ddd91249dfdd450e81e1c56ab60e1a62651701",
            "0x000000000000000000000000a9ddd91249dfdd450e81e1c56ab60e1a62651701"
          ],
          "data": "0x0000000000000000000000000000000000000000000000000de0b6b3a764000000000000000000000000000000000000000000000000d3c21bcecceda1000000",
          "blockHash": "0xbcc03b3e063ffd0d16529c57f0131fc6f406d6c24e0e725dcfe7c1ebc4680d5e",
          "blockNumber": "0x12c6c1b",
          "transactionHash": "0x49f0eb9610650c8fc0aaaecf0ac2ae6fc8eeeff36c6c750c1484cbb66321d133",
          "transactionIndex": "0x0",
          "logIndex": "0x2",
          "removed": false
        },
        {
          "address": "0x0000206329b97DB379d5E1Bf586BbDB969C63274",
          "topics": [
            "0x8c5be1e5ebec7d5bd14f71427d1e84f3dd0314c0f7b2291e5b200ac8c7c3b925",
            "0x000000000000000000000000a9ddd91249dfdd450e81e1c56ab60e1a62651701",
            "0x000000000000000000000000bbbbbbbbbb9cc5e90e3b3af64bdaf62c37eeffcb"
          ],
          "data": "0x0000000000000000000000000000000000000000000000006f05b59d3b200000",
          "blockHash": "0xbcc03b3e063ffd0d16529c57f0131fc6f406d6c24e0e725dcfe7c1ebc4680d5e",
          "blockNumber": "0x12c6c1b",
          "transactionHash": "0x49f0eb9610650c8fc0aaaecf0ac2ae6fc8eeeff36c6c750c1484cbb66321d133",
          "transactionIndex": "0x0",
          "logIndex": "0x3",
          "removed": false
        },
        {
          "address": "0x0000206329b97DB379d5E1Bf586BbDB969C63274",
          "topics": [
            "0xddf252ad1be2c89b69c2b068fc378daa952ba7f163c4a11628f55a4df523b3ef",
            "0x000000000000000000000000a9ddd91249dfdd450e81e1c56ab60e1a62651701",
            "0x000000000000000000000000bbbbbbbbbb9cc5e90e3b3af64bdaf62c37eeffcb"
          ],
          "data": "0x0000000000000000000000000000000000000000000000000de0b6b3a7640000",
          "blockHash": "0xbcc03b3e063ffd0d16529c57f0131fc6f406d6c24e0e725dcfe7c1ebc4680d5e",
          "blockNumber": "0x12c6c1b",
          "transactionHash": "0x49f0eb9610650c8fc0aaaecf0ac2ae6fc8eeeff36c6c750c1484cbb66321d133",
          "transactionIndex": "0x0",
          "logIndex": "0x4",
          "removed": false
        }
      ],
      "status": "0x1",
      "logsBloom": "0x00000000000000000000000000000080000000000000000000000000000000000000400000000000000000000000000000000000000000000000000020a44800000000000010000000000008800004000000000800200000000000080000000000000000000000000000000000000000000000000000000000000010000000000000000000000008000000000000000000000000000000000000000000000000820000000000000000008000000000000000000000000000800000080000000020080002000000000001000000000000000000004000000000000000000000400010000001000000000000200001000000000000000000000000000000004000",
      "type": "0x2",
      "effectiveGasPrice": "0x1a9b968c4"
    },
    {
      "transactionHash": "0x0bf5e78c7f5293da05aa6669aeb742aac10ad499d29a9971e0ba4df15e257d5d",
      "transactionIndex": "0x0",
      "blockHash": "0xc5e6c9ea447e1fb00f39dffb444c0e7240da1854b0e4318401d35fc8a2fcb170",
      "blockNumber": "0x12c6c1c",
      "from": "0xA9DdD91249DFdd450E81E1c56Ab60E1A62651701",
      "to": "0x2371e134e3455e0593363cBF89d3b6cf53740618",
      "cumulativeGasUsed": "0xb3c8",
      "gasUsed": "0xb3c8",
      "contractAddress": null,
      "logs": [
        {
          "address": "0x2371e134e3455e0593363cBF89d3b6cf53740618",
          "topics": [
            "0x8c5be1e5ebec7d5bd14f71427d1e84f3dd0314c0f7b2291e5b200ac8c7c3b925",
            "0x000000000000000000000000a9ddd91249dfdd450e81e1c56ab60e1a62651701",
            "0x000000000000000000000000bbbbbbbbbb9cc5e90e3b3af64bdaf62c37eeffcb"
          ],
          "data": "0x000000000000000000000000000000000000000000000000002386f26fc10000",
          "blockHash": "0xc5e6c9ea447e1fb00f39dffb444c0e7240da1854b0e4318401d35fc8a2fcb170",
          "blockNumber": "0x12c6c1c",
          "transactionHash": "0x0bf5e78c7f5293da05aa6669aeb742aac10ad499d29a9971e0ba4df15e257d5d",
          "transactionIndex": "0x0",
          "logIndex": "0x0",
          "removed": false
        }
      ],
      "status": "0x1",
      "logsBloom": "0x00000000000000000000000000000080000000000000000010000000000000000000000000000000000000000000000000000000000000000000000000200000000000000000000000000000000000000000000000000000000000000000000000000000000000000000000000000000010000000000000000000000000000000000000000000000000000000000000000000000000000000000000000000000820000000000000000000000000000000000000000000040800000080000000000000000000000000000000000000000000000000000000000000000000000000010000001000000000000200000000000000000000000000000000000000000",
      "type": "0x2",
      "effectiveGasPrice": "0x18b22b13a"
    },
    {
      "transactionHash": "0x4d0622fdb5770fd227cf370c5035138f22f57f5f7c04e6457104ffc4a0a18fdc",
      "transactionIndex": "0x0",
      "blockHash": "0xbe9bea4a90f45ed08a0ec3e9c3b57b0166688572d88eda7716c4a8913499cda3",
      "blockNumber": "0x12c6c1d",
      "from": "0xA9DdD91249DFdd450E81E1c56Ab60E1A62651701",
      "to": "0xBBBBBbbBBb9cC5e90e3b3Af64bdAF62C37EEFFCb",
      "cumulativeGasUsed": "0x150fc",
      "gasUsed": "0x150fc",
      "contractAddress": null,
      "logs": [
        {
          "address": "0xBBBBBbbBBb9cC5e90e3b3Af64bdAF62C37EEFFCb",
          "topics": [
            "0xa3b9472a1399e17e123f3c2e6586c23e504184d504de59cdaa2b375e880c6184",
            "0xdfd730c597116b2ab4b5ec2a10fef3e6bc1e8c9ae495ca7d2a351704592d6bbe",
            "0x000000000000000000000000a9ddd91249dfdd450e81e1c56ab60e1a62651701",
            "0x000000000000000000000000a9ddd91249dfdd450e81e1c56ab60e1a62651701"
          ],
          "data": "0x000000000000000000000000000000000000000000000000002386f26fc10000",
          "blockHash": "0xbe9bea4a90f45ed08a0ec3e9c3b57b0166688572d88eda7716c4a8913499cda3",
          "blockNumber": "0x12c6c1d",
          "transactionHash": "0x4d0622fdb5770fd227cf370c5035138f22f57f5f7c04e6457104ffc4a0a18fdc",
          "transactionIndex": "0x0",
          "logIndex": "0x0",
          "removed": false
        },
        {
          "address": "0x2371e134e3455e0593363cBF89d3b6cf53740618",
          "topics": [
            "0xddf252ad1be2c89b69c2b068fc378daa952ba7f163c4a11628f55a4df523b3ef",
            "0x000000000000000000000000a9ddd91249dfdd450e81e1c56ab60e1a62651701",
            "0x000000000000000000000000bbbbbbbbbb9cc5e90e3b3af64bdaf62c37eeffcb"
          ],
          "data": "0x000000000000000000000000000000000000000000000000002386f26fc10000",
          "blockHash": "0xbe9bea4a90f45ed08a0ec3e9c3b57b0166688572d88eda7716c4a8913499cda3",
          "blockNumber": "0x12c6c1d",
          "transactionHash": "0x4d0622fdb5770fd227cf370c5035138f22f57f5f7c04e6457104ffc4a0a18fdc",
          "transactionIndex": "0x0",
          "logIndex": "0x1",
          "removed": false
        }
      ],
      "status": "0x1",
      "logsBloom": "0x00000000000000000000000000000080000000000000000010000000000000000000000000000000000000000000000000000000000000000000000000000800000000000010000000000008000000000000000000000000000000000000000000000000000000000000000000000000010000000000000000000010000000000000008000000008000000000000000000000000000000000000000000000000800000000000000000008000000000000000000000000040800000080000000020080002000000000000000000000000000000000000000400000000000000000000000001000000000000200000200000000000000000000000000000000000",
      "type": "0x2",
      "effectiveGasPrice": "0x1702da41f"
    },
    {
      "transactionHash": "0xe84bbf9b2eb1272e708023688803a8fdf5351f1fc195ac85ff880550162610a6",
      "transactionIndex": "0x0",
      "blockHash": "0x7cae56fcebe5c9b9ecfb56a5fed66edf901f9344c81601876b36adb43936edd3",
      "blockNumber": "0x12c6c1e",
      "from": "0xA9DdD91249DFdd450E81E1c56Ab60E1A62651701",
      "to": "0xBBBBBbbBBb9cC5e90e3b3Af64bdAF62C37EEFFCb",
      "cumulativeGasUsed": "0x514a7",
      "gasUsed": "0x514a7",
      "contractAddress": null,
      "logs": [
        {
          "address": "0x870aC11D48B15DB9a138Cf899d20F13F79Ba00BC",
          "topics": [
            "0x7120161a7b3d31251e01294ab351ef15a41b91659a36032e4641bb89b121e321",
            "0xdfd730c597116b2ab4b5ec2a10fef3e6bc1e8c9ae495ca7d2a351704592d6bbe"
          ],
          "data": "0x0000000000000000000000000000000000000000000000000000000012e682d6000000000000000000000000000000000000000000000000000000004b99ff91",
          "blockHash": "0x7cae56fcebe5c9b9ecfb56a5fed66edf901f9344c81601876b36adb43936edd3",
          "blockNumber": "0x12c6c1e",
          "transactionHash": "0xe84bbf9b2eb1272e708023688803a8fdf5351f1fc195ac85ff880550162610a6",
          "transactionIndex": "0x0",
          "logIndex": "0x0",
          "removed": false
        },
        {
          "address": "0xBBBBBbbBBb9cC5e90e3b3Af64bdAF62C37EEFFCb",
          "topics": [
            "0x9d9bd501d0657d7dfe415f779a620a62b78bc508ddc0891fbbd8b7ac0f8fce87",
            "0xdfd730c597116b2ab4b5ec2a10fef3e6bc1e8c9ae495ca7d2a351704592d6bbe"
          ],
          "data": "0x0000000000000000000000000000000000000000000000000000000012e682d600000000000000000000000000000000000000000000000000000000000000000000000000000000000000000000000000000000000000000000000000000000",
          "blockHash": "0x7cae56fcebe5c9b9ecfb56a5fed66edf901f9344c81601876b36adb43936edd3",
          "blockNumber": "0x12c6c1e",
          "transactionHash": "0xe84bbf9b2eb1272e708023688803a8fdf5351f1fc195ac85ff880550162610a6",
          "transactionIndex": "0x0",
          "logIndex": "0x1",
          "removed": false
        },
        {
          "address": "0xBBBBBbbBBb9cC5e90e3b3Af64bdAF62C37EEFFCb",
          "topics": [
            "0x570954540bed6b1304a87dfe815a5eda4a648f7097a16240dcd85c9b5fd42a43",
            "0xdfd730c597116b2ab4b5ec2a10fef3e6bc1e8c9ae495ca7d2a351704592d6bbe",
            "0x000000000000000000000000a9ddd91249dfdd450e81e1c56ab60e1a62651701",
            "0x000000000000000000000000a9ddd91249dfdd450e81e1c56ab60e1a62651701"
          ],
          "data": "0x000000000000000000000000a9ddd91249dfdd450e81e1c56ab60e1a626517010000000000000000000000000000000000000000000000000de0b6b3a764000000000000000000000000000000000000000000000000d3c21bcecceda1000000",
          "blockHash": "0x7cae56fcebe5c9b9ecfb56a5fed66edf901f9344c81601876b36adb43936edd3",
          "blockNumber": "0x12c6c1e",
          "transactionHash": "0xe84bbf9b2eb1272e708023688803a8fdf5351f1fc195ac85ff880550162610a6",
          "transactionIndex": "0x0",
          "logIndex": "0x2",
          "removed": false
        },
        {
          "address": "0x0000206329b97DB379d5E1Bf586BbDB969C63274",
          "topics": [
            "0xddf252ad1be2c89b69c2b068fc378daa952ba7f163c4a11628f55a4df523b3ef",
            "0x000000000000000000000000bbbbbbbbbb9cc5e90e3b3af64bdaf62c37eeffcb",
            "0x000000000000000000000000a9ddd91249dfdd450e81e1c56ab60e1a62651701"
          ],
          "data": "0x0000000000000000000000000000000000000000000000000de0b6b3a7640000",
          "blockHash": "0x7cae56fcebe5c9b9ecfb56a5fed66edf901f9344c81601876b36adb43936edd3",
          "blockNumber": "0x12c6c1e",
          "transactionHash": "0xe84bbf9b2eb1272e708023688803a8fdf5351f1fc195ac85ff880550162610a6",
          "transactionIndex": "0x0",
          "logIndex": "0x3",
          "removed": false
        }
      ],
      "status": "0x1",
      "logsBloom": "0x00000000000000000002000000000080000000000000000000000000000000000000400000000000000000000000000000000000000000000000000020844800000000000010000000000008000004000000000000200000000000080000000000000000000000000000000000000000000000000000000000000010000000000000000000000008000000000000000000000000000000000000000000000000800000000000000000008000000000000000000000000000800000080000000020080002000000000001000000000000000000004000000000000000000000000000004001000008000000200001000000000000000000000000000000004000",
      "type": "0x2",
      "effectiveGasPrice": "0x158a4d50a"
    },
    {
      "transactionHash": "0xac5d30396bc036b9c44087a18019e8db99642cd5c438d38ff636302967dd9189",
      "transactionIndex": "0x0",
      "blockHash": "0x3ca5a935bc34faccf8efc5e64b9d2c5cbb6cc996131cd2f3fbf6dddccc67bc91",
      "blockNumber": "0x12c6c1f",
      "from": "0xA9DdD91249DFdd450E81E1c56Ab60E1A62651701",
      "to": "0x3A7bB36Ee3f3eE32A60e9f2b33c1e5f2E83ad766",
      "cumulativeGasUsed": "0x958f0",
      "gasUsed": "0x958f0",
      "contractAddress": null,
      "logs": [
        {
          "address": "0x3A7bB36Ee3f3eE32A60e9f2b33c1e5f2E83ad766",
          "topics": [
            "0x6436acb89463dbc9036f1e52aebf32ac0bf5f69e3987c067110c3ac403ebda33"
          ],
          "data": "0x000000000000000000000000a9ddd91249dfdd450e81e1c56ab60e1a6265170100000000000000000000000076052a2a28fdcb8124f4686c63c68355b142de3b",
          "blockHash": "0x3ca5a935bc34faccf8efc5e64b9d2c5cbb6cc996131cd2f3fbf6dddccc67bc91",
          "blockNumber": "0x12c6c1f",
          "transactionHash": "0xac5d30396bc036b9c44087a18019e8db99642cd5c438d38ff636302967dd9189",
          "transactionIndex": "0x0",
          "logIndex": "0x0",
          "removed": false
        }
      ],
      "status": "0x1",
      "logsBloom": "0x00000000000000000000000000000000000000000000000000000000000000000000000000000000000000000000000000000000000000000000000000000000000000000000000000000000000000000000000000000000000000000000000000000000000000000000000000000000000000000000000000000000000000000000000000000000000000000000000000002000000000000000000000000000000000000000000000000000010000000000000000100000000000000000000000000000000000000000000000000000000000000000000000000000000000000000000000000080000000006000000000000000000000000000000000000000",
      "type": "0x2",
      "effectiveGasPrice": "0x144601167"
    },
    {
      "transactionHash": "0xf8f561ae4eecd6be79486b66f5b0929a3f6ccaffcf68640407ac8af574fce92e",
      "transactionIndex": "0x0",
      "blockHash": "0x06170ce8a6d34edd5d6343cc78af0ae97b9c808cd2dc73512d215be249166732",
      "blockNumber": "0x12c6c20",
      "from": "0xA9DdD91249DFdd450E81E1c56Ab60E1A62651701",
      "to": "0xBBBBBbbBBb9cC5e90e3b3Af64bdAF62C37EEFFCb",
      "cumulativeGasUsed": "0x30af3",
      "gasUsed": "0x30af3",
      "contractAddress": null,
      "logs": [
        {
          "address": "0xBBBBBbbBBb9cC5e90e3b3Af64bdAF62C37EEFFCb",
          "topics": [
            "0xac4b2400f169220b0c0afdde7a0b32e775ba727ea1cb30b35f935cdaab8683ac",
            "0x540266e1879fff261908dcd4f4c623ce99dcd4c9ae7004e9c97ed80bfcb9ea21"
          ],
          "data": "0x0000000000000000000000000000206329b97db379d5e1bf586bbdb969c6327400000000000000000000000078fc2c2ed1a4cdb5402365934ae5648adad094d000000000000000000000000076052a2a28fdcb8124f4686c63c68355b142de3b000000000000000000000000870ac11d48b15db9a138cf899d20f13f79ba00bc0000000000000000000000000000000000000000000000000bef55718ad60000",
          "blockHash": "0x06170ce8a6d34edd5d6343cc78af0ae97b9c808cd2dc73512d215be249166732",
          "blockNumber": "0x12c6c20",
          "transactionHash": "0xf8f561ae4eecd6be79486b66f5b0929a3f6ccaffcf68640407ac8af574fce92e",
          "transactionIndex": "0x0",
          "logIndex": "0x0",
          "removed": false
        },
        {
          "address": "0x870aC11D48B15DB9a138Cf899d20F13F79Ba00BC",
          "topics": [
            "0x7120161a7b3d31251e01294ab351ef15a41b91659a36032e4641bb89b121e321",
            "0x540266e1879fff261908dcd4f4c623ce99dcd4c9ae7004e9c97ed80bfcb9ea21"
          ],
          "data": "0x0000000000000000000000000000000000000000000000000000000012e687bf000000000000000000000000000000000000000000000000000000004b9a1eff",
          "blockHash": "0x06170ce8a6d34edd5d6343cc78af0ae97b9c808cd2dc73512d215be249166732",
          "blockNumber": "0x12c6c20",
          "transactionHash": "0xf8f561ae4eecd6be79486b66f5b0929a3f6ccaffcf68640407ac8af574fce92e",
          "transactionIndex": "0x0",
          "logIndex": "0x1",
          "removed": false
        }
      ],
      "status": "0x1",
      "logsBloom": "0x00000000000000000000000000000800000000000000000000000000000000000000000000000000000000000000000000000000000000000000000000844000000000000010000000000000000000000000000000200000000000000000000000000000000000000000000000000000000000000002000000000040000000000000000000000008000000000000000000000000000000000000000000000000004000000002000000000000000000000000000000000000000000000000000020000000000000000001000000000000000000000000000000000000000000000000000000000000000000000001000000000000000000000000000000000010",
      "type": "0x2",
      "effectiveGasPrice": "0x132ec5587"
    },
    {
      "transactionHash": "0xb412d998ca9fb09ab698e7edbf19856ba7ca14e510e3b6097f3100fefc859226",
      "transactionIndex": "0x0",
      "blockHash": "0x7719aa4705565dc8d72791c11e8c9a3c7df9ee2408bc5e0963af0941f3abff2a",
      "blockNumber": "0x12c6c21",
      "from": "0xA9DdD91249DFdd450E81E1c56Ab60E1A62651701",
      "to": "0xBBBBBbbBBb9cC5e90e3b3Af64bdAF62C37EEFFCb",
      "cumulativeGasUsed": "0x20a2d",
      "gasUsed": "0x20a2d",
      "contractAddress": null,
      "logs": [
        {
          "address": "0x870aC11D48B15DB9a138Cf899d20F13F79Ba00BC",
          "topics": [
            "0x7120161a7b3d31251e01294ab351ef15a41b91659a36032e4641bb89b121e321",
            "0x540266e1879fff261908dcd4f4c623ce99dcd4c9ae7004e9c97ed80bfcb9ea21"
          ],
          "data": "0x0000000000000000000000000000000000000000000000000000000012e686c4000000000000000000000000000000000000000000000000000000004b9a1723",
          "blockHash": "0x7719aa4705565dc8d72791c11e8c9a3c7df9ee2408bc5e0963af0941f3abff2a",
          "blockNumber": "0x12c6c21",
          "transactionHash": "0xb412d998ca9fb09ab698e7edbf19856ba7ca14e510e3b6097f3100fefc859226",
          "transactionIndex": "0x0",
          "logIndex": "0x0",
          "removed": false
        },
        {
          "address": "0xBBBBBbbBBb9cC5e90e3b3Af64bdAF62C37EEFFCb",
          "topics": [
            "0x9d9bd501d0657d7dfe415f779a620a62b78bc508ddc0891fbbd8b7ac0f8fce87",
            "0x540266e1879fff261908dcd4f4c623ce99dcd4c9ae7004e9c97ed80bfcb9ea21"
          ],
          "data": "0x0000000000000000000000000000000000000000000000000000000012e686c400000000000000000000000000000000000000000000000000000000000000000000000000000000000000000000000000000000000000000000000000000000",
          "blockHash": "0x7719aa4705565dc8d72791c11e8c9a3c7df9ee2408bc5e0963af0941f3abff2a",
          "blockNumber": "0x12c6c21",
          "transactionHash": "0xb412d998ca9fb09ab698e7edbf19856ba7ca14e510e3b6097f3100fefc859226",
          "transactionIndex": "0x0",
          "logIndex": "0x1",
          "removed": false
        },
        {
          "address": "0xBBBBBbbBBb9cC5e90e3b3Af64bdAF62C37EEFFCb",
          "topics": [
            "0xedf8870433c83823eb071d3df1caa8d008f12f6440918c20d75a3602cda30fe0",
            "0x540266e1879fff261908dcd4f4c623ce99dcd4c9ae7004e9c97ed80bfcb9ea21",
            "0x000000000000000000000000a9ddd91249dfdd450e81e1c56ab60e1a62651701",
            "0x000000000000000000000000a9ddd91249dfdd450e81e1c56ab60e1a62651701"
          ],
          "data": "0x0000000000000000000000000000000000000000000000000de0b6b3a764000000000000000000000000000000000000000000000000d3c21bcecceda1000000",
          "blockHash": "0x7719aa4705565dc8d72791c11e8c9a3c7df9ee2408bc5e0963af0941f3abff2a",
          "blockNumber": "0x12c6c21",
          "transactionHash": "0xb412d998ca9fb09ab698e7edbf19856ba7ca14e510e3b6097f3100fefc859226",
          "transactionIndex": "0x0",
          "logIndex": "0x2",
          "removed": false
        },
        {
          "address": "0x0000206329b97DB379d5E1Bf586BbDB969C63274",
          "topics": [
            "0x8c5be1e5ebec7d5bd14f71427d1e84f3dd0314c0f7b2291e5b200ac8c7c3b925",
            "0x000000000000000000000000a9ddd91249dfdd450e81e1c56ab60e1a62651701",
            "0x000000000000000000000000bbbbbbbbbb9cc5e90e3b3af64bdaf62c37eeffcb"
          ],
          "data": "0x0000000000000000000000000000000000000000000000006124fee993bc0000",
          "blockHash": "0x7719aa4705565dc8d72791c11e8c9a3c7df9ee2408bc5e0963af0941f3abff2a",
          "blockNumber": "0x12c6c21",
          "transactionHash": "0xb412d998ca9fb09ab698e7edbf19856ba7ca14e510e3b6097f3100fefc859226",
          "transactionIndex": "0x0",
          "logIndex": "0x3",
          "removed": false
        },
        {
          "address": "0x0000206329b97DB379d5E1Bf586BbDB969C63274",
          "topics": [
            "0xddf252ad1be2c89b69c2b068fc378daa952ba7f163c4a11628f55a4df523b3ef",
            "0x000000000000000000000000a9ddd91249dfdd450e81e1c56ab60e1a62651701",
            "0x000000000000000000000000bbbbbbbbbb9cc5e90e3b3af64bdaf62c37eeffcb"
          ],
          "data": "0x0000000000000000000000000000000000000000000000000de0b6b3a7640000",
          "blockHash": "0x7719aa4705565dc8d72791c11e8c9a3c7df9ee2408bc5e0963af0941f3abff2a",
          "blockNumber": "0x12c6c21",
          "transactionHash": "0xb412d998ca9fb09ab698e7edbf19856ba7ca14e510e3b6097f3100fefc859226",
          "transactionIndex": "0x0",
          "logIndex": "0x4",
          "removed": false
        }
      ],
      "status": "0x1",
      "logsBloom": "0x00000000000000000000000000000080000000000000000000000000000000000000400000000000000000000000000000000000000000000000000020a44000000000000010000000000008800004000000000800200000000000080000000000000000000000000000000000000000000000000002000000000010000000000000000000000008000000000000000000000000000000000000000000000000824000000002000000000000000000000000000000000000800000080000000020000002000000000001000000000000000000004000000000000000000000400010000001000000000000200001000000000000000000000000000000004000",
      "type": "0x2",
      "effectiveGasPrice": "0x1231f5653"
    },
    {
      "transactionHash": "0x24729058f1e3dd6303d3e9a8c6b5ab99903c7eb96ba38064f20ef893e396b3de",
      "transactionIndex": "0x0",
      "blockHash": "0xf991604d8112fae0103eac7cd7dd2032fe884ba01252c3c74e48f71c0cc641f1",
      "blockNumber": "0x12c6c22",
      "from": "0xA9DdD91249DFdd450E81E1c56Ab60E1A62651701",
      "to": "0x78Fc2c2eD1A4cDb5402365934aE5648aDAd094d0",
      "cumulativeGasUsed": "0xb3c8",
      "gasUsed": "0xb3c8",
      "contractAddress": null,
      "logs": [
        {
          "address": "0x78Fc2c2eD1A4cDb5402365934aE5648aDAd094d0",
          "topics": [
            "0x8c5be1e5ebec7d5bd14f71427d1e84f3dd0314c0f7b2291e5b200ac8c7c3b925",
            "0x000000000000000000000000a9ddd91249dfdd450e81e1c56ab60e1a62651701",
            "0x000000000000000000000000bbbbbbbbbb9cc5e90e3b3af64bdaf62c37eeffcb"
          ],
          "data": "0x000000000000000000000000000000000000000000000000002386f26fc10000",
          "blockHash": "0xf991604d8112fae0103eac7cd7dd2032fe884ba01252c3c74e48f71c0cc641f1",
          "blockNumber": "0x12c6c22",
          "transactionHash": "0x24729058f1e3dd6303d3e9a8c6b5ab99903c7eb96ba38064f20ef893e396b3de",
          "transactionIndex": "0x0",
          "logIndex": "0x0",
          "removed": false
        }
      ],
      "status": "0x1",
      "logsBloom": "0x00000000000000000000000000000080000000000000000000000000000000000000000000000000000000000000000000000000000000000000000000200000000000000000000000000000000000000000000000000000000000000000000000000000000000000000000000000000000000000000000000000000000000000000000000000000000000000000000000000000000000000000010000000000820020000000000000000000000000000000000000000000800000080000000000000000000000000000000000000000000000000000000000000000000008000010000001000000000000200000000000000000000000000000000000000000",
      "type": "0x2",
      "effectiveGasPrice": "0x115357e6b"
    },
    {
      "transactionHash": "0xa89af387d8c447e7f1071eeb9fe4ede2c8a23998f9f422ab7b1be406262df783",
      "transactionIndex": "0x0",
      "blockHash": "0x007d1514c95af2c5ef8175e7e1b6469c1bdd6e3da2233b284dfc6ee1d86453a2",
      "blockNumber": "0x12c6c23",
      "from": "0xA9DdD91249DFdd450E81E1c56Ab60E1A62651701",
      "to": "0xBBBBBbbBBb9cC5e90e3b3Af64bdAF62C37EEFFCb",
      "cumulativeGasUsed": "0x150fc",
      "gasUsed": "0x150fc",
      "contractAddress": null,
      "logs": [
        {
          "address": "0xBBBBBbbBBb9cC5e90e3b3Af64bdAF62C37EEFFCb",
          "topics": [
            "0xa3b9472a1399e17e123f3c2e6586c23e504184d504de59cdaa2b375e880c6184",
            "0x540266e1879fff261908dcd4f4c623ce99dcd4c9ae7004e9c97ed80bfcb9ea21",
            "0x000000000000000000000000a9ddd91249dfdd450e81e1c56ab60e1a62651701",
            "0x000000000000000000000000a9ddd91249dfdd450e81e1c56ab60e1a62651701"
          ],
          "data": "0x000000000000000000000000000000000000000000000000002386f26fc10000",
          "blockHash": "0x007d1514c95af2c5ef8175e7e1b6469c1bdd6e3da2233b284dfc6ee1d86453a2",
          "blockNumber": "0x12c6c23",
          "transactionHash": "0xa89af387d8c447e7f1071eeb9fe4ede2c8a23998f9f422ab7b1be406262df783",
          "transactionIndex": "0x0",
          "logIndex": "0x0",
          "removed": false
        },
        {
          "address": "0x78Fc2c2eD1A4cDb5402365934aE5648aDAd094d0",
          "topics": [
            "0xddf252ad1be2c89b69c2b068fc378daa952ba7f163c4a11628f55a4df523b3ef",
            "0x000000000000000000000000a9ddd91249dfdd450e81e1c56ab60e1a62651701",
            "0x000000000000000000000000bbbbbbbbbb9cc5e90e3b3af64bdaf62c37eeffcb"
          ],
          "data": "0x000000000000000000000000000000000000000000000000002386f26fc10000",
          "blockHash": "0x007d1514c95af2c5ef8175e7e1b6469c1bdd6e3da2233b284dfc6ee1d86453a2",
          "blockNumber": "0x12c6c23",
          "transactionHash": "0xa89af387d8c447e7f1071eeb9fe4ede2c8a23998f9f422ab7b1be406262df783",
          "transactionIndex": "0x0",
          "logIndex": "0x1",
          "removed": false
        }
      ],
      "status": "0x1",
      "logsBloom": "0x00000000000000000000000000000080000000000000000000000000000000000000000000000000000000000000000000000000000000000000000000000000000000000010000000000008000000000000000000000000000000000000000000000000000000000000000000000000000000000002000000000010000000000000008000000008000000000000000000000000000000000000010000000000804020000002000000000000000000000000000000000000800000080000000020000002000000000000000000000000000000000000000400000000000008000000000001000000000000200000200000000000000000000000000000000000",
      "type": "0x2",
      "effectiveGasPrice": "0x108f2838d"
    },
    {
      "transactionHash": "0x730f41b37bca3856243fab18159c736ee555e3713ca9523822d4c7e18ee1e95b",
      "transactionIndex": "0x0",
      "blockHash": "0x28a41922360a6e90a8aad9aac656364ad22d58a5538148829817ee2d0a8e4434",
      "blockNumber": "0x12c6c24",
      "from": "0xA9DdD91249DFdd450E81E1c56Ab60E1A62651701",
      "to": "0xBBBBBbbBBb9cC5e90e3b3Af64bdAF62C37EEFFCb",
      "cumulativeGasUsed": "0x51994",
      "gasUsed": "0x51994",
      "contractAddress": null,
      "logs": [
        {
          "address": "0x870aC11D48B15DB9a138Cf899d20F13F79Ba00BC",
          "topics": [
            "0x7120161a7b3d31251e01294ab351ef15a41b91659a36032e4641bb89b121e321",
            "0x540266e1879fff261908dcd4f4c623ce99dcd4c9ae7004e9c97ed80bfcb9ea21"
          ],
          "data": "0x0000000000000000000000000000000000000000000000000000000012e682d6000000000000000000000000000000000000000000000000000000004b99ff91",
          "blockHash": "0x28a41922360a6e90a8aad9aac656364ad22d58a5538148829817ee2d0a8e4434",
          "blockNumber": "0x12c6c24",
          "transactionHash": "0x730f41b37bca3856243fab18159c736ee555e3713ca9523822d4c7e18ee1e95b",
          "transactionIndex": "0x0",
          "logIndex": "0x0",
          "removed": false
        },
        {
          "address": "0xBBBBBbbBBb9cC5e90e3b3Af64bdAF62C37EEFFCb",
          "topics": [
            "0x9d9bd501d0657d7dfe415f779a620a62b78bc508ddc0891fbbd8b7ac0f8fce87",
            "0x540266e1879fff261908dcd4f4c623ce99dcd4c9ae7004e9c97ed80bfcb9ea21"
          ],
          "data": "0x0000000000000000000000000000000000000000000000000000000012e682d600000000000000000000000000000000000000000000000000000000000000000000000000000000000000000000000000000000000000000000000000000000",
          "blockHash": "0x28a41922360a6e90a8aad9aac656364ad22d58a5538148829817ee2d0a8e4434",
          "blockNumber": "0x12c6c24",
          "transactionHash": "0x730f41b37bca3856243fab18159c736ee555e3713ca9523822d4c7e18ee1e95b",
          "transactionIndex": "0x0",
          "logIndex": "0x1",
          "removed": false
        },
        {
          "address": "0xBBBBBbbBBb9cC5e90e3b3Af64bdAF62C37EEFFCb",
          "topics": [
            "0x570954540bed6b1304a87dfe815a5eda4a648f7097a16240dcd85c9b5fd42a43",
            "0x540266e1879fff261908dcd4f4c623ce99dcd4c9ae7004e9c97ed80bfcb9ea21",
            "0x000000000000000000000000a9ddd91249dfdd450e81e1c56ab60e1a62651701",
            "0x000000000000000000000000a9ddd91249dfdd450e81e1c56ab60e1a62651701"
          ],
          "data": "0x000000000000000000000000a9ddd91249dfdd450e81e1c56ab60e1a626517010000000000000000000000000000000000000000000000000de0b6b3a764000000000000000000000000000000000000000000000000d3c21bcecceda1000000",
          "blockHash": "0x28a41922360a6e90a8aad9aac656364ad22d58a5538148829817ee2d0a8e4434",
          "blockNumber": "0x12c6c24",
          "transactionHash": "0x730f41b37bca3856243fab18159c736ee555e3713ca9523822d4c7e18ee1e95b",
          "transactionIndex": "0x0",
          "logIndex": "0x2",
          "removed": false
        },
        {
          "address": "0x0000206329b97DB379d5E1Bf586BbDB969C63274",
          "topics": [
            "0xddf252ad1be2c89b69c2b068fc378daa952ba7f163c4a11628f55a4df523b3ef",
            "0x000000000000000000000000bbbbbbbbbb9cc5e90e3b3af64bdaf62c37eeffcb",
            "0x000000000000000000000000a9ddd91249dfdd450e81e1c56ab60e1a62651701"
          ],
          "data": "0x0000000000000000000000000000000000000000000000000de0b6b3a7640000",
          "blockHash": "0x28a41922360a6e90a8aad9aac656364ad22d58a5538148829817ee2d0a8e4434",
          "blockNumber": "0x12c6c24",
          "transactionHash": "0x730f41b37bca3856243fab18159c736ee555e3713ca9523822d4c7e18ee1e95b",
          "transactionIndex": "0x0",
          "logIndex": "0x3",
          "removed": false
        }
      ],
      "status": "0x1",
      "logsBloom": "0x00000000000000000002000000000080000000000000000000000000000000000000400000000000000000000000000000000000000000000000000020844000000000000010000000000008000004000000000000200000000000080000000000000000000000000000000000000000000000000002000000000010000000000000000000000008000000000000000000000000000000000000000000000000804000000002000000000000000000000000000000000000800000080000000020000002000000000001000000000000000000004000000000000000000000000000004001000008000000200001000000000000000000000000000000004000",
      "type": "0x2",
      "effectiveGasPrice": "0xfe3e18ef"
    }
  ],
  "libraries": [],
  "pending": [],
  "returns": {},
  "timestamp": 1713517433,
  "chain": 1,
  "multi": false,
  "commit": "d71af18"
}