{
  "transactions": [
    {
      "hash": "0x7322b8ce5b734033c52618c9e669e54f04b7e00dbafd0fd8efb5083d89a60474",
      "transactionType": "CALL",
      "contractName": null,
      "contractAddress": "0x0000206329b97DB379d5E1Bf586BbDB969C63274",
      "function": "approve(address,uint256)",
      "arguments": [
        "0xBBBBBbbBBb9cC5e90e3b3Af64bdAF62C37EEFFCb",
        "10000000000000000000"
      ],
      "transaction": {
        "type": "0x02",
        "from": "0xa9ddd91249dfdd450e81e1c56ab60e1a62651701",
        "to": "0x0000206329b97db379d5e1bf586bbdb969c63274",
        "gas": "0x13108",
        "value": "0x0",
        "data": "0x095ea7b3000000000000000000000000bbbbbbbbbb9cc5e90e3b3af64bdaf62c37eeffcb0000000000000000000000000000000000000000000000008ac7230489e80000",
        "nonce": "0xc6",
        "accessList": []
      },
      "additionalContracts": [],
      "isFixedGasLimit": false
    },
    {
      "hash": "0xbdcc0125dc9afa9019030cc91f54d14339d73099e9bacb29cbb6395ad9b5e2ad",
      "transactionType": "CALL",
      "contractName": null,
      "contractAddress": "0x0000206329b97DB379d5E1Bf586BbDB969C63274",
      "function": "approve(address,uint256)",
      "arguments": [
        "0xBBBBBbbBBb9cC5e90e3b3Af64bdAF62C37EEFFCb",
        "1000000000000000000"
      ],
      "transaction": {
        "type": "0x02",
        "from": "0xa9ddd91249dfdd450e81e1c56ab60e1a62651701",
        "to": "0x0000206329b97db379d5e1bf586bbdb969c63274",
        "gas": "0xc3d2",
        "value": "0x0",
        "data": "0x095ea7b3000000000000000000000000bbbbbbbbbb9cc5e90e3b3af64bdaf62c37eeffcb0000000000000000000000000000000000000000000000000de0b6b3a7640000",
        "nonce": "0xc7",
        "accessList": []
      },
      "additionalContracts": [],
      "isFixedGasLimit": false
    },
    {
      "hash": "0xca3eb887296a4c03dd081c68fbb66601caed2500fc9cdc4b6ef8ce43c3e1cbe8",
      "transactionType": "CALL",
      "contractName": null,
      "contractAddress": "0xBBBBBbbBBb9cC5e90e3b3Af64bdAF62C37EEFFCb",
      "function": null,
      "arguments": null,
      "transaction": {
        "type": "0x02",
        "from": "0xa9ddd91249dfdd450e81e1c56ab60e1a62651701",
        "to": "0xbbbbbbbbbb9cc5e90e3b3af64bdaf62c37eeffcb",
        "gas": "0x2b75a",
        "value": "0x0",
        "data": "0xa99aad890000000000000000000000000000206329b97db379d5e1bf586bbdb969c63274000000000000000000000000dd0f28e19c1780eb6396170735d45153d261490d0000000000000000000000003b8c4a340336941524de276ff730b3be71157b55000000000000000000000000870ac11d48b15db9a138cf899d20f13f79ba00bc0000000000000000000000000000000000000000000000000bef55718ad600000000000000000000000000000000000000000000000000000de0b6b3a76400000000000000000000000000000000000000000000000000000000000000000000000000000000000000000000a9ddd91249dfdd450e81e1c56ab60e1a6265170100000000000000000000000000000000000000000000000000000000000001200000000000000000000000000000000000000000000000000000000000000000",
        "nonce": "0xc8",
        "accessList": []
      },
      "additionalContracts": [],
      "isFixedGasLimit": false
    },
    {
      "hash": "0xaf31c0243533da81896247df7e25887211ccfe965d96f3f27245f94befceb66e",
      "transactionType": "CALL",
      "contractName": null,
      "contractAddress": "0xdd0f28e19C1780eb6396170735D45153D261490d",
      "function": "approve(address,uint256)",
      "arguments": [
        "0xBBBBBbbBBb9cC5e90e3b3Af64bdAF62C37EEFFCb",
        "11700000000000000000"
      ],
      "transaction": {
        "type": "0x02",
        "from": "0xa9ddd91249dfdd450e81e1c56ab60e1a62651701",
        "to": "0xdd0f28e19c1780eb6396170735d45153d261490d",
        "gas": "0xf862",
        "value": "0x0",
        "data": "0x095ea7b3000000000000000000000000bbbbbbbbbb9cc5e90e3b3af64bdaf62c37eeffcb000000000000000000000000000000000000000000000000a25ec002c0120000",
        "nonce": "0xc9",
        "accessList": []
      },
      "additionalContracts": [],
      "isFixedGasLimit": false
    },
    {
      "hash": "0xa99ffc9ad1e87a6a8957c4699f6ef36feb2583ccea8cda76c15117961b93fd6c",
      "transactionType": "CALL",
      "contractName": null,
      "contractAddress": "0xBBBBBbbBBb9cC5e90e3b3Af64bdAF62C37EEFFCb",
      "function": null,
      "arguments": null,
      "transaction": {
        "type": "0x02",
        "from": "0xa9ddd91249dfdd450e81e1c56ab60e1a62651701",
        "to": "0xbbbbbbbbbb9cc5e90e3b3af64bdaf62c37eeffcb",
        "gas": "0x1d185",
        "value": "0x0",
        "data": "0x238d65790000000000000000000000000000206329b97db379d5e1bf586bbdb969c63274000000000000000000000000dd0f28e19c1780eb6396170735d45153d261490d0000000000000000000000003b8c4a340336941524de276ff730b3be71157b55000000000000000000000000870ac11d48b15db9a138cf899d20f13f79ba00bc0000000000000000000000000000000000000000000000000bef55718ad60000000000000000000000000000000000000000000000000000a25ec002c0120000000000000000000000000000a9ddd91249dfdd450e81e1c56ab60e1a6265170100000000000000000000000000000000000000000000000000000000000001000000000000000000000000000000000000000000000000000000000000000000",
        "nonce": "0xca",
        "accessList": []
      },
      "additionalContracts": [],
      "isFixedGasLimit": false
    },
    {
      "hash": "0x8ff29dd00f36a15299fd2afd33f27d08430c16e5a451c079b4c332e5a0d0c8a3",
      "transactionType": "CALL",
      "contractName": null,
      "contractAddress": "0xBBBBBbbBBb9cC5e90e3b3Af64bdAF62C37EEFFCb",
      "function": null,
      "arguments": null,
      "transaction": {
        "type": "0x02",
        "from": "0xa9ddd91249dfdd450e81e1c56ab60e1a62651701",
        "to": "0xbbbbbbbbbb9cc5e90e3b3af64bdaf62c37eeffcb",
        "gas": "0x532c0",
        "value": "0x0",
        "data": "0x50d8cd4b0000000000000000000000000000206329b97db379d5e1bf586bbdb969c63274000000000000000000000000dd0f28e19c1780eb6396170735d45153d261490d0000000000000000000000003b8c4a340336941524de276ff730b3be71157b55000000000000000000000000870ac11d48b15db9a138cf899d20f13f79ba00bc0000000000000000000000000000000000000000000000000bef55718ad600000000000000000000000000000000000000000000000000000de0b6b3a76400000000000000000000000000000000000000000000000000000000000000000000000000000000000000000000a9ddd91249dfdd450e81e1c56ab60e1a62651701000000000000000000000000a9ddd91249dfdd450e81e1c56ab60e1a62651701",
        "nonce": "0xcb",
        "accessList": []
      },
      "additionalContracts": [],
      "isFixedGasLimit": false
    }
  ],
  "receipts": [
    {
      "transactionHash": "0x7322b8ce5b734033c52618c9e669e54f04b7e00dbafd0fd8efb5083d89a60474",
      "transactionIndex": "0x2b",
      "blockHash": "0x9c96457ed0630597eb36385694e4b546d1129d2faf7550f80b7ac378e112348c",
      "blockNumber": "0x12c6d47",
      "from": "0xA9DdD91249DFdd450E81E1c56Ab60E1A62651701",
      "to": "0x0000206329b97DB379d5E1Bf586BbDB969C63274",
      "cumulativeGasUsed": "0x590723",
      "gasUsed": "0xd092",
      "contractAddress": null,
      "logs": [
        {
          "address": "0x0000206329b97DB379d5E1Bf586BbDB969C63274",
          "topics": [
            "0x8c5be1e5ebec7d5bd14f71427d1e84f3dd0314c0f7b2291e5b200ac8c7c3b925",
            "0x000000000000000000000000a9ddd91249dfdd450e81e1c56ab60e1a62651701",
            "0x000000000000000000000000bbbbbbbbbb9cc5e90e3b3af64bdaf62c37eeffcb"
          ],
          "data": "0x0000000000000000000000000000000000000000000000008ac7230489e80000",
          "blockHash": "0x9c96457ed0630597eb36385694e4b546d1129d2faf7550f80b7ac378e112348c",
          "blockNumber": "0x12c6d47",
          "transactionHash": "0x7322b8ce5b734033c52618c9e669e54f04b7e00dbafd0fd8efb5083d89a60474",
          "transactionIndex": "0x2b",
          "logIndex": "0xab",
          "removed": false
        }
      ],
      "status": "0x1",
      "logsBloom": "0x00000000000000000000000000000080000000000000000000000000000000000000000000000000000000000000000000000000000000000000000000200000000000000000000000000000000004000000000000000000000000000000000000000000000000000000000000000000000000000000000000000000000000000000000000000000000000000000000000000000000000000000000000000000820000000000000000000000000000000000000000000000800000080000000000000000000000000000000000000000000000004000000000000000000000000010000001000000000000200000000000000000000000000000000000004000",
      "type": "0x2",
      "effectiveGasPrice": "0x2dc22dbfe"
    },
    {
      "transactionHash": "0xbdcc0125dc9afa9019030cc91f54d14339d73099e9bacb29cbb6395ad9b5e2ad",
      "transactionIndex": "0x8",
      "blockHash": "0xbcf33885ac5c5a349bcbde8d064a7c4e43e7bf9a457fc2936568cfea6410dc93",
      "blockNumber": "0x12c6d48",
      "from": "0xA9DdD91249DFdd450E81E1c56Ab60E1A62651701",
      "to": "0x0000206329b97DB379d5E1Bf586BbDB969C63274",
      "cumulativeGasUsed": "0xe64e0",
      "gasUsed": "0x8dc6",
      "contractAddress": null,
      "logs": [
        {
          "address": "0x0000206329b97DB379d5E1Bf586BbDB969C63274",
          "topics": [
            "0x8c5be1e5ebec7d5bd14f71427d1e84f3dd0314c0f7b2291e5b200ac8c7c3b925",
            "0x000000000000000000000000a9ddd91249dfdd450e81e1c56ab60e1a62651701",
            "0x000000000000000000000000bbbbbbbbbb9cc5e90e3b3af64bdaf62c37eeffcb"
          ],
          "data": "0x0000000000000000000000000000000000000000000000000de0b6b3a7640000",
          "blockHash": "0xbcf33885ac5c5a349bcbde8d064a7c4e43e7bf9a457fc2936568cfea6410dc93",
          "blockNumber": "0x12c6d48",
          "transactionHash": "0xbdcc0125dc9afa9019030cc91f54d14339d73099e9bacb29cbb6395ad9b5e2ad",
          "transactionIndex": "0x8",
          "logIndex": "0x14",
          "removed": false
        }
      ],
      "status": "0x1",
      "logsBloom": "0x00000000000000000000000000000080000000000000000000000000000000000000000000000000000000000000000000000000000000000000000000200000000000000000000000000000000004000000000000000000000000000000000000000000000000000000000000000000000000000000000000000000000000000000000000000000000000000000000000000000000000000000000000000000820000000000000000000000000000000000000000000000800000080000000000000000000000000000000000000000000000004000000000000000000000000010000001000000000000200000000000000000000000000000000000004000",
      "type": "0x2",
      "effectiveGasPrice": "0x2fdfe54d5"
    },
    {
      "transactionHash": "0xca3eb887296a4c03dd081c68fbb66601caed2500fc9cdc4b6ef8ce43c3e1cbe8",
      "transactionIndex": "0x46",
      "blockHash": "0x45a0710a79812997102f262fac1339e44810dd5b1df7e3a53a1f0813216fdf5a",
      "blockNumber": "0x12c6d49",
      "from": "0xA9DdD91249DFdd450E81E1c56Ab60E1A62651701",
      "to": "0xBBBBBbbBBb9cC5e90e3b3Af64bdAF62C37EEFFCb",
      "cumulativeGasUsed": "0x6d4b5e",
      "gasUsed": "0x1f76d",
      "contractAddress": null,
      "logs": [
        {
          "address": "0x870aC11D48B15DB9a138Cf899d20F13F79Ba00BC",
          "topics": [
            "0x7120161a7b3d31251e01294ab351ef15a41b91659a36032e4641bb89b121e321",
            "0x7f2eec1f78d0412e61fa3be531e36052460583e7f9b5c1efc1407f10c48a775d"
          ],
          "data": "0x0000000000000000000000000000000000000000000000000000000012dd6231000000000000000000000000000000000000000000000000000000004b50fb72",
          "blockHash": "0x45a0710a79812997102f262fac1339e44810dd5b1df7e3a53a1f0813216fdf5a",
          "blockNumber": "0x12c6d49",
          "transactionHash": "0xca3eb887296a4c03dd081c68fbb66601caed2500fc9cdc4b6ef8ce43c3e1cbe8",
          "transactionIndex": "0x46",
          "logIndex": "0xdf",
          "removed": false
        },
        {
          "address": "0xBBBBBbbBBb9cC5e90e3b3Af64bdAF62C37EEFFCb",
          "topics": [
            "0x9d9bd501d0657d7dfe415f779a620a62b78bc508ddc0891fbbd8b7ac0f8fce87",
            "0x7f2eec1f78d0412e61fa3be531e36052460583e7f9b5c1efc1407f10c48a775d"
          ],
          "data": "0x0000000000000000000000000000000000000000000000000000000012dd623100000000000000000000000000000000000000000000000000000000000000000000000000000000000000000000000000000000000000000000000000000000",
          "blockHash": "0x45a0710a79812997102f262fac1339e44810dd5b1df7e3a53a1f0813216fdf5a",
          "blockNumber": "0x12c6d49",
          "transactionHash": "0xca3eb887296a4c03dd081c68fbb66601caed2500fc9cdc4b6ef8ce43c3e1cbe8",
          "transactionIndex": "0x46",
          "logIndex": "0xe0",
          "removed": false
        },
        {
          "address": "0xBBBBBbbBBb9cC5e90e3b3Af64bdAF62C37EEFFCb",
          "topics": [
            "0xedf8870433c83823eb071d3df1caa8d008f12f6440918c20d75a3602cda30fe0",
            "0x7f2eec1f78d0412e61fa3be531e36052460583e7f9b5c1efc1407f10c48a775d",
            "0x000000000000000000000000a9ddd91249dfdd450e81e1c56ab60e1a62651701",
            "0x000000000000000000000000a9ddd91249dfdd450e81e1c56ab60e1a62651701"
          ],
          "data": "0x0000000000000000000000000000000000000000000000000de0b6b3a764000000000000000000000000000000000000000000000000d3c21bcecceda1000000",
          "blockHash": "0x45a0710a79812997102f262fac1339e44810dd5b1df7e3a53a1f0813216fdf5a",
          "blockNumber": "0x12c6d49",
          "transactionHash": "0xca3eb887296a4c03dd081c68fbb66601caed2500fc9cdc4b6ef8ce43c3e1cbe8",
          "transactionIndex": "0x46",
          "logIndex": "0xe1",
          "removed": false
        },
        {
          "address": "0x0000206329b97DB379d5E1Bf586BbDB969C63274",
          "topics": [
            "0x8c5be1e5ebec7d5bd14f71427d1e84f3dd0314c0f7b2291e5b200ac8c7c3b925",
            "0x000000000000000000000000a9ddd91249dfdd450e81e1c56ab60e1a62651701",
            "0x000000000000000000000000bbbbbbbbbb9cc5e90e3b3af64bdaf62c37eeffcb"
          ],
          "data": "0x0000000000000000000000000000000000000000000000000000000000000000",
          "blockHash": "0x45a0710a79812997102f262fac1339e44810dd5b1df7e3a53a1f0813216fdf5a",
          "blockNumber": "0x12c6d49",
          "transactionHash": "0xca3eb887296a4c03dd081c68fbb66601caed2500fc9cdc4b6ef8ce43c3e1cbe8",
          "transactionIndex": "0x46",
          "logIndex": "0xe2",
          "removed": false
        },
        {
          "address": "0x0000206329b97DB379d5E1Bf586BbDB969C63274",
          "topics": [
            "0xddf252ad1be2c89b69c2b068fc378daa952ba7f163c4a11628f55a4df523b3ef",
            "0x000000000000000000000000a9ddd91249dfdd450e81e1c56ab60e1a62651701",
            "0x000000000000000000000000bbbbbbbbbb9cc5e90e3b3af64bdaf62c37eeffcb"
          ],
          "data": "0x0000000000000000000000000000000000000000000000000de0b6b3a7640000",
          "blockHash": "0x45a0710a79812997102f262fac1339e44810dd5b1df7e3a53a1f0813216fdf5a",
          "blockNumber": "0x12c6d49",
          "transactionHash": "0xca3eb887296a4c03dd081c68fbb66601caed2500fc9cdc4b6ef8ce43c3e1cbe8",
          "transactionIndex": "0x46",
          "logIndex": "0xe3",
          "removed": false
        }
      ],
      "status": "0x1",
      "logsBloom": "0x00000000000000000000000000000080000000000000000000000000000000000000400000000000000000000000000000000000000000000000000020a44000000000000010000000000008800004000000000800200000000000080000000000000000000000000000000000000000000000000000000000000010000000000000000000000008000000000000000000000000010000000000000000000000820000000000000000000000000000000000000000000000a00000080000000020000002000000000001000000000000000000004000000000000000000000400010000001000000000000200001000000000000000000000040000000004000",
      "type": "0x2",
      "effectiveGasPrice": "0x2c1ad1e20"
    },
    {
      "transactionHash": "0xaf31c0243533da81896247df7e25887211ccfe965d96f3f27245f94befceb66e",
      "transactionIndex": "0x1a",
      "blockHash": "0xe058de7f0f93d218f4bf3afe8aadca3a5b959f5d60efabecb148bc1cb3f5ca83",
      "blockNumber": "0x12c6d4a",
      "from": "0xA9DdD91249DFdd450E81E1c56Ab60E1A62651701",
      "to": "0xdd0f28e19C1780eb6396170735D45153D261490d",
      "cumulativeGasUsed": "0x30a702",
      "gasUsed": "0xb3d4",
      "contractAddress": null,
      "logs": [
        {
          "address": "0xdd0f28e19C1780eb6396170735D45153D261490d",
          "topics": [
            "0x8c5be1e5ebec7d5bd14f71427d1e84f3dd0314c0f7b2291e5b200ac8c7c3b925",
            "0x000000000000000000000000a9ddd91249dfdd450e81e1c56ab60e1a62651701",
            "0x000000000000000000000000bbbbbbbbbb9cc5e90e3b3af64bdaf62c37eeffcb"
          ],
          "data": "0x000000000000000000000000000000000000000000000000a25ec002c0120000",
          "blockHash": "0xe058de7f0f93d218f4bf3afe8aadca3a5b959f5d60efabecb148bc1cb3f5ca83",
          "blockNumber": "0x12c6d4a",
          "transactionHash": "0xaf31c0243533da81896247df7e25887211ccfe965d96f3f27245f94befceb66e",
          "transactionIndex": "0x1a",
          "logIndex": "0x53",
          "removed": false
        }
      ],
      "status": "0x1",
      "logsBloom": "0x00000000000000000000000000000080000080000000000000000000000000000000000000000000000000000000000000000000000000000000000000200000000000000000000000000000000000000000000000000000000000000000000000000000000000000000000000000000000000000000000000000000000000000000000000000002000000000000000000000000000000000000000000000000820000000000000000000002000000000000000000000000800000080000000000000000000000000000000000000000000000000000000000000000000000000010000001000000000000200000000000000000000000000000000000000000",
      "type": "0x2",
      "effectiveGasPrice": "0x2dc7d7318"
    },
    {
      "transactionHash": "0xa99ffc9ad1e87a6a8957c4699f6ef36feb2583ccea8cda76c15117961b93fd6c",
      "transactionIndex": "0x14",
      "blockHash": "0xaf56dfd23a57d9b2d2d15f0601669484dc66b47eb30db5ed9a4c3d1686c5c5cb",
      "blockNumber": "0x12c6d4b",
      "from": "0xA9DdD91249DFdd450E81E1c56Ab60E1A62651701",
      "to": "0xBBBBBbbBBb9cC5e90e3b3Af64bdAF62C37EEFFCb",
      "cumulativeGasUsed": "0x27e6dc",
      "gasUsed": "0x15108",
      "contractAddress": null,
      "logs": [
        {
          "address": "0xBBBBBbbBBb9cC5e90e3b3Af64bdAF62C37EEFFCb",
          "topics": [
            "0xa3b9472a1399e17e123f3c2e6586c23e504184d504de59cdaa2b375e880c6184",
            "0x7f2eec1f78d0412e61fa3be531e36052460583e7f9b5c1efc1407f10c48a775d",
            "0x000000000000000000000000a9ddd91249dfdd450e81e1c56ab60e1a62651701",
            "0x000000000000000000000000a9ddd91249dfdd450e81e1c56ab60e1a62651701"
          ],
          "data": "0x000000000000000000000000000000000000000000000000a25ec002c0120000",
          "blockHash": "0xaf56dfd23a57d9b2d2d15f0601669484dc66b47eb30db5ed9a4c3d1686c5c5cb",
          "blockNumber": "0x12c6d4b",
          "transactionHash": "0xa99ffc9ad1e87a6a8957c4699f6ef36feb2583ccea8cda76c15117961b93fd6c",
          "transactionIndex": "0x14",
          "logIndex": "0x56",
          "removed": false
        },
        {
          "address": "0xdd0f28e19C1780eb6396170735D45153D261490d",
          "topics": [
            "0xddf252ad1be2c89b69c2b068fc378daa952ba7f163c4a11628f55a4df523b3ef",
            "0x000000000000000000000000a9ddd91249dfdd450e81e1c56ab60e1a62651701",
            "0x000000000000000000000000bbbbbbbbbb9cc5e90e3b3af64bdaf62c37eeffcb"
          ],
          "data": "0x000000000000000000000000000000000000000000000000a25ec002c0120000",
          "blockHash": "0xaf56dfd23a57d9b2d2d15f0601669484dc66b47eb30db5ed9a4c3d1686c5c5cb",
          "blockNumber": "0x12c6d4b",
          "transactionHash": "0xa99ffc9ad1e87a6a8957c4699f6ef36feb2583ccea8cda76c15117961b93fd6c",
          "transactionIndex": "0x14",
          "logIndex": "0x57",
          "removed": false
        }
      ],
      "status": "0x1",
      "logsBloom": "0x0000000000000000000000000000008000008000000000000000000000000000000000000000000000000000000000000000000000000000000000000000000000000000001000000000000800000000000000000000000000000000000000000000000000000000000000000000000000000000000000000000001000000000000000800000000a000000000000000000000000010000000000000000000000800000000000000000000002000000000000000000000000a00000080000000020000002000000000000000000000000000000000000000400000000000000000000000001000000000000200000200000000000000000000040000000000000",
      "type": "0x2",
      "effectiveGasPrice": "0x2bedf17d4"
    },
    {
      "transactionHash": "0x8ff29dd00f36a15299fd2afd33f27d08430c16e5a451c079b4c332e5a0d0c8a3",
      "transactionIndex": "0x35",
      "blockHash": "0x513784ad7adfbaa57e816a39e21e3b47f617a774d76e038864a0f737fde42c51",
      "blockNumber": "0x12c6d4c",
      "from": "0xA9DdD91249DFdd450E81E1c56Ab60E1A62651701",
      "to": "0xBBBBBbbBBb9cC5e90e3b3Af64bdAF62C37EEFFCb",
      "cumulativeGasUsed": "0x3b6da7",
      "gasUsed": "0x3e2f4",
      "contractAddress": null,
      "logs": [
        {
          "address": "0x870aC11D48B15DB9a138Cf899d20F13F79Ba00BC",
          "topics": [
            "0x7120161a7b3d31251e01294ab351ef15a41b91659a36032e4641bb89b121e321",
            "0x7f2eec1f78d0412e61fa3be531e36052460583e7f9b5c1efc1407f10c48a775d"
          ],
          "data": "0x0000000000000000000000000000000000000000000000000000000012d41ba5000000000000000000000000000000000000000000000000000000004b4fe1b8",
          "blockHash": "0x513784ad7adfbaa57e816a39e21e3b47f617a774d76e038864a0f737fde42c51",
          "blockNumber": "0x12c6d4c",
          "transactionHash": "0x8ff29dd00f36a15299fd2afd33f27d08430c16e5a451c079b4c332e5a0d0c8a3",
          "transactionIndex": "0x35",
          "logIndex": "0x4f",
          "removed": false
        },
        {
          "address": "0xBBBBBbbBBb9cC5e90e3b3Af64bdAF62C37EEFFCb",
          "topics": [
            "0x9d9bd501d0657d7dfe415f779a620a62b78bc508ddc0891fbbd8b7ac0f8fce87",
            "0x7f2eec1f78d0412e61fa3be531e36052460583e7f9b5c1efc1407f10c48a775d"
          ],
          "data": "0x0000000000000000000000000000000000000000000000000000000012d41ba500000000000000000000000000000000000000000000000000000000000000000000000000000000000000000000000000000000000000000000000000000000",
          "blockHash": "0x513784ad7adfbaa57e816a39e21e3b47f617a774d76e038864a0f737fde42c51",
          "blockNumber": "0x12c6d4c",
          "transactionHash": "0x8ff29dd00f36a15299fd2afd33f27d08430c16e5a451c079b4c332e5a0d0c8a3",
          "transactionIndex": "0x35",
          "logIndex": "0x50",
          "removed": false
        },
        {
          "address": "0xBBBBBbbBBb9cC5e90e3b3Af64bdAF62C37EEFFCb",
          "topics": [
            "0x570954540bed6b1304a87dfe815a5eda4a648f7097a16240dcd85c9b5fd42a43",
            "0x7f2eec1f78d0412e61fa3be531e36052460583e7f9b5c1efc1407f10c48a775d",
            "0x000000000000000000000000a9ddd91249dfdd450e81e1c56ab60e1a62651701",
            "0x000000000000000000000000a9ddd91249dfdd450e81e1c56ab60e1a62651701"
          ],
          "data": "0x000000000000000000000000a9ddd91249dfdd450e81e1c56ab60e1a626517010000000000000000000000000000000000000000000000000de0b6b3a764000000000000000000000000000000000000000000000000d3c21bcecceda1000000",
          "blockHash": "0x513784ad7adfbaa57e816a39e21e3b47f617a774d76e038864a0f737fde42c51",
          "blockNumber": "0x12c6d4c",
          "transactionHash": "0x8ff29dd00f36a15299fd2afd33f27d08430c16e5a451c079b4c332e5a0d0c8a3",
          "transactionIndex": "0x35",
          "logIndex": "0x51",
          "removed": false
        },
        {
          "address": "0x0000206329b97DB379d5E1Bf586BbDB969C63274",
          "topics": [
            "0xddf252ad1be2c89b69c2b068fc378daa952ba7f163c4a11628f55a4df523b3ef",
            "0x000000000000000000000000bbbbbbbbbb9cc5e90e3b3af64bdaf62c37eeffcb",
            "0x000000000000000000000000a9ddd91249dfdd450e81e1c56ab60e1a62651701"
          ],
          "data": "0x0000000000000000000000000000000000000000000000000de0b6b3a7640000",
          "blockHash": "0x513784ad7adfbaa57e816a39e21e3b47f617a774d76e038864a0f737fde42c51",
          "blockNumber": "0x12c6d4c",
          "transactionHash": "0x8ff29dd00f36a15299fd2afd33f27d08430c16e5a451c079b4c332e5a0d0c8a3",
          "transactionIndex": "0x35",
          "logIndex": "0x52",
          "removed": false
        }
      ],
      "status": "0x1",
      "logsBloom": "0x00000000000000000002000000000080000000000000000000000000000000000000400000000000000000000000000000000000000000000000000020844000000000000010000000000008000004000000000000200000000000080000000000000000000000000000000000000000000000000000000000000010000000000000000000000008000000000000000000000000010000000000000000000000800000000000000000000000000000000000000000000000a00000080000000020000002000000000001000000000000000000004000000000000000000000000000004001000008000000200001000000000000000000000040000000004000",
      "type": "0x2",
      "effectiveGasPrice": "0x300429929"
    }
  ],
  "libraries": [],
  "pending": [],
  "returns": {},
  "timestamp": 1713521216,
  "chain": 1,
  "multi": false,
  "commit": "d71af18"
}