{
  "transactions": [
    {
      "hash": "0x26cebde49e8c33d9328d3b444688ad156f47b25195c384364a1d3685c717b746",
      "transactionType": "CREATE",
      "contractName": "MorphoFeedPTUSDe",
      "contractAddress": "0x9c3C929884a5579f258e22408F2601c5e60e144A",
      "function": null,
      "arguments": [
        "0x5bc6BEf80DA563EBf6Df6D6913513fa9A7ec89BE",
        "500000000000000000",
        "1800"
      ],
      "transaction": {
        "type": "0x02",
        "from": "0xa9ddd91249dfdd450e81e1c56ab60e1a62651701",
        "gas": "0x252f5c",
        "value": "0x0",
        "data": "0x608060405234801562000010575f80fd5b50604051620020e4380380620020e48339810160408190526200003391620000d6565b8282828181846001600160a01b038116620000615760405163d92e233d60e01b815260040160405180910390fd5b5f80546001600160a01b0319166001600160a01b039290921691909117905561038463ffffffff82161015620000aa57604051630d72bb8f60e41b815260040160405180910390fd5b6001919091556002805463ffffffff191663ffffffff909216919091179055506200012c945050505050565b5f805f60608486031215620000e9575f80fd5b83516001600160a01b038116811462000100575f80fd5b60208501516040860151919450925063ffffffff8116811462000121575f80fd5b809150509250925092565b611faa806200013a5f395ff3fe608060405234801561000f575f80fd5b50600436106100e4575f3560e01c8063181cc05b146100e8578063204f83f91461010657806326d895451461011a578063313ce5671461013f5780633406b6d11461014e57806338d52e0f14610163578063521d4de91461016b57806354fd4d501461018e5780637284e4161461019557806380f55605146101d457806383914540146101dc578063921a12ab146101e75780639a6fc8f5146101f0578063b4a0bdf314610237578063c433c80a14610249578063d965a5d21461025c578063e43581b81461026b578063feaf968c1461027e575b5f80fd5b6100f0610286565b6040516100fd9190611bd4565b60405180910390f35b6366a195805b6040519081526020016100fd565b60025461012a9063ffffffff1681565b60405163ffffffff90911681526020016100fd565b604051601281526020016100fd565b61016161015c366004611be8565b61029e565b005b6100f0610365565b61017e610179366004611c16565b61037d565b60405190151581526020016100fd565b600161010c565b6101c76040518060400160405280601381526020017250542d555344652f55534465204f7261636c6560681b81525081565b6040516100fd9190611c31565b6100f06103f2565b61010c6301e1338081565b61010c60015481565b6102036101fe366004611c7d565b61040a565b604080516001600160501b03968716815260208101959095528401929092526060830152909116608082015260a0016100fd565b5f546100f0906001600160a01b031681565b610161610257366004611ca3565b61042b565b61010c670de0b6b3a764000081565b61017e610279366004611c16565b610527565b610203610557565b7342862f48eade25661558afe0a630b132038553d090565b5f5460405163521d4de960e01b81526001600160a01b039091169063521d4de9906102cd903390600401611bd4565b602060405180830381865afa1580156102e8573d5f803e3d5ffd5b505050506040513d601f19601f8201168201806040525081019061030c9190611cc6565b61032957604051632678482f60e21b815260040160405180910390fd5b60018190556040518181527f1693f12ff158ba72b61d65dce0487c8c9166916e22e284990a7e42b5f38b080a906020015b60405180910390a150565b734c9edd5852cd905f086c759e8383e09bff1e68b390565b5f805460405163521d4de960e01b81526001600160a01b039091169063521d4de9906103ad908590600401611bd4565b602060405180830381865afa1580156103c8573d5f803e3d5ffd5b505050506040513d601f19601f820116820180604052508101906103ec9190611cc6565b92915050565b7319588f29f9402bb508007feadd415c875ee3f19f90565b5f805f805f80610418610577565b90979096505f9550859450849350915050565b5f5460405163521d4de960e01b81526001600160a01b039091169063521d4de99061045a903390600401611bd4565b602060405180830381865afa158015610475573d5f803e3d5ffd5b505050506040513d601f19601f820116820180604052508101906104999190611cc6565b6104b657604051632678482f60e21b815260040160405180910390fd5b6103848163ffffffff1610156104df57604051630d72bb8f60e41b815260040160405180910390fd5b6002805463ffffffff191663ffffffff83169081179091556040519081527f87edb95cfb8afc62e405f2bb9fe4ec71648ccecc13387d294c8a5eb09ca53fd79060200161035a565b5f8054604051631c86b03760e31b81526001600160a01b039091169063e43581b8906103ad908590600401611bd4565b5f805f805f80610565610577565b90969095505f94508493508392509050565b5f806105816105d0565b90505f61058c610660565b90505f81831161059c578261059e565b815b90505f670de0b6b3a7640000826105b361067f565b6105bd9190611cf9565b6105c79190611d24565b95945050505050565b5f806366a1958042116105f0576105eb426366a19580611d37565b6105f2565b5f5b9050805f0361060a57670de0b6b3a764000091505090565b5f61063d61061c836301e133806107a0565b61063761062860015490565b670de0b6b3a7640000906107be565b906107cc565b90505f610658610655670de0b6b3a7640000846107a0565b90565b949350505050565b5f61067a61066c6103f2565b60025463ffffffff166108d7565b905090565b5f80610689610365565b6001600160a01b03166370a0823161069f610286565b6040518263ffffffff1660e01b81526004016106bb9190611bd4565b602060405180830381865afa1580156106d6573d5f803e3d5ffd5b505050506040513d601f19601f820116820180604052508101906106fa9190611d4a565b90505f610705610286565b6001600160a01b03166318160ddd6040518163ffffffff1660e01b8152600401602060405180830381865afa158015610740573d5f803e3d5ffd5b505050506040513d601f19601f820116820180604052508101906107649190611d4a565b905080821161078f5780610780670de0b6b3a764000084611cf9565b61078a9190611d24565b610799565b670de0b6b3a76400005b9250505090565b5f6107b761065584670de0b6b3a764000085610918565b9392505050565b5f6107b76106558385611d61565b5f82828183036107f55780156107e2575f6107ec565b670de0b6b3a76400005b925050506103ec565b670de0b6b3a7640000820361081657670de0b6b3a7640000925050506103ec565b805f0361082f57670de0b6b3a7640000925050506103ec565b670de0b6b3a764000081036108485784925050506103ec565b670de0b6b3a76400008211156108795761087261086d610867876109eb565b86610b12565b610b20565b92506108cf565b5f610895610655846a0c097ce7bc90715b34b9f160241b611d24565b90505f6108ad61086d6108a7846109eb565b88610b12565b90506108ca610655826a0c097ce7bc90715b34b9f160241b611d24565b945050505b505092915050565b5f805f6108e385610b74565b915091508082106108f8576107ec8585610d97565b80826109048787610d97565b61090e9190611cf9565b6107ec9190611d24565b5f80805f19858709858702925082811083820303915050805f0361094f5783828161094557610945611d10565b04925050506107b7565b83811061098557604051630c740aef60e31b81526004810187905260248101869052604481018590526064015b60405180910390fd5b5f84868809600260036001881981018916988990049182028318808302840302808302840302808302840302808302840302808302840302918202909203025f889003889004909101858311909403939093029303949094049190911702949350505050565b5f81670de0b6b3a7640000811015610a195760405163036d32ef60e41b81526004810184905260240161097c565b5f610a9a670de0b6b3a7640000830460016001600160801b03821160071b91821c6001600160401b03811160061b90811c63ffffffff811160051b90811c61ffff811160041b90811c60ff8111600390811b91821c600f811160021b90811c918211871b91821c969096119490961792909217171791909117919091171790565b9050670de0b6b3a7640000810282821c670de0b6b3a763ffff198101610ac35750949350505050565b671bc16d674ec800006706f05b59d3b200005b8015610b0657670de0b6b3a7640000838002049250818310610afe579283019260019290921c915b60011c610ad6565b50919695505050505050565b5f6107b76106558484610e66565b5f81680a688906bd8affffff811115610b4f5760405163b3b6ba1f60e01b81526004810184905260240161097c565b5f610b66670de0b6b3a7640000604084901b611d24565b905061065861065582610f18565b5f805f80846001600160a01b0316632c8ce6bc6040518163ffffffff1660e01b8152600401606060405180830381865afa158015610bb4573d5f803e3d5ffd5b505050506040513d601f19601f82011682018060405250810190610bd89190611d74565b9250509150816001600160a01b0316633ba0b9a96040518163ffffffff1660e01b8152600401602060405180830381865afa158015610c19573d5f803e3d5ffd5b505050506040513d601f19601f82011682018060405250810190610c3d9190611d4a565b93505f816001600160a01b031663d2a3584e6040518163ffffffff1660e01b8152600401602060405180830381865afa158015610c7c573d5f803e3d5ffd5b505050506040513d601f19601f82011682018060405250810190610ca09190611d4a565b9050816001600160a01b031663516399df6040518163ffffffff1660e01b8152600401602060405180830381865afa158015610cde573d5f803e3d5ffd5b505050506040513d601f19601f82011682018060405250810190610d029190611cc6565b8015610d75575043826001600160a01b03166360e0a9e16040518163ffffffff1660e01b8152600401602060405180830381865afa158015610d46573d5f803e3d5ffd5b505050506040513d601f19601f82011682018060405250810190610d6a9190611dbe565b6001600160801b0316145b15610d8257809350610d8f565b610d8c8582611604565b93505b505050915091565b5f80836001600160a01b031663e184c9be6040518163ffffffff1660e01b8152600401602060405180830381865afa158015610dd5573d5f803e3d5ffd5b505050506040513d601f19601f82011682018060405250810190610df99190611d4a565b9050428111610e1357670de0b6b3a76400009150506103ec565b5f610e1e8585611619565b90505f610e2b4284611d37565b90505f610e40610e3b8484611738565b611770565b9050610e54670de0b6b3a764000082611781565b9450505050506103ec565b5092915050565b5f80805f19848609848602925082811083820303915050805f03610e975750670de0b6b3a7640000900490506103ec565b670de0b6b3a76400008110610ec957604051635173648d60e01b8152600481018690526024810185905260440161097c565b5f670de0b6b3a764000085870962040000818503049310909103600160ee1b02919091177faccb18165bd6fe31ae1cf318dc5b51eee0e1ba569b88cd74c1773b91fac106690291505092915050565b600160bf1b60ff60381b821615611001576001603f1b821615610f445768016a09e667f3bcc9090260401c5b6001603e1b821615610f5f576801306fe0a31b7152df0260401c5b6001603d1b821615610f7a576801172b83c7d517adce0260401c5b6001603c1b821615610f955768010b5586cf9890f62a0260401c5b6001603b1b821615610fb0576801059b0d31585743ae0260401c5b6001603a1b821615610fcb57680102c9a3e778060ee70260401c5b600160391b821615610fe65768010163da9fb33356d80260401c5b600160381b82161561100157680100b1afa5abcbed610260401c5b60ff60301b8216156110e557600160371b8216156110285768010058c86da1c09ea20260401c5b600160361b821615611043576801002c605e2e8cec500260401c5b600160351b82161561105e57680100162f3904051fa10260401c5b600160341b821615611079576801000b175effdc76ba0260401c5b600160331b82161561109457680100058ba01fb9f96d0260401c5b600160321b8216156110af5768010002c5cc37da94920260401c5b600160311b8216156110ca576801000162e525ee05470260401c5b600160301b8216156110e55768010000b17255775c040260401c5b60ff60281b8216156111c9576001602f1b82161561110c576801000058b91b5bc9ae0260401c5b6001602e1b82161561112757680100002c5c89d5ec6d0260401c5b6001602d1b8216156111425768010000162e43f4f8310260401c5b6001602c1b82161561115d57680100000b1721bcfc9a0260401c5b6001602b1b8216156111785768010000058b90cf1e6e0260401c5b6001602a1b821615611193576801000002c5c863b73f0260401c5b600160291b8216156111ae57680100000162e430e5a20260401c5b600160281b8216156111c9576801000000b1721835510260401c5b60ff60201b8216156112ad57600160271b8216156111f057680100000058b90c0b490260401c5b600160261b82161561120b5768010000002c5c8601cc0260401c5b600160251b821615611226576801000000162e42fff00260401c5b600160241b8216156112415768010000000b17217fbb0260401c5b600160231b82161561125c576801000000058b90bfce0260401c5b600160221b82161561127757680100000002c5c85fe30260401c5b600160211b8216156112925768010000000162e42ff10260401c5b600160201b8216156112ad57680100000000b17217f80260401c5b63ff0000008216156113915763800000008216156112d45768010000000058b90bfc0260401c5b63400000008216156112ef576801000000002c5c85fe0260401c5b632000000082161561130a57680100000000162e42ff0260401c5b6310000000821615611325576801000000000b17217f0260401c5b630800000082161561134057680100000000058b90c00260401c5b630400000082161561135b5768010000000002c5c8600260401c5b6302000000821615611376576801000000000162e4300260401c5b63010000008216156113915768010000000000b172180260401c5b62ff000082161561146b57628000008216156113b6576801000000000058b90c0260401c5b624000008216156113d057680100000000002c5c860260401c5b622000008216156113ea5768010000000000162e430260401c5b6210000082161561140457680100000000000b17210260401c5b6208000082161561141e5768010000000000058b910260401c5b62040000821615611438576801000000000002c5c80260401c5b6202000082161561145257680100000000000162e40260401c5b6201000082161561146b5761b172600160401b010260401c5b61ff008216156115345761800082161561148d576158b9600160401b010260401c5b6140008216156114a557612c5d600160401b010260401c5b6120008216156114bd5761162e600160401b010260401c5b6110008216156114d557610b17600160401b010260401c5b6108008216156114ed5761058c600160401b010260401c5b610400821615611505576102c6600160401b010260401c5b61020082161561151d57610163600160401b010260401c5b6101008216156115345760b1600160401b010260401c5b60ff8216156115ed576080821615611553576059600160401b010260401c5b604082161561156957602c600160401b010260401c5b602082161561157f576016600160401b010260401c5b601082161561159557600b600160401b010260401c5b60088216156115ab576006600160401b010260401c5b60048216156115c1576003600160401b010260401c5b60028216156115d7576001600160401b010260401c5b60018216156115ed576001600160401b010260401c5b670de0b6b3a76400000260409190911c60bf031c90565b5f81831161161257816107b7565b5090919050565b6040805160028082526060820183525f928392919060208301908036833701905050905082815f8151811061165057611650611df8565b63ffffffff9092166020928302919091019091015260405163883bdbfd60e01b81525f906001600160a01b0386169063883bdbfd90611693908590600401611e0c565b5f60405180830381865afa1580156116ad573d5f803e3d5ffd5b505050506040513d5f823e601f3d908101601f191682016040526116d49190810190611e70565b90508363ffffffff16815f815181106116ef576116ef611df8565b60200260200101518260018151811061170a5761170a611df8565b602002602001015161171c9190611f2f565b6117269190611f4f565b6001600160d81b031695945050505050565b5f806117496201518061016d611cf9565b6117538486611cf9565b61175d9190611d24565b905061065861176b826117af565b6117c3565b5f8082121561177d575f80fd5b5090565b5f80611795670de0b6b3a764000085611cf9565b90508281816117a6576117a6611d10565b04949350505050565b5f6001600160ff1b0382111561177d575f80fd5b5f680238fd42c5cf03ffff1982121580156117e7575068070c1cc73b00c800008213155b6118265760405162461bcd60e51b815260206004820152601060248201526f125b9d985b1a5908195e1c1bdb995b9d60821b604482015260640161097c565b5f82121561185c57611839825f036117c3565b6a0c097ce7bc90715b34b9f160241b8161185557611855611d10565b0592915050565b5f6806f05b59d3b2000000831261189957506806f05b59d3b1ffffff199091019072195e54c5dd42177f53a27172fa9ec63026282760241b6118cf565b6803782dace9d900000083126118cb57506803782dace9d8ffffff19909101906b1425982cf597cd205cef73806118cf565b5060015b6064929092029168056bc75e2d6310000068ad78ebc5ac62000000841261191f5768ad78ebc5ac61ffffff199093019268056bc75e2d631000006e01855144814a7ff805980ff008400082020590505b6856bc75e2d631000000841261195b576856bc75e2d630ffffff199093019268056bc75e2d631000006b02df0ab5a80a22c61ab5a70082020590505b682b5e3af16b18800000841261199557682b5e3af16b187fffff199093019268056bc75e2d63100000693f1fce3da636ea5cf85082020590505b6815af1d78b58c40000084126119cf576815af1d78b58c3fffff199093019268056bc75e2d63100000690127fa27722cc06cc5e282020590505b680ad78ebc5ac62000008412611a0857680ad78ebc5ac61fffff199093019268056bc75e2d6310000068280e60114edb805d0382020590505b68056bc75e2d631000008412611a415768056bc75e2d630fffff199093019268056bc75e2d63100000680ebc5fb4174612111082020590505b6802b5e3af16b18800008412611a7a576802b5e3af16b187ffff199093019268056bc75e2d631000006808f00f760a4b2db55d82020590505b68015af1d78b58c400008412611ab35768015af1d78b58c3ffff199093019268056bc75e2d631000006806f5f177578893793782020590505b68056bc75e2d631000008481019085906002908280020505918201919050600368056bc75e2d631000008783020505918201919050600468056bc75e2d631000008783020505918201919050600568056bc75e2d631000008783020505918201919050600668056bc75e2d631000008783020505918201919050600768056bc75e2d631000008783020505918201919050600868056bc75e2d631000008783020505918201919050600968056bc75e2d631000008783020505918201919050600a68056bc75e2d631000008783020505918201919050600b68056bc75e2d631000008783020505918201919050600c68056bc75e2d631000008783020505918201919050606468056bc75e2d63100000848402058502059695505050505050565b6001600160a01b0391909116815260200190565b5f60208284031215611bf8575f80fd5b5035919050565b6001600160a01b0381168114611c13575f80fd5b50565b5f60208284031215611c26575f80fd5b81356107b781611bff565b5f602080835283518060208501525f5b81811015611c5d57858101830151858201604001528201611c41565b505f604082860101526040601f19601f8301168501019250505092915050565b5f60208284031215611c8d575f80fd5b81356001600160501b03811681146107b7575f80fd5b5f60208284031215611cb3575f80fd5b813563ffffffff811681146107b7575f80fd5b5f60208284031215611cd6575f80fd5b815180151581146107b7575f80fd5b634e487b7160e01b5f52601160045260245ffd5b80820281158282048414176103ec576103ec611ce5565b634e487b7160e01b5f52601260045260245ffd5b5f82611d3257611d32611d10565b500490565b818103818111156103ec576103ec611ce5565b5f60208284031215611d5a575f80fd5b5051919050565b808201808211156103ec576103ec611ce5565b5f805f60608486031215611d86575f80fd5b8351611d9181611bff565b6020850151909350611da281611bff565b6040850151909250611db381611bff565b809150509250925092565b5f60208284031215611dce575f80fd5b81516001600160801b03811681146107b7575f80fd5b634e487b7160e01b5f52604160045260245ffd5b634e487b7160e01b5f52603260045260245ffd5b602080825282518282018190525f9190848201906040850190845b81811015611e4957835163ffffffff1683529284019291840191600101611e27565b50909695505050505050565b80516001600160d81b0381168114611e6b575f80fd5b919050565b5f6020808385031215611e81575f80fd5b82516001600160401b0380821115611e97575f80fd5b818501915085601f830112611eaa575f80fd5b815181811115611ebc57611ebc611de4565b8060051b604051601f19603f83011681018181108582111715611ee157611ee1611de4565b604052918252848201925083810185019188831115611efe575f80fd5b938501935b82851015611f2357611f1485611e55565b84529385019392850192611f03565b98975050505050505050565b6001600160d81b03828116828216039080821115610e5f57610e5f611ce5565b5f6001600160d81b0383811680611f6857611f68611d10565b9216919091049291505056fea26469706673582212208d2cb20f7cb9870f98e519f1ad3a575f4473b88ddb27879236b6224286fa998f64736f6c634300081600330000000000000000000000005bc6bef80da563ebf6df6d6913513fa9a7ec89be00000000000000000000000000000000000000000000000006f05b59d3b200000000000000000000000000000000000000000000000000000000000000000708",
        "nonce": "0xe8",
        "accessList": []
      },
      "additionalContracts": [],
      "isFixedGasLimit": false
    },
    {
      "hash": "0xeab70f9327bb476a3063dbf1d2515f1599394bb402a4f0201c00fcb5547c1d07",
      "transactionType": "CALL",
      "contractName": null,
      "contractAddress": "0x3A7bB36Ee3f3eE32A60e9f2b33c1e5f2E83ad766",
      "function": null,
      "arguments": null,
      "transaction": {
        "type": "0x02",
        "from": "0xa9ddd91249dfdd450e81e1c56ab60e1a62651701",
        "to": "0x3a7bb36ee3f3ee32a60e9f2b33c1e5f2e83ad766",
        "gas": "0xd0367",
        "value": "0x0",
        "data": "0xb32cddf4000000000000000000000000000000000000000000000000000000000000000000000000000000000000000000000000000000000000000000000000000000010000000000000000000000009c3c929884a5579f258e22408f2601c5e60e144a000000000000000000000000bc5fbcf58ceaea19d523abc76515b9aefb5cfd580000000000000000000000000000000000000000000000000000000000000012000000000000000000000000000000000000000000000000000000000000000000000000000000000000000000000000000000000000000000000000000000010000000000000000000000000000000000000000000000000000000000000000000000000000000000000000000000000000000000000000000000000000000000000000000000000000000000000000000000000000000000000000000000120000000000000000000000000000000000000000000000000000000000000000",
        "nonce": "0xe9",
        "accessList": []
      },
      "additionalContracts": [
        {
          "transactionType": "CREATE2",
          "address": "0x81B379f99CeE4Ee08f8CBC476e80e756D3b172cc",
          "initCode": "0x6101a08060405234620002fa578062000f1e803803809162000022828562000331565b833961014092839181010312620002fa576200003e8162000355565b91602082015190620000536040840162000355565b90620000626060850162000355565b926080850151956200007760a0870162000355565b9060c0870151956200008c60e0890162000355565b95610100996200009e8b8b0162000355565b6101209a8b0151956001600160a01b0386811615801590620002ef575b620000d190620000ca6200036a565b90620003bf565b811615801590620002e4575b620000ec90620000ca6200036a565b8715956200015a6040516200010181620002ff565b601f8152620001397f7661756c7420636f6e76657273696f6e2073616d706c65206973207a65726f00918260208201528a15620003bf565b604051906200014882620002ff565b601f825260208201528d1515620003bf565b6080528760a05260c0528960e052828c52838b5288885261016098818a52602496870190818811620002cf57620001bd620001ca94620001c4620001bd95620001b6620001bd620001d19b9a97620001b6620001ca986200045b565b9062000429565b916200045b565b6200044d565b906200044d565b604d8111620002ba57600a0a868102968188041490151715620002a5576200029157506101809304835260405193610a269586620004f8873960805186818161014b0152610304015260a0518681816102e301526105b9015260c0518681816103ac0152610560015260e05186818161038b01526104f301525185818160d9015261032d0152518481816101b9015261035c0152518381816103d5015261049a01525182818161027f01526103fe01525181818161021201526104250152f35b634e487b7160e01b60009081526012600452fd5b50634e487b7160e01b60009081526011600452fd5b82634e487b7160e01b60005260116004526000fd5b87634e487b7160e01b60005260116004526000fd5b5060018b14620000dd565b5060018914620000bb565b600080fd5b604081019081106001600160401b038211176200031b57604052565b634e487b7160e01b600052604160045260246000fd5b601f909101601f19168101906001600160401b038211908210176200031b57604052565b51906001600160a01b0382168203620002fa57565b60405190606082016001600160401b038111838210176200031b5760405260228252616e6560f01b6040837f7661756c7420636f6e76657273696f6e2073616d706c65206973206e6f74206f60208201520152565b15620003c85750565b6040519062461bcd60e51b82528160208060048301528251908160248401526000935b8285106200040f575050604492506000838284010152601f80199101168101030190fd5b8481018201518686016044015293810193859350620003eb565b919082018092116200043757565b634e487b7160e01b600052601160045260246000fd5b919082039182116200043757565b6001600160a01b03168015620004f15760206004916040519283809263313ce56760e01b82525afa908115620004e5576000916200049b575b5060ff1690565b6020813d8211620004dc575b81620004b66020938362000331565b81010312620004d857519060ff82168203620004d5575060ff62000494565b80fd5b5080fd5b3d9150620004a7565b6040513d6000823e3d90fd5b5060009056fe60806040818152600436101561001457600080fd5b600091823560e01c908163054f7ac014610584575080632e6f20a614610516578063461739d2146104be57806356095e1114610450578063a035b1fe146102a3578063acfbd39e14610235578063ce4b5bbe146101dd578063dc53858c1461016f578063eaa2d7b4146101015763f50a47181461009057600080fd5b346100fd57817ffffffffffffffffffffffffffffffffffffffffffffffffffffffffffffffffc3601126100fd576020905173ffffffffffffffffffffffffffffffffffffffff7f0000000000000000000000000000000000000000000000000000000000000000168152f35b5080fd5b50346100fd57817ffffffffffffffffffffffffffffffffffffffffffffffffffffffffffffffffc3601126100fd576020905173ffffffffffffffffffffffffffffffffffffffff7f0000000000000000000000000000000000000000000000000000000000000000168152f35b50346100fd57817ffffffffffffffffffffffffffffffffffffffffffffffffffffffffffffffffc3601126100fd576020905173ffffffffffffffffffffffffffffffffffffffff7f0000000000000000000000000000000000000000000000000000000000000000168152f35b50346100fd57817ffffffffffffffffffffffffffffffffffffffffffffffffffffffffffffffffc3601126100fd57602090517f00000000000000000000000000000000000000000000000000000000000000008152f35b50346100fd57817ffffffffffffffffffffffffffffffffffffffffffffffffffffffffffffffffc3601126100fd576020905173ffffffffffffffffffffffffffffffffffffffff7f0000000000000000000000000000000000000000000000000000000000000000168152f35b50346100fd57817ffffffffffffffffffffffffffffffffffffffffffffffffffffffffffffffffc3601126100fd576020906104496103806103576103287f00000000000000000000000000000000000000000000000000000000000000007f000000000000000000000000000000000000000000000000000000000000000061094a565b6103517f00000000000000000000000000000000000000000000000000000000000000006107a5565b906105dc565b6103517f00000000000000000000000000000000000000000000000000000000000000006107a5565b6104226103f96103d07f00000000000000000000000000000000000000000000000000000000000000007f000000000000000000000000000000000000000000000000000000000000000061094a565b6103517f00000000000000000000000000000000000000000000000000000000000000006107a5565b6103517f00000000000000000000000000000000000000000000000000000000000000006107a5565b907f000000000000000000000000000000000000000000000000000000000000000061061e565b9051908152f35b50346100fd57817ffffffffffffffffffffffffffffffffffffffffffffffffffffffffffffffffc3601126100fd576020905173ffffffffffffffffffffffffffffffffffffffff7f0000000000000000000000000000000000000000000000000000000000000000168152f35b50346100fd57817ffffffffffffffffffffffffffffffffffffffffffffffffffffffffffffffffc3601126100fd57602090517f00000000000000000000000000000000000000000000000000000000000000008152f35b50346100fd57817ffffffffffffffffffffffffffffffffffffffffffffffffffffffffffffffffc3601126100fd576020905173ffffffffffffffffffffffffffffffffffffffff7f0000000000000000000000000000000000000000000000000000000000000000168152f35b8390346100fd57817ffffffffffffffffffffffffffffffffffffffffffffffffffffffffffffffffc3601126100fd576020907f00000000000000000000000000000000000000000000000000000000000000008152f35b818102929181159184041417156105ef57565b7f4e487b7100000000000000000000000000000000000000000000000000000000600052601160045260246000fd5b9091828202917fffffffffffffffffffffffffffffffffffffffffffffffffffffffffffffffff848209938380861095039480860395146106dc57848311156106b25782910981600003821680920460028082600302188083028203028083028203028083028203028083028203028083028203028092029003029360018380600003040190848311900302920304170290565b60046040517f227bc153000000000000000000000000000000000000000000000000000000008152fd5b5050809250156106ea570490565b7f4e487b7100000000000000000000000000000000000000000000000000000000600052601260045260246000fd5b90601f7fffffffffffffffffffffffffffffffffffffffffffffffffffffffffffffffe0910116810190811067ffffffffffffffff82111761075a57604052565b7f4e487b7100000000000000000000000000000000000000000000000000000000600052604160045260246000fd5b519069ffffffffffffffffffff821682036107a057565b600080fd5b73ffffffffffffffffffffffffffffffffffffffff1680156109445760049060a06040918251938480927ffeaf968c0000000000000000000000000000000000000000000000000000000082525afa918215610939576000926108e8575b50805181810181811067ffffffffffffffff82111761075a578252600f81526020917f6e6567617469766520616e73776572000000000000000000000000000000000083830152600084126108585750505090565b5180927f08c379a000000000000000000000000000000000000000000000000000000000825280600483015282519283602484015260005b8481106108d1575050507fffffffffffffffffffffffffffffffffffffffffffffffffffffffffffffffe0601f836000604480968601015201168101030190fd5b818101830151868201604401528593508201610890565b909160a0823d8211610931575b8161090260a09383610719565b8101031261092e575061091481610789565b50610926608060208301519201610789565b509038610803565b80fd5b3d91506108f5565b50513d6000823e3d90fd5b50600190565b73ffffffffffffffffffffffffffffffffffffffff169081156109e9576020906024604051809481937f07a2d13a00000000000000000000000000000000000000000000000000000000835260048301525afa9081156109dd576000916109af575090565b906020823d82116109d5575b816109c860209383610719565b8101031261092e57505190565b3d91506109bb565b6040513d6000823e3d90fd5b505060019056fea2646970667358221220de25ff8dd5708a691db44b0da1e6e734e7659c3f9a1801595bc1fa7bf902c00564736f6c63430008150033000000000000000000000000000000000000000000000000000000000000000000000000000000000000000000000000000000000000000000000000000000010000000000000000000000009c3c929884a5579f258e22408f2601c5e60e144a000000000000000000000000bc5fbcf58ceaea19d523abc76515b9aefb5cfd58000000000000000000000000000000000000000000000000000000000000001200000000000000000000000000000000000000000000000000000000000000000000000000000000000000000000000000000000000000000000000000000001000000000000000000000000000000000000000000000000000000000000000000000000000000000000000000000000000000000000000000000000000000000000000000000000000000000000000000000000000000000000000000000012"
        }
      ],
      "isFixedGasLimit": false
    },
    {
      "hash": "0x0ee1401fab1f7141d6fdaff74db691e0fe3f1f155589d477f4eb4e1829429754",
      "transactionType": "CALL",
      "contractName": null,
      "contractAddress": "0xBBBBBbbBBb9cC5e90e3b3Af64bdAF62C37EEFFCb",
      "function": null,
      "arguments": null,
      "transaction": {
        "type": "0x02",
        "from": "0xa9ddd91249dfdd450e81e1c56ab60e1a62651701",
        "to": "0xbbbbbbbbbb9cc5e90e3b3af64bdaf62c37eeffcb",
        "gas": "0x47336",
        "value": "0x0",
        "data": "0x8c1358a20000000000000000000000000000206329b97db379d5e1bf586bbdb969c63274000000000000000000000000a0021ef8970104c2d008f38d92f115ad56a9b8e100000000000000000000000081b379f99cee4ee08f8cbc476e80e756d3b172cc000000000000000000000000870ac11d48b15db9a138cf899d20f13f79ba00bc0000000000000000000000000000000000000000000000000bef55718ad60000",
        "nonce": "0xea",
        "accessList": []
      },
      "additionalContracts": [],
      "isFixedGasLimit": false
    },
    {
      "hash": "0x84910d089746895adf3ca950a28e24ff8f3066ddb60fe96907b302225fefd3e4",
      "transactionType": "CALL",
      "contractName": null,
      "contractAddress": "0x0000206329b97DB379d5E1Bf586BbDB969C63274",
      "function": "approve(address,uint256)",
      "arguments": [
        "0xBBBBBbbBBb9cC5e90e3b3Af64bdAF62C37EEFFCb",
        "20000000000000000000"
      ],
      "transaction": {
        "type": "0x02",
        "from": "0xa9ddd91249dfdd450e81e1c56ab60e1a62651701",
        "to": "0x0000206329b97db379d5e1bf586bbdb969c63274",
        "gas": "0xcf69",
        "value": "0x0",
        "data": "0x095ea7b3000000000000000000000000bbbbbbbbbb9cc5e90e3b3af64bdaf62c37eeffcb000000000000000000000000000000000000000000000001158e460913d00000",
        "nonce": "0xeb",
        "accessList": []
      },
      "additionalContracts": [],
      "isFixedGasLimit": false
    },
    {
      "hash": "0x07f6f198fd85a1bf5c450bca2da0f5f72677842298e8d7333e3a578abc153ff3",
      "transactionType": "CALL",
      "contractName": null,
      "contractAddress": "0xBBBBBbbBBb9cC5e90e3b3Af64bdAF62C37EEFFCb",
      "function": null,
      "arguments": null,
      "transaction": {
        "type": "0x02",
        "from": "0xa9ddd91249dfdd450e81e1c56ab60e1a62651701",
        "to": "0xbbbbbbbbbb9cc5e90e3b3af64bdaf62c37eeffcb",
        "gas": "0x244f7",
        "value": "0x0",
        "data": "0xa99aad890000000000000000000000000000206329b97db379d5e1bf586bbdb969c63274000000000000000000000000a0021ef8970104c2d008f38d92f115ad56a9b8e100000000000000000000000081b379f99cee4ee08f8cbc476e80e756d3b172cc000000000000000000000000870ac11d48b15db9a138cf899d20f13f79ba00bc0000000000000000000000000000000000000000000000000bef55718ad600000000000000000000000000000000000000000000000000000de0b6b3a76400000000000000000000000000000000000000000000000000000000000000000000000000000000000000000000a9ddd91249dfdd450e81e1c56ab60e1a6265170100000000000000000000000000000000000000000000000000000000000001200000000000000000000000000000000000000000000000000000000000000000",
        "nonce": "0xec",
        "accessList": []
      },
      "additionalContracts": [],
      "isFixedGasLimit": false
    },
    {
      "hash": "0x4f1b930d08085f73ffecaaad62e2641840e4ffc59e9cd8e0bda982ddb963ee8e",
      "transactionType": "CALL",
      "contractName": null,
      "contractAddress": "0xa0021EF8970104c2d008F38D92f115ad56a9B8e1",
      "function": "approve(address,uint256)",
      "arguments": [
        "0xBBBBBbbBBb9cC5e90e3b3Af64bdAF62C37EEFFCb",
        "10000000000000000000"
      ],
      "transaction": {
        "type": "0x02",
        "from": "0xa9ddd91249dfdd450e81e1c56ab60e1a62651701",
        "to": "0xa0021ef8970104c2d008f38d92f115ad56a9b8e1",
        "gas": "0xf825",
        "value": "0x0",
        "data": "0x095ea7b3000000000000000000000000bbbbbbbbbb9cc5e90e3b3af64bdaf62c37eeffcb0000000000000000000000000000000000000000000000008ac7230489e80000",
        "nonce": "0xed",
        "accessList": []
      },
      "additionalContracts": [],
      "isFixedGasLimit": false
    },
    {
      "hash": "0x95628fdc68dad19ce40e719e0974f106b30ce716bada1d527ba6c4a4bb7a835f",
      "transactionType": "CALL",
      "contractName": null,
      "contractAddress": "0xBBBBBbbBBb9cC5e90e3b3Af64bdAF62C37EEFFCb",
      "function": null,
      "arguments": null,
      "transaction": {
        "type": "0x02",
        "from": "0xa9ddd91249dfdd450e81e1c56ab60e1a62651701",
        "to": "0xbbbbbbbbbb9cc5e90e3b3af64bdaf62c37eeffcb",
        "gas": "0x1e87a",
        "value": "0x0",
        "data": "0x238d65790000000000000000000000000000206329b97db379d5e1bf586bbdb969c63274000000000000000000000000a0021ef8970104c2d008f38d92f115ad56a9b8e100000000000000000000000081b379f99cee4ee08f8cbc476e80e756d3b172cc000000000000000000000000870ac11d48b15db9a138cf899d20f13f79ba00bc0000000000000000000000000000000000000000000000000bef55718ad600000000000000000000000000000000000000000000000000008ac7230489e80000000000000000000000000000a9ddd91249dfdd450e81e1c56ab60e1a6265170100000000000000000000000000000000000000000000000000000000000001000000000000000000000000000000000000000000000000000000000000000000",
        "nonce": "0xee",
        "accessList": []
      },
      "additionalContracts": [],
      "isFixedGasLimit": false
    },
    {
      "hash": "0x642212da274836ec598f23000f2ecb5e2fba41e7f348693577a727286b1e2c8a",
      "transactionType": "CALL",
      "contractName": null,
      "contractAddress": "0xBBBBBbbBBb9cC5e90e3b3Af64bdAF62C37EEFFCb",
      "function": null,
      "arguments": null,
      "transaction": {
        "type": "0x02",
        "from": "0xa9ddd91249dfdd450e81e1c56ab60e1a62651701",
        "to": "0xbbbbbbbbbb9cc5e90e3b3af64bdaf62c37eeffcb",
        "gas": "0x45fa9",
        "value": "0x0",
        "data": "0x50d8cd4b0000000000000000000000000000206329b97db379d5e1bf586bbdb969c63274000000000000000000000000a0021ef8970104c2d008f38d92f115ad56a9b8e100000000000000000000000081b379f99cee4ee08f8cbc476e80e756d3b172cc000000000000000000000000870ac11d48b15db9a138cf899d20f13f79ba00bc0000000000000000000000000000000000000000000000000bef55718ad600000000000000000000000000000000000000000000000000000de0b6b3a76400000000000000000000000000000000000000000000000000000000000000000000000000000000000000000000a9ddd91249dfdd450e81e1c56ab60e1a62651701000000000000000000000000a9ddd91249dfdd450e81e1c56ab60e1a62651701",
        "nonce": "0xef",
        "accessList": []
      },
      "additionalContracts": [],
      "isFixedGasLimit": false
    }
  ],
  "receipts": [
    {
      "transactionHash": "0x26cebde49e8c33d9328d3b444688ad156f47b25195c384364a1d3685c717b746",
      "transactionIndex": "0x5",
      "blockHash": "0xa25d41aa104c636fdc7470f63373aed52c9940e5b1102fb09691d817c133afd3",
      "blockNumber": "0x12d3982",
      "from": "0xA9DdD91249DFdd450E81E1c56Ab60E1A62651701",
      "to": null,
      "cumulativeGasUsed": "0x26f16b",
      "gasUsed": "0x1c9a96",
      "contractAddress": "0x9c3C929884a5579f258e22408F2601c5e60e144A",
      "logs": [],
      "status": "0x1",
      "logsBloom": "0x00000000000000000000000000000000000000000000000000000000000000000000000000000000000000000000000000000000000000000000000000000000000000000000000000000000000000000000000000000000000000000000000000000000000000000000000000000000000000000000000000000000000000000000000000000000000000000000000000000000000000000000000000000000000000000000000000000000000000000000000000000000000000000000000000000000000000000000000000000000000000000000000000000000000000000000000000000000000000000000000000000000000000000000000000000000",
      "type": "0x2",
      "effectiveGasPrice": "0x23873b183"
    },
    {
      "transactionHash": "0xeab70f9327bb476a3063dbf1d2515f1599394bb402a4f0201c00fcb5547c1d07",
      "transactionIndex": "0x3",
      "blockHash": "0xc9a5a3c4f375edfada5747d04196297460f7986af022a5af2382c176217145d1",
      "blockNumber": "0x12d3983",
      "from": "0xA9DdD91249DFdd450E81E1c56Ab60E1A62651701",
      "to": "0x3A7bB36Ee3f3eE32A60e9f2b33c1e5f2E83ad766",
      "cumulativeGasUsed": "0x122bac",
      "gasUsed": "0x96be0",
      "contractAddress": null,
      "logs": [
        {
          "address": "0x3A7bB36Ee3f3eE32A60e9f2b33c1e5f2E83ad766",
          "topics": [
            "0x6436acb89463dbc9036f1e52aebf32ac0bf5f69e3987c067110c3ac403ebda33"
          ],
          "data": "0x000000000000000000000000a9ddd91249dfdd450e81e1c56ab60e1a6265170100000000000000000000000081b379f99cee4ee08f8cbc476e80e756d3b172cc",
          "blockHash": "0xc9a5a3c4f375edfada5747d04196297460f7986af022a5af2382c176217145d1",
          "blockNumber": "0x12d3983",
          "transactionHash": "0xeab70f9327bb476a3063dbf1d2515f1599394bb402a4f0201c00fcb5547c1d07",
          "transactionIndex": "0x3",
          "logIndex": "0x1d",
          "removed": false
        }
      ],
      "status": "0x1",
      "logsBloom": "0x00000000000000000000000000000000000000000000000000000000000000000000000000000000000000000000000000000000000000000000000000000000000000000000000000000000000000000000000000000000000000000000000000000000000000000000000000000000000000000000000000000000000000000000000000000000000000000000000000002000000000000000000000000000000000000000000000000000010000000000000000100000000000000000000000000000000000000000000000000000000000000000000000000000000000000000000000000080000000006000000000000000000000000000000000000000",
      "type": "0x2",
      "effectiveGasPrice": "0x24144eba8"
    },
    {
      "transactionHash": "0x0ee1401fab1f7141d6fdaff74db691e0fe3f1f155589d477f4eb4e1829429754",
      "transactionIndex": "0x13",
      "blockHash": "0x85e1846174f743858949d0cd64bc9641991797670e8bc19085a94db5b6155708",
      "blockNumber": "0x12d3984",
      "from": "0xA9DdD91249DFdd450E81E1c56Ab60E1A62651701",
      "to": "0xBBBBBbbBBb9cC5e90e3b3Af64bdAF62C37EEFFCb",
      "cumulativeGasUsed": "0x2345e2",
      "gasUsed": "0x30af3",
      "contractAddress": null,
      "logs": [
        {
          "address": "0xBBBBBbbBBb9cC5e90e3b3Af64bdAF62C37EEFFCb",
          "topics": [
            "0xac4b2400f169220b0c0afdde7a0b32e775ba727ea1cb30b35f935cdaab8683ac",
            "0x98f593f110c5ce358a3a0bedffd12207186060f194304b980f00440bb532d3f2"
          ],
          "data": "0x0000000000000000000000000000206329b97db379d5e1bf586bbdb969c63274000000000000000000000000a0021ef8970104c2d008f38d92f115ad56a9b8e100000000000000000000000081b379f99cee4ee08f8cbc476e80e756d3b172cc000000000000000000000000870ac11d48b15db9a138cf899d20f13f79ba00bc0000000000000000000000000000000000000000000000000bef55718ad60000",
          "blockHash": "0x85e1846174f743858949d0cd64bc9641991797670e8bc19085a94db5b6155708",
          "blockNumber": "0x12d3984",
          "transactionHash": "0x0ee1401fab1f7141d6fdaff74db691e0fe3f1f155589d477f4eb4e1829429754",
          "transactionIndex": "0x13",
          "logIndex": "0x41",
          "removed": false
        },
        {
          "address": "0x870aC11D48B15DB9a138Cf899d20F13F79Ba00BC",
          "topics": [
            "0x7120161a7b3d31251e01294ab351ef15a41b91659a36032e4641bb89b121e321",
            "0x98f593f110c5ce358a3a0bedffd12207186060f194304b980f00440bb532d3f2"
          ],
          "data": "0x0000000000000000000000000000000000000000000000000000000012e687bf000000000000000000000000000000000000000000000000000000004b9a1eff",
          "blockHash": "0x85e1846174f743858949d0cd64bc9641991797670e8bc19085a94db5b6155708",
          "blockNumber": "0x12d3984",
          "transactionHash": "0x0ee1401fab1f7141d6fdaff74db691e0fe3f1f155589d477f4eb4e1829429754",
          "transactionIndex": "0x13",
          "logIndex": "0x42",
          "removed": false
        }
      ],
      "status": "0x1",
      "logsBloom": "0x00000000000000000000000000000800000000000000000000000000000000000000000000000000000001000000200000000000000000000000000000844000000000000010000000000000000000000000000000200000000000000000000000000000000000000000000000000000000000000000000000000040000000000000000000000008000000000000000000000000000000000000000000000000000000000000000000000000000000000000000000000000000000000000000020000000000000000001000000000000000000000000000020000000000000000000000000000000000000000001000000000000000000000000000000000010",
      "type": "0x2",
      "effectiveGasPrice": "0x242477e23"
    },
    {
      "transactionHash": "0x84910d089746895adf3ca950a28e24ff8f3066ddb60fe96907b302225fefd3e4",
      "transactionIndex": "0x8",
      "blockHash": "0xc281b2b613b3475a6ebe885f519d23c82a067c0e209b932f51e026f17f326ef0",
      "blockNumber": "0x12d3985",
      "from": "0xA9DdD91249DFdd450E81E1c56Ab60E1A62651701",
      "to": "0x0000206329b97DB379d5E1Bf586BbDB969C63274",
      "cumulativeGasUsed": "0x128bdd",
      "gasUsed": "0x8dd2",
      "contractAddress": null,
      "logs": [
        {
          "address": "0x0000206329b97DB379d5E1Bf586BbDB969C63274",
          "topics": [
            "0x8c5be1e5ebec7d5bd14f71427d1e84f3dd0314c0f7b2291e5b200ac8c7c3b925",
            "0x000000000000000000000000a9ddd91249dfdd450e81e1c56ab60e1a62651701",
            "0x000000000000000000000000bbbbbbbbbb9cc5e90e3b3af64bdaf62c37eeffcb"
          ],
          "data": "0x000000000000000000000000000000000000000000000001158e460913d00000",
          "blockHash": "0xc281b2b613b3475a6ebe885f519d23c82a067c0e209b932f51e026f17f326ef0",
          "blockNumber": "0x12d3985",
          "transactionHash": "0x84910d089746895adf3ca950a28e24ff8f3066ddb60fe96907b302225fefd3e4",
          "transactionIndex": "0x8",
          "logIndex": "0x2c",
          "removed": false
        }
      ],
      "status": "0x1",
      "logsBloom": "0x00000000000000000000000000000080000000000000000000000000000000000000000000000000000000000000000000000000000000000000000000200000000000000000000000000000000004000000000000000000000000000000000000000000000000000000000000000000000000000000000000000000000000000000000000000000000000000000000000000000000000000000000000000000820000000000000000000000000000000000000000000000800000080000000000000000000000000000000000000000000000004000000000000000000000000010000001000000000000200000000000000000000000000000000000004000",
      "type": "0x2",
      "effectiveGasPrice": "0x23486451b"
    },
    {
      "transactionHash": "0x07f6f198fd85a1bf5c450bca2da0f5f72677842298e8d7333e3a578abc153ff3",
      "transactionIndex": "0x26",
      "blockHash": "0xdb468c28e8480b7e59ce49be88d028ab08c53467bfb11a94653567c152ab896b",
      "blockNumber": "0x12d3986",
      "from": "0xA9DdD91249DFdd450E81E1c56Ab60E1A62651701",
      "to": "0xBBBBBbbBBb9cC5e90e3b3Af64bdAF62C37EEFFCb",
      "cumulativeGasUsed": "0x520b35",
      "gasUsed": "0x20a2d",
      "contractAddress": null,
      "logs": [
        {
          "address": "0x870aC11D48B15DB9a138Cf899d20F13F79Ba00BC",
          "topics": [
            "0x7120161a7b3d31251e01294ab351ef15a41b91659a36032e4641bb89b121e321",
            "0x98f593f110c5ce358a3a0bedffd12207186060f194304b980f00440bb532d3f2"
          ],
          "data": "0x0000000000000000000000000000000000000000000000000000000012e6702e000000000000000000000000000000000000000000000000000000004b996277",
          "blockHash": "0xdb468c28e8480b7e59ce49be88d028ab08c53467bfb11a94653567c152ab896b",
          "blockNumber": "0x12d3986",
          "transactionHash": "0x07f6f198fd85a1bf5c450bca2da0f5f72677842298e8d7333e3a578abc153ff3",
          "transactionIndex": "0x26",
          "logIndex": "0xa6",
          "removed": false
        },
        {
          "address": "0xBBBBBbbBBb9cC5e90e3b3Af64bdAF62C37EEFFCb",
          "topics": [
            "0x9d9bd501d0657d7dfe415f779a620a62b78bc508ddc0891fbbd8b7ac0f8fce87",
            "0x98f593f110c5ce358a3a0bedffd12207186060f194304b980f00440bb532d3f2"
          ],
          "data": "0x0000000000000000000000000000000000000000000000000000000012e6702e00000000000000000000000000000000000000000000000000000000000000000000000000000000000000000000000000000000000000000000000000000000",
          "blockHash": "0xdb468c28e8480b7e59ce49be88d028ab08c53467bfb11a94653567c152ab896b",
          "blockNumber": "0x12d3986",
          "transactionHash": "0x07f6f198fd85a1bf5c450bca2da0f5f72677842298e8d7333e3a578abc153ff3",
          "transactionIndex": "0x26",
          "logIndex": "0xa7",
          "removed": false
        },
        {
          "address": "0xBBBBBbbBBb9cC5e90e3b3Af64bdAF62C37EEFFCb",
          "topics": [
            "0xedf8870433c83823eb071d3df1caa8d008f12f6440918c20d75a3602cda30fe0",
            "0x98f593f110c5ce358a3a0bedffd12207186060f194304b980f00440bb532d3f2",
            "0x000000000000000000000000a9ddd91249dfdd450e81e1c56ab60e1a62651701",
            "0x000000000000000000000000a9ddd91249dfdd450e81e1c56ab60e1a62651701"
          ],
          "data": "0x0000000000000000000000000000000000000000000000000de0b6b3a764000000000000000000000000000000000000000000000000d3c21bcecceda1000000",
          "blockHash": "0xdb468c28e8480b7e59ce49be88d028ab08c53467bfb11a94653567c152ab896b",
          "blockNumber": "0x12d3986",
          "transactionHash": "0x07f6f198fd85a1bf5c450bca2da0f5f72677842298e8d7333e3a578abc153ff3",
          "transactionIndex": "0x26",
          "logIndex": "0xa8",
          "removed": false
        },
        {
          "address": "0x0000206329b97DB379d5E1Bf586BbDB969C63274",
          "topics": [
            "0x8c5be1e5ebec7d5bd14f71427d1e84f3dd0314c0f7b2291e5b200ac8c7c3b925",
            "0x000000000000000000000000a9ddd91249dfdd450e81e1c56ab60e1a62651701",
            "0x000000000000000000000000bbbbbbbbbb9cc5e90e3b3af64bdaf62c37eeffcb"
          ],
          "data": "0x00000000000000000000000000000000000000000000000107ad8f556c6c0000",
          "blockHash": "0xdb468c28e8480b7e59ce49be88d028ab08c53467bfb11a94653567c152ab896b",
          "blockNumber": "0x12d3986",
          "transactionHash": "0x07f6f198fd85a1bf5c450bca2da0f5f72677842298e8d7333e3a578abc153ff3",
          "transactionIndex": "0x26",
          "logIndex": "0xa9",
          "removed": false
        },
        {
          "address": "0x0000206329b97DB379d5E1Bf586BbDB969C63274",
          "topics": [
            "0xddf252ad1be2c89b69c2b068fc378daa952ba7f163c4a11628f55a4df523b3ef",
            "0x000000000000000000000000a9ddd91249dfdd450e81e1c56ab60e1a62651701",
            "0x000000000000000000000000bbbbbbbbbb9cc5e90e3b3af64bdaf62c37eeffcb"
          ],
          "data": "0x0000000000000000000000000000000000000000000000000de0b6b3a7640000",
          "blockHash": "0xdb468c28e8480b7e59ce49be88d028ab08c53467bfb11a94653567c152ab896b",
          "blockNumber": "0x12d3986",
          "transactionHash": "0x07f6f198fd85a1bf5c450bca2da0f5f72677842298e8d7333e3a578abc153ff3",
          "transactionIndex": "0x26",
          "logIndex": "0xaa",
          "removed": false
        }
      ],
      "status": "0x1",
      "logsBloom": "0x00000000000000000000000000000080000000000000000000000000000000000000400000000000000001000000200000000000000000000000000020a44000000000000010000000000008800004000000000800200000000000080000000000000000000000000000000000000000000000000000000000000010000000000000000000000008000000000000000000000000000000000000000000000000820000000000000000000000000000000000000000000000800000080000000020000002000000000001000000000000000000004000000020000000000000400010000001000000000000200001000000000000000000000000000000004000",
      "type": "0x2",
      "effectiveGasPrice": "0x23d1390c7"
    },
    {
      "transactionHash": "0x4f1b930d08085f73ffecaaad62e2641840e4ffc59e9cd8e0bda982ddb963ee8e",
      "transactionIndex": "0x1d",
      "blockHash": "0xa57c19503099a692a189265351e145755b77e75b4e95ecb96bfa22384f420ff0",
      "blockNumber": "0x12d3987",
      "from": "0xA9DdD91249DFdd450E81E1c56Ab60E1A62651701",
      "to": "0xa0021EF8970104c2d008F38D92f115ad56a9B8e1",
      "cumulativeGasUsed": "0x37787c",
      "gasUsed": "0xb3a8",
      "contractAddress": null,
      "logs": [
        {
          "address": "0xa0021EF8970104c2d008F38D92f115ad56a9B8e1",
          "topics": [
            "0x8c5be1e5ebec7d5bd14f71427d1e84f3dd0314c0f7b2291e5b200ac8c7c3b925",
            "0x000000000000000000000000a9ddd91249dfdd450e81e1c56ab60e1a62651701",
            "0x000000000000000000000000bbbbbbbbbb9cc5e90e3b3af64bdaf62c37eeffcb"
          ],
          "data": "0x0000000000000000000000000000000000000000000000008ac7230489e80000",
          "blockHash": "0xa57c19503099a692a189265351e145755b77e75b4e95ecb96bfa22384f420ff0",
          "blockNumber": "0x12d3987",
          "transactionHash": "0x4f1b930d08085f73ffecaaad62e2641840e4ffc59e9cd8e0bda982ddb963ee8e",
          "transactionIndex": "0x1d",
          "logIndex": "0x6d",
          "removed": false
        }
      ],
      "status": "0x1",
      "logsBloom": "0x00000000000000000000000000000080000000000000000200000000000000000000000000000000000000000000000000000000000000000000000000200000000000000000000000000000000000000000000000000000000000000000000000000000000000000000000000000100000000000000000000000000000000000000000000000000000000000000000000000000000000000000000000000000820000000000000000000000000000000000000000000000800000080000000000000000000000000000000000000000000000000000000000000000000000000010000001000000000000200000000000000000000000000000000000040000",
      "type": "0x2",
      "effectiveGasPrice": "0x23a1b691f"
    },
    {
      "transactionHash": "0x95628fdc68dad19ce40e719e0974f106b30ce716bada1d527ba6c4a4bb7a835f",
      "transactionIndex": "0x18",
      "blockHash": "0x83b44407282606a551308e81bca051f50de6691596cc660a6ec1918eb24f0b11",
      "blockNumber": "0x12d3988",
      "from": "0xA9DdD91249DFdd450E81E1c56Ab60E1A62651701",
      "to": "0xBBBBBbbBBb9cC5e90e3b3Af64bdAF62C37EEFFCb",
      "cumulativeGasUsed": "0x2e0288",
      "gasUsed": "0x161a7",
      "contractAddress": null,
      "logs": [
        {
          "address": "0xBBBBBbbBBb9cC5e90e3b3Af64bdAF62C37EEFFCb",
          "topics": [
            "0xa3b9472a1399e17e123f3c2e6586c23e504184d504de59cdaa2b375e880c6184",
            "0x98f593f110c5ce358a3a0bedffd12207186060f194304b980f00440bb532d3f2",
            "0x000000000000000000000000a9ddd91249dfdd450e81e1c56ab60e1a62651701",
            "0x000000000000000000000000a9ddd91249dfdd450e81e1c56ab60e1a62651701"
          ],
          "data": "0x0000000000000000000000000000000000000000000000008ac7230489e80000",
          "blockHash": "0x83b44407282606a551308e81bca051f50de6691596cc660a6ec1918eb24f0b11",
          "blockNumber": "0x12d3988",
          "transactionHash": "0x95628fdc68dad19ce40e719e0974f106b30ce716bada1d527ba6c4a4bb7a835f",
          "transactionIndex": "0x18",
          "logIndex": "0x67",
          "removed": false
        },
        {
          "address": "0xa0021EF8970104c2d008F38D92f115ad56a9B8e1",
          "topics": [
            "0x8c5be1e5ebec7d5bd14f71427d1e84f3dd0314c0f7b2291e5b200ac8c7c3b925",
            "0x000000000000000000000000a9ddd91249dfdd450e81e1c56ab60e1a62651701",
            "0x000000000000000000000000bbbbbbbbbb9cc5e90e3b3af64bdaf62c37eeffcb"
          ],
          "data": "0x0000000000000000000000000000000000000000000000000000000000000000",
          "blockHash": "0x83b44407282606a551308e81bca051f50de6691596cc660a6ec1918eb24f0b11",
          "blockNumber": "0x12d3988",
          "transactionHash": "0x95628fdc68dad19ce40e719e0974f106b30ce716bada1d527ba6c4a4bb7a835f",
          "transactionIndex": "0x18",
          "logIndex": "0x68",
          "removed": false
        },
        {
          "address": "0xa0021EF8970104c2d008F38D92f115ad56a9B8e1",
          "topics": [
            "0xddf252ad1be2c89b69c2b068fc378daa952ba7f163c4a11628f55a4df523b3ef",
            "0x000000000000000000000000a9ddd91249dfdd450e81e1c56ab60e1a62651701",
            "0x000000000000000000000000bbbbbbbbbb9cc5e90e3b3af64bdaf62c37eeffcb"
          ],
          "data": "0x0000000000000000000000000000000000000000000000008ac7230489e80000",
          "blockHash": "0x83b44407282606a551308e81bca051f50de6691596cc660a6ec1918eb24f0b11",
          "blockNumber": "0x12d3988",
          "transactionHash": "0x95628fdc68dad19ce40e719e0974f106b30ce716bada1d527ba6c4a4bb7a835f",
          "transactionIndex": "0x18",
          "logIndex": "0x69",
          "removed": false
        }
      ],
      "status": "0x1",
      "logsBloom": "0x00000000000000000000000000000080000000000000000200000000000000000000000000000000000001000000200000000000000000000000000000200000000000000010000000000008000000000000000000000000000000000000000000000000000000000000000000000100000000000000000000000010000000000000008000000008000000000000000000000000000000000000000000000000820000000000000000000000000000000000000000000000800000080000000020000002000000000000000000000000000000000000000420000000000000000010000001000000000000200000200000000000000000000000000000040000",
      "type": "0x2",
      "effectiveGasPrice": "0x241b30904"
    },
    {
      "transactionHash": "0x642212da274836ec598f23000f2ecb5e2fba41e7f348693577a727286b1e2c8a",
      "transactionIndex": "0x2b",
      "blockHash": "0xc70eaa56758b70fe716bb408c20bed8d57bb6404b9028b2d287f5959413acecc",
      "blockNumber": "0x12d3989",
      "from": "0xA9DdD91249DFdd450E81E1c56Ab60E1A62651701",
      "to": "0xBBBBBbbBBb9cC5e90e3b3Af64bdAF62C37EEFFCb",
      "cumulativeGasUsed": "0x5b9b1f",
      "gasUsed": "0x38995",
      "contractAddress": null,
      "logs": [
        {
          "address": "0x870aC11D48B15DB9a138Cf899d20F13F79Ba00BC",
          "topics": [
            "0x7120161a7b3d31251e01294ab351ef15a41b91659a36032e4641bb89b121e321",
            "0x98f593f110c5ce358a3a0bedffd12207186060f194304b980f00440bb532d3f2"
          ],
          "data": "0x0000000000000000000000000000000000000000000000000000000012e63544000000000000000000000000000000000000000000000000000000004b9847af",
          "blockHash": "0xc70eaa56758b70fe716bb408c20bed8d57bb6404b9028b2d287f5959413acecc",
          "blockNumber": "0x12d3989",
          "transactionHash": "0x642212da274836ec598f23000f2ecb5e2fba41e7f348693577a727286b1e2c8a",
          "transactionIndex": "0x2b",
          "logIndex": "0xbf",
          "removed": false
        },
        {
          "address": "0xBBBBBbbBBb9cC5e90e3b3Af64bdAF62C37EEFFCb",
          "topics": [
            "0x9d9bd501d0657d7dfe415f779a620a62b78bc508ddc0891fbbd8b7ac0f8fce87",
            "0x98f593f110c5ce358a3a0bedffd12207186060f194304b980f00440bb532d3f2"
          ],
          "data": "0x0000000000000000000000000000000000000000000000000000000012e6354400000000000000000000000000000000000000000000000000000000000000000000000000000000000000000000000000000000000000000000000000000000",
          "blockHash": "0xc70eaa56758b70fe716bb408c20bed8d57bb6404b9028b2d287f5959413acecc",
          "blockNumber": "0x12d3989",
          "transactionHash": "0x642212da274836ec598f23000f2ecb5e2fba41e7f348693577a727286b1e2c8a",
          "transactionIndex": "0x2b",
          "logIndex": "0xc0",
          "removed": false
        },
        {
          "address": "0xBBBBBbbBBb9cC5e90e3b3Af64bdAF62C37EEFFCb",
          "topics": [
            "0x570954540bed6b1304a87dfe815a5eda4a648f7097a16240dcd85c9b5fd42a43",
            "0x98f593f110c5ce358a3a0bedffd12207186060f194304b980f00440bb532d3f2",
            "0x000000000000000000000000a9ddd91249dfdd450e81e1c56ab60e1a62651701",
            "0x000000000000000000000000a9ddd91249dfdd450e81e1c56ab60e1a62651701"
          ],
          "data": "0x000000000000000000000000a9ddd91249dfdd450e81e1c56ab60e1a626517010000000000000000000000000000000000000000000000000de0b6b3a764000000000000000000000000000000000000000000000000d3c21bcecceda1000000",
          "blockHash": "0xc70eaa56758b70fe716bb408c20bed8d57bb6404b9028b2d287f5959413acecc",
          "blockNumber": "0x12d3989",
          "transactionHash": "0x642212da274836ec598f23000f2ecb5e2fba41e7f348693577a727286b1e2c8a",
          "transactionIndex": "0x2b",
          "logIndex": "0xc1",
          "removed": false
        },
        {
          "address": "0x0000206329b97DB379d5E1Bf586BbDB969C63274",
          "topics": [
            "0xddf252ad1be2c89b69c2b068fc378daa952ba7f163c4a11628f55a4df523b3ef",
            "0x000000000000000000000000bbbbbbbbbb9cc5e90e3b3af64bdaf62c37eeffcb",
            "0x000000000000000000000000a9ddd91249dfdd450e81e1c56ab60e1a62651701"
          ],
          "data": "0x0000000000000000000000000000000000000000000000000de0b6b3a7640000",
          "blockHash": "0xc70eaa56758b70fe716bb408c20bed8d57bb6404b9028b2d287f5959413acecc",
          "blockNumber": "0x12d3989",
          "transactionHash": "0x642212da274836ec598f23000f2ecb5e2fba41e7f348693577a727286b1e2c8a",
          "transactionIndex": "0x2b",
          "logIndex": "0xc2",
          "removed": false
        }
      ],
      "status": "0x1",
      "logsBloom": "0x00000000000000000002000000000080000000000000000000000000000000000000400000000000000001000000200000000000000000000000000020844000000000000010000000000008000004000000000000200000000000080000000000000000000000000000000000000000000000000000000000000010000000000000000000000008000000000000000000000000000000000000000000000000800000000000000000000000000000000000000000000000800000080000000020000002000000000001000000000000000000004000000020000000000000000000004001000008000000200001000000000000000000000000000000004000",
      "type": "0x2",
      "effectiveGasPrice": "0x235ac4f02"
    }
  ],
  "libraries": [],
  "pending": [],
  "returns": {},
  "timestamp": 1714153149,
  "chain": 1,
  "multi": false,
  "commit": "351f548"
}